{
	"data": {
		"bytecode": {
			"linkReferences": {},
			"object": "6106806040526105cd60808181529062003cf160a03980516200002b91600f9160209091019062000155565b5060408051808201909152600d8082526c1e17ba32bc3a1f1e17b9bb339f60991b6020909201918252620000629160109162000155565b50604051620042be380380620042be833981016040819052620000859162000211565b60408051808201825260128152714d65746572204e616d65205365727669636560701b6020808301918252835180850190945260038452624d4e5360e81b908401528151919291620000da9160009162000155565b508051620000f090600190602084019062000155565b5050600a80546001600160a01b031916331790555083516200011a90600990602087019062000155565b50600c839055600d829055600e81905562000142600b6200014c602090811b620021e117901c565b5050505062000345565b80546001019055565b828054620001639062000309565b90600052602060002090601f016020900481019282620001875760008555620001d2565b82601f10620001a257805160ff1916838001178555620001d2565b82800160010185558215620001d2579182015b82811115620001d2578251825591602001919060010190620001b5565b50620001e0929150620001e4565b5090565b5b80821115620001e05760008155600101620001e5565b634e487b7160e01b600052604160045260246000fd5b600080600080608085870312156200022857600080fd5b84516001600160401b03808211156200024057600080fd5b818701915087601f8301126200025557600080fd5b8151818111156200026a576200026a620001fb565b604051601f8201601f19908116603f01168101908382118183101715620002955762000295620001fb565b81604052828152602093508a84848701011115620002b257600080fd5b600091505b82821015620002d65784820184015181830185015290830190620002b7565b82821115620002e85760008484830101525b9289015160408a01516060909a0151939b909a509297509195505050505050565b600181811c908216806200031e57607f821691505b6020821081036200033f57634e487b7160e01b600052602260045260246000fd5b50919050565b61399c80620003556000396000f3fe60806040526004361061021a5760003560e01c80638da5cb5b11610123578063bf40fac1116100ab578063f0f193461161006f578063f0f193461461068c578063f2c298be146106ac578063f5064fd0146106bf578063fb825e5f146106df578063fe2c61981461070157600080fd5b8063bf40fac1146105cd578063c87b56dd146105ed578063d7e915d51461060d578063e327ad6114610623578063e985e9c51461064357600080fd5b80639791c097116100f25780639791c0971461052d578063a22cb4651461054d578063aa585d561461056d578063b88d4fde1461058d578063bee51f3b146105ad57600080fd5b80638da5cb5b146104b85780638f32d59b146104d857806395d89b41146104f85780639751e9f11461050d57600080fd5b8063438b6300116101a65780636352211e116101755780636352211e146103fc57806370a082311461041c5780638600c8b21461043c57806386e80b71146104525780638a08677d1461048057600080fd5b8063438b63001461035a5780634622ab03146103875780634e82dc89146103a7578063541e771d146103cb57600080fd5b806315bf7227116101ed57806315bf7227146102d057806323b872dd146102f05780632d551432146103105780633ccfd60b1461032557806342842e0e1461033a57600080fd5b806301ffc9a71461021f57806306fdde0314610254578063081812fc14610276578063095ea7b3146102ae575b600080fd5b34801561022b57600080fd5b5061023f61023a366004612d12565b610721565b60405190151581526020015b60405180910390f35b34801561026057600080fd5b50610269610773565b60405161024b9190612d87565b34801561028257600080fd5b50610296610291366004612d9a565b610805565b6040516001600160a01b03909116815260200161024b565b3480156102ba57600080fd5b506102ce6102c9366004612dcf565b61089f565b005b3480156102dc57600080fd5b506102ce6102eb366004612e3a565b6109b4565b3480156102fc57600080fd5b506102ce61030b366004612e8d565b610a9f565b34801561031c57600080fd5b50610269610ad0565b34801561033157600080fd5b506102ce610b5e565b34801561034657600080fd5b506102ce610355366004612e8d565b610c0c565b34801561036657600080fd5b5061037a610375366004612ec9565b610c27565b60405161024b9190612ee4565b34801561039357600080fd5b506102696103a2366004612d9a565b610d06565b3480156103b357600080fd5b506103bd600e5481565b60405190815260200161024b565b3480156103d757600080fd5b506103eb6103e6366004612fd3565b610d1f565b60405161024b959493929190613007565b34801561040857600080fd5b50610296610417366004612d9a565b611000565b34801561042857600080fd5b506103bd610437366004612ec9565b611077565b34801561044857600080fd5b506103bd600c5481565b34801561045e57600080fd5b5061047261046d366004613074565b6110fe565b60405161024b92919061310a565b34801561048c57600080fd5b506103bd61049b366004612fd3565b805160208183018101805160088252928201919093012091525481565b3480156104c457600080fd5b50600a54610296906001600160a01b031681565b3480156104e457600080fd5b50600a546001600160a01b0316331461023f565b34801561050457600080fd5b5061026961153c565b34801561051957600080fd5b50610269610528366004613143565b61154b565b34801561053957600080fd5b5061023f610548366004613074565b611775565b34801561055957600080fd5b506102ce61056836600461318d565b61180b565b34801561057957600080fd5b506102ce6105883660046131c9565b611816565b34801561059957600080fd5b506102ce6105a83660046131f5565b61183b565b3480156105b957600080fd5b506103bd6105c8366004613074565b61186d565b3480156105d957600080fd5b506102966105e8366004613074565b6118c5565b3480156105f957600080fd5b50610269610608366004612d9a565b6118d4565b34801561061957600080fd5b506103bd600d5481565b34801561062f57600080fd5b5061023f61063e366004612fd3565b611bb5565b34801561064f57600080fd5b5061023f61065e366004613270565b6001600160a01b03918216600090815260056020908152604080832093909416825291909152205460ff1690565b34801561069857600080fd5b506102ce6106a73660046132a3565b611bc8565b6102ce6106ba366004613074565b611d13565b3480156106cb57600080fd5b506102ce6106da3660046133bb565b611e5a565b3480156106eb57600080fd5b506106f4612016565b60405161024b919061343b565b34801561070d57600080fd5b506103bd61071c366004613074565b612162565b60006001600160e01b031982166380ac58cd60e01b148061075257506001600160e01b03198216635b5e139f60e01b145b8061076d57506301ffc9a760e01b6001600160e01b03198316145b92915050565b6060600080546107829061344e565b80601f01602080910402602001604051908101604052809291908181526020018280546107ae9061344e565b80156107fb5780601f106107d0576101008083540402835291602001916107fb565b820191906000526020600020905b8154815290600101906020018083116107de57829003601f168201915b5050505050905090565b6000818152600260205260408120546001600160a01b03166108835760405162461bcd60e51b815260206004820152602c60248201527f4552433732313a20617070726f76656420717565727920666f72206e6f6e657860448201526b34b9ba32b73a103a37b5b2b760a11b60648201526084015b60405180910390fd5b506000908152600460205260409020546001600160a01b031690565b60006108aa82611000565b9050806001600160a01b0316836001600160a01b0316036109175760405162461bcd60e51b815260206004820152602160248201527f4552433732313a20617070726f76616c20746f2063757272656e74206f776e656044820152603960f91b606482015260840161087a565b336001600160a01b03821614806109335750610933813361065e565b6109a55760405162461bcd60e51b815260206004820152603860248201527f4552433732313a20617070726f76652063616c6c6572206973206e6f74206f7760448201527f6e6572206e6f7220617070726f76656420666f7220616c6c0000000000000000606482015260840161087a565b6109af83836121ea565b505050565b600a546001600160a01b031633146109cb57600080fd5b600883836040516109dd929190613482565b908152602001604051809103902054600014610a0c57604051630ea075bf60e21b815260040160405180910390fd5b610a168383611775565b610a37578282604051637f19f48d60e01b815260040161087a929190613492565b6000610a42600b5490565b9050610a4e8282612258565b6000818152600760205260409020610a67908585612bec565b508060088585604051610a7b929190613482565b90815260405190819003602001902055610a99600b80546001019055565b50505050565b610aa93382612272565b610ac55760405162461bcd60e51b815260040161087a906134c1565b6109af838383612369565b60098054610add9061344e565b80601f0160208091040260200160405190810160405280929190818152602001828054610b099061344e565b8015610b565780601f10610b2b57610100808354040283529160200191610b56565b820191906000526020600020905b815481529060010190602001808311610b3957829003601f168201915b505050505081565b600a546001600160a01b03163314610b7557600080fd5b6040514790600090339083908381818185875af1925050503d8060008114610bb9576040519150601f19603f3d011682016040523d82523d6000602084013e610bbe565b606091505b5050905080610c085760405162461bcd60e51b81526020600482015260166024820152752330b4b632b2103a37903bb4ba34323930bb9026aa2960511b604482015260640161087a565b5050565b6109af8383836040518060200160405280600081525061183b565b60606000610c3483611077565b90506000816001600160401b03811115610c5057610c50612f28565b604051908082528060200260200182016040528015610c79578160200160208202803683370190505b509050600160005b8381108015610c925750600b548211155b15610cfc576000610ca283611000565b9050866001600160a01b0316816001600160a01b031603610ce95782848381518110610cd057610cd0613512565b602090810291909101015281610ce58161353e565b9250505b82610cf38161353e565b93505050610c81565b5090949350505050565b60076020526000908152604090208054610add9061344e565b8051602081830181018051600682529282019190930120915280548190610d459061344e565b80601f0160208091040260200160405190810160405280929190818152602001828054610d719061344e565b8015610dbe5780601f10610d9357610100808354040283529160200191610dbe565b820191906000526020600020905b815481529060010190602001808311610da157829003601f168201915b505050505090806001018054610dd39061344e565b80601f0160208091040260200160405190810160405280929190818152602001828054610dff9061344e565b8015610e4c5780601f10610e2157610100808354040283529160200191610e4c565b820191906000526020600020905b815481529060010190602001808311610e2f57829003601f168201915b505050505090806002018054610e619061344e565b80601f0160208091040260200160405190810160405280929190818152602001828054610e8d9061344e565b8015610eda5780601f10610eaf57610100808354040283529160200191610eda565b820191906000526020600020905b815481529060010190602001808311610ebd57829003601f168201915b505050505090806003018054610eef9061344e565b80601f0160208091040260200160405190810160405280929190818152602001828054610f1b9061344e565b8015610f685780601f10610f3d57610100808354040283529160200191610f68565b820191906000526020600020905b815481529060010190602001808311610f4b57829003601f168201915b505050505090806004018054610f7d9061344e565b80601f0160208091040260200160405190810160405280929190818152602001828054610fa99061344e565b8015610ff65780601f10610fcb57610100808354040283529160200191610ff6565b820191906000526020600020905b815481529060010190602001808311610fd957829003601f168201915b5050505050905085565b6000818152600260205260408120546001600160a01b03168061076d5760405162461bcd60e51b815260206004820152602960248201527f4552433732313a206f776e657220717565727920666f72206e6f6e657869737460448201526832b73a103a37b5b2b760b91b606482015260840161087a565b60006001600160a01b0382166110e25760405162461bcd60e51b815260206004820152602a60248201527f4552433732313a2062616c616e636520717565727920666f7220746865207a65604482015269726f206164647265737360b01b606482015260840161087a565b506001600160a01b031660009081526003602052604090205490565b606060008061110d85856118c5565b60408051600580825260c0820190925291925060009190816020015b606081526020019060019003908161112957905050905060068686604051611152929190613482565b908152604051908190036020019020805461116c9061344e565b80601f01602080910402602001604051908101604052809291908181526020018280546111989061344e565b80156111e55780601f106111ba576101008083540402835291602001916111e5565b820191906000526020600020905b8154815290600101906020018083116111c857829003601f168201915b5050505050816000815181106111fd576111fd613512565b60200260200101819052506006868660405161121a929190613482565b908152602001604051809103902060010180546112369061344e565b80601f01602080910402602001604051908101604052809291908181526020018280546112629061344e565b80156112af5780601f10611284576101008083540402835291602001916112af565b820191906000526020600020905b81548152906001019060200180831161129257829003601f168201915b5050505050816001815181106112c7576112c7613512565b6020026020010181905250600686866040516112e4929190613482565b908152602001604051809103902060020180546113009061344e565b80601f016020809104026020016040519081016040528092919081815260200182805461132c9061344e565b80156113795780601f1061134e57610100808354040283529160200191611379565b820191906000526020600020905b81548152906001019060200180831161135c57829003601f168201915b50505050508160028151811061139157611391613512565b6020026020010181905250600686866040516113ae929190613482565b908152602001604051809103902060030180546113ca9061344e565b80601f01602080910402602001604051908101604052809291908181526020018280546113f69061344e565b80156114435780601f1061141857610100808354040283529160200191611443565b820191906000526020600020905b81548152906001019060200180831161142657829003601f168201915b50505050508160038151811061145b5761145b613512565b602002602001018190525060068686604051611478929190613482565b908152602001604051809103902060040180546114949061344e565b80601f01602080910402602001604051908101604052809291908181526020018280546114c09061344e565b801561150d5780601f106114e25761010080835404028352916020019161150d565b820191906000526020600020905b8154815290600101906020018083116114f057829003601f168201915b50505050508160048151811061152557611525613512565b6020908102919091010152925090505b9250929050565b6060600180546107829061344e565b6060600082600481111561156157611561613557565b036116175760068484604051611578929190613482565b90815260405190819003602001902080546115929061344e565b80601f01602080910402602001604051908101604052809291908181526020018280546115be9061344e565b801561160b5780601f106115e05761010080835404028352916020019161160b565b820191906000526020600020905b8154815290600101906020018083116115ee57829003601f168201915b5050505050905061176e565b600182600481111561162b5761162b613557565b0361165e5760068484604051611642929190613482565b908152602001604051809103902060010180546115929061344e565b600282600481111561167257611672613557565b036116a55760068484604051611689929190613482565b908152602001604051809103902060020180546115929061344e565b60038260048111156116b9576116b9613557565b036116ec57600684846040516116d0929190613482565b908152602001604051809103902060030180546115929061344e565b600482600481111561170057611700613557565b036117335760068484604051611717929190613482565b908152602001604051809103902060040180546115929061344e565b60405162461bcd60e51b815260206004820152601060248201526f149958dbdc99081b9bdd08199bdd5b9960821b604482015260640161087a565b9392505050565b600060036117b884848080601f01602080910402602001604051908101604052809392919081815260200183838082843760009201919091525061250992505050565b1015801561176e5750601e61180284848080601f01602080910402602001604051908101604052809392919081815260200183838082843760009201919091525061250992505050565b11159392505050565b610c0833838361260c565b600a546001600160a01b0316331461182d57600080fd5b600c92909255600d55600e55565b6118453383612272565b6118615760405162461bcd60e51b815260040161087a906134c1565b610a99848484846126da565b600060088383604051611881929190613482565b90815260200160405180910390205460000361189c57600080fd5b600883836040516118ae929190613482565b908152602001604051809103902054905092915050565b600061176e610417848461186d565b60008181526007602052604090208054606091611977916118f49061344e565b80601f01602080910402602001604051908101604052809291908181526020018280546119209061344e565b801561196d5780601f106119425761010080835404028352916020019161196d565b820191906000526020600020905b81548152906001019060200180831161195057829003601f168201915b5050505050611bb5565b6119b55760405162461bcd60e51b815260206004820152600f60248201526e20b2323932b9b9903ab735b737bbb760891b604482015260640161087a565b600082815260076020908152604080832090516119d59260099101613606565b604051602081830303815290604052905060006119f182612509565b905060006119fe8261270d565b90506060611a41600660076000898152602001908152602001600020604051611a27919061362f565b90815260405190819003602001902080546118f49061344e565b15611b0357600086815260076020526040908190209051600691611a649161362f565b9081526040519081900360200190208054611a7e9061344e565b80601f0160208091040260200160405190810160405280929190818152602001828054611aaa9061344e565b8015611af75780601f10611acc57610100808354040283529160200191611af7565b820191906000526020600020905b815481529060010190602001808311611ada57829003601f168201915b50505050509050611b59565b6000600f856010604051602001611b1c9392919061363b565b6040516020818303038152906040529050611b368161280d565b604051602001611b46919061366e565b6040516020818303038152906040529150505b6000611b87858385604051602001611b73939291906136b3565b60405160208183030381529060405261280d565b905080604051602001611b9a9190613790565b60405160208183030381529060405295505050505050919050565b6000611bc082612509565b151592915050565b611bd28b8b6118c5565b6001600160a01b0316336001600160a01b031614611c02576040516282b42960e81b815260040160405180910390fd5b8860068c8c604051611c15929190613482565b90815260200160405180910390206000019080519060200190611c39929190612c70565b50878760068d8d604051611c4e929190613482565b90815260200160405180910390206001019190611c6c929190612bec565b50858560068d8d604051611c81929190613482565b90815260200160405180910390206002019190611c9f929190612bec565b50838360068d8d604051611cb4929190613482565b90815260200160405180910390206003019190611cd2929190612bec565b50818160068d8d604051611ce7929190613482565b90815260200160405180910390206004019190611d05929190612bec565b505050505050505050505050565b60088282604051611d25929190613482565b908152602001604051809103902054600014611d5457604051630ea075bf60e21b815260040160405180910390fd5b611d5e8282611775565b611d7f578181604051637f19f48d60e01b815260040161087a929190613492565b604051631fc58c3360e31b8152600090309063fe2c619890611da79086908690600401613492565b602060405180830381865afa158015611dc4573d6000803e3d6000fd5b505050506040513d601f19601f82011682018060405250810190611de891906137d5565b600a549091506001600160a01b03163314611e435780341015611e435760405162461bcd60e51b8152602060048201526013602482015272139bdd08195b9bdd59da08135514881c185a59606a1b604482015260640161087a565b6000611e4e600b5490565b9050610a4e3382612258565b611e6485856118c5565b6001600160a01b0316336001600160a01b031614611e94576040516282b42960e81b815260040160405180910390fd5b6000816004811115611ea857611ea8613557565b03611ee157828260068787604051611ec1929190613482565b908152604051908190036020019020611edb929091612bec565b5061200f565b6001816004811115611ef557611ef5613557565b03611f2c57828260068787604051611f0e929190613482565b90815260200160405180910390206001019190611edb929190612bec565b6002816004811115611f4057611f40613557565b03611f7757828260068787604051611f59929190613482565b90815260200160405180910390206002019190611edb929190612bec565b6003816004811115611f8b57611f8b613557565b03611fc257828260068787604051611fa4929190613482565b90815260200160405180910390206003019190611edb929190612bec565b6004816004811115611fd657611fd6613557565b0361200f57828260068787604051611fef929190613482565b9081526020016040518091039020600401919061200d929190612bec565b505b5050505050565b606060006001612025600b5490565b61202f91906137ee565b6001600160401b0381111561204657612046612f28565b60405190808252806020026020018201604052801561207957816020015b60608152602001906001900390816120645790505b50905060015b600b5481101561215c57600081815260076020526040902080546120a29061344e565b80601f01602080910402602001604051908101604052809291908181526020018280546120ce9061344e565b801561211b5780601f106120f05761010080835404028352916020019161211b565b820191906000526020600020905b8154815290600101906020018083116120fe57829003601f168201915b50505050508260018361212e91906137ee565b8151811061213e5761213e613512565b602002602001018190525080806121549061353e565b91505061207f565b50919050565b6000806121a484848080601f01602080910402602001604051908101604052809392919081815260200183838082843760009201919091525061250992505050565b9050600081116121b357600080fd5b806003036121c5575050600c5461076d565b600681116121d7575050600d5461076d565b5050600e5461076d565b80546001019055565b600081815260046020526040902080546001600160a01b0319166001600160a01b038416908117909155819061221f82611000565b6001600160a01b03167f8c5be1e5ebec7d5bd14f71427d1e84f3dd0314c0f7b2291e5b200ac8c7c3b92560405160405180910390a45050565b610c08828260405180602001604052806000815250612976565b6000818152600260205260408120546001600160a01b03166122eb5760405162461bcd60e51b815260206004820152602c60248201527f4552433732313a206f70657261746f7220717565727920666f72206e6f6e657860448201526b34b9ba32b73a103a37b5b2b760a11b606482015260840161087a565b60006122f683611000565b9050806001600160a01b0316846001600160a01b031614806123315750836001600160a01b031661232684610805565b6001600160a01b0316145b8061236157506001600160a01b0380821660009081526005602090815260408083209388168352929052205460ff165b949350505050565b826001600160a01b031661237c82611000565b6001600160a01b0316146123e45760405162461bcd60e51b815260206004820152602960248201527f4552433732313a207472616e73666572206f6620746f6b656e2074686174206960448201526839903737ba1037bbb760b91b606482015260840161087a565b6001600160a01b0382166124465760405162461bcd60e51b8152602060048201526024808201527f4552433732313a207472616e7366657220746f20746865207a65726f206164646044820152637265737360e01b606482015260840161087a565b6124516000826121ea565b6001600160a01b038316600090815260036020526040812080546001929061247a9084906137ee565b90915550506001600160a01b03821660009081526003602052604081208054600192906124a8908490613805565b909155505060008181526002602052604080822080546001600160a01b0319166001600160a01b0386811691821790925591518493918716917fddf252ad1be2c89b69c2b068fc378daa952ba7f163c4a11628f55a4df523b3ef91a4505050565b8051600090819081905b8082101561260357600085838151811061252f5761252f613512565b01602001516001600160f81b0319169050600160ff1b81101561255e57612557600184613805565b92506125f0565b600760fd1b6001600160f81b03198216101561257f57612557600284613805565b600f60fc1b6001600160f81b0319821610156125a057612557600384613805565b601f60fb1b6001600160f81b0319821610156125c157612557600484613805565b603f60fa1b6001600160f81b0319821610156125e257612557600584613805565b6125ed600684613805565b92505b50826125fb8161353e565b935050612513565b50909392505050565b816001600160a01b0316836001600160a01b03160361266d5760405162461bcd60e51b815260206004820152601960248201527f4552433732313a20617070726f766520746f2063616c6c657200000000000000604482015260640161087a565b6001600160a01b03838116600081815260056020908152604080832094871680845294825291829020805460ff191686151590811790915591519182527f17307eab39ab6107e8899845ad3d59bd9653f200f220920489ca2b5937696c31910160405180910390a3505050565b6126e5848484612369565b6126f1848484846129a9565b610a995760405162461bcd60e51b815260040161087a9061381d565b6060816000036127345750506040805180820190915260018152600360fc1b602082015290565b8160005b811561275e57806127488161353e565b91506127579050600a83613885565b9150612738565b6000816001600160401b0381111561277857612778612f28565b6040519080825280601f01601f1916602001820160405280156127a2576020820181803683370190505b5090505b8415612361576127b76001836137ee565b91506127c4600a86613899565b6127cf906030613805565b60f81b8183815181106127e4576127e4613512565b60200101906001600160f81b031916908160001a905350612806600a86613885565b94506127a6565b80516060906000819003612831575050604080516020810190915260008152919050565b60006003612840836002613805565b61284a9190613885565b6128559060046138ad565b90506000612864826020613805565b6001600160401b0381111561287b5761287b612f28565b6040519080825280601f01601f1916602001820160405280156128a5576020820181803683370190505b5090506000604051806060016040528060408152602001613927604091399050600181016020830160005b86811015612931576003818a01810151603f601282901c8116860151600c83901c8216870151600684901c831688015192909316870151600891821b60ff94851601821b92841692909201901b91160160e01b8352600490920191016128d0565b50600386066001811461294b576002811461295c57612968565b613d3d60f01b600119830152612968565b603d60f81b6000198301525b505050918152949350505050565b6129808383612aaa565b61298d60008484846129a9565b6109af5760405162461bcd60e51b815260040161087a9061381d565b60006001600160a01b0384163b15612a9f57604051630a85bd0160e11b81526001600160a01b0385169063150b7a02906129ed9033908990889088906004016138cc565b6020604051808303816000875af1925050508015612a28575060408051601f3d908101601f19168201909252612a2591810190613909565b60015b612a85573d808015612a56576040519150601f19603f3d011682016040523d82523d6000602084013e612a5b565b606091505b508051600003612a7d5760405162461bcd60e51b815260040161087a9061381d565b805181602001fd5b6001600160e01b031916630a85bd0160e11b149050612361565b506001949350505050565b6001600160a01b038216612b005760405162461bcd60e51b815260206004820181905260248201527f4552433732313a206d696e7420746f20746865207a65726f2061646472657373604482015260640161087a565b6000818152600260205260409020546001600160a01b031615612b655760405162461bcd60e51b815260206004820152601c60248201527f4552433732313a20746f6b656e20616c7265616479206d696e74656400000000604482015260640161087a565b6001600160a01b0382166000908152600360205260408120805460019290612b8e908490613805565b909155505060008181526002602052604080822080546001600160a01b0319166001600160a01b03861690811790915590518392907fddf252ad1be2c89b69c2b068fc378daa952ba7f163c4a11628f55a4df523b3ef908290a45050565b828054612bf89061344e565b90600052602060002090601f016020900481019282612c1a5760008555612c60565b82601f10612c335782800160ff19823516178555612c60565b82800160010185558215612c60579182015b82811115612c60578235825591602001919060010190612c45565b50612c6c929150612ce4565b5090565b828054612c7c9061344e565b90600052602060002090601f016020900481019282612c9e5760008555612c60565b82601f10612cb757805160ff1916838001178555612c60565b82800160010185558215612c60579182015b82811115612c60578251825591602001919060010190612cc9565b5b80821115612c6c5760008155600101612ce5565b6001600160e01b031981168114612d0f57600080fd5b50565b600060208284031215612d2457600080fd5b813561176e81612cf9565b60005b83811015612d4a578181015183820152602001612d32565b83811115610a995750506000910152565b60008151808452612d73816020860160208601612d2f565b601f01601f19169290920160200192915050565b60208152600061176e6020830184612d5b565b600060208284031215612dac57600080fd5b5035919050565b80356001600160a01b0381168114612dca57600080fd5b919050565b60008060408385031215612de257600080fd5b612deb83612db3565b946020939093013593505050565b60008083601f840112612e0b57600080fd5b5081356001600160401b03811115612e2257600080fd5b60208301915083602082850101111561153557600080fd5b600080600060408486031215612e4f57600080fd5b83356001600160401b03811115612e6557600080fd5b612e7186828701612df9565b9094509250612e84905060208501612db3565b90509250925092565b600080600060608486031215612ea257600080fd5b612eab84612db3565b9250612eb960208501612db3565b9150604084013590509250925092565b600060208284031215612edb57600080fd5b61176e82612db3565b6020808252825182820181905260009190848201906040850190845b81811015612f1c57835183529284019291840191600101612f00565b50909695505050505050565b634e487b7160e01b600052604160045260246000fd5b60006001600160401b0380841115612f5857612f58612f28565b604051601f8501601f19908116603f01168101908282118183101715612f8057612f80612f28565b81604052809350858152868686011115612f9957600080fd5b858560208301376000602087830101525050509392505050565b600082601f830112612fc457600080fd5b61176e83833560208501612f3e565b600060208284031215612fe557600080fd5b81356001600160401b03811115612ffb57600080fd5b61236184828501612fb3565b60a08152600061301a60a0830188612d5b565b828103602084015261302c8188612d5b565b905082810360408401526130408187612d5b565b905082810360608401526130548186612d5b565b905082810360808401526130688185612d5b565b98975050505050505050565b6000806020838503121561308757600080fd5b82356001600160401b0381111561309d57600080fd5b6130a985828601612df9565b90969095509350505050565b600081518084526020808501808196508360051b8101915082860160005b858110156130fd5782840389526130eb848351612d5b565b988501989350908401906001016130d3565b5091979650505050505050565b60408152600061311d60408301856130b5565b905060018060a01b03831660208301529392505050565b803560058110612dca57600080fd5b60008060006040848603121561315857600080fd5b83356001600160401b0381111561316e57600080fd5b61317a86828701612df9565b9094509250612e84905060208501613134565b600080604083850312156131a057600080fd5b6131a983612db3565b9150602083013580151581146131be57600080fd5b809150509250929050565b6000806000606084860312156131de57600080fd5b505081359360208301359350604090920135919050565b6000806000806080858703121561320b57600080fd5b61321485612db3565b935061322260208601612db3565b92506040850135915060608501356001600160401b0381111561324457600080fd5b8501601f8101871361325557600080fd5b61326487823560208401612f3e565b91505092959194509250565b6000806040838503121561328357600080fd5b61328c83612db3565b915061329a60208401612db3565b90509250929050565b600080600080600080600080600080600060c08c8e0312156132c457600080fd5b6001600160401b03808d3511156132da57600080fd5b6132e78e8e358f01612df9565b909c509a5060208d01358110156132fd57600080fd5b61330d8e60208f01358f01612fb3565b99508060408e0135111561332057600080fd5b6133308e60408f01358f01612df9565b909950975060608d013581101561334657600080fd5b6133568e60608f01358f01612df9565b909750955060808d013581101561336c57600080fd5b61337c8e60808f01358f01612df9565b909550935060a08d013581101561339257600080fd5b506133a38d60a08e01358e01612df9565b81935080925050509295989b509295989b9093969950565b6000806000806000606086880312156133d357600080fd5b85356001600160401b03808211156133ea57600080fd5b6133f689838a01612df9565b9097509550602088013591508082111561340f57600080fd5b5061341c88828901612df9565b909450925061342f905060408701613134565b90509295509295909350565b60208152600061176e60208301846130b5565b600181811c9082168061346257607f821691505b60208210810361215c57634e487b7160e01b600052602260045260246000fd5b8183823760009101908152919050565b60208152816020820152818360408301376000818301604090810191909152601f909201601f19160101919050565b60208082526031908201527f4552433732313a207472616e736665722063616c6c6572206973206e6f74206f6040820152701ddb995c881b9bdc88185c1c1c9bdd9959607a1b606082015260800190565b634e487b7160e01b600052603260045260246000fd5b634e487b7160e01b600052601160045260246000fd5b60006001820161355057613550613528565b5060010190565b634e487b7160e01b600052602160045260246000fd5b8054600090600181811c908083168061358757607f831692505b602080841082036135a857634e487b7160e01b600052602260045260246000fd5b8180156135bc57600181146135cd576135fa565b60ff198616895284890196506135fa565b60008881526020902060005b868110156135f25781548b8201529085019083016135d9565b505084890196505b50505050505092915050565b6000613612828561356d565b601760f91b8152613626600182018561356d565b95945050505050565b600061176e828461356d565b6000613647828661356d565b8451613657818360208901612d2f565b6136638183018661356d565b979650505050505050565b7f646174613a696d6167652f7376672b786d6c3b6261736536342c0000000000008152600082516136a681601a850160208701612d2f565b91909101601a0192915050565b693d913730b6b2911d101160b11b815283516000906136d981600a850160208901612d2f565b7f222c20226465736372697074696f6e223a20224120646f6d61696e206f6e2074600a918401918201527f6865204d65746572206e616d652073657276696365222c2022696d616765223a602a82015261101160f11b604a820152845161374781604c840160208901612d2f565b6b1116113632b733ba34111d1160a11b604c92909101918201528351613774816058840160208801612d2f565b61227d60f01b60589290910191820152605a0195945050505050565b7f646174613a6170706c69636174696f6e2f6a736f6e3b6261736536342c0000008152600082516137c881601d850160208701612d2f565b91909101601d0192915050565b6000602082840312156137e757600080fd5b5051919050565b60008282101561380057613800613528565b500390565b6000821982111561381857613818613528565b500190565b60208082526032908201527f4552433732313a207472616e7366657220746f206e6f6e20455243373231526560408201527131b2b4bb32b91034b6b83632b6b2b73a32b960711b606082015260800190565b634e487b7160e01b600052601260045260246000fd5b6000826138945761389461386f565b500490565b6000826138a8576138a861386f565b500690565b60008160001904831182151516156138c7576138c7613528565b500290565b6001600160a01b03858116825284166020820152604081018390526080606082018190526000906138ff90830184612d5b565b9695505050505050565b60006020828403121561391b57600080fd5b815161176e81612cf956fe4142434445464748494a4b4c4d4e4f505152535455565758595a6162636465666768696a6b6c6d6e6f707172737475767778797a303132333435363738392b2fa2646970667358221220b091603962b2324c14c616564c458c023b5c837bcb5cab4205f5d29206e074c064736f6c634300080e00333c73766720786d6c6e733d22687474703a2f2f7777772e77332e6f72672f323030302f737667222077696474683d2232373022206865696768743d22323730222066696c6c3d226e6f6e65223e203c706174682066696c6c3d2275726c282342292220643d224d302030683237307632373048307a222f3e3c646566733e3c66696c7465722069643d22412220636f6c6f722d696e746572706f6c6174696f6e2d66696c746572733d2273524742222066696c746572556e6974733d227573657253706163654f6e55736522206865696768743d22323730222077696474683d22323730223e3c666544726f70536861646f772064783d2230222064793d22312220737464446576696174696f6e3d22322220666c6f6f642d6f7061636974793d222e323235222077696474683d223230302522206865696768743d2232303025222f3e3c2f66696c7465723e3c2f646566733e3c7061746820636c6173734e616d653d227374302220643d224d3237302e332c3237302e3348305631382e3743302c382e342c382e342c302c31382e372c30683233336331302e332c302c31382e372c382e342c31382e372c31382e37763235312e36483237302e337a222f3e3c673e3c7061746820636c6173734e616d653d22737431222066696c6c3d22234646462220643d224d39382e342c35352e3563302e322c312e342c302e322c322e372c302e322c342e3163302c31392d31352e352c33342e332d33342e342c33342e33632d31332e332c302d32352e352d372e382d33312e312d31392e396c352e352d322e372020202063362e342c31342e322c32332e322c32302e342c33372e332c31344338362c38302e372c39322e352c37302e372c39322e352c35392e3663302d302e332c302d302e362c302d302e394c39382e342c35352e357a204d36342e332c32352e336331342c302c32362e372c382e352c33312e392c32312e36202020206c2d352e392c312e39632d362d31342e342d32322e352d32312e322d33362e392d31352e32632d31302e352c342e342d31372e342c31342e372d31372e332c32362e3163302c302e322c302c302e342c302c302e366c2d352e372c342e37632d302e332d312e372d302e342d332e352d302e342d352e33202020204333302c34302e372c34352e332c32352e332c36342e332c32352e334336342e332c32352e332c36342e332c32352e332c36342e332c32352e337a222f3e3c706f6c79676f6e20636c6173734e616d653d22737431222066696c6c3d22234646462220706f696e74733d2232362c37332e342035392e362c34352e392035382e322c35372e332037372e382c34362e322037362e382c35372e31203130322e352c34382e392036372e372c36382e312037302e332c35372e322035302e312c36392035312e352c36302e3620202020202020222f3e3c2f673e3c646566733e3c6c696e6561724772616469656e742069643d2242222078313d2230222079313d2230222078323d22323730222079323d2232373022206772616469656e74556e6974733d227573657253706163654f6e557365223e3c73746f702073746f702d636f6c6f723d2223313762366437222f3e3c73746f70206f66667365743d2231222073746f702d636f6c6f723d2223393731346233222073746f702d6f7061636974793d222e35222f3e3c73746f70206f66667365743d2231222073746f702d636f6c6f723d2223323830626664222073746f702d6f7061636974793d222e3939222f3e3c2f6c696e6561724772616469656e743e3c2f646566733e3c7465787420783d2233322e352220793d223233312220666f6e742d73697a653d223237222066696c6c3d2223666666222066696c7465723d2275726c282341292220666f6e742d66616d696c793d22506c7573204a616b617274612053616e732c44656a6156752053616e732c4e6f746f20436f6c6f7220456d6f6a692c4170706c6520436f6c6f7220456d6f6a692c73616e732d73657269662220666f6e742d7765696768743d22626f6c64223e",
			"opcodes": "PUSH2 0x680 PUSH1 0x40 MSTORE PUSH2 0x5CD PUSH1 0x80 DUP2 DUP2 MSTORE SWAP1 PUSH3 0x3CF1 PUSH1 0xA0 CODECOPY DUP1 MLOAD PUSH3 0x2B SWAP2 PUSH1 0xF SWAP2 PUSH1 0x20 SWAP1 SWAP2 ADD SWAP1 PUSH3 0x155 JUMP JUMPDEST POP PUSH1 0x40 DUP1 MLOAD DUP1 DUP3 ADD SWAP1 SWAP2 MSTORE PUSH1 0xD DUP1 DUP3 MSTORE PUSH13 0x1E17BA32BC3A1F1E17B9BB339F PUSH1 0x99 SHL PUSH1 0x20 SWAP1 SWAP3 ADD SWAP2 DUP3 MSTORE PUSH3 0x62 SWAP2 PUSH1 0x10 SWAP2 PUSH3 0x155 JUMP JUMPDEST POP PUSH1 0x40 MLOAD PUSH3 0x42BE CODESIZE SUB DUP1 PUSH3 0x42BE DUP4 CODECOPY DUP2 ADD PUSH1 0x40 DUP2 SWAP1 MSTORE PUSH3 0x85 SWAP2 PUSH3 0x211 JUMP JUMPDEST PUSH1 0x40 DUP1 MLOAD DUP1 DUP3 ADD DUP3 MSTORE PUSH1 0x12 DUP2 MSTORE PUSH18 0x4D65746572204E616D652053657276696365 PUSH1 0x70 SHL PUSH1 0x20 DUP1 DUP4 ADD SWAP2 DUP3 MSTORE DUP4 MLOAD DUP1 DUP6 ADD SWAP1 SWAP5 MSTORE PUSH1 0x3 DUP5 MSTORE PUSH3 0x4D4E53 PUSH1 0xE8 SHL SWAP1 DUP5 ADD MSTORE DUP2 MLOAD SWAP2 SWAP3 SWAP2 PUSH3 0xDA SWAP2 PUSH1 0x0 SWAP2 PUSH3 0x155 JUMP JUMPDEST POP DUP1 MLOAD PUSH3 0xF0 SWAP1 PUSH1 0x1 SWAP1 PUSH1 0x20 DUP5 ADD SWAP1 PUSH3 0x155 JUMP JUMPDEST POP POP PUSH1 0xA DUP1 SLOAD PUSH1 0x1 PUSH1 0x1 PUSH1 0xA0 SHL SUB NOT AND CALLER OR SWAP1 SSTORE POP DUP4 MLOAD PUSH3 0x11A SWAP1 PUSH1 0x9 SWAP1 PUSH1 0x20 DUP8 ADD SWAP1 PUSH3 0x155 JUMP JUMPDEST POP PUSH1 0xC DUP4 SWAP1 SSTORE PUSH1 0xD DUP3 SWAP1 SSTORE PUSH1 0xE DUP2 SWAP1 SSTORE PUSH3 0x142 PUSH1 0xB PUSH3 0x14C PUSH1 0x20 SWAP1 DUP2 SHL PUSH3 0x21E1 OR SWAP1 SHR JUMP JUMPDEST POP POP POP POP PUSH3 0x345 JUMP JUMPDEST DUP1 SLOAD PUSH1 0x1 ADD SWAP1 SSTORE JUMP JUMPDEST DUP3 DUP1 SLOAD PUSH3 0x163 SWAP1 PUSH3 0x309 JUMP JUMPDEST SWAP1 PUSH1 0x0 MSTORE PUSH1 0x20 PUSH1 0x0 KECCAK256 SWAP1 PUSH1 0x1F ADD PUSH1 0x20 SWAP1 DIV DUP2 ADD SWAP3 DUP3 PUSH3 0x187 JUMPI PUSH1 0x0 DUP6 SSTORE PUSH3 0x1D2 JUMP JUMPDEST DUP3 PUSH1 0x1F LT PUSH3 0x1A2 JUMPI DUP1 MLOAD PUSH1 0xFF NOT AND DUP4 DUP1 ADD OR DUP6 SSTORE PUSH3 0x1D2 JUMP JUMPDEST DUP3 DUP1 ADD PUSH1 0x1 ADD DUP6 SSTORE DUP3 ISZERO PUSH3 0x1D2 JUMPI SWAP2 DUP3 ADD JUMPDEST DUP3 DUP2 GT ISZERO PUSH3 0x1D2 JUMPI DUP3 MLOAD DUP3 SSTORE SWAP2 PUSH1 0x20 ADD SWAP2 SWAP1 PUSH1 0x1 ADD SWAP1 PUSH3 0x1B5 JUMP JUMPDEST POP PUSH3 0x1E0 SWAP3 SWAP2 POP PUSH3 0x1E4 JUMP JUMPDEST POP SWAP1 JUMP JUMPDEST JUMPDEST DUP1 DUP3 GT ISZERO PUSH3 0x1E0 JUMPI PUSH1 0x0 DUP2 SSTORE PUSH1 0x1 ADD PUSH3 0x1E5 JUMP JUMPDEST PUSH4 0x4E487B71 PUSH1 0xE0 SHL PUSH1 0x0 MSTORE PUSH1 0x41 PUSH1 0x4 MSTORE PUSH1 0x24 PUSH1 0x0 REVERT JUMPDEST PUSH1 0x0 DUP1 PUSH1 0x0 DUP1 PUSH1 0x80 DUP6 DUP8 SUB SLT ISZERO PUSH3 0x228 JUMPI PUSH1 0x0 DUP1 REVERT JUMPDEST DUP5 MLOAD PUSH1 0x1 PUSH1 0x1 PUSH1 0x40 SHL SUB DUP1 DUP3 GT ISZERO PUSH3 0x240 JUMPI PUSH1 0x0 DUP1 REVERT JUMPDEST DUP2 DUP8 ADD SWAP2 POP DUP8 PUSH1 0x1F DUP4 ADD SLT PUSH3 0x255 JUMPI PUSH1 0x0 DUP1 REVERT JUMPDEST DUP2 MLOAD DUP2 DUP2 GT ISZERO PUSH3 0x26A JUMPI PUSH3 0x26A PUSH3 0x1FB JUMP JUMPDEST PUSH1 0x40 MLOAD PUSH1 0x1F DUP3 ADD PUSH1 0x1F NOT SWAP1 DUP2 AND PUSH1 0x3F ADD AND DUP2 ADD SWAP1 DUP4 DUP3 GT DUP2 DUP4 LT OR ISZERO PUSH3 0x295 JUMPI PUSH3 0x295 PUSH3 0x1FB JUMP JUMPDEST DUP2 PUSH1 0x40 MSTORE DUP3 DUP2 MSTORE PUSH1 0x20 SWAP4 POP DUP11 DUP5 DUP5 DUP8 ADD ADD GT ISZERO PUSH3 0x2B2 JUMPI PUSH1 0x0 DUP1 REVERT JUMPDEST PUSH1 0x0 SWAP2 POP JUMPDEST DUP3 DUP3 LT ISZERO PUSH3 0x2D6 JUMPI DUP5 DUP3 ADD DUP5 ADD MLOAD DUP2 DUP4 ADD DUP6 ADD MSTORE SWAP1 DUP4 ADD SWAP1 PUSH3 0x2B7 JUMP JUMPDEST DUP3 DUP3 GT ISZERO PUSH3 0x2E8 JUMPI PUSH1 0x0 DUP5 DUP5 DUP4 ADD ADD MSTORE JUMPDEST SWAP3 DUP10 ADD MLOAD PUSH1 0x40 DUP11 ADD MLOAD PUSH1 0x60 SWAP1 SWAP11 ADD MLOAD SWAP4 SWAP12 SWAP1 SWAP11 POP SWAP3 SWAP8 POP SWAP2 SWAP6 POP POP POP POP POP POP JUMP JUMPDEST PUSH1 0x1 DUP2 DUP2 SHR SWAP1 DUP3 AND DUP1 PUSH3 0x31E JUMPI PUSH1 0x7F DUP3 AND SWAP2 POP JUMPDEST PUSH1 0x20 DUP3 LT DUP2 SUB PUSH3 0x33F JUMPI PUSH4 0x4E487B71 PUSH1 0xE0 SHL PUSH1 0x0 MSTORE PUSH1 0x22 PUSH1 0x4 MSTORE PUSH1 0x24 PUSH1 0x0 REVERT JUMPDEST POP SWAP2 SWAP1 POP JUMP JUMPDEST PUSH2 0x399C DUP1 PUSH3 0x355 PUSH1 0x0 CODECOPY PUSH1 0x0 RETURN INVALID PUSH1 0x80 PUSH1 0x40 MSTORE PUSH1 0x4 CALLDATASIZE LT PUSH2 0x21A JUMPI PUSH1 0x0 CALLDATALOAD PUSH1 0xE0 SHR DUP1 PUSH4 0x8DA5CB5B GT PUSH2 0x123 JUMPI DUP1 PUSH4 0xBF40FAC1 GT PUSH2 0xAB JUMPI DUP1 PUSH4 0xF0F19346 GT PUSH2 0x6F JUMPI DUP1 PUSH4 0xF0F19346 EQ PUSH2 0x68C JUMPI DUP1 PUSH4 0xF2C298BE EQ PUSH2 0x6AC JUMPI DUP1 PUSH4 0xF5064FD0 EQ PUSH2 0x6BF JUMPI DUP1 PUSH4 0xFB825E5F EQ PUSH2 0x6DF JUMPI DUP1 PUSH4 0xFE2C6198 EQ PUSH2 0x701 JUMPI PUSH1 0x0 DUP1 REVERT JUMPDEST DUP1 PUSH4 0xBF40FAC1 EQ PUSH2 0x5CD JUMPI DUP1 PUSH4 0xC87B56DD EQ PUSH2 0x5ED JUMPI DUP1 PUSH4 0xD7E915D5 EQ PUSH2 0x60D JUMPI DUP1 PUSH4 0xE327AD61 EQ PUSH2 0x623 JUMPI DUP1 PUSH4 0xE985E9C5 EQ PUSH2 0x643 JUMPI PUSH1 0x0 DUP1 REVERT JUMPDEST DUP1 PUSH4 0x9791C097 GT PUSH2 0xF2 JUMPI DUP1 PUSH4 0x9791C097 EQ PUSH2 0x52D JUMPI DUP1 PUSH4 0xA22CB465 EQ PUSH2 0x54D JUMPI DUP1 PUSH4 0xAA585D56 EQ PUSH2 0x56D JUMPI DUP1 PUSH4 0xB88D4FDE EQ PUSH2 0x58D JUMPI DUP1 PUSH4 0xBEE51F3B EQ PUSH2 0x5AD JUMPI PUSH1 0x0 DUP1 REVERT JUMPDEST DUP1 PUSH4 0x8DA5CB5B EQ PUSH2 0x4B8 JUMPI DUP1 PUSH4 0x8F32D59B EQ PUSH2 0x4D8 JUMPI DUP1 PUSH4 0x95D89B41 EQ PUSH2 0x4F8 JUMPI DUP1 PUSH4 0x9751E9F1 EQ PUSH2 0x50D JUMPI PUSH1 0x0 DUP1 REVERT JUMPDEST DUP1 PUSH4 0x438B6300 GT PUSH2 0x1A6 JUMPI DUP1 PUSH4 0x6352211E GT PUSH2 0x175 JUMPI DUP1 PUSH4 0x6352211E EQ PUSH2 0x3FC JUMPI DUP1 PUSH4 0x70A08231 EQ PUSH2 0x41C JUMPI DUP1 PUSH4 0x8600C8B2 EQ PUSH2 0x43C JUMPI DUP1 PUSH4 0x86E80B71 EQ PUSH2 0x452 JUMPI DUP1 PUSH4 0x8A08677D EQ PUSH2 0x480 JUMPI PUSH1 0x0 DUP1 REVERT JUMPDEST DUP1 PUSH4 0x438B6300 EQ PUSH2 0x35A JUMPI DUP1 PUSH4 0x4622AB03 EQ PUSH2 0x387 JUMPI DUP1 PUSH4 0x4E82DC89 EQ PUSH2 0x3A7 JUMPI DUP1 PUSH4 0x541E771D EQ PUSH2 0x3CB JUMPI PUSH1 0x0 DUP1 REVERT JUMPDEST DUP1 PUSH4 0x15BF7227 GT PUSH2 0x1ED JUMPI DUP1 PUSH4 0x15BF7227 EQ PUSH2 0x2D0 JUMPI DUP1 PUSH4 0x23B872DD EQ PUSH2 0x2F0 JUMPI DUP1 PUSH4 0x2D551432 EQ PUSH2 0x310 JUMPI DUP1 PUSH4 0x3CCFD60B EQ PUSH2 0x325 JUMPI DUP1 PUSH4 0x42842E0E EQ PUSH2 0x33A JUMPI PUSH1 0x0 DUP1 REVERT JUMPDEST DUP1 PUSH4 0x1FFC9A7 EQ PUSH2 0x21F JUMPI DUP1 PUSH4 0x6FDDE03 EQ PUSH2 0x254 JUMPI DUP1 PUSH4 0x81812FC EQ PUSH2 0x276 JUMPI DUP1 PUSH4 0x95EA7B3 EQ PUSH2 0x2AE JUMPI JUMPDEST PUSH1 0x0 DUP1 REVERT JUMPDEST CALLVALUE DUP1 ISZERO PUSH2 0x22B JUMPI PUSH1 0x0 DUP1 REVERT JUMPDEST POP PUSH2 0x23F PUSH2 0x23A CALLDATASIZE PUSH1 0x4 PUSH2 0x2D12 JUMP JUMPDEST PUSH2 0x721 JUMP JUMPDEST PUSH1 0x40 MLOAD SWAP1 ISZERO ISZERO DUP2 MSTORE PUSH1 0x20 ADD JUMPDEST PUSH1 0x40 MLOAD DUP1 SWAP2 SUB SWAP1 RETURN JUMPDEST CALLVALUE DUP1 ISZERO PUSH2 0x260 JUMPI PUSH1 0x0 DUP1 REVERT JUMPDEST POP PUSH2 0x269 PUSH2 0x773 JUMP JUMPDEST PUSH1 0x40 MLOAD PUSH2 0x24B SWAP2 SWAP1 PUSH2 0x2D87 JUMP JUMPDEST CALLVALUE DUP1 ISZERO PUSH2 0x282 JUMPI PUSH1 0x0 DUP1 REVERT JUMPDEST POP PUSH2 0x296 PUSH2 0x291 CALLDATASIZE PUSH1 0x4 PUSH2 0x2D9A JUMP JUMPDEST PUSH2 0x805 JUMP JUMPDEST PUSH1 0x40 MLOAD PUSH1 0x1 PUSH1 0x1 PUSH1 0xA0 SHL SUB SWAP1 SWAP2 AND DUP2 MSTORE PUSH1 0x20 ADD PUSH2 0x24B JUMP JUMPDEST CALLVALUE DUP1 ISZERO PUSH2 0x2BA JUMPI PUSH1 0x0 DUP1 REVERT JUMPDEST POP PUSH2 0x2CE PUSH2 0x2C9 CALLDATASIZE PUSH1 0x4 PUSH2 0x2DCF JUMP JUMPDEST PUSH2 0x89F JUMP JUMPDEST STOP JUMPDEST CALLVALUE DUP1 ISZERO PUSH2 0x2DC JUMPI PUSH1 0x0 DUP1 REVERT JUMPDEST POP PUSH2 0x2CE PUSH2 0x2EB CALLDATASIZE PUSH1 0x4 PUSH2 0x2E3A JUMP JUMPDEST PUSH2 0x9B4 JUMP JUMPDEST CALLVALUE DUP1 ISZERO PUSH2 0x2FC JUMPI PUSH1 0x0 DUP1 REVERT JUMPDEST POP PUSH2 0x2CE PUSH2 0x30B CALLDATASIZE PUSH1 0x4 PUSH2 0x2E8D JUMP JUMPDEST PUSH2 0xA9F JUMP JUMPDEST CALLVALUE DUP1 ISZERO PUSH2 0x31C JUMPI PUSH1 0x0 DUP1 REVERT JUMPDEST POP PUSH2 0x269 PUSH2 0xAD0 JUMP JUMPDEST CALLVALUE DUP1 ISZERO PUSH2 0x331 JUMPI PUSH1 0x0 DUP1 REVERT JUMPDEST POP PUSH2 0x2CE PUSH2 0xB5E JUMP JUMPDEST CALLVALUE DUP1 ISZERO PUSH2 0x346 JUMPI PUSH1 0x0 DUP1 REVERT JUMPDEST POP PUSH2 0x2CE PUSH2 0x355 CALLDATASIZE PUSH1 0x4 PUSH2 0x2E8D JUMP JUMPDEST PUSH2 0xC0C JUMP JUMPDEST CALLVALUE DUP1 ISZERO PUSH2 0x366 JUMPI PUSH1 0x0 DUP1 REVERT JUMPDEST POP PUSH2 0x37A PUSH2 0x375 CALLDATASIZE PUSH1 0x4 PUSH2 0x2EC9 JUMP JUMPDEST PUSH2 0xC27 JUMP JUMPDEST PUSH1 0x40 MLOAD PUSH2 0x24B SWAP2 SWAP1 PUSH2 0x2EE4 JUMP JUMPDEST CALLVALUE DUP1 ISZERO PUSH2 0x393 JUMPI PUSH1 0x0 DUP1 REVERT JUMPDEST POP PUSH2 0x269 PUSH2 0x3A2 CALLDATASIZE PUSH1 0x4 PUSH2 0x2D9A JUMP JUMPDEST PUSH2 0xD06 JUMP JUMPDEST CALLVALUE DUP1 ISZERO PUSH2 0x3B3 JUMPI PUSH1 0x0 DUP1 REVERT JUMPDEST POP PUSH2 0x3BD PUSH1 0xE SLOAD DUP2 JUMP JUMPDEST PUSH1 0x40 MLOAD SWAP1 DUP2 MSTORE PUSH1 0x20 ADD PUSH2 0x24B JUMP JUMPDEST CALLVALUE DUP1 ISZERO PUSH2 0x3D7 JUMPI PUSH1 0x0 DUP1 REVERT JUMPDEST POP PUSH2 0x3EB PUSH2 0x3E6 CALLDATASIZE PUSH1 0x4 PUSH2 0x2FD3 JUMP JUMPDEST PUSH2 0xD1F JUMP JUMPDEST PUSH1 0x40 MLOAD PUSH2 0x24B SWAP6 SWAP5 SWAP4 SWAP3 SWAP2 SWAP1 PUSH2 0x3007 JUMP JUMPDEST CALLVALUE DUP1 ISZERO PUSH2 0x408 JUMPI PUSH1 0x0 DUP1 REVERT JUMPDEST POP PUSH2 0x296 PUSH2 0x417 CALLDATASIZE PUSH1 0x4 PUSH2 0x2D9A JUMP JUMPDEST PUSH2 0x1000 JUMP JUMPDEST CALLVALUE DUP1 ISZERO PUSH2 0x428 JUMPI PUSH1 0x0 DUP1 REVERT JUMPDEST POP PUSH2 0x3BD PUSH2 0x437 CALLDATASIZE PUSH1 0x4 PUSH2 0x2EC9 JUMP JUMPDEST PUSH2 0x1077 JUMP JUMPDEST CALLVALUE DUP1 ISZERO PUSH2 0x448 JUMPI PUSH1 0x0 DUP1 REVERT JUMPDEST POP PUSH2 0x3BD PUSH1 0xC SLOAD DUP2 JUMP JUMPDEST CALLVALUE DUP1 ISZERO PUSH2 0x45E JUMPI PUSH1 0x0 DUP1 REVERT JUMPDEST POP PUSH2 0x472 PUSH2 0x46D CALLDATASIZE PUSH1 0x4 PUSH2 0x3074 JUMP JUMPDEST PUSH2 0x10FE JUMP JUMPDEST PUSH1 0x40 MLOAD PUSH2 0x24B SWAP3 SWAP2 SWAP1 PUSH2 0x310A JUMP JUMPDEST CALLVALUE DUP1 ISZERO PUSH2 0x48C JUMPI PUSH1 0x0 DUP1 REVERT JUMPDEST POP PUSH2 0x3BD PUSH2 0x49B CALLDATASIZE PUSH1 0x4 PUSH2 0x2FD3 JUMP JUMPDEST DUP1 MLOAD PUSH1 0x20 DUP2 DUP4 ADD DUP2 ADD DUP1 MLOAD PUSH1 0x8 DUP3 MSTORE SWAP3 DUP3 ADD SWAP2 SWAP1 SWAP4 ADD KECCAK256 SWAP2 MSTORE SLOAD DUP2 JUMP JUMPDEST CALLVALUE DUP1 ISZERO PUSH2 0x4C4 JUMPI PUSH1 0x0 DUP1 REVERT JUMPDEST POP PUSH1 0xA SLOAD PUSH2 0x296 SWAP1 PUSH1 0x1 PUSH1 0x1 PUSH1 0xA0 SHL SUB AND DUP2 JUMP JUMPDEST CALLVALUE DUP1 ISZERO PUSH2 0x4E4 JUMPI PUSH1 0x0 DUP1 REVERT JUMPDEST POP PUSH1 0xA SLOAD PUSH1 0x1 PUSH1 0x1 PUSH1 0xA0 SHL SUB AND CALLER EQ PUSH2 0x23F JUMP JUMPDEST CALLVALUE DUP1 ISZERO PUSH2 0x504 JUMPI PUSH1 0x0 DUP1 REVERT JUMPDEST POP PUSH2 0x269 PUSH2 0x153C JUMP JUMPDEST CALLVALUE DUP1 ISZERO PUSH2 0x519 JUMPI PUSH1 0x0 DUP1 REVERT JUMPDEST POP PUSH2 0x269 PUSH2 0x528 CALLDATASIZE PUSH1 0x4 PUSH2 0x3143 JUMP JUMPDEST PUSH2 0x154B JUMP JUMPDEST CALLVALUE DUP1 ISZERO PUSH2 0x539 JUMPI PUSH1 0x0 DUP1 REVERT JUMPDEST POP PUSH2 0x23F PUSH2 0x548 CALLDATASIZE PUSH1 0x4 PUSH2 0x3074 JUMP JUMPDEST PUSH2 0x1775 JUMP JUMPDEST CALLVALUE DUP1 ISZERO PUSH2 0x559 JUMPI PUSH1 0x0 DUP1 REVERT JUMPDEST POP PUSH2 0x2CE PUSH2 0x568 CALLDATASIZE PUSH1 0x4 PUSH2 0x318D JUMP JUMPDEST PUSH2 0x180B JUMP JUMPDEST CALLVALUE DUP1 ISZERO PUSH2 0x579 JUMPI PUSH1 0x0 DUP1 REVERT JUMPDEST POP PUSH2 0x2CE PUSH2 0x588 CALLDATASIZE PUSH1 0x4 PUSH2 0x31C9 JUMP JUMPDEST PUSH2 0x1816 JUMP JUMPDEST CALLVALUE DUP1 ISZERO PUSH2 0x599 JUMPI PUSH1 0x0 DUP1 REVERT JUMPDEST POP PUSH2 0x2CE PUSH2 0x5A8 CALLDATASIZE PUSH1 0x4 PUSH2 0x31F5 JUMP JUMPDEST PUSH2 0x183B JUMP JUMPDEST CALLVALUE DUP1 ISZERO PUSH2 0x5B9 JUMPI PUSH1 0x0 DUP1 REVERT JUMPDEST POP PUSH2 0x3BD PUSH2 0x5C8 CALLDATASIZE PUSH1 0x4 PUSH2 0x3074 JUMP JUMPDEST PUSH2 0x186D JUMP JUMPDEST CALLVALUE DUP1 ISZERO PUSH2 0x5D9 JUMPI PUSH1 0x0 DUP1 REVERT JUMPDEST POP PUSH2 0x296 PUSH2 0x5E8 CALLDATASIZE PUSH1 0x4 PUSH2 0x3074 JUMP JUMPDEST PUSH2 0x18C5 JUMP JUMPDEST CALLVALUE DUP1 ISZERO PUSH2 0x5F9 JUMPI PUSH1 0x0 DUP1 REVERT JUMPDEST POP PUSH2 0x269 PUSH2 0x608 CALLDATASIZE PUSH1 0x4 PUSH2 0x2D9A JUMP JUMPDEST PUSH2 0x18D4 JUMP JUMPDEST CALLVALUE DUP1 ISZERO PUSH2 0x619 JUMPI PUSH1 0x0 DUP1 REVERT JUMPDEST POP PUSH2 0x3BD PUSH1 0xD SLOAD DUP2 JUMP JUMPDEST CALLVALUE DUP1 ISZERO PUSH2 0x62F JUMPI PUSH1 0x0 DUP1 REVERT JUMPDEST POP PUSH2 0x23F PUSH2 0x63E CALLDATASIZE PUSH1 0x4 PUSH2 0x2FD3 JUMP JUMPDEST PUSH2 0x1BB5 JUMP JUMPDEST CALLVALUE DUP1 ISZERO PUSH2 0x64F JUMPI PUSH1 0x0 DUP1 REVERT JUMPDEST POP PUSH2 0x23F PUSH2 0x65E CALLDATASIZE PUSH1 0x4 PUSH2 0x3270 JUMP JUMPDEST PUSH1 0x1 PUSH1 0x1 PUSH1 0xA0 SHL SUB SWAP2 DUP3 AND PUSH1 0x0 SWAP1 DUP2 MSTORE PUSH1 0x5 PUSH1 0x20 SWAP1 DUP2 MSTORE PUSH1 0x40 DUP1 DUP4 KECCAK256 SWAP4 SWAP1 SWAP5 AND DUP3 MSTORE SWAP2 SWAP1 SWAP2 MSTORE KECCAK256 SLOAD PUSH1 0xFF AND SWAP1 JUMP JUMPDEST CALLVALUE DUP1 ISZERO PUSH2 0x698 JUMPI PUSH1 0x0 DUP1 REVERT JUMPDEST POP PUSH2 0x2CE PUSH2 0x6A7 CALLDATASIZE PUSH1 0x4 PUSH2 0x32A3 JUMP JUMPDEST PUSH2 0x1BC8 JUMP JUMPDEST PUSH2 0x2CE PUSH2 0x6BA CALLDATASIZE PUSH1 0x4 PUSH2 0x3074 JUMP JUMPDEST PUSH2 0x1D13 JUMP JUMPDEST CALLVALUE DUP1 ISZERO PUSH2 0x6CB JUMPI PUSH1 0x0 DUP1 REVERT JUMPDEST POP PUSH2 0x2CE PUSH2 0x6DA CALLDATASIZE PUSH1 0x4 PUSH2 0x33BB JUMP JUMPDEST PUSH2 0x1E5A JUMP JUMPDEST CALLVALUE DUP1 ISZERO PUSH2 0x6EB JUMPI PUSH1 0x0 DUP1 REVERT JUMPDEST POP PUSH2 0x6F4 PUSH2 0x2016 JUMP JUMPDEST PUSH1 0x40 MLOAD PUSH2 0x24B SWAP2 SWAP1 PUSH2 0x343B JUMP JUMPDEST CALLVALUE DUP1 ISZERO PUSH2 0x70D JUMPI PUSH1 0x0 DUP1 REVERT JUMPDEST POP PUSH2 0x3BD PUSH2 0x71C CALLDATASIZE PUSH1 0x4 PUSH2 0x3074 JUMP JUMPDEST PUSH2 0x2162 JUMP JUMPDEST PUSH1 0x0 PUSH1 0x1 PUSH1 0x1 PUSH1 0xE0 SHL SUB NOT DUP3 AND PUSH4 0x80AC58CD PUSH1 0xE0 SHL EQ DUP1 PUSH2 0x752 JUMPI POP PUSH1 0x1 PUSH1 0x1 PUSH1 0xE0 SHL SUB NOT DUP3 AND PUSH4 0x5B5E139F PUSH1 0xE0 SHL EQ JUMPDEST DUP1 PUSH2 0x76D JUMPI POP PUSH4 0x1FFC9A7 PUSH1 0xE0 SHL PUSH1 0x1 PUSH1 0x1 PUSH1 0xE0 SHL SUB NOT DUP4 AND EQ JUMPDEST SWAP3 SWAP2 POP POP JUMP JUMPDEST PUSH1 0x60 PUSH1 0x0 DUP1 SLOAD PUSH2 0x782 SWAP1 PUSH2 0x344E JUMP JUMPDEST DUP1 PUSH1 0x1F ADD PUSH1 0x20 DUP1 SWAP2 DIV MUL PUSH1 0x20 ADD PUSH1 0x40 MLOAD SWAP1 DUP2 ADD PUSH1 0x40 MSTORE DUP1 SWAP3 SWAP2 SWAP1 DUP2 DUP2 MSTORE PUSH1 0x20 ADD DUP3 DUP1 SLOAD PUSH2 0x7AE SWAP1 PUSH2 0x344E JUMP JUMPDEST DUP1 ISZERO PUSH2 0x7FB JUMPI DUP1 PUSH1 0x1F LT PUSH2 0x7D0 JUMPI PUSH2 0x100 DUP1 DUP4 SLOAD DIV MUL DUP4 MSTORE SWAP2 PUSH1 0x20 ADD SWAP2 PUSH2 0x7FB JUMP JUMPDEST DUP3 ADD SWAP2 SWAP1 PUSH1 0x0 MSTORE PUSH1 0x20 PUSH1 0x0 KECCAK256 SWAP1 JUMPDEST DUP2 SLOAD DUP2 MSTORE SWAP1 PUSH1 0x1 ADD SWAP1 PUSH1 0x20 ADD DUP1 DUP4 GT PUSH2 0x7DE JUMPI DUP3 SWAP1 SUB PUSH1 0x1F AND DUP3 ADD SWAP2 JUMPDEST POP POP POP POP POP SWAP1 POP SWAP1 JUMP JUMPDEST PUSH1 0x0 DUP2 DUP2 MSTORE PUSH1 0x2 PUSH1 0x20 MSTORE PUSH1 0x40 DUP2 KECCAK256 SLOAD PUSH1 0x1 PUSH1 0x1 PUSH1 0xA0 SHL SUB AND PUSH2 0x883 JUMPI PUSH1 0x40 MLOAD PUSH3 0x461BCD PUSH1 0xE5 SHL DUP2 MSTORE PUSH1 0x20 PUSH1 0x4 DUP3 ADD MSTORE PUSH1 0x2C PUSH1 0x24 DUP3 ADD MSTORE PUSH32 0x4552433732313A20617070726F76656420717565727920666F72206E6F6E6578 PUSH1 0x44 DUP3 ADD MSTORE PUSH12 0x34B9BA32B73A103A37B5B2B7 PUSH1 0xA1 SHL PUSH1 0x64 DUP3 ADD MSTORE PUSH1 0x84 ADD JUMPDEST PUSH1 0x40 MLOAD DUP1 SWAP2 SUB SWAP1 REVERT JUMPDEST POP PUSH1 0x0 SWAP1 DUP2 MSTORE PUSH1 0x4 PUSH1 0x20 MSTORE PUSH1 0x40 SWAP1 KECCAK256 SLOAD PUSH1 0x1 PUSH1 0x1 PUSH1 0xA0 SHL SUB AND SWAP1 JUMP JUMPDEST PUSH1 0x0 PUSH2 0x8AA DUP3 PUSH2 0x1000 JUMP JUMPDEST SWAP1 POP DUP1 PUSH1 0x1 PUSH1 0x1 PUSH1 0xA0 SHL SUB AND DUP4 PUSH1 0x1 PUSH1 0x1 PUSH1 0xA0 SHL SUB AND SUB PUSH2 0x917 JUMPI PUSH1 0x40 MLOAD PUSH3 0x461BCD PUSH1 0xE5 SHL DUP2 MSTORE PUSH1 0x20 PUSH1 0x4 DUP3 ADD MSTORE PUSH1 0x21 PUSH1 0x24 DUP3 ADD MSTORE PUSH32 0x4552433732313A20617070726F76616C20746F2063757272656E74206F776E65 PUSH1 0x44 DUP3 ADD MSTORE PUSH1 0x39 PUSH1 0xF9 SHL PUSH1 0x64 DUP3 ADD MSTORE PUSH1 0x84 ADD PUSH2 0x87A JUMP JUMPDEST CALLER PUSH1 0x1 PUSH1 0x1 PUSH1 0xA0 SHL SUB DUP3 AND EQ DUP1 PUSH2 0x933 JUMPI POP PUSH2 0x933 DUP2 CALLER PUSH2 0x65E JUMP JUMPDEST PUSH2 0x9A5 JUMPI PUSH1 0x40 MLOAD PUSH3 0x461BCD PUSH1 0xE5 SHL DUP2 MSTORE PUSH1 0x20 PUSH1 0x4 DUP3 ADD MSTORE PUSH1 0x38 PUSH1 0x24 DUP3 ADD MSTORE PUSH32 0x4552433732313A20617070726F76652063616C6C6572206973206E6F74206F77 PUSH1 0x44 DUP3 ADD MSTORE PUSH32 0x6E6572206E6F7220617070726F76656420666F7220616C6C0000000000000000 PUSH1 0x64 DUP3 ADD MSTORE PUSH1 0x84 ADD PUSH2 0x87A JUMP JUMPDEST PUSH2 0x9AF DUP4 DUP4 PUSH2 0x21EA JUMP JUMPDEST POP POP POP JUMP JUMPDEST PUSH1 0xA SLOAD PUSH1 0x1 PUSH1 0x1 PUSH1 0xA0 SHL SUB AND CALLER EQ PUSH2 0x9CB JUMPI PUSH1 0x0 DUP1 REVERT JUMPDEST PUSH1 0x8 DUP4 DUP4 PUSH1 0x40 MLOAD PUSH2 0x9DD SWAP3 SWAP2 SWAP1 PUSH2 0x3482 JUMP JUMPDEST SWAP1 DUP2 MSTORE PUSH1 0x20 ADD PUSH1 0x40 MLOAD DUP1 SWAP2 SUB SWAP1 KECCAK256 SLOAD PUSH1 0x0 EQ PUSH2 0xA0C JUMPI PUSH1 0x40 MLOAD PUSH4 0xEA075BF PUSH1 0xE2 SHL DUP2 MSTORE PUSH1 0x4 ADD PUSH1 0x40 MLOAD DUP1 SWAP2 SUB SWAP1 REVERT JUMPDEST PUSH2 0xA16 DUP4 DUP4 PUSH2 0x1775 JUMP JUMPDEST PUSH2 0xA37 JUMPI DUP3 DUP3 PUSH1 0x40 MLOAD PUSH4 0x7F19F48D PUSH1 0xE0 SHL DUP2 MSTORE PUSH1 0x4 ADD PUSH2 0x87A SWAP3 SWAP2 SWAP1 PUSH2 0x3492 JUMP JUMPDEST PUSH1 0x0 PUSH2 0xA42 PUSH1 0xB SLOAD SWAP1 JUMP JUMPDEST SWAP1 POP PUSH2 0xA4E DUP3 DUP3 PUSH2 0x2258 JUMP JUMPDEST PUSH1 0x0 DUP2 DUP2 MSTORE PUSH1 0x7 PUSH1 0x20 MSTORE PUSH1 0x40 SWAP1 KECCAK256 PUSH2 0xA67 SWAP1 DUP6 DUP6 PUSH2 0x2BEC JUMP JUMPDEST POP DUP1 PUSH1 0x8 DUP6 DUP6 PUSH1 0x40 MLOAD PUSH2 0xA7B SWAP3 SWAP2 SWAP1 PUSH2 0x3482 JUMP JUMPDEST SWAP1 DUP2 MSTORE PUSH1 0x40 MLOAD SWAP1 DUP2 SWAP1 SUB PUSH1 0x20 ADD SWAP1 KECCAK256 SSTORE PUSH2 0xA99 PUSH1 0xB DUP1 SLOAD PUSH1 0x1 ADD SWAP1 SSTORE JUMP JUMPDEST POP POP POP POP JUMP JUMPDEST PUSH2 0xAA9 CALLER DUP3 PUSH2 0x2272 JUMP JUMPDEST PUSH2 0xAC5 JUMPI PUSH1 0x40 MLOAD PUSH3 0x461BCD PUSH1 0xE5 SHL DUP2 MSTORE PUSH1 0x4 ADD PUSH2 0x87A SWAP1 PUSH2 0x34C1 JUMP JUMPDEST PUSH2 0x9AF DUP4 DUP4 DUP4 PUSH2 0x2369 JUMP JUMPDEST PUSH1 0x9 DUP1 SLOAD PUSH2 0xADD SWAP1 PUSH2 0x344E JUMP JUMPDEST DUP1 PUSH1 0x1F ADD PUSH1 0x20 DUP1 SWAP2 DIV MUL PUSH1 0x20 ADD PUSH1 0x40 MLOAD SWAP1 DUP2 ADD PUSH1 0x40 MSTORE DUP1 SWAP3 SWAP2 SWAP1 DUP2 DUP2 MSTORE PUSH1 0x20 ADD DUP3 DUP1 SLOAD PUSH2 0xB09 SWAP1 PUSH2 0x344E JUMP JUMPDEST DUP1 ISZERO PUSH2 0xB56 JUMPI DUP1 PUSH1 0x1F LT PUSH2 0xB2B JUMPI PUSH2 0x100 DUP1 DUP4 SLOAD DIV MUL DUP4 MSTORE SWAP2 PUSH1 0x20 ADD SWAP2 PUSH2 0xB56 JUMP JUMPDEST DUP3 ADD SWAP2 SWAP1 PUSH1 0x0 MSTORE PUSH1 0x20 PUSH1 0x0 KECCAK256 SWAP1 JUMPDEST DUP2 SLOAD DUP2 MSTORE SWAP1 PUSH1 0x1 ADD SWAP1 PUSH1 0x20 ADD DUP1 DUP4 GT PUSH2 0xB39 JUMPI DUP3 SWAP1 SUB PUSH1 0x1F AND DUP3 ADD SWAP2 JUMPDEST POP POP POP POP POP DUP2 JUMP JUMPDEST PUSH1 0xA SLOAD PUSH1 0x1 PUSH1 0x1 PUSH1 0xA0 SHL SUB AND CALLER EQ PUSH2 0xB75 JUMPI PUSH1 0x0 DUP1 REVERT JUMPDEST PUSH1 0x40 MLOAD SELFBALANCE SWAP1 PUSH1 0x0 SWAP1 CALLER SWAP1 DUP4 SWAP1 DUP4 DUP2 DUP2 DUP2 DUP6 DUP8 GAS CALL SWAP3 POP POP POP RETURNDATASIZE DUP1 PUSH1 0x0 DUP2 EQ PUSH2 0xBB9 JUMPI PUSH1 0x40 MLOAD SWAP2 POP PUSH1 0x1F NOT PUSH1 0x3F RETURNDATASIZE ADD AND DUP3 ADD PUSH1 0x40 MSTORE RETURNDATASIZE DUP3 MSTORE RETURNDATASIZE PUSH1 0x0 PUSH1 0x20 DUP5 ADD RETURNDATACOPY PUSH2 0xBBE JUMP JUMPDEST PUSH1 0x60 SWAP2 POP JUMPDEST POP POP SWAP1 POP DUP1 PUSH2 0xC08 JUMPI PUSH1 0x40 MLOAD PUSH3 0x461BCD PUSH1 0xE5 SHL DUP2 MSTORE PUSH1 0x20 PUSH1 0x4 DUP3 ADD MSTORE PUSH1 0x16 PUSH1 0x24 DUP3 ADD MSTORE PUSH22 0x2330B4B632B2103A37903BB4BA34323930BB9026AA29 PUSH1 0x51 SHL PUSH1 0x44 DUP3 ADD MSTORE PUSH1 0x64 ADD PUSH2 0x87A JUMP JUMPDEST POP POP JUMP JUMPDEST PUSH2 0x9AF DUP4 DUP4 DUP4 PUSH1 0x40 MLOAD DUP1 PUSH1 0x20 ADD PUSH1 0x40 MSTORE DUP1 PUSH1 0x0 DUP2 MSTORE POP PUSH2 0x183B JUMP JUMPDEST PUSH1 0x60 PUSH1 0x0 PUSH2 0xC34 DUP4 PUSH2 0x1077 JUMP JUMPDEST SWAP1 POP PUSH1 0x0 DUP2 PUSH1 0x1 PUSH1 0x1 PUSH1 0x40 SHL SUB DUP2 GT ISZERO PUSH2 0xC50 JUMPI PUSH2 0xC50 PUSH2 0x2F28 JUMP JUMPDEST PUSH1 0x40 MLOAD SWAP1 DUP1 DUP3 MSTORE DUP1 PUSH1 0x20 MUL PUSH1 0x20 ADD DUP3 ADD PUSH1 0x40 MSTORE DUP1 ISZERO PUSH2 0xC79 JUMPI DUP2 PUSH1 0x20 ADD PUSH1 0x20 DUP3 MUL DUP1 CALLDATASIZE DUP4 CALLDATACOPY ADD SWAP1 POP JUMPDEST POP SWAP1 POP PUSH1 0x1 PUSH1 0x0 JUMPDEST DUP4 DUP2 LT DUP1 ISZERO PUSH2 0xC92 JUMPI POP PUSH1 0xB SLOAD DUP3 GT ISZERO JUMPDEST ISZERO PUSH2 0xCFC JUMPI PUSH1 0x0 PUSH2 0xCA2 DUP4 PUSH2 0x1000 JUMP JUMPDEST SWAP1 POP DUP7 PUSH1 0x1 PUSH1 0x1 PUSH1 0xA0 SHL SUB AND DUP2 PUSH1 0x1 PUSH1 0x1 PUSH1 0xA0 SHL SUB AND SUB PUSH2 0xCE9 JUMPI DUP3 DUP5 DUP4 DUP2 MLOAD DUP2 LT PUSH2 0xCD0 JUMPI PUSH2 0xCD0 PUSH2 0x3512 JUMP JUMPDEST PUSH1 0x20 SWAP1 DUP2 MUL SWAP2 SWAP1 SWAP2 ADD ADD MSTORE DUP2 PUSH2 0xCE5 DUP2 PUSH2 0x353E JUMP JUMPDEST SWAP3 POP POP JUMPDEST DUP3 PUSH2 0xCF3 DUP2 PUSH2 0x353E JUMP JUMPDEST SWAP4 POP POP POP PUSH2 0xC81 JUMP JUMPDEST POP SWAP1 SWAP5 SWAP4 POP POP POP POP JUMP JUMPDEST PUSH1 0x7 PUSH1 0x20 MSTORE PUSH1 0x0 SWAP1 DUP2 MSTORE PUSH1 0x40 SWAP1 KECCAK256 DUP1 SLOAD PUSH2 0xADD SWAP1 PUSH2 0x344E JUMP JUMPDEST DUP1 MLOAD PUSH1 0x20 DUP2 DUP4 ADD DUP2 ADD DUP1 MLOAD PUSH1 0x6 DUP3 MSTORE SWAP3 DUP3 ADD SWAP2 SWAP1 SWAP4 ADD KECCAK256 SWAP2 MSTORE DUP1 SLOAD DUP2 SWAP1 PUSH2 0xD45 SWAP1 PUSH2 0x344E JUMP JUMPDEST DUP1 PUSH1 0x1F ADD PUSH1 0x20 DUP1 SWAP2 DIV MUL PUSH1 0x20 ADD PUSH1 0x40 MLOAD SWAP1 DUP2 ADD PUSH1 0x40 MSTORE DUP1 SWAP3 SWAP2 SWAP1 DUP2 DUP2 MSTORE PUSH1 0x20 ADD DUP3 DUP1 SLOAD PUSH2 0xD71 SWAP1 PUSH2 0x344E JUMP JUMPDEST DUP1 ISZERO PUSH2 0xDBE JUMPI DUP1 PUSH1 0x1F LT PUSH2 0xD93 JUMPI PUSH2 0x100 DUP1 DUP4 SLOAD DIV MUL DUP4 MSTORE SWAP2 PUSH1 0x20 ADD SWAP2 PUSH2 0xDBE JUMP JUMPDEST DUP3 ADD SWAP2 SWAP1 PUSH1 0x0 MSTORE PUSH1 0x20 PUSH1 0x0 KECCAK256 SWAP1 JUMPDEST DUP2 SLOAD DUP2 MSTORE SWAP1 PUSH1 0x1 ADD SWAP1 PUSH1 0x20 ADD DUP1 DUP4 GT PUSH2 0xDA1 JUMPI DUP3 SWAP1 SUB PUSH1 0x1F AND DUP3 ADD SWAP2 JUMPDEST POP POP POP POP POP SWAP1 DUP1 PUSH1 0x1 ADD DUP1 SLOAD PUSH2 0xDD3 SWAP1 PUSH2 0x344E JUMP JUMPDEST DUP1 PUSH1 0x1F ADD PUSH1 0x20 DUP1 SWAP2 DIV MUL PUSH1 0x20 ADD PUSH1 0x40 MLOAD SWAP1 DUP2 ADD PUSH1 0x40 MSTORE DUP1 SWAP3 SWAP2 SWAP1 DUP2 DUP2 MSTORE PUSH1 0x20 ADD DUP3 DUP1 SLOAD PUSH2 0xDFF SWAP1 PUSH2 0x344E JUMP JUMPDEST DUP1 ISZERO PUSH2 0xE4C JUMPI DUP1 PUSH1 0x1F LT PUSH2 0xE21 JUMPI PUSH2 0x100 DUP1 DUP4 SLOAD DIV MUL DUP4 MSTORE SWAP2 PUSH1 0x20 ADD SWAP2 PUSH2 0xE4C JUMP JUMPDEST DUP3 ADD SWAP2 SWAP1 PUSH1 0x0 MSTORE PUSH1 0x20 PUSH1 0x0 KECCAK256 SWAP1 JUMPDEST DUP2 SLOAD DUP2 MSTORE SWAP1 PUSH1 0x1 ADD SWAP1 PUSH1 0x20 ADD DUP1 DUP4 GT PUSH2 0xE2F JUMPI DUP3 SWAP1 SUB PUSH1 0x1F AND DUP3 ADD SWAP2 JUMPDEST POP POP POP POP POP SWAP1 DUP1 PUSH1 0x2 ADD DUP1 SLOAD PUSH2 0xE61 SWAP1 PUSH2 0x344E JUMP JUMPDEST DUP1 PUSH1 0x1F ADD PUSH1 0x20 DUP1 SWAP2 DIV MUL PUSH1 0x20 ADD PUSH1 0x40 MLOAD SWAP1 DUP2 ADD PUSH1 0x40 MSTORE DUP1 SWAP3 SWAP2 SWAP1 DUP2 DUP2 MSTORE PUSH1 0x20 ADD DUP3 DUP1 SLOAD PUSH2 0xE8D SWAP1 PUSH2 0x344E JUMP JUMPDEST DUP1 ISZERO PUSH2 0xEDA JUMPI DUP1 PUSH1 0x1F LT PUSH2 0xEAF JUMPI PUSH2 0x100 DUP1 DUP4 SLOAD DIV MUL DUP4 MSTORE SWAP2 PUSH1 0x20 ADD SWAP2 PUSH2 0xEDA JUMP JUMPDEST DUP3 ADD SWAP2 SWAP1 PUSH1 0x0 MSTORE PUSH1 0x20 PUSH1 0x0 KECCAK256 SWAP1 JUMPDEST DUP2 SLOAD DUP2 MSTORE SWAP1 PUSH1 0x1 ADD SWAP1 PUSH1 0x20 ADD DUP1 DUP4 GT PUSH2 0xEBD JUMPI DUP3 SWAP1 SUB PUSH1 0x1F AND DUP3 ADD SWAP2 JUMPDEST POP POP POP POP POP SWAP1 DUP1 PUSH1 0x3 ADD DUP1 SLOAD PUSH2 0xEEF SWAP1 PUSH2 0x344E JUMP JUMPDEST DUP1 PUSH1 0x1F ADD PUSH1 0x20 DUP1 SWAP2 DIV MUL PUSH1 0x20 ADD PUSH1 0x40 MLOAD SWAP1 DUP2 ADD PUSH1 0x40 MSTORE DUP1 SWAP3 SWAP2 SWAP1 DUP2 DUP2 MSTORE PUSH1 0x20 ADD DUP3 DUP1 SLOAD PUSH2 0xF1B SWAP1 PUSH2 0x344E JUMP JUMPDEST DUP1 ISZERO PUSH2 0xF68 JUMPI DUP1 PUSH1 0x1F LT PUSH2 0xF3D JUMPI PUSH2 0x100 DUP1 DUP4 SLOAD DIV MUL DUP4 MSTORE SWAP2 PUSH1 0x20 ADD SWAP2 PUSH2 0xF68 JUMP JUMPDEST DUP3 ADD SWAP2 SWAP1 PUSH1 0x0 MSTORE PUSH1 0x20 PUSH1 0x0 KECCAK256 SWAP1 JUMPDEST DUP2 SLOAD DUP2 MSTORE SWAP1 PUSH1 0x1 ADD SWAP1 PUSH1 0x20 ADD DUP1 DUP4 GT PUSH2 0xF4B JUMPI DUP3 SWAP1 SUB PUSH1 0x1F AND DUP3 ADD SWAP2 JUMPDEST POP POP POP POP POP SWAP1 DUP1 PUSH1 0x4 ADD DUP1 SLOAD PUSH2 0xF7D SWAP1 PUSH2 0x344E JUMP JUMPDEST DUP1 PUSH1 0x1F ADD PUSH1 0x20 DUP1 SWAP2 DIV MUL PUSH1 0x20 ADD PUSH1 0x40 MLOAD SWAP1 DUP2 ADD PUSH1 0x40 MSTORE DUP1 SWAP3 SWAP2 SWAP1 DUP2 DUP2 MSTORE PUSH1 0x20 ADD DUP3 DUP1 SLOAD PUSH2 0xFA9 SWAP1 PUSH2 0x344E JUMP JUMPDEST DUP1 ISZERO PUSH2 0xFF6 JUMPI DUP1 PUSH1 0x1F LT PUSH2 0xFCB JUMPI PUSH2 0x100 DUP1 DUP4 SLOAD DIV MUL DUP4 MSTORE SWAP2 PUSH1 0x20 ADD SWAP2 PUSH2 0xFF6 JUMP JUMPDEST DUP3 ADD SWAP2 SWAP1 PUSH1 0x0 MSTORE PUSH1 0x20 PUSH1 0x0 KECCAK256 SWAP1 JUMPDEST DUP2 SLOAD DUP2 MSTORE SWAP1 PUSH1 0x1 ADD SWAP1 PUSH1 0x20 ADD DUP1 DUP4 GT PUSH2 0xFD9 JUMPI DUP3 SWAP1 SUB PUSH1 0x1F AND DUP3 ADD SWAP2 JUMPDEST POP POP POP POP POP SWAP1 POP DUP6 JUMP JUMPDEST PUSH1 0x0 DUP2 DUP2 MSTORE PUSH1 0x2 PUSH1 0x20 MSTORE PUSH1 0x40 DUP2 KECCAK256 SLOAD PUSH1 0x1 PUSH1 0x1 PUSH1 0xA0 SHL SUB AND DUP1 PUSH2 0x76D JUMPI PUSH1 0x40 MLOAD PUSH3 0x461BCD PUSH1 0xE5 SHL DUP2 MSTORE PUSH1 0x20 PUSH1 0x4 DUP3 ADD MSTORE PUSH1 0x29 PUSH1 0x24 DUP3 ADD MSTORE PUSH32 0x4552433732313A206F776E657220717565727920666F72206E6F6E6578697374 PUSH1 0x44 DUP3 ADD MSTORE PUSH9 0x32B73A103A37B5B2B7 PUSH1 0xB9 SHL PUSH1 0x64 DUP3 ADD MSTORE PUSH1 0x84 ADD PUSH2 0x87A JUMP JUMPDEST PUSH1 0x0 PUSH1 0x1 PUSH1 0x1 PUSH1 0xA0 SHL SUB DUP3 AND PUSH2 0x10E2 JUMPI PUSH1 0x40 MLOAD PUSH3 0x461BCD PUSH1 0xE5 SHL DUP2 MSTORE PUSH1 0x20 PUSH1 0x4 DUP3 ADD MSTORE PUSH1 0x2A PUSH1 0x24 DUP3 ADD MSTORE PUSH32 0x4552433732313A2062616C616E636520717565727920666F7220746865207A65 PUSH1 0x44 DUP3 ADD MSTORE PUSH10 0x726F2061646472657373 PUSH1 0xB0 SHL PUSH1 0x64 DUP3 ADD MSTORE PUSH1 0x84 ADD PUSH2 0x87A JUMP JUMPDEST POP PUSH1 0x1 PUSH1 0x1 PUSH1 0xA0 SHL SUB AND PUSH1 0x0 SWAP1 DUP2 MSTORE PUSH1 0x3 PUSH1 0x20 MSTORE PUSH1 0x40 SWAP1 KECCAK256 SLOAD SWAP1 JUMP JUMPDEST PUSH1 0x60 PUSH1 0x0 DUP1 PUSH2 0x110D DUP6 DUP6 PUSH2 0x18C5 JUMP JUMPDEST PUSH1 0x40 DUP1 MLOAD PUSH1 0x5 DUP1 DUP3 MSTORE PUSH1 0xC0 DUP3 ADD SWAP1 SWAP3 MSTORE SWAP2 SWAP3 POP PUSH1 0x0 SWAP2 SWAP1 DUP2 PUSH1 0x20 ADD JUMPDEST PUSH1 0x60 DUP2 MSTORE PUSH1 0x20 ADD SWAP1 PUSH1 0x1 SWAP1 SUB SWAP1 DUP2 PUSH2 0x1129 JUMPI SWAP1 POP POP SWAP1 POP PUSH1 0x6 DUP7 DUP7 PUSH1 0x40 MLOAD PUSH2 0x1152 SWAP3 SWAP2 SWAP1 PUSH2 0x3482 JUMP JUMPDEST SWAP1 DUP2 MSTORE PUSH1 0x40 MLOAD SWAP1 DUP2 SWAP1 SUB PUSH1 0x20 ADD SWAP1 KECCAK256 DUP1 SLOAD PUSH2 0x116C SWAP1 PUSH2 0x344E JUMP JUMPDEST DUP1 PUSH1 0x1F ADD PUSH1 0x20 DUP1 SWAP2 DIV MUL PUSH1 0x20 ADD PUSH1 0x40 MLOAD SWAP1 DUP2 ADD PUSH1 0x40 MSTORE DUP1 SWAP3 SWAP2 SWAP1 DUP2 DUP2 MSTORE PUSH1 0x20 ADD DUP3 DUP1 SLOAD PUSH2 0x1198 SWAP1 PUSH2 0x344E JUMP JUMPDEST DUP1 ISZERO PUSH2 0x11E5 JUMPI DUP1 PUSH1 0x1F LT PUSH2 0x11BA JUMPI PUSH2 0x100 DUP1 DUP4 SLOAD DIV MUL DUP4 MSTORE SWAP2 PUSH1 0x20 ADD SWAP2 PUSH2 0x11E5 JUMP JUMPDEST DUP3 ADD SWAP2 SWAP1 PUSH1 0x0 MSTORE PUSH1 0x20 PUSH1 0x0 KECCAK256 SWAP1 JUMPDEST DUP2 SLOAD DUP2 MSTORE SWAP1 PUSH1 0x1 ADD SWAP1 PUSH1 0x20 ADD DUP1 DUP4 GT PUSH2 0x11C8 JUMPI DUP3 SWAP1 SUB PUSH1 0x1F AND DUP3 ADD SWAP2 JUMPDEST POP POP POP POP POP DUP2 PUSH1 0x0 DUP2 MLOAD DUP2 LT PUSH2 0x11FD JUMPI PUSH2 0x11FD PUSH2 0x3512 JUMP JUMPDEST PUSH1 0x20 MUL PUSH1 0x20 ADD ADD DUP2 SWAP1 MSTORE POP PUSH1 0x6 DUP7 DUP7 PUSH1 0x40 MLOAD PUSH2 0x121A SWAP3 SWAP2 SWAP1 PUSH2 0x3482 JUMP JUMPDEST SWAP1 DUP2 MSTORE PUSH1 0x20 ADD PUSH1 0x40 MLOAD DUP1 SWAP2 SUB SWAP1 KECCAK256 PUSH1 0x1 ADD DUP1 SLOAD PUSH2 0x1236 SWAP1 PUSH2 0x344E JUMP JUMPDEST DUP1 PUSH1 0x1F ADD PUSH1 0x20 DUP1 SWAP2 DIV MUL PUSH1 0x20 ADD PUSH1 0x40 MLOAD SWAP1 DUP2 ADD PUSH1 0x40 MSTORE DUP1 SWAP3 SWAP2 SWAP1 DUP2 DUP2 MSTORE PUSH1 0x20 ADD DUP3 DUP1 SLOAD PUSH2 0x1262 SWAP1 PUSH2 0x344E JUMP JUMPDEST DUP1 ISZERO PUSH2 0x12AF JUMPI DUP1 PUSH1 0x1F LT PUSH2 0x1284 JUMPI PUSH2 0x100 DUP1 DUP4 SLOAD DIV MUL DUP4 MSTORE SWAP2 PUSH1 0x20 ADD SWAP2 PUSH2 0x12AF JUMP JUMPDEST DUP3 ADD SWAP2 SWAP1 PUSH1 0x0 MSTORE PUSH1 0x20 PUSH1 0x0 KECCAK256 SWAP1 JUMPDEST DUP2 SLOAD DUP2 MSTORE SWAP1 PUSH1 0x1 ADD SWAP1 PUSH1 0x20 ADD DUP1 DUP4 GT PUSH2 0x1292 JUMPI DUP3 SWAP1 SUB PUSH1 0x1F AND DUP3 ADD SWAP2 JUMPDEST POP POP POP POP POP DUP2 PUSH1 0x1 DUP2 MLOAD DUP2 LT PUSH2 0x12C7 JUMPI PUSH2 0x12C7 PUSH2 0x3512 JUMP JUMPDEST PUSH1 0x20 MUL PUSH1 0x20 ADD ADD DUP2 SWAP1 MSTORE POP PUSH1 0x6 DUP7 DUP7 PUSH1 0x40 MLOAD PUSH2 0x12E4 SWAP3 SWAP2 SWAP1 PUSH2 0x3482 JUMP JUMPDEST SWAP1 DUP2 MSTORE PUSH1 0x20 ADD PUSH1 0x40 MLOAD DUP1 SWAP2 SUB SWAP1 KECCAK256 PUSH1 0x2 ADD DUP1 SLOAD PUSH2 0x1300 SWAP1 PUSH2 0x344E JUMP JUMPDEST DUP1 PUSH1 0x1F ADD PUSH1 0x20 DUP1 SWAP2 DIV MUL PUSH1 0x20 ADD PUSH1 0x40 MLOAD SWAP1 DUP2 ADD PUSH1 0x40 MSTORE DUP1 SWAP3 SWAP2 SWAP1 DUP2 DUP2 MSTORE PUSH1 0x20 ADD DUP3 DUP1 SLOAD PUSH2 0x132C SWAP1 PUSH2 0x344E JUMP JUMPDEST DUP1 ISZERO PUSH2 0x1379 JUMPI DUP1 PUSH1 0x1F LT PUSH2 0x134E JUMPI PUSH2 0x100 DUP1 DUP4 SLOAD DIV MUL DUP4 MSTORE SWAP2 PUSH1 0x20 ADD SWAP2 PUSH2 0x1379 JUMP JUMPDEST DUP3 ADD SWAP2 SWAP1 PUSH1 0x0 MSTORE PUSH1 0x20 PUSH1 0x0 KECCAK256 SWAP1 JUMPDEST DUP2 SLOAD DUP2 MSTORE SWAP1 PUSH1 0x1 ADD SWAP1 PUSH1 0x20 ADD DUP1 DUP4 GT PUSH2 0x135C JUMPI DUP3 SWAP1 SUB PUSH1 0x1F AND DUP3 ADD SWAP2 JUMPDEST POP POP POP POP POP DUP2 PUSH1 0x2 DUP2 MLOAD DUP2 LT PUSH2 0x1391 JUMPI PUSH2 0x1391 PUSH2 0x3512 JUMP JUMPDEST PUSH1 0x20 MUL PUSH1 0x20 ADD ADD DUP2 SWAP1 MSTORE POP PUSH1 0x6 DUP7 DUP7 PUSH1 0x40 MLOAD PUSH2 0x13AE SWAP3 SWAP2 SWAP1 PUSH2 0x3482 JUMP JUMPDEST SWAP1 DUP2 MSTORE PUSH1 0x20 ADD PUSH1 0x40 MLOAD DUP1 SWAP2 SUB SWAP1 KECCAK256 PUSH1 0x3 ADD DUP1 SLOAD PUSH2 0x13CA SWAP1 PUSH2 0x344E JUMP JUMPDEST DUP1 PUSH1 0x1F ADD PUSH1 0x20 DUP1 SWAP2 DIV MUL PUSH1 0x20 ADD PUSH1 0x40 MLOAD SWAP1 DUP2 ADD PUSH1 0x40 MSTORE DUP1 SWAP3 SWAP2 SWAP1 DUP2 DUP2 MSTORE PUSH1 0x20 ADD DUP3 DUP1 SLOAD PUSH2 0x13F6 SWAP1 PUSH2 0x344E JUMP JUMPDEST DUP1 ISZERO PUSH2 0x1443 JUMPI DUP1 PUSH1 0x1F LT PUSH2 0x1418 JUMPI PUSH2 0x100 DUP1 DUP4 SLOAD DIV MUL DUP4 MSTORE SWAP2 PUSH1 0x20 ADD SWAP2 PUSH2 0x1443 JUMP JUMPDEST DUP3 ADD SWAP2 SWAP1 PUSH1 0x0 MSTORE PUSH1 0x20 PUSH1 0x0 KECCAK256 SWAP1 JUMPDEST DUP2 SLOAD DUP2 MSTORE SWAP1 PUSH1 0x1 ADD SWAP1 PUSH1 0x20 ADD DUP1 DUP4 GT PUSH2 0x1426 JUMPI DUP3 SWAP1 SUB PUSH1 0x1F AND DUP3 ADD SWAP2 JUMPDEST POP POP POP POP POP DUP2 PUSH1 0x3 DUP2 MLOAD DUP2 LT PUSH2 0x145B JUMPI PUSH2 0x145B PUSH2 0x3512 JUMP JUMPDEST PUSH1 0x20 MUL PUSH1 0x20 ADD ADD DUP2 SWAP1 MSTORE POP PUSH1 0x6 DUP7 DUP7 PUSH1 0x40 MLOAD PUSH2 0x1478 SWAP3 SWAP2 SWAP1 PUSH2 0x3482 JUMP JUMPDEST SWAP1 DUP2 MSTORE PUSH1 0x20 ADD PUSH1 0x40 MLOAD DUP1 SWAP2 SUB SWAP1 KECCAK256 PUSH1 0x4 ADD DUP1 SLOAD PUSH2 0x1494 SWAP1 PUSH2 0x344E JUMP JUMPDEST DUP1 PUSH1 0x1F ADD PUSH1 0x20 DUP1 SWAP2 DIV MUL PUSH1 0x20 ADD PUSH1 0x40 MLOAD SWAP1 DUP2 ADD PUSH1 0x40 MSTORE DUP1 SWAP3 SWAP2 SWAP1 DUP2 DUP2 MSTORE PUSH1 0x20 ADD DUP3 DUP1 SLOAD PUSH2 0x14C0 SWAP1 PUSH2 0x344E JUMP JUMPDEST DUP1 ISZERO PUSH2 0x150D JUMPI DUP1 PUSH1 0x1F LT PUSH2 0x14E2 JUMPI PUSH2 0x100 DUP1 DUP4 SLOAD DIV MUL DUP4 MSTORE SWAP2 PUSH1 0x20 ADD SWAP2 PUSH2 0x150D JUMP JUMPDEST DUP3 ADD SWAP2 SWAP1 PUSH1 0x0 MSTORE PUSH1 0x20 PUSH1 0x0 KECCAK256 SWAP1 JUMPDEST DUP2 SLOAD DUP2 MSTORE SWAP1 PUSH1 0x1 ADD SWAP1 PUSH1 0x20 ADD DUP1 DUP4 GT PUSH2 0x14F0 JUMPI DUP3 SWAP1 SUB PUSH1 0x1F AND DUP3 ADD SWAP2 JUMPDEST POP POP POP POP POP DUP2 PUSH1 0x4 DUP2 MLOAD DUP2 LT PUSH2 0x1525 JUMPI PUSH2 0x1525 PUSH2 0x3512 JUMP JUMPDEST PUSH1 0x20 SWAP1 DUP2 MUL SWAP2 SWAP1 SWAP2 ADD ADD MSTORE SWAP3 POP SWAP1 POP JUMPDEST SWAP3 POP SWAP3 SWAP1 POP JUMP JUMPDEST PUSH1 0x60 PUSH1 0x1 DUP1 SLOAD PUSH2 0x782 SWAP1 PUSH2 0x344E JUMP JUMPDEST PUSH1 0x60 PUSH1 0x0 DUP3 PUSH1 0x4 DUP2 GT ISZERO PUSH2 0x1561 JUMPI PUSH2 0x1561 PUSH2 0x3557 JUMP JUMPDEST SUB PUSH2 0x1617 JUMPI PUSH1 0x6 DUP5 DUP5 PUSH1 0x40 MLOAD PUSH2 0x1578 SWAP3 SWAP2 SWAP1 PUSH2 0x3482 JUMP JUMPDEST SWAP1 DUP2 MSTORE PUSH1 0x40 MLOAD SWAP1 DUP2 SWAP1 SUB PUSH1 0x20 ADD SWAP1 KECCAK256 DUP1 SLOAD PUSH2 0x1592 SWAP1 PUSH2 0x344E JUMP JUMPDEST DUP1 PUSH1 0x1F ADD PUSH1 0x20 DUP1 SWAP2 DIV MUL PUSH1 0x20 ADD PUSH1 0x40 MLOAD SWAP1 DUP2 ADD PUSH1 0x40 MSTORE DUP1 SWAP3 SWAP2 SWAP1 DUP2 DUP2 MSTORE PUSH1 0x20 ADD DUP3 DUP1 SLOAD PUSH2 0x15BE SWAP1 PUSH2 0x344E JUMP JUMPDEST DUP1 ISZERO PUSH2 0x160B JUMPI DUP1 PUSH1 0x1F LT PUSH2 0x15E0 JUMPI PUSH2 0x100 DUP1 DUP4 SLOAD DIV MUL DUP4 MSTORE SWAP2 PUSH1 0x20 ADD SWAP2 PUSH2 0x160B JUMP JUMPDEST DUP3 ADD SWAP2 SWAP1 PUSH1 0x0 MSTORE PUSH1 0x20 PUSH1 0x0 KECCAK256 SWAP1 JUMPDEST DUP2 SLOAD DUP2 MSTORE SWAP1 PUSH1 0x1 ADD SWAP1 PUSH1 0x20 ADD DUP1 DUP4 GT PUSH2 0x15EE JUMPI DUP3 SWAP1 SUB PUSH1 0x1F AND DUP3 ADD SWAP2 JUMPDEST POP POP POP POP POP SWAP1 POP PUSH2 0x176E JUMP JUMPDEST PUSH1 0x1 DUP3 PUSH1 0x4 DUP2 GT ISZERO PUSH2 0x162B JUMPI PUSH2 0x162B PUSH2 0x3557 JUMP JUMPDEST SUB PUSH2 0x165E JUMPI PUSH1 0x6 DUP5 DUP5 PUSH1 0x40 MLOAD PUSH2 0x1642 SWAP3 SWAP2 SWAP1 PUSH2 0x3482 JUMP JUMPDEST SWAP1 DUP2 MSTORE PUSH1 0x20 ADD PUSH1 0x40 MLOAD DUP1 SWAP2 SUB SWAP1 KECCAK256 PUSH1 0x1 ADD DUP1 SLOAD PUSH2 0x1592 SWAP1 PUSH2 0x344E JUMP JUMPDEST PUSH1 0x2 DUP3 PUSH1 0x4 DUP2 GT ISZERO PUSH2 0x1672 JUMPI PUSH2 0x1672 PUSH2 0x3557 JUMP JUMPDEST SUB PUSH2 0x16A5 JUMPI PUSH1 0x6 DUP5 DUP5 PUSH1 0x40 MLOAD PUSH2 0x1689 SWAP3 SWAP2 SWAP1 PUSH2 0x3482 JUMP JUMPDEST SWAP1 DUP2 MSTORE PUSH1 0x20 ADD PUSH1 0x40 MLOAD DUP1 SWAP2 SUB SWAP1 KECCAK256 PUSH1 0x2 ADD DUP1 SLOAD PUSH2 0x1592 SWAP1 PUSH2 0x344E JUMP JUMPDEST PUSH1 0x3 DUP3 PUSH1 0x4 DUP2 GT ISZERO PUSH2 0x16B9 JUMPI PUSH2 0x16B9 PUSH2 0x3557 JUMP JUMPDEST SUB PUSH2 0x16EC JUMPI PUSH1 0x6 DUP5 DUP5 PUSH1 0x40 MLOAD PUSH2 0x16D0 SWAP3 SWAP2 SWAP1 PUSH2 0x3482 JUMP JUMPDEST SWAP1 DUP2 MSTORE PUSH1 0x20 ADD PUSH1 0x40 MLOAD DUP1 SWAP2 SUB SWAP1 KECCAK256 PUSH1 0x3 ADD DUP1 SLOAD PUSH2 0x1592 SWAP1 PUSH2 0x344E JUMP JUMPDEST PUSH1 0x4 DUP3 PUSH1 0x4 DUP2 GT ISZERO PUSH2 0x1700 JUMPI PUSH2 0x1700 PUSH2 0x3557 JUMP JUMPDEST SUB PUSH2 0x1733 JUMPI PUSH1 0x6 DUP5 DUP5 PUSH1 0x40 MLOAD PUSH2 0x1717 SWAP3 SWAP2 SWAP1 PUSH2 0x3482 JUMP JUMPDEST SWAP1 DUP2 MSTORE PUSH1 0x20 ADD PUSH1 0x40 MLOAD DUP1 SWAP2 SUB SWAP1 KECCAK256 PUSH1 0x4 ADD DUP1 SLOAD PUSH2 0x1592 SWAP1 PUSH2 0x344E JUMP JUMPDEST PUSH1 0x40 MLOAD PUSH3 0x461BCD PUSH1 0xE5 SHL DUP2 MSTORE PUSH1 0x20 PUSH1 0x4 DUP3 ADD MSTORE PUSH1 0x10 PUSH1 0x24 DUP3 ADD MSTORE PUSH16 0x149958DBDC99081B9BDD08199BDD5B99 PUSH1 0x82 SHL PUSH1 0x44 DUP3 ADD MSTORE PUSH1 0x64 ADD PUSH2 0x87A JUMP JUMPDEST SWAP4 SWAP3 POP POP POP JUMP JUMPDEST PUSH1 0x0 PUSH1 0x3 PUSH2 0x17B8 DUP5 DUP5 DUP1 DUP1 PUSH1 0x1F ADD PUSH1 0x20 DUP1 SWAP2 DIV MUL PUSH1 0x20 ADD PUSH1 0x40 MLOAD SWAP1 DUP2 ADD PUSH1 0x40 MSTORE DUP1 SWAP4 SWAP3 SWAP2 SWAP1 DUP2 DUP2 MSTORE PUSH1 0x20 ADD DUP4 DUP4 DUP1 DUP3 DUP5 CALLDATACOPY PUSH1 0x0 SWAP3 ADD SWAP2 SWAP1 SWAP2 MSTORE POP PUSH2 0x2509 SWAP3 POP POP POP JUMP JUMPDEST LT ISZERO DUP1 ISZERO PUSH2 0x176E JUMPI POP PUSH1 0x1E PUSH2 0x1802 DUP5 DUP5 DUP1 DUP1 PUSH1 0x1F ADD PUSH1 0x20 DUP1 SWAP2 DIV MUL PUSH1 0x20 ADD PUSH1 0x40 MLOAD SWAP1 DUP2 ADD PUSH1 0x40 MSTORE DUP1 SWAP4 SWAP3 SWAP2 SWAP1 DUP2 DUP2 MSTORE PUSH1 0x20 ADD DUP4 DUP4 DUP1 DUP3 DUP5 CALLDATACOPY PUSH1 0x0 SWAP3 ADD SWAP2 SWAP1 SWAP2 MSTORE POP PUSH2 0x2509 SWAP3 POP POP POP JUMP JUMPDEST GT ISZERO SWAP4 SWAP3 POP POP POP JUMP JUMPDEST PUSH2 0xC08 CALLER DUP4 DUP4 PUSH2 0x260C JUMP JUMPDEST PUSH1 0xA SLOAD PUSH1 0x1 PUSH1 0x1 PUSH1 0xA0 SHL SUB AND CALLER EQ PUSH2 0x182D JUMPI PUSH1 0x0 DUP1 REVERT JUMPDEST PUSH1 0xC SWAP3 SWAP1 SWAP3 SSTORE PUSH1 0xD SSTORE PUSH1 0xE SSTORE JUMP JUMPDEST PUSH2 0x1845 CALLER DUP4 PUSH2 0x2272 JUMP JUMPDEST PUSH2 0x1861 JUMPI PUSH1 0x40 MLOAD PUSH3 0x461BCD PUSH1 0xE5 SHL DUP2 MSTORE PUSH1 0x4 ADD PUSH2 0x87A SWAP1 PUSH2 0x34C1 JUMP JUMPDEST PUSH2 0xA99 DUP5 DUP5 DUP5 DUP5 PUSH2 0x26DA JUMP JUMPDEST PUSH1 0x0 PUSH1 0x8 DUP4 DUP4 PUSH1 0x40 MLOAD PUSH2 0x1881 SWAP3 SWAP2 SWAP1 PUSH2 0x3482 JUMP JUMPDEST SWAP1 DUP2 MSTORE PUSH1 0x20 ADD PUSH1 0x40 MLOAD DUP1 SWAP2 SUB SWAP1 KECCAK256 SLOAD PUSH1 0x0 SUB PUSH2 0x189C JUMPI PUSH1 0x0 DUP1 REVERT JUMPDEST PUSH1 0x8 DUP4 DUP4 PUSH1 0x40 MLOAD PUSH2 0x18AE SWAP3 SWAP2 SWAP1 PUSH2 0x3482 JUMP JUMPDEST SWAP1 DUP2 MSTORE PUSH1 0x20 ADD PUSH1 0x40 MLOAD DUP1 SWAP2 SUB SWAP1 KECCAK256 SLOAD SWAP1 POP SWAP3 SWAP2 POP POP JUMP JUMPDEST PUSH1 0x0 PUSH2 0x176E PUSH2 0x417 DUP5 DUP5 PUSH2 0x186D JUMP JUMPDEST PUSH1 0x0 DUP2 DUP2 MSTORE PUSH1 0x7 PUSH1 0x20 MSTORE PUSH1 0x40 SWAP1 KECCAK256 DUP1 SLOAD PUSH1 0x60 SWAP2 PUSH2 0x1977 SWAP2 PUSH2 0x18F4 SWAP1 PUSH2 0x344E JUMP JUMPDEST DUP1 PUSH1 0x1F ADD PUSH1 0x20 DUP1 SWAP2 DIV MUL PUSH1 0x20 ADD PUSH1 0x40 MLOAD SWAP1 DUP2 ADD PUSH1 0x40 MSTORE DUP1 SWAP3 SWAP2 SWAP1 DUP2 DUP2 MSTORE PUSH1 0x20 ADD DUP3 DUP1 SLOAD PUSH2 0x1920 SWAP1 PUSH2 0x344E JUMP JUMPDEST DUP1 ISZERO PUSH2 0x196D JUMPI DUP1 PUSH1 0x1F LT PUSH2 0x1942 JUMPI PUSH2 0x100 DUP1 DUP4 SLOAD DIV MUL DUP4 MSTORE SWAP2 PUSH1 0x20 ADD SWAP2 PUSH2 0x196D JUMP JUMPDEST DUP3 ADD SWAP2 SWAP1 PUSH1 0x0 MSTORE PUSH1 0x20 PUSH1 0x0 KECCAK256 SWAP1 JUMPDEST DUP2 SLOAD DUP2 MSTORE SWAP1 PUSH1 0x1 ADD SWAP1 PUSH1 0x20 ADD DUP1 DUP4 GT PUSH2 0x1950 JUMPI DUP3 SWAP1 SUB PUSH1 0x1F AND DUP3 ADD SWAP2 JUMPDEST POP POP POP POP POP PUSH2 0x1BB5 JUMP JUMPDEST PUSH2 0x19B5 JUMPI PUSH1 0x40 MLOAD PUSH3 0x461BCD PUSH1 0xE5 SHL DUP2 MSTORE PUSH1 0x20 PUSH1 0x4 DUP3 ADD MSTORE PUSH1 0xF PUSH1 0x24 DUP3 ADD MSTORE PUSH15 0x20B2323932B9B9903AB735B737BBB7 PUSH1 0x89 SHL PUSH1 0x44 DUP3 ADD MSTORE PUSH1 0x64 ADD PUSH2 0x87A JUMP JUMPDEST PUSH1 0x0 DUP3 DUP2 MSTORE PUSH1 0x7 PUSH1 0x20 SWAP1 DUP2 MSTORE PUSH1 0x40 DUP1 DUP4 KECCAK256 SWAP1 MLOAD PUSH2 0x19D5 SWAP3 PUSH1 0x9 SWAP2 ADD PUSH2 0x3606 JUMP JUMPDEST PUSH1 0x40 MLOAD PUSH1 0x20 DUP2 DUP4 SUB SUB DUP2 MSTORE SWAP1 PUSH1 0x40 MSTORE SWAP1 POP PUSH1 0x0 PUSH2 0x19F1 DUP3 PUSH2 0x2509 JUMP JUMPDEST SWAP1 POP PUSH1 0x0 PUSH2 0x19FE DUP3 PUSH2 0x270D JUMP JUMPDEST SWAP1 POP PUSH1 0x60 PUSH2 0x1A41 PUSH1 0x6 PUSH1 0x7 PUSH1 0x0 DUP10 DUP2 MSTORE PUSH1 0x20 ADD SWAP1 DUP2 MSTORE PUSH1 0x20 ADD PUSH1 0x0 KECCAK256 PUSH1 0x40 MLOAD PUSH2 0x1A27 SWAP2 SWAP1 PUSH2 0x362F JUMP JUMPDEST SWAP1 DUP2 MSTORE PUSH1 0x40 MLOAD SWAP1 DUP2 SWAP1 SUB PUSH1 0x20 ADD SWAP1 KECCAK256 DUP1 SLOAD PUSH2 0x18F4 SWAP1 PUSH2 0x344E JUMP JUMPDEST ISZERO PUSH2 0x1B03 JUMPI PUSH1 0x0 DUP7 DUP2 MSTORE PUSH1 0x7 PUSH1 0x20 MSTORE PUSH1 0x40 SWAP1 DUP2 SWAP1 KECCAK256 SWAP1 MLOAD PUSH1 0x6 SWAP2 PUSH2 0x1A64 SWAP2 PUSH2 0x362F JUMP JUMPDEST SWAP1 DUP2 MSTORE PUSH1 0x40 MLOAD SWAP1 DUP2 SWAP1 SUB PUSH1 0x20 ADD SWAP1 KECCAK256 DUP1 SLOAD PUSH2 0x1A7E SWAP1 PUSH2 0x344E JUMP JUMPDEST DUP1 PUSH1 0x1F ADD PUSH1 0x20 DUP1 SWAP2 DIV MUL PUSH1 0x20 ADD PUSH1 0x40 MLOAD SWAP1 DUP2 ADD PUSH1 0x40 MSTORE DUP1 SWAP3 SWAP2 SWAP1 DUP2 DUP2 MSTORE PUSH1 0x20 ADD DUP3 DUP1 SLOAD PUSH2 0x1AAA SWAP1 PUSH2 0x344E JUMP JUMPDEST DUP1 ISZERO PUSH2 0x1AF7 JUMPI DUP1 PUSH1 0x1F LT PUSH2 0x1ACC JUMPI PUSH2 0x100 DUP1 DUP4 SLOAD DIV MUL DUP4 MSTORE SWAP2 PUSH1 0x20 ADD SWAP2 PUSH2 0x1AF7 JUMP JUMPDEST DUP3 ADD SWAP2 SWAP1 PUSH1 0x0 MSTORE PUSH1 0x20 PUSH1 0x0 KECCAK256 SWAP1 JUMPDEST DUP2 SLOAD DUP2 MSTORE SWAP1 PUSH1 0x1 ADD SWAP1 PUSH1 0x20 ADD DUP1 DUP4 GT PUSH2 0x1ADA JUMPI DUP3 SWAP1 SUB PUSH1 0x1F AND DUP3 ADD SWAP2 JUMPDEST POP POP POP POP POP SWAP1 POP PUSH2 0x1B59 JUMP JUMPDEST PUSH1 0x0 PUSH1 0xF DUP6 PUSH1 0x10 PUSH1 0x40 MLOAD PUSH1 0x20 ADD PUSH2 0x1B1C SWAP4 SWAP3 SWAP2 SWAP1 PUSH2 0x363B JUMP JUMPDEST PUSH1 0x40 MLOAD PUSH1 0x20 DUP2 DUP4 SUB SUB DUP2 MSTORE SWAP1 PUSH1 0x40 MSTORE SWAP1 POP PUSH2 0x1B36 DUP2 PUSH2 0x280D JUMP JUMPDEST PUSH1 0x40 MLOAD PUSH1 0x20 ADD PUSH2 0x1B46 SWAP2 SWAP1 PUSH2 0x366E JUMP JUMPDEST PUSH1 0x40 MLOAD PUSH1 0x20 DUP2 DUP4 SUB SUB DUP2 MSTORE SWAP1 PUSH1 0x40 MSTORE SWAP2 POP POP JUMPDEST PUSH1 0x0 PUSH2 0x1B87 DUP6 DUP4 DUP6 PUSH1 0x40 MLOAD PUSH1 0x20 ADD PUSH2 0x1B73 SWAP4 SWAP3 SWAP2 SWAP1 PUSH2 0x36B3 JUMP JUMPDEST PUSH1 0x40 MLOAD PUSH1 0x20 DUP2 DUP4 SUB SUB DUP2 MSTORE SWAP1 PUSH1 0x40 MSTORE PUSH2 0x280D JUMP JUMPDEST SWAP1 POP DUP1 PUSH1 0x40 MLOAD PUSH1 0x20 ADD PUSH2 0x1B9A SWAP2 SWAP1 PUSH2 0x3790 JUMP JUMPDEST PUSH1 0x40 MLOAD PUSH1 0x20 DUP2 DUP4 SUB SUB DUP2 MSTORE SWAP1 PUSH1 0x40 MSTORE SWAP6 POP POP POP POP POP POP SWAP2 SWAP1 POP JUMP JUMPDEST PUSH1 0x0 PUSH2 0x1BC0 DUP3 PUSH2 0x2509 JUMP JUMPDEST ISZERO ISZERO SWAP3 SWAP2 POP POP JUMP JUMPDEST PUSH2 0x1BD2 DUP12 DUP12 PUSH2 0x18C5 JUMP JUMPDEST PUSH1 0x1 PUSH1 0x1 PUSH1 0xA0 SHL SUB AND CALLER PUSH1 0x1 PUSH1 0x1 PUSH1 0xA0 SHL SUB AND EQ PUSH2 0x1C02 JUMPI PUSH1 0x40 MLOAD PUSH3 0x82B429 PUSH1 0xE8 SHL DUP2 MSTORE PUSH1 0x4 ADD PUSH1 0x40 MLOAD DUP1 SWAP2 SUB SWAP1 REVERT JUMPDEST DUP9 PUSH1 0x6 DUP13 DUP13 PUSH1 0x40 MLOAD PUSH2 0x1C15 SWAP3 SWAP2 SWAP1 PUSH2 0x3482 JUMP JUMPDEST SWAP1 DUP2 MSTORE PUSH1 0x20 ADD PUSH1 0x40 MLOAD DUP1 SWAP2 SUB SWAP1 KECCAK256 PUSH1 0x0 ADD SWAP1 DUP1 MLOAD SWAP1 PUSH1 0x20 ADD SWAP1 PUSH2 0x1C39 SWAP3 SWAP2 SWAP1 PUSH2 0x2C70 JUMP JUMPDEST POP DUP8 DUP8 PUSH1 0x6 DUP14 DUP14 PUSH1 0x40 MLOAD PUSH2 0x1C4E SWAP3 SWAP2 SWAP1 PUSH2 0x3482 JUMP JUMPDEST SWAP1 DUP2 MSTORE PUSH1 0x20 ADD PUSH1 0x40 MLOAD DUP1 SWAP2 SUB SWAP1 KECCAK256 PUSH1 0x1 ADD SWAP2 SWAP1 PUSH2 0x1C6C SWAP3 SWAP2 SWAP1 PUSH2 0x2BEC JUMP JUMPDEST POP DUP6 DUP6 PUSH1 0x6 DUP14 DUP14 PUSH1 0x40 MLOAD PUSH2 0x1C81 SWAP3 SWAP2 SWAP1 PUSH2 0x3482 JUMP JUMPDEST SWAP1 DUP2 MSTORE PUSH1 0x20 ADD PUSH1 0x40 MLOAD DUP1 SWAP2 SUB SWAP1 KECCAK256 PUSH1 0x2 ADD SWAP2 SWAP1 PUSH2 0x1C9F SWAP3 SWAP2 SWAP1 PUSH2 0x2BEC JUMP JUMPDEST POP DUP4 DUP4 PUSH1 0x6 DUP14 DUP14 PUSH1 0x40 MLOAD PUSH2 0x1CB4 SWAP3 SWAP2 SWAP1 PUSH2 0x3482 JUMP JUMPDEST SWAP1 DUP2 MSTORE PUSH1 0x20 ADD PUSH1 0x40 MLOAD DUP1 SWAP2 SUB SWAP1 KECCAK256 PUSH1 0x3 ADD SWAP2 SWAP1 PUSH2 0x1CD2 SWAP3 SWAP2 SWAP1 PUSH2 0x2BEC JUMP JUMPDEST POP DUP2 DUP2 PUSH1 0x6 DUP14 DUP14 PUSH1 0x40 MLOAD PUSH2 0x1CE7 SWAP3 SWAP2 SWAP1 PUSH2 0x3482 JUMP JUMPDEST SWAP1 DUP2 MSTORE PUSH1 0x20 ADD PUSH1 0x40 MLOAD DUP1 SWAP2 SUB SWAP1 KECCAK256 PUSH1 0x4 ADD SWAP2 SWAP1 PUSH2 0x1D05 SWAP3 SWAP2 SWAP1 PUSH2 0x2BEC JUMP JUMPDEST POP POP POP POP POP POP POP POP POP POP POP POP JUMP JUMPDEST PUSH1 0x8 DUP3 DUP3 PUSH1 0x40 MLOAD PUSH2 0x1D25 SWAP3 SWAP2 SWAP1 PUSH2 0x3482 JUMP JUMPDEST SWAP1 DUP2 MSTORE PUSH1 0x20 ADD PUSH1 0x40 MLOAD DUP1 SWAP2 SUB SWAP1 KECCAK256 SLOAD PUSH1 0x0 EQ PUSH2 0x1D54 JUMPI PUSH1 0x40 MLOAD PUSH4 0xEA075BF PUSH1 0xE2 SHL DUP2 MSTORE PUSH1 0x4 ADD PUSH1 0x40 MLOAD DUP1 SWAP2 SUB SWAP1 REVERT JUMPDEST PUSH2 0x1D5E DUP3 DUP3 PUSH2 0x1775 JUMP JUMPDEST PUSH2 0x1D7F JUMPI DUP2 DUP2 PUSH1 0x40 MLOAD PUSH4 0x7F19F48D PUSH1 0xE0 SHL DUP2 MSTORE PUSH1 0x4 ADD PUSH2 0x87A SWAP3 SWAP2 SWAP1 PUSH2 0x3492 JUMP JUMPDEST PUSH1 0x40 MLOAD PUSH4 0x1FC58C33 PUSH1 0xE3 SHL DUP2 MSTORE PUSH1 0x0 SWAP1 ADDRESS SWAP1 PUSH4 0xFE2C6198 SWAP1 PUSH2 0x1DA7 SWAP1 DUP7 SWAP1 DUP7 SWAP1 PUSH1 0x4 ADD PUSH2 0x3492 JUMP JUMPDEST PUSH1 0x20 PUSH1 0x40 MLOAD DUP1 DUP4 SUB DUP2 DUP7 GAS STATICCALL ISZERO DUP1 ISZERO PUSH2 0x1DC4 JUMPI RETURNDATASIZE PUSH1 0x0 DUP1 RETURNDATACOPY RETURNDATASIZE PUSH1 0x0 REVERT JUMPDEST POP POP POP POP PUSH1 0x40 MLOAD RETURNDATASIZE PUSH1 0x1F NOT PUSH1 0x1F DUP3 ADD AND DUP3 ADD DUP1 PUSH1 0x40 MSTORE POP DUP2 ADD SWAP1 PUSH2 0x1DE8 SWAP2 SWAP1 PUSH2 0x37D5 JUMP JUMPDEST PUSH1 0xA SLOAD SWAP1 SWAP2 POP PUSH1 0x1 PUSH1 0x1 PUSH1 0xA0 SHL SUB AND CALLER EQ PUSH2 0x1E43 JUMPI DUP1 CALLVALUE LT ISZERO PUSH2 0x1E43 JUMPI PUSH1 0x40 MLOAD PUSH3 0x461BCD PUSH1 0xE5 SHL DUP2 MSTORE PUSH1 0x20 PUSH1 0x4 DUP3 ADD MSTORE PUSH1 0x13 PUSH1 0x24 DUP3 ADD MSTORE PUSH19 0x139BDD08195B9BDD59DA08135514881C185A59 PUSH1 0x6A SHL PUSH1 0x44 DUP3 ADD MSTORE PUSH1 0x64 ADD PUSH2 0x87A JUMP JUMPDEST PUSH1 0x0 PUSH2 0x1E4E PUSH1 0xB SLOAD SWAP1 JUMP JUMPDEST SWAP1 POP PUSH2 0xA4E CALLER DUP3 PUSH2 0x2258 JUMP JUMPDEST PUSH2 0x1E64 DUP6 DUP6 PUSH2 0x18C5 JUMP JUMPDEST PUSH1 0x1 PUSH1 0x1 PUSH1 0xA0 SHL SUB AND CALLER PUSH1 0x1 PUSH1 0x1 PUSH1 0xA0 SHL SUB AND EQ PUSH2 0x1E94 JUMPI PUSH1 0x40 MLOAD PUSH3 0x82B429 PUSH1 0xE8 SHL DUP2 MSTORE PUSH1 0x4 ADD PUSH1 0x40 MLOAD DUP1 SWAP2 SUB SWAP1 REVERT JUMPDEST PUSH1 0x0 DUP2 PUSH1 0x4 DUP2 GT ISZERO PUSH2 0x1EA8 JUMPI PUSH2 0x1EA8 PUSH2 0x3557 JUMP JUMPDEST SUB PUSH2 0x1EE1 JUMPI DUP3 DUP3 PUSH1 0x6 DUP8 DUP8 PUSH1 0x40 MLOAD PUSH2 0x1EC1 SWAP3 SWAP2 SWAP1 PUSH2 0x3482 JUMP JUMPDEST SWAP1 DUP2 MSTORE PUSH1 0x40 MLOAD SWAP1 DUP2 SWAP1 SUB PUSH1 0x20 ADD SWAP1 KECCAK256 PUSH2 0x1EDB SWAP3 SWAP1 SWAP2 PUSH2 0x2BEC JUMP JUMPDEST POP PUSH2 0x200F JUMP JUMPDEST PUSH1 0x1 DUP2 PUSH1 0x4 DUP2 GT ISZERO PUSH2 0x1EF5 JUMPI PUSH2 0x1EF5 PUSH2 0x3557 JUMP JUMPDEST SUB PUSH2 0x1F2C JUMPI DUP3 DUP3 PUSH1 0x6 DUP8 DUP8 PUSH1 0x40 MLOAD PUSH2 0x1F0E SWAP3 SWAP2 SWAP1 PUSH2 0x3482 JUMP JUMPDEST SWAP1 DUP2 MSTORE PUSH1 0x20 ADD PUSH1 0x40 MLOAD DUP1 SWAP2 SUB SWAP1 KECCAK256 PUSH1 0x1 ADD SWAP2 SWAP1 PUSH2 0x1EDB SWAP3 SWAP2 SWAP1 PUSH2 0x2BEC JUMP JUMPDEST PUSH1 0x2 DUP2 PUSH1 0x4 DUP2 GT ISZERO PUSH2 0x1F40 JUMPI PUSH2 0x1F40 PUSH2 0x3557 JUMP JUMPDEST SUB PUSH2 0x1F77 JUMPI DUP3 DUP3 PUSH1 0x6 DUP8 DUP8 PUSH1 0x40 MLOAD PUSH2 0x1F59 SWAP3 SWAP2 SWAP1 PUSH2 0x3482 JUMP JUMPDEST SWAP1 DUP2 MSTORE PUSH1 0x20 ADD PUSH1 0x40 MLOAD DUP1 SWAP2 SUB SWAP1 KECCAK256 PUSH1 0x2 ADD SWAP2 SWAP1 PUSH2 0x1EDB SWAP3 SWAP2 SWAP1 PUSH2 0x2BEC JUMP JUMPDEST PUSH1 0x3 DUP2 PUSH1 0x4 DUP2 GT ISZERO PUSH2 0x1F8B JUMPI PUSH2 0x1F8B PUSH2 0x3557 JUMP JUMPDEST SUB PUSH2 0x1FC2 JUMPI DUP3 DUP3 PUSH1 0x6 DUP8 DUP8 PUSH1 0x40 MLOAD PUSH2 0x1FA4 SWAP3 SWAP2 SWAP1 PUSH2 0x3482 JUMP JUMPDEST SWAP1 DUP2 MSTORE PUSH1 0x20 ADD PUSH1 0x40 MLOAD DUP1 SWAP2 SUB SWAP1 KECCAK256 PUSH1 0x3 ADD SWAP2 SWAP1 PUSH2 0x1EDB SWAP3 SWAP2 SWAP1 PUSH2 0x2BEC JUMP JUMPDEST PUSH1 0x4 DUP2 PUSH1 0x4 DUP2 GT ISZERO PUSH2 0x1FD6 JUMPI PUSH2 0x1FD6 PUSH2 0x3557 JUMP JUMPDEST SUB PUSH2 0x200F JUMPI DUP3 DUP3 PUSH1 0x6 DUP8 DUP8 PUSH1 0x40 MLOAD PUSH2 0x1FEF SWAP3 SWAP2 SWAP1 PUSH2 0x3482 JUMP JUMPDEST SWAP1 DUP2 MSTORE PUSH1 0x20 ADD PUSH1 0x40 MLOAD DUP1 SWAP2 SUB SWAP1 KECCAK256 PUSH1 0x4 ADD SWAP2 SWAP1 PUSH2 0x200D SWAP3 SWAP2 SWAP1 PUSH2 0x2BEC JUMP JUMPDEST POP JUMPDEST POP POP POP POP POP JUMP JUMPDEST PUSH1 0x60 PUSH1 0x0 PUSH1 0x1 PUSH2 0x2025 PUSH1 0xB SLOAD SWAP1 JUMP JUMPDEST PUSH2 0x202F SWAP2 SWAP1 PUSH2 0x37EE JUMP JUMPDEST PUSH1 0x1 PUSH1 0x1 PUSH1 0x40 SHL SUB DUP2 GT ISZERO PUSH2 0x2046 JUMPI PUSH2 0x2046 PUSH2 0x2F28 JUMP JUMPDEST PUSH1 0x40 MLOAD SWAP1 DUP1 DUP3 MSTORE DUP1 PUSH1 0x20 MUL PUSH1 0x20 ADD DUP3 ADD PUSH1 0x40 MSTORE DUP1 ISZERO PUSH2 0x2079 JUMPI DUP2 PUSH1 0x20 ADD JUMPDEST PUSH1 0x60 DUP2 MSTORE PUSH1 0x20 ADD SWAP1 PUSH1 0x1 SWAP1 SUB SWAP1 DUP2 PUSH2 0x2064 JUMPI SWAP1 POP JUMPDEST POP SWAP1 POP PUSH1 0x1 JUMPDEST PUSH1 0xB SLOAD DUP2 LT ISZERO PUSH2 0x215C JUMPI PUSH1 0x0 DUP2 DUP2 MSTORE PUSH1 0x7 PUSH1 0x20 MSTORE PUSH1 0x40 SWAP1 KECCAK256 DUP1 SLOAD PUSH2 0x20A2 SWAP1 PUSH2 0x344E JUMP JUMPDEST DUP1 PUSH1 0x1F ADD PUSH1 0x20 DUP1 SWAP2 DIV MUL PUSH1 0x20 ADD PUSH1 0x40 MLOAD SWAP1 DUP2 ADD PUSH1 0x40 MSTORE DUP1 SWAP3 SWAP2 SWAP1 DUP2 DUP2 MSTORE PUSH1 0x20 ADD DUP3 DUP1 SLOAD PUSH2 0x20CE SWAP1 PUSH2 0x344E JUMP JUMPDEST DUP1 ISZERO PUSH2 0x211B JUMPI DUP1 PUSH1 0x1F LT PUSH2 0x20F0 JUMPI PUSH2 0x100 DUP1 DUP4 SLOAD DIV MUL DUP4 MSTORE SWAP2 PUSH1 0x20 ADD SWAP2 PUSH2 0x211B JUMP JUMPDEST DUP3 ADD SWAP2 SWAP1 PUSH1 0x0 MSTORE PUSH1 0x20 PUSH1 0x0 KECCAK256 SWAP1 JUMPDEST DUP2 SLOAD DUP2 MSTORE SWAP1 PUSH1 0x1 ADD SWAP1 PUSH1 0x20 ADD DUP1 DUP4 GT PUSH2 0x20FE JUMPI DUP3 SWAP1 SUB PUSH1 0x1F AND DUP3 ADD SWAP2 JUMPDEST POP POP POP POP POP DUP3 PUSH1 0x1 DUP4 PUSH2 0x212E SWAP2 SWAP1 PUSH2 0x37EE JUMP JUMPDEST DUP2 MLOAD DUP2 LT PUSH2 0x213E JUMPI PUSH2 0x213E PUSH2 0x3512 JUMP JUMPDEST PUSH1 0x20 MUL PUSH1 0x20 ADD ADD DUP2 SWAP1 MSTORE POP DUP1 DUP1 PUSH2 0x2154 SWAP1 PUSH2 0x353E JUMP JUMPDEST SWAP2 POP POP PUSH2 0x207F JUMP JUMPDEST POP SWAP2 SWAP1 POP JUMP JUMPDEST PUSH1 0x0 DUP1 PUSH2 0x21A4 DUP5 DUP5 DUP1 DUP1 PUSH1 0x1F ADD PUSH1 0x20 DUP1 SWAP2 DIV MUL PUSH1 0x20 ADD PUSH1 0x40 MLOAD SWAP1 DUP2 ADD PUSH1 0x40 MSTORE DUP1 SWAP4 SWAP3 SWAP2 SWAP1 DUP2 DUP2 MSTORE PUSH1 0x20 ADD DUP4 DUP4 DUP1 DUP3 DUP5 CALLDATACOPY PUSH1 0x0 SWAP3 ADD SWAP2 SWAP1 SWAP2 MSTORE POP PUSH2 0x2509 SWAP3 POP POP POP JUMP JUMPDEST SWAP1 POP PUSH1 0x0 DUP2 GT PUSH2 0x21B3 JUMPI PUSH1 0x0 DUP1 REVERT JUMPDEST DUP1 PUSH1 0x3 SUB PUSH2 0x21C5 JUMPI POP POP PUSH1 0xC SLOAD PUSH2 0x76D JUMP JUMPDEST PUSH1 0x6 DUP2 GT PUSH2 0x21D7 JUMPI POP POP PUSH1 0xD SLOAD PUSH2 0x76D JUMP JUMPDEST POP POP PUSH1 0xE SLOAD PUSH2 0x76D JUMP JUMPDEST DUP1 SLOAD PUSH1 0x1 ADD SWAP1 SSTORE JUMP JUMPDEST PUSH1 0x0 DUP2 DUP2 MSTORE PUSH1 0x4 PUSH1 0x20 MSTORE PUSH1 0x40 SWAP1 KECCAK256 DUP1 SLOAD PUSH1 0x1 PUSH1 0x1 PUSH1 0xA0 SHL SUB NOT AND PUSH1 0x1 PUSH1 0x1 PUSH1 0xA0 SHL SUB DUP5 AND SWAP1 DUP2 OR SWAP1 SWAP2 SSTORE DUP2 SWAP1 PUSH2 0x221F DUP3 PUSH2 0x1000 JUMP JUMPDEST PUSH1 0x1 PUSH1 0x1 PUSH1 0xA0 SHL SUB AND PUSH32 0x8C5BE1E5EBEC7D5BD14F71427D1E84F3DD0314C0F7B2291E5B200AC8C7C3B925 PUSH1 0x40 MLOAD PUSH1 0x40 MLOAD DUP1 SWAP2 SUB SWAP1 LOG4 POP POP JUMP JUMPDEST PUSH2 0xC08 DUP3 DUP3 PUSH1 0x40 MLOAD DUP1 PUSH1 0x20 ADD PUSH1 0x40 MSTORE DUP1 PUSH1 0x0 DUP2 MSTORE POP PUSH2 0x2976 JUMP JUMPDEST PUSH1 0x0 DUP2 DUP2 MSTORE PUSH1 0x2 PUSH1 0x20 MSTORE PUSH1 0x40 DUP2 KECCAK256 SLOAD PUSH1 0x1 PUSH1 0x1 PUSH1 0xA0 SHL SUB AND PUSH2 0x22EB JUMPI PUSH1 0x40 MLOAD PUSH3 0x461BCD PUSH1 0xE5 SHL DUP2 MSTORE PUSH1 0x20 PUSH1 0x4 DUP3 ADD MSTORE PUSH1 0x2C PUSH1 0x24 DUP3 ADD MSTORE PUSH32 0x4552433732313A206F70657261746F7220717565727920666F72206E6F6E6578 PUSH1 0x44 DUP3 ADD MSTORE PUSH12 0x34B9BA32B73A103A37B5B2B7 PUSH1 0xA1 SHL PUSH1 0x64 DUP3 ADD MSTORE PUSH1 0x84 ADD PUSH2 0x87A JUMP JUMPDEST PUSH1 0x0 PUSH2 0x22F6 DUP4 PUSH2 0x1000 JUMP JUMPDEST SWAP1 POP DUP1 PUSH1 0x1 PUSH1 0x1 PUSH1 0xA0 SHL SUB AND DUP5 PUSH1 0x1 PUSH1 0x1 PUSH1 0xA0 SHL SUB AND EQ DUP1 PUSH2 0x2331 JUMPI POP DUP4 PUSH1 0x1 PUSH1 0x1 PUSH1 0xA0 SHL SUB AND PUSH2 0x2326 DUP5 PUSH2 0x805 JUMP JUMPDEST PUSH1 0x1 PUSH1 0x1 PUSH1 0xA0 SHL SUB AND EQ JUMPDEST DUP1 PUSH2 0x2361 JUMPI POP PUSH1 0x1 PUSH1 0x1 PUSH1 0xA0 SHL SUB DUP1 DUP3 AND PUSH1 0x0 SWAP1 DUP2 MSTORE PUSH1 0x5 PUSH1 0x20 SWAP1 DUP2 MSTORE PUSH1 0x40 DUP1 DUP4 KECCAK256 SWAP4 DUP9 AND DUP4 MSTORE SWAP3 SWAP1 MSTORE KECCAK256 SLOAD PUSH1 0xFF AND JUMPDEST SWAP5 SWAP4 POP POP POP POP JUMP JUMPDEST DUP3 PUSH1 0x1 PUSH1 0x1 PUSH1 0xA0 SHL SUB AND PUSH2 0x237C DUP3 PUSH2 0x1000 JUMP JUMPDEST PUSH1 0x1 PUSH1 0x1 PUSH1 0xA0 SHL SUB AND EQ PUSH2 0x23E4 JUMPI PUSH1 0x40 MLOAD PUSH3 0x461BCD PUSH1 0xE5 SHL DUP2 MSTORE PUSH1 0x20 PUSH1 0x4 DUP3 ADD MSTORE PUSH1 0x29 PUSH1 0x24 DUP3 ADD MSTORE PUSH32 0x4552433732313A207472616E73666572206F6620746F6B656E20746861742069 PUSH1 0x44 DUP3 ADD MSTORE PUSH9 0x39903737BA1037BBB7 PUSH1 0xB9 SHL PUSH1 0x64 DUP3 ADD MSTORE PUSH1 0x84 ADD PUSH2 0x87A JUMP JUMPDEST PUSH1 0x1 PUSH1 0x1 PUSH1 0xA0 SHL SUB DUP3 AND PUSH2 0x2446 JUMPI PUSH1 0x40 MLOAD PUSH3 0x461BCD PUSH1 0xE5 SHL DUP2 MSTORE PUSH1 0x20 PUSH1 0x4 DUP3 ADD MSTORE PUSH1 0x24 DUP1 DUP3 ADD MSTORE PUSH32 0x4552433732313A207472616E7366657220746F20746865207A65726F20616464 PUSH1 0x44 DUP3 ADD MSTORE PUSH4 0x72657373 PUSH1 0xE0 SHL PUSH1 0x64 DUP3 ADD MSTORE PUSH1 0x84 ADD PUSH2 0x87A JUMP JUMPDEST PUSH2 0x2451 PUSH1 0x0 DUP3 PUSH2 0x21EA JUMP JUMPDEST PUSH1 0x1 PUSH1 0x1 PUSH1 0xA0 SHL SUB DUP4 AND PUSH1 0x0 SWAP1 DUP2 MSTORE PUSH1 0x3 PUSH1 0x20 MSTORE PUSH1 0x40 DUP2 KECCAK256 DUP1 SLOAD PUSH1 0x1 SWAP3 SWAP1 PUSH2 0x247A SWAP1 DUP5 SWAP1 PUSH2 0x37EE JUMP JUMPDEST SWAP1 SWAP2 SSTORE POP POP PUSH1 0x1 PUSH1 0x1 PUSH1 0xA0 SHL SUB DUP3 AND PUSH1 0x0 SWAP1 DUP2 MSTORE PUSH1 0x3 PUSH1 0x20 MSTORE PUSH1 0x40 DUP2 KECCAK256 DUP1 SLOAD PUSH1 0x1 SWAP3 SWAP1 PUSH2 0x24A8 SWAP1 DUP5 SWAP1 PUSH2 0x3805 JUMP JUMPDEST SWAP1 SWAP2 SSTORE POP POP PUSH1 0x0 DUP2 DUP2 MSTORE PUSH1 0x2 PUSH1 0x20 MSTORE PUSH1 0x40 DUP1 DUP3 KECCAK256 DUP1 SLOAD PUSH1 0x1 PUSH1 0x1 PUSH1 0xA0 SHL SUB NOT AND PUSH1 0x1 PUSH1 0x1 PUSH1 0xA0 SHL SUB DUP7 DUP2 AND SWAP2 DUP3 OR SWAP1 SWAP3 SSTORE SWAP2 MLOAD DUP5 SWAP4 SWAP2 DUP8 AND SWAP2 PUSH32 0xDDF252AD1BE2C89B69C2B068FC378DAA952BA7F163C4A11628F55A4DF523B3EF SWAP2 LOG4 POP POP POP JUMP JUMPDEST DUP1 MLOAD PUSH1 0x0 SWAP1 DUP2 SWAP1 DUP2 SWAP1 JUMPDEST DUP1 DUP3 LT ISZERO PUSH2 0x2603 JUMPI PUSH1 0x0 DUP6 DUP4 DUP2 MLOAD DUP2 LT PUSH2 0x252F JUMPI PUSH2 0x252F PUSH2 0x3512 JUMP JUMPDEST ADD PUSH1 0x20 ADD MLOAD PUSH1 0x1 PUSH1 0x1 PUSH1 0xF8 SHL SUB NOT AND SWAP1 POP PUSH1 0x1 PUSH1 0xFF SHL DUP2 LT ISZERO PUSH2 0x255E JUMPI PUSH2 0x2557 PUSH1 0x1 DUP5 PUSH2 0x3805 JUMP JUMPDEST SWAP3 POP PUSH2 0x25F0 JUMP JUMPDEST PUSH1 0x7 PUSH1 0xFD SHL PUSH1 0x1 PUSH1 0x1 PUSH1 0xF8 SHL SUB NOT DUP3 AND LT ISZERO PUSH2 0x257F JUMPI PUSH2 0x2557 PUSH1 0x2 DUP5 PUSH2 0x3805 JUMP JUMPDEST PUSH1 0xF PUSH1 0xFC SHL PUSH1 0x1 PUSH1 0x1 PUSH1 0xF8 SHL SUB NOT DUP3 AND LT ISZERO PUSH2 0x25A0 JUMPI PUSH2 0x2557 PUSH1 0x3 DUP5 PUSH2 0x3805 JUMP JUMPDEST PUSH1 0x1F PUSH1 0xFB SHL PUSH1 0x1 PUSH1 0x1 PUSH1 0xF8 SHL SUB NOT DUP3 AND LT ISZERO PUSH2 0x25C1 JUMPI PUSH2 0x2557 PUSH1 0x4 DUP5 PUSH2 0x3805 JUMP JUMPDEST PUSH1 0x3F PUSH1 0xFA SHL PUSH1 0x1 PUSH1 0x1 PUSH1 0xF8 SHL SUB NOT DUP3 AND LT ISZERO PUSH2 0x25E2 JUMPI PUSH2 0x2557 PUSH1 0x5 DUP5 PUSH2 0x3805 JUMP JUMPDEST PUSH2 0x25ED PUSH1 0x6 DUP5 PUSH2 0x3805 JUMP JUMPDEST SWAP3 POP JUMPDEST POP DUP3 PUSH2 0x25FB DUP2 PUSH2 0x353E JUMP JUMPDEST SWAP4 POP POP PUSH2 0x2513 JUMP JUMPDEST POP SWAP1 SWAP4 SWAP3 POP POP POP JUMP JUMPDEST DUP2 PUSH1 0x1 PUSH1 0x1 PUSH1 0xA0 SHL SUB AND DUP4 PUSH1 0x1 PUSH1 0x1 PUSH1 0xA0 SHL SUB AND SUB PUSH2 0x266D JUMPI PUSH1 0x40 MLOAD PUSH3 0x461BCD PUSH1 0xE5 SHL DUP2 MSTORE PUSH1 0x20 PUSH1 0x4 DUP3 ADD MSTORE PUSH1 0x19 PUSH1 0x24 DUP3 ADD MSTORE PUSH32 0x4552433732313A20617070726F766520746F2063616C6C657200000000000000 PUSH1 0x44 DUP3 ADD MSTORE PUSH1 0x64 ADD PUSH2 0x87A JUMP JUMPDEST PUSH1 0x1 PUSH1 0x1 PUSH1 0xA0 SHL SUB DUP4 DUP2 AND PUSH1 0x0 DUP2 DUP2 MSTORE PUSH1 0x5 PUSH1 0x20 SWAP1 DUP2 MSTORE PUSH1 0x40 DUP1 DUP4 KECCAK256 SWAP5 DUP8 AND DUP1 DUP5 MSTORE SWAP5 DUP3 MSTORE SWAP2 DUP3 SWAP1 KECCAK256 DUP1 SLOAD PUSH1 0xFF NOT AND DUP7 ISZERO ISZERO SWAP1 DUP2 OR SWAP1 SWAP2 SSTORE SWAP2 MLOAD SWAP2 DUP3 MSTORE PUSH32 0x17307EAB39AB6107E8899845AD3D59BD9653F200F220920489CA2B5937696C31 SWAP2 ADD PUSH1 0x40 MLOAD DUP1 SWAP2 SUB SWAP1 LOG3 POP POP POP JUMP JUMPDEST PUSH2 0x26E5 DUP5 DUP5 DUP5 PUSH2 0x2369 JUMP JUMPDEST PUSH2 0x26F1 DUP5 DUP5 DUP5 DUP5 PUSH2 0x29A9 JUMP JUMPDEST PUSH2 0xA99 JUMPI PUSH1 0x40 MLOAD PUSH3 0x461BCD PUSH1 0xE5 SHL DUP2 MSTORE PUSH1 0x4 ADD PUSH2 0x87A SWAP1 PUSH2 0x381D JUMP JUMPDEST PUSH1 0x60 DUP2 PUSH1 0x0 SUB PUSH2 0x2734 JUMPI POP POP PUSH1 0x40 DUP1 MLOAD DUP1 DUP3 ADD SWAP1 SWAP2 MSTORE PUSH1 0x1 DUP2 MSTORE PUSH1 0x3 PUSH1 0xFC SHL PUSH1 0x20 DUP3 ADD MSTORE SWAP1 JUMP JUMPDEST DUP2 PUSH1 0x0 JUMPDEST DUP2 ISZERO PUSH2 0x275E JUMPI DUP1 PUSH2 0x2748 DUP2 PUSH2 0x353E JUMP JUMPDEST SWAP2 POP PUSH2 0x2757 SWAP1 POP PUSH1 0xA DUP4 PUSH2 0x3885 JUMP JUMPDEST SWAP2 POP PUSH2 0x2738 JUMP JUMPDEST PUSH1 0x0 DUP2 PUSH1 0x1 PUSH1 0x1 PUSH1 0x40 SHL SUB DUP2 GT ISZERO PUSH2 0x2778 JUMPI PUSH2 0x2778 PUSH2 0x2F28 JUMP JUMPDEST PUSH1 0x40 MLOAD SWAP1 DUP1 DUP3 MSTORE DUP1 PUSH1 0x1F ADD PUSH1 0x1F NOT AND PUSH1 0x20 ADD DUP3 ADD PUSH1 0x40 MSTORE DUP1 ISZERO PUSH2 0x27A2 JUMPI PUSH1 0x20 DUP3 ADD DUP2 DUP1 CALLDATASIZE DUP4 CALLDATACOPY ADD SWAP1 POP JUMPDEST POP SWAP1 POP JUMPDEST DUP5 ISZERO PUSH2 0x2361 JUMPI PUSH2 0x27B7 PUSH1 0x1 DUP4 PUSH2 0x37EE JUMP JUMPDEST SWAP2 POP PUSH2 0x27C4 PUSH1 0xA DUP7 PUSH2 0x3899 JUMP JUMPDEST PUSH2 0x27CF SWAP1 PUSH1 0x30 PUSH2 0x3805 JUMP JUMPDEST PUSH1 0xF8 SHL DUP2 DUP4 DUP2 MLOAD DUP2 LT PUSH2 0x27E4 JUMPI PUSH2 0x27E4 PUSH2 0x3512 JUMP JUMPDEST PUSH1 0x20 ADD ADD SWAP1 PUSH1 0x1 PUSH1 0x1 PUSH1 0xF8 SHL SUB NOT AND SWAP1 DUP2 PUSH1 0x0 BYTE SWAP1 MSTORE8 POP PUSH2 0x2806 PUSH1 0xA DUP7 PUSH2 0x3885 JUMP JUMPDEST SWAP5 POP PUSH2 0x27A6 JUMP JUMPDEST DUP1 MLOAD PUSH1 0x60 SWAP1 PUSH1 0x0 DUP2 SWAP1 SUB PUSH2 0x2831 JUMPI POP POP PUSH1 0x40 DUP1 MLOAD PUSH1 0x20 DUP2 ADD SWAP1 SWAP2 MSTORE PUSH1 0x0 DUP2 MSTORE SWAP2 SWAP1 POP JUMP JUMPDEST PUSH1 0x0 PUSH1 0x3 PUSH2 0x2840 DUP4 PUSH1 0x2 PUSH2 0x3805 JUMP JUMPDEST PUSH2 0x284A SWAP2 SWAP1 PUSH2 0x3885 JUMP JUMPDEST PUSH2 0x2855 SWAP1 PUSH1 0x4 PUSH2 0x38AD JUMP JUMPDEST SWAP1 POP PUSH1 0x0 PUSH2 0x2864 DUP3 PUSH1 0x20 PUSH2 0x3805 JUMP JUMPDEST PUSH1 0x1 PUSH1 0x1 PUSH1 0x40 SHL SUB DUP2 GT ISZERO PUSH2 0x287B JUMPI PUSH2 0x287B PUSH2 0x2F28 JUMP JUMPDEST PUSH1 0x40 MLOAD SWAP1 DUP1 DUP3 MSTORE DUP1 PUSH1 0x1F ADD PUSH1 0x1F NOT AND PUSH1 0x20 ADD DUP3 ADD PUSH1 0x40 MSTORE DUP1 ISZERO PUSH2 0x28A5 JUMPI PUSH1 0x20 DUP3 ADD DUP2 DUP1 CALLDATASIZE DUP4 CALLDATACOPY ADD SWAP1 POP JUMPDEST POP SWAP1 POP PUSH1 0x0 PUSH1 0x40 MLOAD DUP1 PUSH1 0x60 ADD PUSH1 0x40 MSTORE DUP1 PUSH1 0x40 DUP2 MSTORE PUSH1 0x20 ADD PUSH2 0x3927 PUSH1 0x40 SWAP2 CODECOPY SWAP1 POP PUSH1 0x1 DUP2 ADD PUSH1 0x20 DUP4 ADD PUSH1 0x0 JUMPDEST DUP7 DUP2 LT ISZERO PUSH2 0x2931 JUMPI PUSH1 0x3 DUP2 DUP11 ADD DUP2 ADD MLOAD PUSH1 0x3F PUSH1 0x12 DUP3 SWAP1 SHR DUP2 AND DUP7 ADD MLOAD PUSH1 0xC DUP4 SWAP1 SHR DUP3 AND DUP8 ADD MLOAD PUSH1 0x6 DUP5 SWAP1 SHR DUP4 AND DUP9 ADD MLOAD SWAP3 SWAP1 SWAP4 AND DUP8 ADD MLOAD PUSH1 0x8 SWAP2 DUP3 SHL PUSH1 0xFF SWAP5 DUP6 AND ADD DUP3 SHL SWAP3 DUP5 AND SWAP3 SWAP1 SWAP3 ADD SWAP1 SHL SWAP2 AND ADD PUSH1 0xE0 SHL DUP4 MSTORE PUSH1 0x4 SWAP1 SWAP3 ADD SWAP2 ADD PUSH2 0x28D0 JUMP JUMPDEST POP PUSH1 0x3 DUP7 MOD PUSH1 0x1 DUP2 EQ PUSH2 0x294B JUMPI PUSH1 0x2 DUP2 EQ PUSH2 0x295C JUMPI PUSH2 0x2968 JUMP JUMPDEST PUSH2 0x3D3D PUSH1 0xF0 SHL PUSH1 0x1 NOT DUP4 ADD MSTORE PUSH2 0x2968 JUMP JUMPDEST PUSH1 0x3D PUSH1 0xF8 SHL PUSH1 0x0 NOT DUP4 ADD MSTORE JUMPDEST POP POP POP SWAP2 DUP2 MSTORE SWAP5 SWAP4 POP POP POP POP JUMP JUMPDEST PUSH2 0x2980 DUP4 DUP4 PUSH2 0x2AAA JUMP JUMPDEST PUSH2 0x298D PUSH1 0x0 DUP5 DUP5 DUP5 PUSH2 0x29A9 JUMP JUMPDEST PUSH2 0x9AF JUMPI PUSH1 0x40 MLOAD PUSH3 0x461BCD PUSH1 0xE5 SHL DUP2 MSTORE PUSH1 0x4 ADD PUSH2 0x87A SWAP1 PUSH2 0x381D JUMP JUMPDEST PUSH1 0x0 PUSH1 0x1 PUSH1 0x1 PUSH1 0xA0 SHL SUB DUP5 AND EXTCODESIZE ISZERO PUSH2 0x2A9F JUMPI PUSH1 0x40 MLOAD PUSH4 0xA85BD01 PUSH1 0xE1 SHL DUP2 MSTORE PUSH1 0x1 PUSH1 0x1 PUSH1 0xA0 SHL SUB DUP6 AND SWAP1 PUSH4 0x150B7A02 SWAP1 PUSH2 0x29ED SWAP1 CALLER SWAP1 DUP10 SWAP1 DUP9 SWAP1 DUP9 SWAP1 PUSH1 0x4 ADD PUSH2 0x38CC JUMP JUMPDEST PUSH1 0x20 PUSH1 0x40 MLOAD DUP1 DUP4 SUB DUP2 PUSH1 0x0 DUP8 GAS CALL SWAP3 POP POP POP DUP1 ISZERO PUSH2 0x2A28 JUMPI POP PUSH1 0x40 DUP1 MLOAD PUSH1 0x1F RETURNDATASIZE SWAP1 DUP2 ADD PUSH1 0x1F NOT AND DUP3 ADD SWAP1 SWAP3 MSTORE PUSH2 0x2A25 SWAP2 DUP2 ADD SWAP1 PUSH2 0x3909 JUMP JUMPDEST PUSH1 0x1 JUMPDEST PUSH2 0x2A85 JUMPI RETURNDATASIZE DUP1 DUP1 ISZERO PUSH2 0x2A56 JUMPI PUSH1 0x40 MLOAD SWAP2 POP PUSH1 0x1F NOT PUSH1 0x3F RETURNDATASIZE ADD AND DUP3 ADD PUSH1 0x40 MSTORE RETURNDATASIZE DUP3 MSTORE RETURNDATASIZE PUSH1 0x0 PUSH1 0x20 DUP5 ADD RETURNDATACOPY PUSH2 0x2A5B JUMP JUMPDEST PUSH1 0x60 SWAP2 POP JUMPDEST POP DUP1 MLOAD PUSH1 0x0 SUB PUSH2 0x2A7D JUMPI PUSH1 0x40 MLOAD PUSH3 0x461BCD PUSH1 0xE5 SHL DUP2 MSTORE PUSH1 0x4 ADD PUSH2 0x87A SWAP1 PUSH2 0x381D JUMP JUMPDEST DUP1 MLOAD DUP2 PUSH1 0x20 ADD REVERT JUMPDEST PUSH1 0x1 PUSH1 0x1 PUSH1 0xE0 SHL SUB NOT AND PUSH4 0xA85BD01 PUSH1 0xE1 SHL EQ SWAP1 POP PUSH2 0x2361 JUMP JUMPDEST POP PUSH1 0x1 SWAP5 SWAP4 POP POP POP POP JUMP JUMPDEST PUSH1 0x1 PUSH1 0x1 PUSH1 0xA0 SHL SUB DUP3 AND PUSH2 0x2B00 JUMPI PUSH1 0x40 MLOAD PUSH3 0x461BCD PUSH1 0xE5 SHL DUP2 MSTORE PUSH1 0x20 PUSH1 0x4 DUP3 ADD DUP2 SWAP1 MSTORE PUSH1 0x24 DUP3 ADD MSTORE PUSH32 0x4552433732313A206D696E7420746F20746865207A65726F2061646472657373 PUSH1 0x44 DUP3 ADD MSTORE PUSH1 0x64 ADD PUSH2 0x87A JUMP JUMPDEST PUSH1 0x0 DUP2 DUP2 MSTORE PUSH1 0x2 PUSH1 0x20 MSTORE PUSH1 0x40 SWAP1 KECCAK256 SLOAD PUSH1 0x1 PUSH1 0x1 PUSH1 0xA0 SHL SUB AND ISZERO PUSH2 0x2B65 JUMPI PUSH1 0x40 MLOAD PUSH3 0x461BCD PUSH1 0xE5 SHL DUP2 MSTORE PUSH1 0x20 PUSH1 0x4 DUP3 ADD MSTORE PUSH1 0x1C PUSH1 0x24 DUP3 ADD MSTORE PUSH32 0x4552433732313A20746F6B656E20616C7265616479206D696E74656400000000 PUSH1 0x44 DUP3 ADD MSTORE PUSH1 0x64 ADD PUSH2 0x87A JUMP JUMPDEST PUSH1 0x1 PUSH1 0x1 PUSH1 0xA0 SHL SUB DUP3 AND PUSH1 0x0 SWAP1 DUP2 MSTORE PUSH1 0x3 PUSH1 0x20 MSTORE PUSH1 0x40 DUP2 KECCAK256 DUP1 SLOAD PUSH1 0x1 SWAP3 SWAP1 PUSH2 0x2B8E SWAP1 DUP5 SWAP1 PUSH2 0x3805 JUMP JUMPDEST SWAP1 SWAP2 SSTORE POP POP PUSH1 0x0 DUP2 DUP2 MSTORE PUSH1 0x2 PUSH1 0x20 MSTORE PUSH1 0x40 DUP1 DUP3 KECCAK256 DUP1 SLOAD PUSH1 0x1 PUSH1 0x1 PUSH1 0xA0 SHL SUB NOT AND PUSH1 0x1 PUSH1 0x1 PUSH1 0xA0 SHL SUB DUP7 AND SWAP1 DUP2 OR SWAP1 SWAP2 SSTORE SWAP1 MLOAD DUP4 SWAP3 SWAP1 PUSH32 0xDDF252AD1BE2C89B69C2B068FC378DAA952BA7F163C4A11628F55A4DF523B3EF SWAP1 DUP3 SWAP1 LOG4 POP POP JUMP JUMPDEST DUP3 DUP1 SLOAD PUSH2 0x2BF8 SWAP1 PUSH2 0x344E JUMP JUMPDEST SWAP1 PUSH1 0x0 MSTORE PUSH1 0x20 PUSH1 0x0 KECCAK256 SWAP1 PUSH1 0x1F ADD PUSH1 0x20 SWAP1 DIV DUP2 ADD SWAP3 DUP3 PUSH2 0x2C1A JUMPI PUSH1 0x0 DUP6 SSTORE PUSH2 0x2C60 JUMP JUMPDEST DUP3 PUSH1 0x1F LT PUSH2 0x2C33 JUMPI DUP3 DUP1 ADD PUSH1 0xFF NOT DUP3 CALLDATALOAD AND OR DUP6 SSTORE PUSH2 0x2C60 JUMP JUMPDEST DUP3 DUP1 ADD PUSH1 0x1 ADD DUP6 SSTORE DUP3 ISZERO PUSH2 0x2C60 JUMPI SWAP2 DUP3 ADD JUMPDEST DUP3 DUP2 GT ISZERO PUSH2 0x2C60 JUMPI DUP3 CALLDATALOAD DUP3 SSTORE SWAP2 PUSH1 0x20 ADD SWAP2 SWAP1 PUSH1 0x1 ADD SWAP1 PUSH2 0x2C45 JUMP JUMPDEST POP PUSH2 0x2C6C SWAP3 SWAP2 POP PUSH2 0x2CE4 JUMP JUMPDEST POP SWAP1 JUMP JUMPDEST DUP3 DUP1 SLOAD PUSH2 0x2C7C SWAP1 PUSH2 0x344E JUMP JUMPDEST SWAP1 PUSH1 0x0 MSTORE PUSH1 0x20 PUSH1 0x0 KECCAK256 SWAP1 PUSH1 0x1F ADD PUSH1 0x20 SWAP1 DIV DUP2 ADD SWAP3 DUP3 PUSH2 0x2C9E JUMPI PUSH1 0x0 DUP6 SSTORE PUSH2 0x2C60 JUMP JUMPDEST DUP3 PUSH1 0x1F LT PUSH2 0x2CB7 JUMPI DUP1 MLOAD PUSH1 0xFF NOT AND DUP4 DUP1 ADD OR DUP6 SSTORE PUSH2 0x2C60 JUMP JUMPDEST DUP3 DUP1 ADD PUSH1 0x1 ADD DUP6 SSTORE DUP3 ISZERO PUSH2 0x2C60 JUMPI SWAP2 DUP3 ADD JUMPDEST DUP3 DUP2 GT ISZERO PUSH2 0x2C60 JUMPI DUP3 MLOAD DUP3 SSTORE SWAP2 PUSH1 0x20 ADD SWAP2 SWAP1 PUSH1 0x1 ADD SWAP1 PUSH2 0x2CC9 JUMP JUMPDEST JUMPDEST DUP1 DUP3 GT ISZERO PUSH2 0x2C6C JUMPI PUSH1 0x0 DUP2 SSTORE PUSH1 0x1 ADD PUSH2 0x2CE5 JUMP JUMPDEST PUSH1 0x1 PUSH1 0x1 PUSH1 0xE0 SHL SUB NOT DUP2 AND DUP2 EQ PUSH2 0x2D0F JUMPI PUSH1 0x0 DUP1 REVERT JUMPDEST POP JUMP JUMPDEST PUSH1 0x0 PUSH1 0x20 DUP3 DUP5 SUB SLT ISZERO PUSH2 0x2D24 JUMPI PUSH1 0x0 DUP1 REVERT JUMPDEST DUP2 CALLDATALOAD PUSH2 0x176E DUP2 PUSH2 0x2CF9 JUMP JUMPDEST PUSH1 0x0 JUMPDEST DUP4 DUP2 LT ISZERO PUSH2 0x2D4A JUMPI DUP2 DUP2 ADD MLOAD DUP4 DUP3 ADD MSTORE PUSH1 0x20 ADD PUSH2 0x2D32 JUMP JUMPDEST DUP4 DUP2 GT ISZERO PUSH2 0xA99 JUMPI POP POP PUSH1 0x0 SWAP2 ADD MSTORE JUMP JUMPDEST PUSH1 0x0 DUP2 MLOAD DUP1 DUP5 MSTORE PUSH2 0x2D73 DUP2 PUSH1 0x20 DUP7 ADD PUSH1 0x20 DUP7 ADD PUSH2 0x2D2F JUMP JUMPDEST PUSH1 0x1F ADD PUSH1 0x1F NOT AND SWAP3 SWAP1 SWAP3 ADD PUSH1 0x20 ADD SWAP3 SWAP2 POP POP JUMP JUMPDEST PUSH1 0x20 DUP2 MSTORE PUSH1 0x0 PUSH2 0x176E PUSH1 0x20 DUP4 ADD DUP5 PUSH2 0x2D5B JUMP JUMPDEST PUSH1 0x0 PUSH1 0x20 DUP3 DUP5 SUB SLT ISZERO PUSH2 0x2DAC JUMPI PUSH1 0x0 DUP1 REVERT JUMPDEST POP CALLDATALOAD SWAP2 SWAP1 POP JUMP JUMPDEST DUP1 CALLDATALOAD PUSH1 0x1 PUSH1 0x1 PUSH1 0xA0 SHL SUB DUP2 AND DUP2 EQ PUSH2 0x2DCA JUMPI PUSH1 0x0 DUP1 REVERT JUMPDEST SWAP2 SWAP1 POP JUMP JUMPDEST PUSH1 0x0 DUP1 PUSH1 0x40 DUP4 DUP6 SUB SLT ISZERO PUSH2 0x2DE2 JUMPI PUSH1 0x0 DUP1 REVERT JUMPDEST PUSH2 0x2DEB DUP4 PUSH2 0x2DB3 JUMP JUMPDEST SWAP5 PUSH1 0x20 SWAP4 SWAP1 SWAP4 ADD CALLDATALOAD SWAP4 POP POP POP JUMP JUMPDEST PUSH1 0x0 DUP1 DUP4 PUSH1 0x1F DUP5 ADD SLT PUSH2 0x2E0B JUMPI PUSH1 0x0 DUP1 REVERT JUMPDEST POP DUP2 CALLDATALOAD PUSH1 0x1 PUSH1 0x1 PUSH1 0x40 SHL SUB DUP2 GT ISZERO PUSH2 0x2E22 JUMPI PUSH1 0x0 DUP1 REVERT JUMPDEST PUSH1 0x20 DUP4 ADD SWAP2 POP DUP4 PUSH1 0x20 DUP3 DUP6 ADD ADD GT ISZERO PUSH2 0x1535 JUMPI PUSH1 0x0 DUP1 REVERT JUMPDEST PUSH1 0x0 DUP1 PUSH1 0x0 PUSH1 0x40 DUP5 DUP7 SUB SLT ISZERO PUSH2 0x2E4F JUMPI PUSH1 0x0 DUP1 REVERT JUMPDEST DUP4 CALLDATALOAD PUSH1 0x1 PUSH1 0x1 PUSH1 0x40 SHL SUB DUP2 GT ISZERO PUSH2 0x2E65 JUMPI PUSH1 0x0 DUP1 REVERT JUMPDEST PUSH2 0x2E71 DUP7 DUP3 DUP8 ADD PUSH2 0x2DF9 JUMP JUMPDEST SWAP1 SWAP5 POP SWAP3 POP PUSH2 0x2E84 SWAP1 POP PUSH1 0x20 DUP6 ADD PUSH2 0x2DB3 JUMP JUMPDEST SWAP1 POP SWAP3 POP SWAP3 POP SWAP3 JUMP JUMPDEST PUSH1 0x0 DUP1 PUSH1 0x0 PUSH1 0x60 DUP5 DUP7 SUB SLT ISZERO PUSH2 0x2EA2 JUMPI PUSH1 0x0 DUP1 REVERT JUMPDEST PUSH2 0x2EAB DUP5 PUSH2 0x2DB3 JUMP JUMPDEST SWAP3 POP PUSH2 0x2EB9 PUSH1 0x20 DUP6 ADD PUSH2 0x2DB3 JUMP JUMPDEST SWAP2 POP PUSH1 0x40 DUP5 ADD CALLDATALOAD SWAP1 POP SWAP3 POP SWAP3 POP SWAP3 JUMP JUMPDEST PUSH1 0x0 PUSH1 0x20 DUP3 DUP5 SUB SLT ISZERO PUSH2 0x2EDB JUMPI PUSH1 0x0 DUP1 REVERT JUMPDEST PUSH2 0x176E DUP3 PUSH2 0x2DB3 JUMP JUMPDEST PUSH1 0x20 DUP1 DUP3 MSTORE DUP3 MLOAD DUP3 DUP3 ADD DUP2 SWAP1 MSTORE PUSH1 0x0 SWAP2 SWAP1 DUP5 DUP3 ADD SWAP1 PUSH1 0x40 DUP6 ADD SWAP1 DUP5 JUMPDEST DUP2 DUP2 LT ISZERO PUSH2 0x2F1C JUMPI DUP4 MLOAD DUP4 MSTORE SWAP3 DUP5 ADD SWAP3 SWAP2 DUP5 ADD SWAP2 PUSH1 0x1 ADD PUSH2 0x2F00 JUMP JUMPDEST POP SWAP1 SWAP7 SWAP6 POP POP POP POP POP POP JUMP JUMPDEST PUSH4 0x4E487B71 PUSH1 0xE0 SHL PUSH1 0x0 MSTORE PUSH1 0x41 PUSH1 0x4 MSTORE PUSH1 0x24 PUSH1 0x0 REVERT JUMPDEST PUSH1 0x0 PUSH1 0x1 PUSH1 0x1 PUSH1 0x40 SHL SUB DUP1 DUP5 GT ISZERO PUSH2 0x2F58 JUMPI PUSH2 0x2F58 PUSH2 0x2F28 JUMP JUMPDEST PUSH1 0x40 MLOAD PUSH1 0x1F DUP6 ADD PUSH1 0x1F NOT SWAP1 DUP2 AND PUSH1 0x3F ADD AND DUP2 ADD SWAP1 DUP3 DUP3 GT DUP2 DUP4 LT OR ISZERO PUSH2 0x2F80 JUMPI PUSH2 0x2F80 PUSH2 0x2F28 JUMP JUMPDEST DUP2 PUSH1 0x40 MSTORE DUP1 SWAP4 POP DUP6 DUP2 MSTORE DUP7 DUP7 DUP7 ADD GT ISZERO PUSH2 0x2F99 JUMPI PUSH1 0x0 DUP1 REVERT JUMPDEST DUP6 DUP6 PUSH1 0x20 DUP4 ADD CALLDATACOPY PUSH1 0x0 PUSH1 0x20 DUP8 DUP4 ADD ADD MSTORE POP POP POP SWAP4 SWAP3 POP POP POP JUMP JUMPDEST PUSH1 0x0 DUP3 PUSH1 0x1F DUP4 ADD SLT PUSH2 0x2FC4 JUMPI PUSH1 0x0 DUP1 REVERT JUMPDEST PUSH2 0x176E DUP4 DUP4 CALLDATALOAD PUSH1 0x20 DUP6 ADD PUSH2 0x2F3E JUMP JUMPDEST PUSH1 0x0 PUSH1 0x20 DUP3 DUP5 SUB SLT ISZERO PUSH2 0x2FE5 JUMPI PUSH1 0x0 DUP1 REVERT JUMPDEST DUP2 CALLDATALOAD PUSH1 0x1 PUSH1 0x1 PUSH1 0x40 SHL SUB DUP2 GT ISZERO PUSH2 0x2FFB JUMPI PUSH1 0x0 DUP1 REVERT JUMPDEST PUSH2 0x2361 DUP5 DUP3 DUP6 ADD PUSH2 0x2FB3 JUMP JUMPDEST PUSH1 0xA0 DUP2 MSTORE PUSH1 0x0 PUSH2 0x301A PUSH1 0xA0 DUP4 ADD DUP9 PUSH2 0x2D5B JUMP JUMPDEST DUP3 DUP2 SUB PUSH1 0x20 DUP5 ADD MSTORE PUSH2 0x302C DUP2 DUP9 PUSH2 0x2D5B JUMP JUMPDEST SWAP1 POP DUP3 DUP2 SUB PUSH1 0x40 DUP5 ADD MSTORE PUSH2 0x3040 DUP2 DUP8 PUSH2 0x2D5B JUMP JUMPDEST SWAP1 POP DUP3 DUP2 SUB PUSH1 0x60 DUP5 ADD MSTORE PUSH2 0x3054 DUP2 DUP7 PUSH2 0x2D5B JUMP JUMPDEST SWAP1 POP DUP3 DUP2 SUB PUSH1 0x80 DUP5 ADD MSTORE PUSH2 0x3068 DUP2 DUP6 PUSH2 0x2D5B JUMP JUMPDEST SWAP9 SWAP8 POP POP POP POP POP POP POP POP JUMP JUMPDEST PUSH1 0x0 DUP1 PUSH1 0x20 DUP4 DUP6 SUB SLT ISZERO PUSH2 0x3087 JUMPI PUSH1 0x0 DUP1 REVERT JUMPDEST DUP3 CALLDATALOAD PUSH1 0x1 PUSH1 0x1 PUSH1 0x40 SHL SUB DUP2 GT ISZERO PUSH2 0x309D JUMPI PUSH1 0x0 DUP1 REVERT JUMPDEST PUSH2 0x30A9 DUP6 DUP3 DUP7 ADD PUSH2 0x2DF9 JUMP JUMPDEST SWAP1 SWAP7 SWAP1 SWAP6 POP SWAP4 POP POP POP POP JUMP JUMPDEST PUSH1 0x0 DUP2 MLOAD DUP1 DUP5 MSTORE PUSH1 0x20 DUP1 DUP6 ADD DUP1 DUP2 SWAP7 POP DUP4 PUSH1 0x5 SHL DUP2 ADD SWAP2 POP DUP3 DUP7 ADD PUSH1 0x0 JUMPDEST DUP6 DUP2 LT ISZERO PUSH2 0x30FD JUMPI DUP3 DUP5 SUB DUP10 MSTORE PUSH2 0x30EB DUP5 DUP4 MLOAD PUSH2 0x2D5B JUMP JUMPDEST SWAP9 DUP6 ADD SWAP9 SWAP4 POP SWAP1 DUP5 ADD SWAP1 PUSH1 0x1 ADD PUSH2 0x30D3 JUMP JUMPDEST POP SWAP2 SWAP8 SWAP7 POP POP POP POP POP POP POP JUMP JUMPDEST PUSH1 0x40 DUP2 MSTORE PUSH1 0x0 PUSH2 0x311D PUSH1 0x40 DUP4 ADD DUP6 PUSH2 0x30B5 JUMP JUMPDEST SWAP1 POP PUSH1 0x1 DUP1 PUSH1 0xA0 SHL SUB DUP4 AND PUSH1 0x20 DUP4 ADD MSTORE SWAP4 SWAP3 POP POP POP JUMP JUMPDEST DUP1 CALLDATALOAD PUSH1 0x5 DUP2 LT PUSH2 0x2DCA JUMPI PUSH1 0x0 DUP1 REVERT JUMPDEST PUSH1 0x0 DUP1 PUSH1 0x0 PUSH1 0x40 DUP5 DUP7 SUB SLT ISZERO PUSH2 0x3158 JUMPI PUSH1 0x0 DUP1 REVERT JUMPDEST DUP4 CALLDATALOAD PUSH1 0x1 PUSH1 0x1 PUSH1 0x40 SHL SUB DUP2 GT ISZERO PUSH2 0x316E JUMPI PUSH1 0x0 DUP1 REVERT JUMPDEST PUSH2 0x317A DUP7 DUP3 DUP8 ADD PUSH2 0x2DF9 JUMP JUMPDEST SWAP1 SWAP5 POP SWAP3 POP PUSH2 0x2E84 SWAP1 POP PUSH1 0x20 DUP6 ADD PUSH2 0x3134 JUMP JUMPDEST PUSH1 0x0 DUP1 PUSH1 0x40 DUP4 DUP6 SUB SLT ISZERO PUSH2 0x31A0 JUMPI PUSH1 0x0 DUP1 REVERT JUMPDEST PUSH2 0x31A9 DUP4 PUSH2 0x2DB3 JUMP JUMPDEST SWAP2 POP PUSH1 0x20 DUP4 ADD CALLDATALOAD DUP1 ISZERO ISZERO DUP2 EQ PUSH2 0x31BE JUMPI PUSH1 0x0 DUP1 REVERT JUMPDEST DUP1 SWAP2 POP POP SWAP3 POP SWAP3 SWAP1 POP JUMP JUMPDEST PUSH1 0x0 DUP1 PUSH1 0x0 PUSH1 0x60 DUP5 DUP7 SUB SLT ISZERO PUSH2 0x31DE JUMPI PUSH1 0x0 DUP1 REVERT JUMPDEST POP POP DUP2 CALLDATALOAD SWAP4 PUSH1 0x20 DUP4 ADD CALLDATALOAD SWAP4 POP PUSH1 0x40 SWAP1 SWAP3 ADD CALLDATALOAD SWAP2 SWAP1 POP JUMP JUMPDEST PUSH1 0x0 DUP1 PUSH1 0x0 DUP1 PUSH1 0x80 DUP6 DUP8 SUB SLT ISZERO PUSH2 0x320B JUMPI PUSH1 0x0 DUP1 REVERT JUMPDEST PUSH2 0x3214 DUP6 PUSH2 0x2DB3 JUMP JUMPDEST SWAP4 POP PUSH2 0x3222 PUSH1 0x20 DUP7 ADD PUSH2 0x2DB3 JUMP JUMPDEST SWAP3 POP PUSH1 0x40 DUP6 ADD CALLDATALOAD SWAP2 POP PUSH1 0x60 DUP6 ADD CALLDATALOAD PUSH1 0x1 PUSH1 0x1 PUSH1 0x40 SHL SUB DUP2 GT ISZERO PUSH2 0x3244 JUMPI PUSH1 0x0 DUP1 REVERT JUMPDEST DUP6 ADD PUSH1 0x1F DUP2 ADD DUP8 SGT PUSH2 0x3255 JUMPI PUSH1 0x0 DUP1 REVERT JUMPDEST PUSH2 0x3264 DUP8 DUP3 CALLDATALOAD PUSH1 0x20 DUP5 ADD PUSH2 0x2F3E JUMP JUMPDEST SWAP2 POP POP SWAP3 SWAP6 SWAP2 SWAP5 POP SWAP3 POP JUMP JUMPDEST PUSH1 0x0 DUP1 PUSH1 0x40 DUP4 DUP6 SUB SLT ISZERO PUSH2 0x3283 JUMPI PUSH1 0x0 DUP1 REVERT JUMPDEST PUSH2 0x328C DUP4 PUSH2 0x2DB3 JUMP JUMPDEST SWAP2 POP PUSH2 0x329A PUSH1 0x20 DUP5 ADD PUSH2 0x2DB3 JUMP JUMPDEST SWAP1 POP SWAP3 POP SWAP3 SWAP1 POP JUMP JUMPDEST PUSH1 0x0 DUP1 PUSH1 0x0 DUP1 PUSH1 0x0 DUP1 PUSH1 0x0 DUP1 PUSH1 0x0 DUP1 PUSH1 0x0 PUSH1 0xC0 DUP13 DUP15 SUB SLT ISZERO PUSH2 0x32C4 JUMPI PUSH1 0x0 DUP1 REVERT JUMPDEST PUSH1 0x1 PUSH1 0x1 PUSH1 0x40 SHL SUB DUP1 DUP14 CALLDATALOAD GT ISZERO PUSH2 0x32DA JUMPI PUSH1 0x0 DUP1 REVERT JUMPDEST PUSH2 0x32E7 DUP15 DUP15 CALLDATALOAD DUP16 ADD PUSH2 0x2DF9 JUMP JUMPDEST SWAP1 SWAP13 POP SWAP11 POP PUSH1 0x20 DUP14 ADD CALLDATALOAD DUP2 LT ISZERO PUSH2 0x32FD JUMPI PUSH1 0x0 DUP1 REVERT JUMPDEST PUSH2 0x330D DUP15 PUSH1 0x20 DUP16 ADD CALLDATALOAD DUP16 ADD PUSH2 0x2FB3 JUMP JUMPDEST SWAP10 POP DUP1 PUSH1 0x40 DUP15 ADD CALLDATALOAD GT ISZERO PUSH2 0x3320 JUMPI PUSH1 0x0 DUP1 REVERT JUMPDEST PUSH2 0x3330 DUP15 PUSH1 0x40 DUP16 ADD CALLDATALOAD DUP16 ADD PUSH2 0x2DF9 JUMP JUMPDEST SWAP1 SWAP10 POP SWAP8 POP PUSH1 0x60 DUP14 ADD CALLDATALOAD DUP2 LT ISZERO PUSH2 0x3346 JUMPI PUSH1 0x0 DUP1 REVERT JUMPDEST PUSH2 0x3356 DUP15 PUSH1 0x60 DUP16 ADD CALLDATALOAD DUP16 ADD PUSH2 0x2DF9 JUMP JUMPDEST SWAP1 SWAP8 POP SWAP6 POP PUSH1 0x80 DUP14 ADD CALLDATALOAD DUP2 LT ISZERO PUSH2 0x336C JUMPI PUSH1 0x0 DUP1 REVERT JUMPDEST PUSH2 0x337C DUP15 PUSH1 0x80 DUP16 ADD CALLDATALOAD DUP16 ADD PUSH2 0x2DF9 JUMP JUMPDEST SWAP1 SWAP6 POP SWAP4 POP PUSH1 0xA0 DUP14 ADD CALLDATALOAD DUP2 LT ISZERO PUSH2 0x3392 JUMPI PUSH1 0x0 DUP1 REVERT JUMPDEST POP PUSH2 0x33A3 DUP14 PUSH1 0xA0 DUP15 ADD CALLDATALOAD DUP15 ADD PUSH2 0x2DF9 JUMP JUMPDEST DUP2 SWAP4 POP DUP1 SWAP3 POP POP POP SWAP3 SWAP6 SWAP9 SWAP12 POP SWAP3 SWAP6 SWAP9 SWAP12 SWAP1 SWAP4 SWAP7 SWAP10 POP JUMP JUMPDEST PUSH1 0x0 DUP1 PUSH1 0x0 DUP1 PUSH1 0x0 PUSH1 0x60 DUP7 DUP9 SUB SLT ISZERO PUSH2 0x33D3 JUMPI PUSH1 0x0 DUP1 REVERT JUMPDEST DUP6 CALLDATALOAD PUSH1 0x1 PUSH1 0x1 PUSH1 0x40 SHL SUB DUP1 DUP3 GT ISZERO PUSH2 0x33EA JUMPI PUSH1 0x0 DUP1 REVERT JUMPDEST PUSH2 0x33F6 DUP10 DUP4 DUP11 ADD PUSH2 0x2DF9 JUMP JUMPDEST SWAP1 SWAP8 POP SWAP6 POP PUSH1 0x20 DUP9 ADD CALLDATALOAD SWAP2 POP DUP1 DUP3 GT ISZERO PUSH2 0x340F JUMPI PUSH1 0x0 DUP1 REVERT JUMPDEST POP PUSH2 0x341C DUP9 DUP3 DUP10 ADD PUSH2 0x2DF9 JUMP JUMPDEST SWAP1 SWAP5 POP SWAP3 POP PUSH2 0x342F SWAP1 POP PUSH1 0x40 DUP8 ADD PUSH2 0x3134 JUMP JUMPDEST SWAP1 POP SWAP3 SWAP6 POP SWAP3 SWAP6 SWAP1 SWAP4 POP JUMP JUMPDEST PUSH1 0x20 DUP2 MSTORE PUSH1 0x0 PUSH2 0x176E PUSH1 0x20 DUP4 ADD DUP5 PUSH2 0x30B5 JUMP JUMPDEST PUSH1 0x1 DUP2 DUP2 SHR SWAP1 DUP3 AND DUP1 PUSH2 0x3462 JUMPI PUSH1 0x7F DUP3 AND SWAP2 POP JUMPDEST PUSH1 0x20 DUP3 LT DUP2 SUB PUSH2 0x215C JUMPI PUSH4 0x4E487B71 PUSH1 0xE0 SHL PUSH1 0x0 MSTORE PUSH1 0x22 PUSH1 0x4 MSTORE PUSH1 0x24 PUSH1 0x0 REVERT JUMPDEST DUP2 DUP4 DUP3 CALLDATACOPY PUSH1 0x0 SWAP2 ADD SWAP1 DUP2 MSTORE SWAP2 SWAP1 POP JUMP JUMPDEST PUSH1 0x20 DUP2 MSTORE DUP2 PUSH1 0x20 DUP3 ADD MSTORE DUP2 DUP4 PUSH1 0x40 DUP4 ADD CALLDATACOPY PUSH1 0x0 DUP2 DUP4 ADD PUSH1 0x40 SWAP1 DUP2 ADD SWAP2 SWAP1 SWAP2 MSTORE PUSH1 0x1F SWAP1 SWAP3 ADD PUSH1 0x1F NOT AND ADD ADD SWAP2 SWAP1 POP JUMP JUMPDEST PUSH1 0x20 DUP1 DUP3 MSTORE PUSH1 0x31 SWAP1 DUP3 ADD MSTORE PUSH32 0x4552433732313A207472616E736665722063616C6C6572206973206E6F74206F PUSH1 0x40 DUP3 ADD MSTORE PUSH17 0x1DDB995C881B9BDC88185C1C1C9BDD9959 PUSH1 0x7A SHL PUSH1 0x60 DUP3 ADD MSTORE PUSH1 0x80 ADD SWAP1 JUMP JUMPDEST PUSH4 0x4E487B71 PUSH1 0xE0 SHL PUSH1 0x0 MSTORE PUSH1 0x32 PUSH1 0x4 MSTORE PUSH1 0x24 PUSH1 0x0 REVERT JUMPDEST PUSH4 0x4E487B71 PUSH1 0xE0 SHL PUSH1 0x0 MSTORE PUSH1 0x11 PUSH1 0x4 MSTORE PUSH1 0x24 PUSH1 0x0 REVERT JUMPDEST PUSH1 0x0 PUSH1 0x1 DUP3 ADD PUSH2 0x3550 JUMPI PUSH2 0x3550 PUSH2 0x3528 JUMP JUMPDEST POP PUSH1 0x1 ADD SWAP1 JUMP JUMPDEST PUSH4 0x4E487B71 PUSH1 0xE0 SHL PUSH1 0x0 MSTORE PUSH1 0x21 PUSH1 0x4 MSTORE PUSH1 0x24 PUSH1 0x0 REVERT JUMPDEST DUP1 SLOAD PUSH1 0x0 SWAP1 PUSH1 0x1 DUP2 DUP2 SHR SWAP1 DUP1 DUP4 AND DUP1 PUSH2 0x3587 JUMPI PUSH1 0x7F DUP4 AND SWAP3 POP JUMPDEST PUSH1 0x20 DUP1 DUP5 LT DUP3 SUB PUSH2 0x35A8 JUMPI PUSH4 0x4E487B71 PUSH1 0xE0 SHL PUSH1 0x0 MSTORE PUSH1 0x22 PUSH1 0x4 MSTORE PUSH1 0x24 PUSH1 0x0 REVERT JUMPDEST DUP2 DUP1 ISZERO PUSH2 0x35BC JUMPI PUSH1 0x1 DUP2 EQ PUSH2 0x35CD JUMPI PUSH2 0x35FA JUMP JUMPDEST PUSH1 0xFF NOT DUP7 AND DUP10 MSTORE DUP5 DUP10 ADD SWAP7 POP PUSH2 0x35FA JUMP JUMPDEST PUSH1 0x0 DUP9 DUP2 MSTORE PUSH1 0x20 SWAP1 KECCAK256 PUSH1 0x0 JUMPDEST DUP7 DUP2 LT ISZERO PUSH2 0x35F2 JUMPI DUP2 SLOAD DUP12 DUP3 ADD MSTORE SWAP1 DUP6 ADD SWAP1 DUP4 ADD PUSH2 0x35D9 JUMP JUMPDEST POP POP DUP5 DUP10 ADD SWAP7 POP JUMPDEST POP POP POP POP POP POP SWAP3 SWAP2 POP POP JUMP JUMPDEST PUSH1 0x0 PUSH2 0x3612 DUP3 DUP6 PUSH2 0x356D JUMP JUMPDEST PUSH1 0x17 PUSH1 0xF9 SHL DUP2 MSTORE PUSH2 0x3626 PUSH1 0x1 DUP3 ADD DUP6 PUSH2 0x356D JUMP JUMPDEST SWAP6 SWAP5 POP POP POP POP POP JUMP JUMPDEST PUSH1 0x0 PUSH2 0x176E DUP3 DUP5 PUSH2 0x356D JUMP JUMPDEST PUSH1 0x0 PUSH2 0x3647 DUP3 DUP7 PUSH2 0x356D JUMP JUMPDEST DUP5 MLOAD PUSH2 0x3657 DUP2 DUP4 PUSH1 0x20 DUP10 ADD PUSH2 0x2D2F JUMP JUMPDEST PUSH2 0x3663 DUP2 DUP4 ADD DUP7 PUSH2 0x356D JUMP JUMPDEST SWAP8 SWAP7 POP POP POP POP POP POP POP JUMP JUMPDEST PUSH32 0x646174613A696D6167652F7376672B786D6C3B6261736536342C000000000000 DUP2 MSTORE PUSH1 0x0 DUP3 MLOAD PUSH2 0x36A6 DUP2 PUSH1 0x1A DUP6 ADD PUSH1 0x20 DUP8 ADD PUSH2 0x2D2F JUMP JUMPDEST SWAP2 SWAP1 SWAP2 ADD PUSH1 0x1A ADD SWAP3 SWAP2 POP POP JUMP JUMPDEST PUSH10 0x3D913730B6B2911D1011 PUSH1 0xB1 SHL DUP2 MSTORE DUP4 MLOAD PUSH1 0x0 SWAP1 PUSH2 0x36D9 DUP2 PUSH1 0xA DUP6 ADD PUSH1 0x20 DUP10 ADD PUSH2 0x2D2F JUMP JUMPDEST PUSH32 0x222C20226465736372697074696F6E223A20224120646F6D61696E206F6E2074 PUSH1 0xA SWAP2 DUP5 ADD SWAP2 DUP3 ADD MSTORE PUSH32 0x6865204D65746572206E616D652073657276696365222C2022696D616765223A PUSH1 0x2A DUP3 ADD MSTORE PUSH2 0x1011 PUSH1 0xF1 SHL PUSH1 0x4A DUP3 ADD MSTORE DUP5 MLOAD PUSH2 0x3747 DUP2 PUSH1 0x4C DUP5 ADD PUSH1 0x20 DUP10 ADD PUSH2 0x2D2F JUMP JUMPDEST PUSH12 0x1116113632B733BA34111D11 PUSH1 0xA1 SHL PUSH1 0x4C SWAP3 SWAP1 SWAP2 ADD SWAP2 DUP3 ADD MSTORE DUP4 MLOAD PUSH2 0x3774 DUP2 PUSH1 0x58 DUP5 ADD PUSH1 0x20 DUP9 ADD PUSH2 0x2D2F JUMP JUMPDEST PUSH2 0x227D PUSH1 0xF0 SHL PUSH1 0x58 SWAP3 SWAP1 SWAP2 ADD SWAP2 DUP3 ADD MSTORE PUSH1 0x5A ADD SWAP6 SWAP5 POP POP POP POP POP JUMP JUMPDEST PUSH32 0x646174613A6170706C69636174696F6E2F6A736F6E3B6261736536342C000000 DUP2 MSTORE PUSH1 0x0 DUP3 MLOAD PUSH2 0x37C8 DUP2 PUSH1 0x1D DUP6 ADD PUSH1 0x20 DUP8 ADD PUSH2 0x2D2F JUMP JUMPDEST SWAP2 SWAP1 SWAP2 ADD PUSH1 0x1D ADD SWAP3 SWAP2 POP POP JUMP JUMPDEST PUSH1 0x0 PUSH1 0x20 DUP3 DUP5 SUB SLT ISZERO PUSH2 0x37E7 JUMPI PUSH1 0x0 DUP1 REVERT JUMPDEST POP MLOAD SWAP2 SWAP1 POP JUMP JUMPDEST PUSH1 0x0 DUP3 DUP3 LT ISZERO PUSH2 0x3800 JUMPI PUSH2 0x3800 PUSH2 0x3528 JUMP JUMPDEST POP SUB SWAP1 JUMP JUMPDEST PUSH1 0x0 DUP3 NOT DUP3 GT ISZERO PUSH2 0x3818 JUMPI PUSH2 0x3818 PUSH2 0x3528 JUMP JUMPDEST POP ADD SWAP1 JUMP JUMPDEST PUSH1 0x20 DUP1 DUP3 MSTORE PUSH1 0x32 SWAP1 DUP3 ADD MSTORE PUSH32 0x4552433732313A207472616E7366657220746F206E6F6E204552433732315265 PUSH1 0x40 DUP3 ADD MSTORE PUSH18 0x31B2B4BB32B91034B6B83632B6B2B73A32B9 PUSH1 0x71 SHL PUSH1 0x60 DUP3 ADD MSTORE PUSH1 0x80 ADD SWAP1 JUMP JUMPDEST PUSH4 0x4E487B71 PUSH1 0xE0 SHL PUSH1 0x0 MSTORE PUSH1 0x12 PUSH1 0x4 MSTORE PUSH1 0x24 PUSH1 0x0 REVERT JUMPDEST PUSH1 0x0 DUP3 PUSH2 0x3894 JUMPI PUSH2 0x3894 PUSH2 0x386F JUMP JUMPDEST POP DIV SWAP1 JUMP JUMPDEST PUSH1 0x0 DUP3 PUSH2 0x38A8 JUMPI PUSH2 0x38A8 PUSH2 0x386F JUMP JUMPDEST POP MOD SWAP1 JUMP JUMPDEST PUSH1 0x0 DUP2 PUSH1 0x0 NOT DIV DUP4 GT DUP3 ISZERO ISZERO AND ISZERO PUSH2 0x38C7 JUMPI PUSH2 0x38C7 PUSH2 0x3528 JUMP JUMPDEST POP MUL SWAP1 JUMP JUMPDEST PUSH1 0x1 PUSH1 0x1 PUSH1 0xA0 SHL SUB DUP6 DUP2 AND DUP3 MSTORE DUP5 AND PUSH1 0x20 DUP3 ADD MSTORE PUSH1 0x40 DUP2 ADD DUP4 SWAP1 MSTORE PUSH1 0x80 PUSH1 0x60 DUP3 ADD DUP2 SWAP1 MSTORE PUSH1 0x0 SWAP1 PUSH2 0x38FF SWAP1 DUP4 ADD DUP5 PUSH2 0x2D5B JUMP JUMPDEST SWAP7 SWAP6 POP POP POP POP POP POP JUMP JUMPDEST PUSH1 0x0 PUSH1 0x20 DUP3 DUP5 SUB SLT ISZERO PUSH2 0x391B JUMPI PUSH1 0x0 DUP1 REVERT JUMPDEST DUP2 MLOAD PUSH2 0x176E DUP2 PUSH2 0x2CF9 JUMP INVALID COINBASE TIMESTAMP NUMBER DIFFICULTY GASLIMIT CHAINID SELFBALANCE BASEFEE 0x49 0x4A 0x4B 0x4C 0x4D 0x4E 0x4F POP MLOAD MSTORE MSTORE8 SLOAD SSTORE JUMP JUMPI PC MSIZE GAS PUSH2 0x6263 PUSH5 0x6566676869 PUSH11 0x6B6C6D6E6F707172737475 PUSH23 0x7778797A303132333435363738392B2FA2646970667358 0x22 SLT KECCAK256 0xB0 SWAP2 PUSH1 0x39 PUSH3 0xB2324C EQ 0xC6 AND JUMP 0x4C GASLIMIT DUP13 MUL EXTCODESIZE 0x5C DUP4 PUSH28 0xCB5CAB4205F5D29206E074C064736F6C634300080E00333C73766720 PUSH25 0x6D6C6E733D22687474703A2F2F7777772E77332E6F72672F32 ADDRESS ADDRESS ADDRESS 0x2F PUSH20 0x7667222077696474683D22323730222068656967 PUSH9 0x743D22323730222066 PUSH10 0x6C6C3D226E6F6E65223E KECCAK256 EXTCODECOPY PUSH17 0x6174682066696C6C3D2275726C28234229 0x22 KECCAK256 PUSH5 0x3D224D3020 ADDRESS PUSH9 0x323730763237304830 PUSH27 0x222F3E3C646566733E3C66696C7465722069643D22412220636F6C PUSH16 0x722D696E746572706F6C6174696F6E2D PUSH7 0x696C746572733D 0x22 PUSH20 0x524742222066696C746572556E6974733D227573 PUSH6 0x725370616365 0x4F PUSH15 0x55736522206865696768743D223237 ADDRESS 0x22 KECCAK256 PUSH24 0x696474683D22323730223E3C666544726F70536861646F77 KECCAK256 PUSH5 0x783D223022 KECCAK256 PUSH5 0x793D223122 KECCAK256 PUSH20 0x7464446576696174696F6E3D22322220666C6F6F PUSH5 0x2D6F706163 PUSH10 0x74793D222E3232352220 PUSH24 0x696474683D223230302522206865696768743D2232303025 0x22 0x2F RETURNDATACOPY EXTCODECOPY 0x2F PUSH7 0x696C7465723E3C 0x2F PUSH5 0x6566733E3C PUSH17 0x61746820636C6173734E616D653D227374 ADDRESS 0x22 KECCAK256 PUSH5 0x3D224D3237 ADDRESS 0x2E CALLER 0x2C ORIGIN CALLDATACOPY ADDRESS 0x2E CALLER BASEFEE ADDRESS JUMP BALANCE CODESIZE 0x2E CALLDATACOPY NUMBER ADDRESS 0x2C CODESIZE 0x2E CALLVALUE 0x2C CODESIZE 0x2E CALLVALUE 0x2C ADDRESS 0x2C BALANCE CODESIZE 0x2E CALLDATACOPY 0x2C ADDRESS PUSH9 0x3233336331302E332C ADDRESS 0x2C BALANCE CODESIZE 0x2E CALLDATACOPY 0x2C CODESIZE 0x2E CALLVALUE 0x2C BALANCE CODESIZE 0x2E CALLDATACOPY 0x2C BALANCE CODESIZE 0x2E CALLDATACOPY PUSH23 0x3235312E36483237302E337A222F3E3C673E3C70617468 KECCAK256 PUSH4 0x6C617373 0x4E PUSH2 0x6D65 RETURNDATASIZE 0x22 PUSH20 0x7431222066696C6C3D22234646462220643D224D CODECOPY CODESIZE 0x2E CALLVALUE 0x2C CALLDATALOAD CALLDATALOAD 0x2E CALLDATALOAD PUSH4 0x302E322C BALANCE 0x2E CALLVALUE 0x2C ADDRESS 0x2E ORIGIN 0x2C ORIGIN 0x2E CALLDATACOPY 0x2C ADDRESS 0x2E ORIGIN 0x2C CALLVALUE 0x2E BALANCE PUSH4 0x302C3139 0x2D BALANCE CALLDATALOAD 0x2E CALLDATALOAD 0x2C CALLER CALLVALUE 0x2E CALLER 0x2D CALLER CALLVALUE 0x2E CALLVALUE 0x2C CALLER CALLVALUE 0x2E CALLER PUSH4 0x2D31332E CALLER 0x2C ADDRESS 0x2D ORIGIN CALLDATALOAD 0x2E CALLDATALOAD 0x2D CALLDATACOPY 0x2E CODESIZE 0x2D CALLER BALANCE 0x2E BALANCE 0x2D BALANCE CODECOPY 0x2E CODECOPY PUSH13 0x352E352D322E37202020206336 0x2E CALLVALUE 0x2C BALANCE CALLVALUE 0x2E ORIGIN 0x2C ORIGIN CALLER 0x2E ORIGIN 0x2C ORIGIN ADDRESS 0x2E CALLVALUE 0x2C CALLER CALLDATACOPY 0x2E CALLER 0x2C BALANCE CALLVALUE NUMBER CODESIZE CALLDATASIZE 0x2C CODESIZE ADDRESS 0x2E CALLDATACOPY 0x2C CODECOPY ORIGIN 0x2E CALLDATALOAD 0x2C CALLDATACOPY ADDRESS 0x2E CALLDATACOPY 0x2C CODECOPY ORIGIN 0x2E CALLDATALOAD 0x2C CALLDATALOAD CODECOPY 0x2E CALLDATASIZE PUSH4 0x302D302E CALLER 0x2C ADDRESS 0x2D ADDRESS 0x2E CALLDATASIZE 0x2C ADDRESS 0x2D ADDRESS 0x2E CODECOPY 0x4C CODECOPY CODESIZE 0x2E CALLVALUE 0x2C CALLDATALOAD CALLDATALOAD 0x2E CALLDATALOAD PUSH27 0x204D36342E332C32352E336331342C302C32362E372C382E352C33 BALANCE 0x2E CODECOPY 0x2C ORIGIN BALANCE 0x2E CALLDATASIZE KECCAK256 KECCAK256 KECCAK256 KECCAK256 PUSH13 0x2D352E392C312E39632D362D31 CALLVALUE 0x2E CALLVALUE 0x2D ORIGIN ORIGIN 0x2E CALLDATALOAD 0x2D ORIGIN BALANCE 0x2E ORIGIN 0x2D CALLER CALLDATASIZE 0x2E CODECOPY 0x2D BALANCE CALLDATALOAD 0x2E ORIGIN PUSH4 0x2D31302E CALLDATALOAD 0x2C CALLVALUE 0x2E CALLVALUE 0x2D BALANCE CALLDATACOPY 0x2E CALLVALUE 0x2C BALANCE CALLVALUE 0x2E CALLDATACOPY 0x2D BALANCE CALLDATACOPY 0x2E CALLER 0x2C ORIGIN CALLDATASIZE 0x2E BALANCE PUSH4 0x302C302E ORIGIN 0x2C ADDRESS 0x2C ADDRESS 0x2E CALLVALUE 0x2C ADDRESS 0x2C ADDRESS 0x2E CALLDATASIZE PUSH13 0x2D352E372C342E37632D302E33 0x2D BALANCE 0x2E CALLDATACOPY 0x2D ADDRESS 0x2E CALLVALUE 0x2D CALLER 0x2E CALLDATALOAD 0x2D ADDRESS 0x2E CALLVALUE 0x2D CALLDATALOAD 0x2E CALLER KECCAK256 KECCAK256 KECCAK256 KECCAK256 NUMBER CALLER ADDRESS 0x2C CALLVALUE ADDRESS 0x2E CALLDATACOPY 0x2C CALLVALUE CALLDATALOAD 0x2E CALLER 0x2C ORIGIN CALLDATALOAD 0x2E CALLER 0x2C CALLDATASIZE CALLVALUE 0x2E CALLER 0x2C ORIGIN CALLDATALOAD 0x2E CALLER NUMBER CALLDATASIZE CALLVALUE 0x2E CALLER 0x2C ORIGIN CALLDATALOAD 0x2E CALLER 0x2C CALLDATASIZE CALLVALUE 0x2E CALLER 0x2C ORIGIN CALLDATALOAD 0x2E CALLER 0x2C CALLDATASIZE CALLVALUE 0x2E CALLER 0x2C ORIGIN CALLDATALOAD 0x2E CALLER PUSH27 0x222F3E3C706F6C79676F6E20636C6173734E616D653D2273743122 KECCAK256 PUSH7 0x696C6C3D222346 CHAINID CHAINID 0x22 KECCAK256 PUSH17 0x6F696E74733D2232362C37332E34203539 0x2E CALLDATASIZE 0x2C CALLVALUE CALLDATALOAD 0x2E CODECOPY KECCAK256 CALLDATALOAD CODESIZE 0x2E ORIGIN 0x2C CALLDATALOAD CALLDATACOPY 0x2E CALLER KECCAK256 CALLDATACOPY CALLDATACOPY 0x2E CODESIZE 0x2C CALLVALUE CALLDATASIZE 0x2E ORIGIN KECCAK256 CALLDATACOPY CALLDATASIZE 0x2E CODESIZE 0x2C CALLDATALOAD CALLDATACOPY 0x2E BALANCE KECCAK256 BALANCE ADDRESS ORIGIN 0x2E CALLDATALOAD 0x2C CALLVALUE CODESIZE 0x2E CODECOPY KECCAK256 CALLDATASIZE CALLDATACOPY 0x2E CALLDATACOPY 0x2C CALLDATASIZE CODESIZE 0x2E BALANCE KECCAK256 CALLDATACOPY ADDRESS 0x2E CALLER 0x2C CALLDATALOAD CALLDATACOPY 0x2E ORIGIN KECCAK256 CALLDATALOAD ADDRESS 0x2E BALANCE 0x2C CALLDATASIZE CODECOPY KECCAK256 CALLDATALOAD BALANCE 0x2E CALLDATALOAD 0x2C CALLDATASIZE ADDRESS 0x2E CALLDATASIZE KECCAK256 KECCAK256 KECCAK256 KECCAK256 KECCAK256 KECCAK256 KECCAK256 0x22 0x2F RETURNDATACOPY EXTCODECOPY 0x2F PUSH8 0x3E3C646566733E3C PUSH13 0x696E6561724772616469656E74 KECCAK256 PUSH10 0x643D2242222078313D22 ADDRESS 0x22 KECCAK256 PUSH26 0x313D2230222078323D22323730222079323D2232373022206772 PUSH2 0x6469 PUSH6 0x6E74556E6974 PUSH20 0x3D227573657253706163654F6E557365223E3C73 PUSH21 0x6F702073746F702D636F6C6F723D22233137623664 CALLDATACOPY 0x22 0x2F RETURNDATACOPY EXTCODECOPY PUSH20 0x746F70206F66667365743D2231222073746F702D PUSH4 0x6F6C6F72 RETURNDATASIZE 0x22 0x23 CODECOPY CALLDATACOPY BALANCE CALLVALUE PUSH3 0x332220 PUSH20 0x746F702D6F7061636974793D222E35222F3E3C73 PUSH21 0x6F70206F66667365743D2231222073746F702D636F PUSH13 0x6F723D22233238306266642220 PUSH20 0x746F702D6F7061636974793D222E3939222F3E3C 0x2F PUSH13 0x696E6561724772616469656E74 RETURNDATACOPY EXTCODECOPY 0x2F PUSH5 0x6566733E3C PUSH21 0x65787420783D2233322E352220793D223233312220 PUSH7 0x6F6E742D73697A PUSH6 0x3D2232372220 PUSH7 0x696C6C3D222366 PUSH7 0x66222066696C74 PUSH6 0x723D2275726C 0x28 0x23 COINBASE 0x29 0x22 KECCAK256 PUSH7 0x6F6E742D66616D PUSH10 0x6C793D22506C7573204A PUSH2 0x6B61 PUSH19 0x74612053616E732C44656A6156752053616E73 0x2C 0x4E PUSH16 0x746F20436F6C6F7220456D6F6A692C41 PUSH17 0x706C6520436F6C6F7220456D6F6A692C73 PUSH2 0x6E73 0x2D PUSH20 0x657269662220666F6E742D7765696768743D2262 PUSH16 0x6C64223E000000000000000000000000 "
		},
		"gasEstimates": {
			"creation": {
				"codeDepositCost": "2949600",
				"executionCost": "infinite",
				"totalCost": "infinite"
			},
			"external": {
				"approve(address,uint256)": "infinite",
				"balanceOf(address)": "2656",
				"getAddress(string)": "infinite",
				"getAllNames()": "infinite",
				"getApproved(uint256)": "4783",
				"getId(string)": "infinite",
				"getRecord(string,uint8)": "infinite",
				"getRecords(string)": "infinite",
				"ids(string)": "infinite",
				"isApprovedForAll(address,address)": "infinite",
				"isOwner()": "2378",
				"isSet(string)": "infinite",
				"name()": "infinite",
				"names(uint256)": "infinite",
				"owner()": "2383",
				"ownerOf(uint256)": "2601",
				"price(string)": "infinite",
				"records(string)": "infinite",
				"register(string)": "infinite",
				"registerForAddress(string,address)": "infinite",
				"safeTransferFrom(address,address,uint256)": "infinite",
				"safeTransferFrom(address,address,uint256,bytes)": "infinite",
				"setApprovalForAll(address,bool)": "26750",
				"setPrice(uint256,uint256,uint256)": "68814",
				"setRecord(string,string,uint8)": "infinite",
				"setRecords(string,string,string,string,string,string)": "infinite",
				"supportsInterface(bytes4)": "557",
				"symbol()": "infinite",
				"tierOnePrice()": "2384",
				"tierThreePrice()": "2385",
				"tierTwoPrice()": "2384",
				"tld()": "infinite",
				"tokenURI(uint256)": "infinite",
				"transferFrom(address,address,uint256)": "infinite",
				"valid(string)": "infinite",
				"walletOfOwner(address)": "infinite",
				"withdraw()": "infinite"
			}
		},
		"methodIdentifiers": {
			"approve(address,uint256)": "095ea7b3",
			"balanceOf(address)": "70a08231",
			"getAddress(string)": "bf40fac1",
			"getAllNames()": "fb825e5f",
			"getApproved(uint256)": "081812fc",
			"getId(string)": "bee51f3b",
			"getRecord(string,uint8)": "9751e9f1",
			"getRecords(string)": "86e80b71",
			"ids(string)": "8a08677d",
			"isApprovedForAll(address,address)": "e985e9c5",
			"isOwner()": "8f32d59b",
			"isSet(string)": "e327ad61",
			"name()": "06fdde03",
			"names(uint256)": "4622ab03",
			"owner()": "8da5cb5b",
			"ownerOf(uint256)": "6352211e",
			"price(string)": "fe2c6198",
			"records(string)": "541e771d",
			"register(string)": "f2c298be",
			"registerForAddress(string,address)": "15bf7227",
			"safeTransferFrom(address,address,uint256)": "42842e0e",
			"safeTransferFrom(address,address,uint256,bytes)": "b88d4fde",
			"setApprovalForAll(address,bool)": "a22cb465",
			"setPrice(uint256,uint256,uint256)": "aa585d56",
			"setRecord(string,string,uint8)": "f5064fd0",
			"setRecords(string,string,string,string,string,string)": "f0f19346",
			"supportsInterface(bytes4)": "01ffc9a7",
			"symbol()": "95d89b41",
			"tierOnePrice()": "8600c8b2",
			"tierThreePrice()": "4e82dc89",
			"tierTwoPrice()": "d7e915d5",
			"tld()": "2d551432",
			"tokenURI(uint256)": "c87b56dd",
			"transferFrom(address,address,uint256)": "23b872dd",
			"valid(string)": "9791c097",
			"walletOfOwner(address)": "438b6300",
			"withdraw()": "3ccfd60b"
		}
	},
	"abi": [
		{
			"inputs": [
				{
					"internalType": "string",
					"name": "_tld",
					"type": "string"
				},
				{
					"internalType": "uint256",
					"name": "_tierOnePrice",
					"type": "uint256"
				},
				{
					"internalType": "uint256",
					"name": "_tierTwoPrice",
					"type": "uint256"
				},
				{
					"internalType": "uint256",
					"name": "_tierThreePrice",
					"type": "uint256"
				}
			],
			"stateMutability": "payable",
			"type": "constructor"
		},
		{
			"inputs": [],
			"name": "AlreadyRegistered",
			"type": "error"
		},
		{
			"inputs": [
				{
					"internalType": "string",
					"name": "name",
					"type": "string"
				}
			],
			"name": "InvalidName",
			"type": "error"
		},
		{
			"inputs": [],
			"name": "Unauthorized",
			"type": "error"
		},
		{
			"anonymous": false,
			"inputs": [
				{
					"indexed": true,
					"internalType": "address",
					"name": "owner",
					"type": "address"
				},
				{
					"indexed": true,
					"internalType": "address",
					"name": "approved",
					"type": "address"
				},
				{
					"indexed": true,
					"internalType": "uint256",
					"name": "tokenId",
					"type": "uint256"
				}
			],
			"name": "Approval",
			"type": "event"
		},
		{
			"anonymous": false,
			"inputs": [
				{
					"indexed": true,
					"internalType": "address",
					"name": "owner",
					"type": "address"
				},
				{
					"indexed": true,
					"internalType": "address",
					"name": "operator",
					"type": "address"
				},
				{
					"indexed": false,
					"internalType": "bool",
					"name": "approved",
					"type": "bool"
				}
			],
			"name": "ApprovalForAll",
			"type": "event"
		},
		{
			"anonymous": false,
			"inputs": [
				{
					"indexed": true,
					"internalType": "address",
					"name": "from",
					"type": "address"
				},
				{
					"indexed": true,
					"internalType": "address",
					"name": "to",
					"type": "address"
				},
				{
					"indexed": true,
					"internalType": "uint256",
					"name": "tokenId",
					"type": "uint256"
				}
			],
			"name": "Transfer",
			"type": "event"
		},
		{
			"inputs": [
				{
					"internalType": "address",
					"name": "to",
					"type": "address"
				},
				{
					"internalType": "uint256",
					"name": "tokenId",
					"type": "uint256"
				}
			],
			"name": "approve",
			"outputs": [],
			"stateMutability": "nonpayable",
			"type": "function"
		},
		{
			"inputs": [
				{
					"internalType": "address",
					"name": "owner",
					"type": "address"
				}
			],
			"name": "balanceOf",
			"outputs": [
				{
					"internalType": "uint256",
					"name": "",
					"type": "uint256"
				}
			],
			"stateMutability": "view",
			"type": "function"
		},
		{
			"inputs": [
				{
					"internalType": "string",
					"name": "name",
					"type": "string"
				}
			],
			"name": "getAddress",
			"outputs": [
				{
					"internalType": "address",
					"name": "",
					"type": "address"
				}
			],
			"stateMutability": "view",
			"type": "function"
		},
		{
			"inputs": [],
			"name": "getAllNames",
			"outputs": [
				{
					"internalType": "string[]",
					"name": "",
					"type": "string[]"
				}
			],
			"stateMutability": "view",
			"type": "function"
		},
		{
			"inputs": [
				{
					"internalType": "uint256",
					"name": "tokenId",
					"type": "uint256"
				}
			],
			"name": "getApproved",
			"outputs": [
				{
					"internalType": "address",
					"name": "",
					"type": "address"
				}
			],
			"stateMutability": "view",
			"type": "function"
		},
		{
			"inputs": [
				{
					"internalType": "string",
					"name": "name",
					"type": "string"
				}
			],
			"name": "getId",
			"outputs": [
				{
					"internalType": "uint256",
					"name": "",
					"type": "uint256"
				}
			],
			"stateMutability": "view",
			"type": "function"
		},
		{
			"inputs": [
				{
					"internalType": "string",
					"name": "name",
					"type": "string"
				},
				{
					"internalType": "enum RecordType",
					"name": "recordType",
					"type": "uint8"
				}
			],
			"name": "getRecord",
			"outputs": [
				{
					"internalType": "string",
					"name": "",
					"type": "string"
				}
			],
			"stateMutability": "view",
			"type": "function"
		},
		{
			"inputs": [
				{
					"internalType": "string",
					"name": "name",
					"type": "string"
				}
			],
			"name": "getRecords",
			"outputs": [
				{
					"internalType": "string[]",
					"name": "",
					"type": "string[]"
				},
				{
					"internalType": "address",
					"name": "",
					"type": "address"
				}
			],
			"stateMutability": "view",
			"type": "function"
		},
		{
			"inputs": [
				{
					"internalType": "string",
					"name": "",
					"type": "string"
				}
			],
			"name": "ids",
			"outputs": [
				{
					"internalType": "uint256",
					"name": "",
					"type": "uint256"
				}
			],
			"stateMutability": "view",
			"type": "function"
		},
		{
			"inputs": [
				{
					"internalType": "address",
					"name": "owner",
					"type": "address"
				},
				{
					"internalType": "address",
					"name": "operator",
					"type": "address"
				}
			],
			"name": "isApprovedForAll",
			"outputs": [
				{
					"internalType": "bool",
					"name": "",
					"type": "bool"
				}
			],
			"stateMutability": "view",
			"type": "function"
		},
		{
			"inputs": [],
			"name": "isOwner",
			"outputs": [
				{
					"internalType": "bool",
					"name": "",
					"type": "bool"
				}
			],
			"stateMutability": "view",
			"type": "function"
		},
		{
			"inputs": [
				{
					"internalType": "string",
					"name": "name",
					"type": "string"
				}
			],
			"name": "isSet",
			"outputs": [
				{
					"internalType": "bool",
					"name": "",
					"type": "bool"
				}
			],
			"stateMutability": "pure",
			"type": "function"
		},
		{
			"inputs": [],
			"name": "name",
			"outputs": [
				{
					"internalType": "string",
					"name": "",
					"type": "string"
				}
			],
			"stateMutability": "view",
			"type": "function"
		},
		{
			"inputs": [
				{
					"internalType": "uint256",
					"name": "",
					"type": "uint256"
				}
			],
			"name": "names",
			"outputs": [
				{
					"internalType": "string",
					"name": "",
					"type": "string"
				}
			],
			"stateMutability": "view",
			"type": "function"
		},
		{
			"inputs": [],
			"name": "owner",
			"outputs": [
				{
					"internalType": "address payable",
					"name": "",
					"type": "address"
				}
			],
			"stateMutability": "view",
			"type": "function"
		},
		{
			"inputs": [
				{
					"internalType": "uint256",
					"name": "tokenId",
					"type": "uint256"
				}
			],
			"name": "ownerOf",
			"outputs": [
				{
					"internalType": "address",
					"name": "",
					"type": "address"
				}
			],
			"stateMutability": "view",
			"type": "function"
		},
		{
			"inputs": [
				{
					"internalType": "string",
					"name": "name",
					"type": "string"
				}
			],
			"name": "price",
			"outputs": [
				{
					"internalType": "uint256",
					"name": "",
					"type": "uint256"
				}
			],
			"stateMutability": "view",
			"type": "function"
		},
		{
			"inputs": [
				{
					"internalType": "string",
					"name": "",
					"type": "string"
				}
			],
			"name": "records",
			"outputs": [
				{
					"internalType": "string",
					"name": "avatar",
					"type": "string"
				},
				{
					"internalType": "string",
					"name": "twitterTag",
					"type": "string"
				},
				{
					"internalType": "string",
					"name": "website",
					"type": "string"
				},
				{
					"internalType": "string",
					"name": "email",
					"type": "string"
				},
				{
					"internalType": "string",
					"name": "description",
					"type": "string"
				}
			],
			"stateMutability": "view",
			"type": "function"
		},
		{
			"inputs": [
				{
					"internalType": "string",
					"name": "name",
					"type": "string"
				}
			],
			"name": "register",
			"outputs": [],
			"stateMutability": "payable",
			"type": "function"
		},
		{
			"inputs": [
				{
					"internalType": "string",
					"name": "name",
					"type": "string"
				},
				{
					"internalType": "address",
					"name": "_receiver",
					"type": "address"
				}
			],
			"name": "registerForAddress",
			"outputs": [],
			"stateMutability": "nonpayable",
			"type": "function"
		},
		{
			"inputs": [
				{
					"internalType": "address",
					"name": "from",
					"type": "address"
				},
				{
					"internalType": "address",
					"name": "to",
					"type": "address"
				},
				{
					"internalType": "uint256",
					"name": "tokenId",
					"type": "uint256"
				}
			],
			"name": "safeTransferFrom",
			"outputs": [],
			"stateMutability": "nonpayable",
			"type": "function"
		},
		{
			"inputs": [
				{
					"internalType": "address",
					"name": "from",
					"type": "address"
				},
				{
					"internalType": "address",
					"name": "to",
					"type": "address"
				},
				{
					"internalType": "uint256",
					"name": "tokenId",
					"type": "uint256"
				},
				{
					"internalType": "bytes",
					"name": "_data",
					"type": "bytes"
				}
			],
			"name": "safeTransferFrom",
			"outputs": [],
			"stateMutability": "nonpayable",
			"type": "function"
		},
		{
			"inputs": [
				{
					"internalType": "address",
					"name": "operator",
					"type": "address"
				},
				{
					"internalType": "bool",
					"name": "approved",
					"type": "bool"
				}
			],
			"name": "setApprovalForAll",
			"outputs": [],
			"stateMutability": "nonpayable",
			"type": "function"
		},
		{
			"inputs": [
				{
					"internalType": "uint256",
					"name": "_tierOnePrice",
					"type": "uint256"
				},
				{
					"internalType": "uint256",
					"name": "_tierTwoPrice",
					"type": "uint256"
				},
				{
					"internalType": "uint256",
					"name": "_tierThreePrice",
					"type": "uint256"
				}
			],
			"name": "setPrice",
			"outputs": [],
			"stateMutability": "nonpayable",
			"type": "function"
		},
		{
			"inputs": [
				{
					"internalType": "string",
					"name": "name",
					"type": "string"
				},
				{
					"internalType": "string",
					"name": "record",
					"type": "string"
				},
				{
					"internalType": "enum RecordType",
					"name": "recordType",
					"type": "uint8"
				}
			],
			"name": "setRecord",
			"outputs": [],
			"stateMutability": "nonpayable",
			"type": "function"
		},
		{
			"inputs": [
				{
					"internalType": "string",
					"name": "name",
					"type": "string"
				},
				{
					"internalType": "string",
					"name": "_avatar",
					"type": "string"
				},
				{
					"internalType": "string",
					"name": "_twitterTag",
					"type": "string"
				},
				{
					"internalType": "string",
					"name": "_website",
					"type": "string"
				},
				{
					"internalType": "string",
					"name": "_email",
					"type": "string"
				},
				{
					"internalType": "string",
					"name": "_description",
					"type": "string"
				}
			],
			"name": "setRecords",
			"outputs": [],
			"stateMutability": "nonpayable",
			"type": "function"
		},
		{
			"inputs": [
				{
					"internalType": "bytes4",
					"name": "interfaceId",
					"type": "bytes4"
				}
			],
			"name": "supportsInterface",
			"outputs": [
				{
					"internalType": "bool",
					"name": "",
					"type": "bool"
				}
			],
			"stateMutability": "view",
			"type": "function"
		},
		{
			"inputs": [],
			"name": "symbol",
			"outputs": [
				{
					"internalType": "string",
					"name": "",
					"type": "string"
				}
			],
			"stateMutability": "view",
			"type": "function"
		},
		{
			"inputs": [],
			"name": "tierOnePrice",
			"outputs": [
				{
					"internalType": "uint256",
					"name": "",
					"type": "uint256"
				}
			],
			"stateMutability": "view",
			"type": "function"
		},
		{
			"inputs": [],
			"name": "tierThreePrice",
			"outputs": [
				{
					"internalType": "uint256",
					"name": "",
					"type": "uint256"
				}
			],
			"stateMutability": "view",
			"type": "function"
		},
		{
			"inputs": [],
			"name": "tierTwoPrice",
			"outputs": [
				{
					"internalType": "uint256",
					"name": "",
					"type": "uint256"
				}
			],
			"stateMutability": "view",
			"type": "function"
		},
		{
			"inputs": [],
			"name": "tld",
			"outputs": [
				{
					"internalType": "string",
					"name": "",
					"type": "string"
				}
			],
			"stateMutability": "view",
			"type": "function"
		},
		{
			"inputs": [
				{
					"internalType": "uint256",
					"name": "tokenId",
					"type": "uint256"
				}
			],
			"name": "tokenURI",
			"outputs": [
				{
					"internalType": "string",
					"name": "",
					"type": "string"
				}
			],
			"stateMutability": "view",
			"type": "function"
		},
		{
			"inputs": [
				{
					"internalType": "address",
					"name": "from",
					"type": "address"
				},
				{
					"internalType": "address",
					"name": "to",
					"type": "address"
				},
				{
					"internalType": "uint256",
					"name": "tokenId",
					"type": "uint256"
				}
			],
			"name": "transferFrom",
			"outputs": [],
			"stateMutability": "nonpayable",
			"type": "function"
		},
		{
			"inputs": [
				{
					"internalType": "string",
					"name": "name",
					"type": "string"
				}
			],
			"name": "valid",
			"outputs": [
				{
					"internalType": "bool",
					"name": "",
					"type": "bool"
				}
			],
			"stateMutability": "pure",
			"type": "function"
		},
		{
			"inputs": [
				{
					"internalType": "address",
					"name": "_owner",
					"type": "address"
				}
			],
			"name": "walletOfOwner",
			"outputs": [
				{
					"internalType": "uint256[]",
					"name": "",
					"type": "uint256[]"
				}
			],
			"stateMutability": "view",
			"type": "function"
		},
		{
			"inputs": [],
			"name": "withdraw",
			"outputs": [],
			"stateMutability": "nonpayable",
			"type": "function"
		}
	]
}