{
	"data": {
		"bytecode": {
			"linkReferences": {},
			"object": "608060405260405180610ae00160405280610abf81526020016200633b610abf9139600f908051906020019062000038929190620001f2565b506040518060400160405280600d81526020017f3c2f746578743e3c2f7376673e000000000000000000000000000000000000008152506010908051906020019062000086929190620001f2565b5060405162006dfa38038062006dfa8339818101604052810190620000ac91906200047a565b6040518060400160405280601281526020017f4173746172204e616d65205365727669636500000000000000000000000000008152506040518060400160405280600381526020017f414e530000000000000000000000000000000000000000000000000000000000815250816000908051906020019062000130929190620001f2565b50806001908051906020019062000149929190620001f2565b50505033600a60006101000a81548173ffffffffffffffffffffffffffffffffffffffff021916908373ffffffffffffffffffffffffffffffffffffffff1602179055508360099080519060200190620001a5929190620001f2565b5082600c8190555081600d8190555080600e81905550620001d2600b620001dc60201b62002dcf1760201c565b5050505062000570565b6001816000016000828254019250508190555050565b82805462000200906200053a565b90600052602060002090601f01602090048101928262000224576000855562000270565b82601f106200023f57805160ff191683800117855562000270565b8280016001018555821562000270579182015b828111156200026f57825182559160200191906001019062000252565b5b5090506200027f919062000283565b5090565b5b808211156200029e57600081600090555060010162000284565b5090565b6000604051905090565b600080fd5b600080fd5b600080fd5b600080fd5b6000601f19601f8301169050919050565b7f4e487b7100000000000000000000000000000000000000000000000000000000600052604160045260246000fd5b6200030b82620002c0565b810181811067ffffffffffffffff821117156200032d576200032c620002d1565b5b80604052505050565b600062000342620002a2565b905062000350828262000300565b919050565b600067ffffffffffffffff821115620003735762000372620002d1565b5b6200037e82620002c0565b9050602081019050919050565b60005b83811015620003ab5780820151818401526020810190506200038e565b83811115620003bb576000848401525b50505050565b6000620003d8620003d28462000355565b62000336565b905082815260208101848484011115620003f757620003f6620002bb565b5b620004048482856200038b565b509392505050565b600082601f830112620004245762000423620002b6565b5b815162000436848260208601620003c1565b91505092915050565b6000819050919050565b62000454816200043f565b81146200046057600080fd5b50565b600081519050620004748162000449565b92915050565b60008060008060808587031215620004975762000496620002ac565b5b600085015167ffffffffffffffff811115620004b857620004b7620002b1565b5b620004c6878288016200040c565b9450506020620004d98782880162000463565b9350506040620004ec8782880162000463565b9250506060620004ff8782880162000463565b91505092959194509250565b7f4e487b7100000000000000000000000000000000000000000000000000000000600052602260045260246000fd5b600060028204905060018216806200055357607f821691505b602082108114156200056a57620005696200050b565b5b50919050565b615dbb80620005806000396000f3fe60806040526004361061021a5760003560e01c80638da5cb5b11610123578063bf40fac1116100ab578063f0f193461161006f578063f0f1934614610882578063f2c298be146108ab578063f5064fd0146108c7578063fb825e5f146108f0578063fe2c61981461091b5761021a565b8063bf40fac114610763578063c87b56dd146107a0578063d7e915d5146107dd578063e327ad6114610808578063e985e9c5146108455761021a565b80639791c097116100f25780639791c0971461066e578063a22cb465146106ab578063aa585d56146106d4578063b88d4fde146106fd578063bee51f3b146107265761021a565b80638da5cb5b146105b05780638f32d59b146105db57806395d89b41146106065780639751e9f1146106315761021a565b8063438b6300116101a65780636352211e116101755780636352211e1461049057806370a08231146104cd5780638600c8b21461050a57806386e80b71146105355780638a08677d146105735761021a565b8063438b6300146103aa5780634622ab03146103e75780634e82dc8914610424578063541e771d1461044f5761021a565b806315bf7227116101ed57806315bf7227146102ed57806323b872dd146103165780632d5514321461033f5780633ccfd60b1461036a57806342842e0e146103815761021a565b806301ffc9a71461021f57806306fdde031461025c578063081812fc14610287578063095ea7b3146102c4575b600080fd5b34801561022b57600080fd5b5061024660048036038101906102419190613eb7565b610958565b6040516102539190613eff565b60405180910390f35b34801561026857600080fd5b50610271610a3a565b60405161027e9190613fb3565b60405180910390f35b34801561029357600080fd5b506102ae60048036038101906102a9919061400b565b610acc565b6040516102bb9190614079565b60405180910390f35b3480156102d057600080fd5b506102eb60048036038101906102e691906140c0565b610b51565b005b3480156102f957600080fd5b50610314600480360381019061030f9190614165565b610c69565b005b34801561032257600080fd5b5061033d600480360381019061033891906141c5565b610d91565b005b34801561034b57600080fd5b50610354610df1565b6040516103619190613fb3565b60405180910390f35b34801561037657600080fd5b5061037f610e7f565b005b34801561038d57600080fd5b506103a860048036038101906103a391906141c5565b610f45565b005b3480156103b657600080fd5b506103d160048036038101906103cc9190614218565b610f65565b6040516103de9190614303565b60405180910390f35b3480156103f357600080fd5b5061040e6004803603810190610409919061400b565b611077565b60405161041b9190613fb3565b60405180910390f35b34801561043057600080fd5b50610439611117565b6040516104469190614334565b60405180910390f35b34801561045b57600080fd5b506104766004803603810190610471919061447f565b61111d565b6040516104879594939291906144c8565b60405180910390f35b34801561049c57600080fd5b506104b760048036038101906104b2919061400b565b611411565b6040516104c49190614079565b60405180910390f35b3480156104d957600080fd5b506104f460048036038101906104ef9190614218565b6114c3565b6040516105019190614334565b60405180910390f35b34801561051657600080fd5b5061051f61157b565b60405161052c9190614334565b60405180910390f35b34801561054157600080fd5b5061055c6004803603810190610557919061453e565b611581565b60405161056a929190614697565b60405180910390f35b34801561057f57600080fd5b5061059a6004803603810190610595919061447f565b6119eb565b6040516105a79190614334565b60405180910390f35b3480156105bc57600080fd5b506105c5611a19565b6040516105d291906146e8565b60405180910390f35b3480156105e757600080fd5b506105f0611a3f565b6040516105fd9190613eff565b60405180910390f35b34801561061257600080fd5b5061061b611a97565b6040516106289190613fb3565b60405180910390f35b34801561063d57600080fd5b5061065860048036038101906106539190614728565b611b29565b6040516106659190613fb3565b60405180910390f35b34801561067a57600080fd5b506106956004803603810190610690919061453e565b611fcc565b6040516106a29190613eff565b60405180910390f35b3480156106b757600080fd5b506106d260048036038101906106cd91906147b4565b612080565b005b3480156106e057600080fd5b506106fb60048036038101906106f691906147f4565b612096565b005b34801561070957600080fd5b50610724600480360381019061071f91906148e8565b6120c1565b005b34801561073257600080fd5b5061074d6004803603810190610748919061453e565b612123565b60405161075a9190614334565b60405180910390f35b34801561076f57600080fd5b5061078a6004803603810190610785919061453e565b61217b565b6040516107979190614079565b60405180910390f35b3480156107ac57600080fd5b506107c760048036038101906107c2919061400b565b612197565b6040516107d49190613fb3565b60405180910390f35b3480156107e957600080fd5b506107f261250f565b6040516107ff9190614334565b60405180910390f35b34801561081457600080fd5b5061082f600480360381019061082a919061447f565b612515565b60405161083c9190613eff565b60405180910390f35b34801561085157600080fd5b5061086c6004803603810190610867919061496b565b61252a565b6040516108799190613eff565b60405180910390f35b34801561088e57600080fd5b506108a960048036038101906108a491906149ab565b6125be565b005b6108c560048036038101906108c0919061453e565b61273d565b005b3480156108d357600080fd5b506108ee60048036038101906108e99190614af8565b61296d565b005b3480156108fc57600080fd5b50610905612bda565b6040516109129190614b8d565b60405180910390f35b34801561092757600080fd5b50610942600480360381019061093d919061453e565b612d3c565b60405161094f9190614334565b60405180910390f35b60007f80ac58cd000000000000000000000000000000000000000000000000000000007bffffffffffffffffffffffffffffffffffffffffffffffffffffffff1916827bffffffffffffffffffffffffffffffffffffffffffffffffffffffff19161480610a2357507f5b5e139f000000000000000000000000000000000000000000000000000000007bffffffffffffffffffffffffffffffffffffffffffffffffffffffff1916827bffffffffffffffffffffffffffffffffffffffffffffffffffffffff1916145b80610a335750610a3282612de5565b5b9050919050565b606060008054610a4990614bde565b80601f0160208091040260200160405190810160405280929190818152602001828054610a7590614bde565b8015610ac25780601f10610a9757610100808354040283529160200191610ac2565b820191906000526020600020905b815481529060010190602001808311610aa557829003601f168201915b5050505050905090565b6000610ad782612e4f565b610b16576040517f08c379a0000000000000000000000000000000000000000000000000000000008152600401610b0d90614c82565b60405180910390fd5b6004600083815260200190815260200160002060009054906101000a900473ffffffffffffffffffffffffffffffffffffffff169050919050565b6000610b5c82611411565b90508073ffffffffffffffffffffffffffffffffffffffff168373ffffffffffffffffffffffffffffffffffffffff161415610bcd576040517f08c379a0000000000000000000000000000000000000000000000000000000008152600401610bc490614d14565b60405180910390fd5b8073ffffffffffffffffffffffffffffffffffffffff16610bec612ebb565b73ffffffffffffffffffffffffffffffffffffffff161480610c1b5750610c1a81610c15612ebb565b61252a565b5b610c5a576040517f08c379a0000000000000000000000000000000000000000000000000000000008152600401610c5190614da6565b60405180910390fd5b610c648383612ec3565b505050565b610c71611a3f565b610c7a57600080fd5b600060088484604051610c8e929190614df6565b90815260200160405180910390205414610cd4576040517f3a81d6fc00000000000000000000000000000000000000000000000000000000815260040160405180910390fd5b610cde8383611fcc565b610d215782826040517f7f19f48d000000000000000000000000000000000000000000000000000000008152600401610d18929190614e3c565b60405180910390fd5b6000610d2d600b612f7c565b9050610d398282612f8a565b8383600760008481526020019081526020016000209190610d5b929190613d22565b508060088585604051610d6f929190614df6565b908152602001604051809103902081905550610d8b600b612dcf565b50505050565b610da2610d9c612ebb565b82612fa8565b610de1576040517f08c379a0000000000000000000000000000000000000000000000000000000008152600401610dd890614ed2565b60405180910390fd5b610dec838383613086565b505050565b60098054610dfe90614bde565b80601f0160208091040260200160405190810160405280929190818152602001828054610e2a90614bde565b8015610e775780601f10610e4c57610100808354040283529160200191610e77565b820191906000526020600020905b815481529060010190602001808311610e5a57829003601f168201915b505050505081565b610e87611a3f565b610e9057600080fd5b600047905060003373ffffffffffffffffffffffffffffffffffffffff1682604051610ebb90614f23565b60006040518083038185875af1925050503d8060008114610ef8576040519150601f19603f3d011682016040523d82523d6000602084013e610efd565b606091505b5050905080610f41576040517f08c379a0000000000000000000000000000000000000000000000000000000008152600401610f3890614f84565b60405180910390fd5b5050565b610f60838383604051806020016040528060008152506120c1565b505050565b60606000610f72836114c3565b905060008167ffffffffffffffff811115610f9057610f8f614354565b5b604051908082528060200260200182016040528015610fbe5781602001602082028036833780820191505090505b50905060006001905060005b8381108015610fe25750610fde600b612f7c565b8211155b1561106b576000610ff283611411565b90508673ffffffffffffffffffffffffffffffffffffffff168173ffffffffffffffffffffffffffffffffffffffff161415611057578284838151811061103c5761103b614fa4565b5b602002602001018181525050818061105390615002565b9250505b828061106290615002565b93505050610fca565b82945050505050919050565b6007602052806000526040600020600091509050805461109690614bde565b80601f01602080910402602001604051908101604052809291908181526020018280546110c290614bde565b801561110f5780601f106110e45761010080835404028352916020019161110f565b820191906000526020600020905b8154815290600101906020018083116110f257829003601f168201915b505050505081565b600e5481565b60068180516020810182018051848252602083016020850120818352809550505050505060009150905080600001805461115690614bde565b80601f016020809104026020016040519081016040528092919081815260200182805461118290614bde565b80156111cf5780601f106111a4576101008083540402835291602001916111cf565b820191906000526020600020905b8154815290600101906020018083116111b257829003601f168201915b5050505050908060010180546111e490614bde565b80601f016020809104026020016040519081016040528092919081815260200182805461121090614bde565b801561125d5780601f106112325761010080835404028352916020019161125d565b820191906000526020600020905b81548152906001019060200180831161124057829003601f168201915b50505050509080600201805461127290614bde565b80601f016020809104026020016040519081016040528092919081815260200182805461129e90614bde565b80156112eb5780601f106112c0576101008083540402835291602001916112eb565b820191906000526020600020905b8154815290600101906020018083116112ce57829003601f168201915b50505050509080600301805461130090614bde565b80601f016020809104026020016040519081016040528092919081815260200182805461132c90614bde565b80156113795780601f1061134e57610100808354040283529160200191611379565b820191906000526020600020905b81548152906001019060200180831161135c57829003601f168201915b50505050509080600401805461138e90614bde565b80601f01602080910402602001604051908101604052809291908181526020018280546113ba90614bde565b80156114075780601f106113dc57610100808354040283529160200191611407565b820191906000526020600020905b8154815290600101906020018083116113ea57829003601f168201915b5050505050905085565b6000806002600084815260200190815260200160002060009054906101000a900473ffffffffffffffffffffffffffffffffffffffff169050600073ffffffffffffffffffffffffffffffffffffffff168173ffffffffffffffffffffffffffffffffffffffff1614156114ba576040517f08c379a00000000000000000000000000000000000000000000000000000000081526004016114b1906150bd565b60405180910390fd5b80915050919050565b60008073ffffffffffffffffffffffffffffffffffffffff168273ffffffffffffffffffffffffffffffffffffffff161415611534576040517f08c379a000000000000000000000000000000000000000000000000000000000815260040161152b9061514f565b60405180910390fd5b600360008373ffffffffffffffffffffffffffffffffffffffff1673ffffffffffffffffffffffffffffffffffffffff168152602001908152602001600020549050919050565b600c5481565b6060600080611590858561217b565b90506000600567ffffffffffffffff8111156115af576115ae614354565b5b6040519080825280602002602001820160405280156115e257816020015b60608152602001906001900390816115cd5790505b509050600686866040516115f7929190614df6565b9081526020016040518091039020600001805461161390614bde565b80601f016020809104026020016040519081016040528092919081815260200182805461163f90614bde565b801561168c5780601f106116615761010080835404028352916020019161168c565b820191906000526020600020905b81548152906001019060200180831161166f57829003601f168201915b5050505050816000815181106116a5576116a4614fa4565b5b6020026020010181905250600686866040516116c2929190614df6565b908152602001604051809103902060010180546116de90614bde565b80601f016020809104026020016040519081016040528092919081815260200182805461170a90614bde565b80156117575780601f1061172c57610100808354040283529160200191611757565b820191906000526020600020905b81548152906001019060200180831161173a57829003601f168201915b5050505050816001815181106117705761176f614fa4565b5b60200260200101819052506006868660405161178d929190614df6565b908152602001604051809103902060020180546117a990614bde565b80601f01602080910402602001604051908101604052809291908181526020018280546117d590614bde565b80156118225780601f106117f757610100808354040283529160200191611822565b820191906000526020600020905b81548152906001019060200180831161180557829003601f168201915b50505050508160028151811061183b5761183a614fa4565b5b602002602001018190525060068686604051611858929190614df6565b9081526020016040518091039020600301805461187490614bde565b80601f01602080910402602001604051908101604052809291908181526020018280546118a090614bde565b80156118ed5780601f106118c2576101008083540402835291602001916118ed565b820191906000526020600020905b8154815290600101906020018083116118d057829003601f168201915b50505050508160038151811061190657611905614fa4565b5b602002602001018190525060068686604051611923929190614df6565b9081526020016040518091039020600401805461193f90614bde565b80601f016020809104026020016040519081016040528092919081815260200182805461196b90614bde565b80156119b85780601f1061198d576101008083540402835291602001916119b8565b820191906000526020600020905b81548152906001019060200180831161199b57829003601f168201915b5050505050816004815181106119d1576119d0614fa4565b5b602002602001018190525080829350935050509250929050565b6008818051602081018201805184825260208301602085012081835280955050505050506000915090505481565b600a60009054906101000a900473ffffffffffffffffffffffffffffffffffffffff1681565b6000600a60009054906101000a900473ffffffffffffffffffffffffffffffffffffffff1673ffffffffffffffffffffffffffffffffffffffff163373ffffffffffffffffffffffffffffffffffffffff1614905090565b606060018054611aa690614bde565b80601f0160208091040260200160405190810160405280929190818152602001828054611ad290614bde565b8015611b1f5780601f10611af457610100808354040283529160200191611b1f565b820191906000526020600020905b815481529060010190602001808311611b0257829003601f168201915b5050505050905090565b606060006004811115611b3f57611b3e61516f565b5b826004811115611b5257611b5161516f565b5b1415611c0b5760068484604051611b6a929190614df6565b90815260200160405180910390206000018054611b8690614bde565b80601f0160208091040260200160405190810160405280929190818152602001828054611bb290614bde565b8015611bff5780601f10611bd457610100808354040283529160200191611bff565b820191906000526020600020905b815481529060010190602001808311611be257829003601f168201915b50505050509050611fc5565b60016004811115611c1f57611c1e61516f565b5b826004811115611c3257611c3161516f565b5b1415611ceb5760068484604051611c4a929190614df6565b90815260200160405180910390206001018054611c6690614bde565b80601f0160208091040260200160405190810160405280929190818152602001828054611c9290614bde565b8015611cdf5780601f10611cb457610100808354040283529160200191611cdf565b820191906000526020600020905b815481529060010190602001808311611cc257829003601f168201915b50505050509050611fc5565b60026004811115611cff57611cfe61516f565b5b826004811115611d1257611d1161516f565b5b1415611dcb5760068484604051611d2a929190614df6565b90815260200160405180910390206002018054611d4690614bde565b80601f0160208091040260200160405190810160405280929190818152602001828054611d7290614bde565b8015611dbf5780601f10611d9457610100808354040283529160200191611dbf565b820191906000526020600020905b815481529060010190602001808311611da257829003601f168201915b50505050509050611fc5565b60036004811115611ddf57611dde61516f565b5b826004811115611df257611df161516f565b5b1415611eab5760068484604051611e0a929190614df6565b90815260200160405180910390206003018054611e2690614bde565b80601f0160208091040260200160405190810160405280929190818152602001828054611e5290614bde565b8015611e9f5780601f10611e7457610100808354040283529160200191611e9f565b820191906000526020600020905b815481529060010190602001808311611e8257829003601f168201915b50505050509050611fc5565b600480811115611ebe57611ebd61516f565b5b826004811115611ed157611ed061516f565b5b1415611f8a5760068484604051611ee9929190614df6565b90815260200160405180910390206004018054611f0590614bde565b80601f0160208091040260200160405190810160405280929190818152602001828054611f3190614bde565b8015611f7e5780601f10611f5357610100808354040283529160200191611f7e565b820191906000526020600020905b815481529060010190602001808311611f6157829003601f168201915b50505050509050611fc5565b6040517f08c379a0000000000000000000000000000000000000000000000000000000008152600401611fbc906151ea565b60405180910390fd5b9392505050565b6000600361201d84848080601f016020809104026020016040519081016040528093929190818152602001838380828437600081840152601f19601f820116905080830192505050505050506132e2565b101580156120785750601e61207584848080601f016020809104026020016040519081016040528093929190818152602001838380828437600081840152601f19601f820116905080830192505050505050506132e2565b11155b905092915050565b61209261208b612ebb565b8383613497565b5050565b61209e611a3f565b6120a757600080fd5b82600c8190555081600d8190555080600e81905550505050565b6120d26120cc612ebb565b83612fa8565b612111576040517f08c379a000000000000000000000000000000000000000000000000000000000815260040161210890614ed2565b60405180910390fd5b61211d84848484613604565b50505050565b60008060088484604051612138929190614df6565b908152602001604051809103902054141561215257600080fd5b60088383604051612164929190614df6565b908152602001604051809103902054905092915050565b600061218f61218a8484612123565b611411565b905092915050565b606061223d6007600084815260200190815260200160002080546121ba90614bde565b80601f01602080910402602001604051908101604052809291908181526020018280546121e690614bde565b80156122335780601f1061220857610100808354040283529160200191612233565b820191906000526020600020905b81548152906001019060200180831161221657829003601f168201915b5050505050612515565b61227c576040517f08c379a000000000000000000000000000000000000000000000000000000000815260040161227390615256565b60405180910390fd5b60006007600084815260200190815260200160002060096040516020016122a4929190615356565b604051602081830303815290604052905060006122c0826132e2565b905060006122cd82613660565b905060606123956006600760008981526020019081526020016000206040516122f69190615385565b9081526020016040518091039020600001805461231290614bde565b80601f016020809104026020016040519081016040528092919081815260200182805461233e90614bde565b801561238b5780601f106123605761010080835404028352916020019161238b565b820191906000526020600020905b81548152906001019060200180831161236e57829003601f168201915b5050505050612515565b1561245d576006600760008881526020019081526020016000206040516123bc9190615385565b908152602001604051809103902060000180546123d890614bde565b80601f016020809104026020016040519081016040528092919081815260200182805461240490614bde565b80156124515780601f1061242657610100808354040283529160200191612451565b820191906000526020600020905b81548152906001019060200180831161243457829003601f168201915b505050505090506124b3565b6000600f856010604051602001612476939291906153cd565b6040516020818303038152906040529050612490816137c1565b6040516020016124a0919061544a565b6040516020818303038152906040529150505b60006124e18583856040516020016124cd939291906155e8565b6040516020818303038152906040526137c1565b9050806040516020016124f49190615691565b60405160208183030381529060405295505050505050919050565b600d5481565b600080612521836132e2565b14159050919050565b6000600560008473ffffffffffffffffffffffffffffffffffffffff1673ffffffffffffffffffffffffffffffffffffffff16815260200190815260200160002060008373ffffffffffffffffffffffffffffffffffffffff1673ffffffffffffffffffffffffffffffffffffffff16815260200190815260200160002060009054906101000a900460ff16905092915050565b6125c88b8b61217b565b73ffffffffffffffffffffffffffffffffffffffff163373ffffffffffffffffffffffffffffffffffffffff161461262c576040517f82b4290000000000000000000000000000000000000000000000000000000000815260040160405180910390fd5b8860068c8c60405161263f929190614df6565b90815260200160405180910390206000019080519060200190612663929190613da8565b50878760068d8d604051612678929190614df6565b90815260200160405180910390206001019190612696929190613d22565b50858560068d8d6040516126ab929190614df6565b908152602001604051809103902060020191906126c9929190613d22565b50838360068d8d6040516126de929190614df6565b908152602001604051809103902060030191906126fc929190613d22565b50818160068d8d604051612711929190614df6565b9081526020016040518091039020600401919061272f929190613d22565b505050505050505050505050565b600060088383604051612751929190614df6565b90815260200160405180910390205414612797576040517f3a81d6fc00000000000000000000000000000000000000000000000000000000815260040160405180910390fd5b6127a18282611fcc565b6127e45781816040517f7f19f48d0000000000000000000000000000000000000000000000000000000081526004016127db929190614e3c565b60405180910390fd5b60003073ffffffffffffffffffffffffffffffffffffffff1663fe2c619884846040518363ffffffff1660e01b8152600401612821929190614e3c565b602060405180830381865afa15801561283e573d6000803e3d6000fd5b505050506040513d601f19601f8201168201806040525081019061286291906156c8565b9050600a60009054906101000a900473ffffffffffffffffffffffffffffffffffffffff1673ffffffffffffffffffffffffffffffffffffffff163373ffffffffffffffffffffffffffffffffffffffff16146128fd57803410156128fc576040517f08c379a00000000000000000000000000000000000000000000000000000000081526004016128f390615741565b60405180910390fd5b5b6000612909600b612f7c565b90506129153382612f8a565b8383600760008481526020019081526020016000209190612937929190613d22565b50806008858560405161294b929190614df6565b908152602001604051809103902081905550612967600b612dcf565b50505050565b612977858561217b565b73ffffffffffffffffffffffffffffffffffffffff163373ffffffffffffffffffffffffffffffffffffffff16146129db576040517f82b4290000000000000000000000000000000000000000000000000000000000815260040160405180910390fd5b600060048111156129ef576129ee61516f565b5b816004811115612a0257612a0161516f565b5b1415612a4057828260068787604051612a1c929190614df6565b90815260200160405180910390206000019190612a3a929190613d22565b50612bd3565b60016004811115612a5457612a5361516f565b5b816004811115612a6757612a6661516f565b5b1415612aa557828260068787604051612a81929190614df6565b90815260200160405180910390206001019190612a9f929190613d22565b50612bd2565b60026004811115612ab957612ab861516f565b5b816004811115612acc57612acb61516f565b5b1415612b0a57828260068787604051612ae6929190614df6565b90815260200160405180910390206002019190612b04929190613d22565b50612bd1565b60036004811115612b1e57612b1d61516f565b5b816004811115612b3157612b3061516f565b5b1415612b6f57828260068787604051612b4b929190614df6565b90815260200160405180910390206003019190612b69929190613d22565b50612bd0565b600480811115612b8257612b8161516f565b5b816004811115612b9557612b9461516f565b5b1415612bcf57828260068787604051612baf929190614df6565b90815260200160405180910390206004019190612bcd929190613d22565b505b5b5b5b5b5050505050565b606060006001612bea600b612f7c565b612bf49190615761565b67ffffffffffffffff811115612c0d57612c0c614354565b5b604051908082528060200260200182016040528015612c4057816020015b6060815260200190600190039081612c2b5790505b5090506000600190505b612c54600b612f7c565b811015612d3457600760008281526020019081526020016000208054612c7990614bde565b80601f0160208091040260200160405190810160405280929190818152602001828054612ca590614bde565b8015612cf25780601f10612cc757610100808354040283529160200191612cf2565b820191906000526020600020905b815481529060010190602001808311612cd557829003601f168201915b505050505082600183612d059190615761565b81518110612d1657612d15614fa4565b5b60200260200101819052508080612d2c90615002565b915050612c4a565b508091505090565b600080612d8c84848080601f016020809104026020016040519081016040528093929190818152602001838380828437600081840152601f19601f820116905080830192505050505050506132e2565b905060008111612d9b57600080fd5b6003811415612daf57600c54915050612dc9565b60068111612dc257600d54915050612dc9565b600e549150505b92915050565b6001816000016000828254019250508190555050565b60007f01ffc9a7000000000000000000000000000000000000000000000000000000007bffffffffffffffffffffffffffffffffffffffffffffffffffffffff1916827bffffffffffffffffffffffffffffffffffffffffffffffffffffffff1916149050919050565b60008073ffffffffffffffffffffffffffffffffffffffff166002600084815260200190815260200160002060009054906101000a900473ffffffffffffffffffffffffffffffffffffffff1673ffffffffffffffffffffffffffffffffffffffff1614159050919050565b600033905090565b816004600083815260200190815260200160002060006101000a81548173ffffffffffffffffffffffffffffffffffffffff021916908373ffffffffffffffffffffffffffffffffffffffff160217905550808273ffffffffffffffffffffffffffffffffffffffff16612f3683611411565b73ffffffffffffffffffffffffffffffffffffffff167f8c5be1e5ebec7d5bd14f71427d1e84f3dd0314c0f7b2291e5b200ac8c7c3b92560405160405180910390a45050565b600081600001549050919050565b612fa4828260405180602001604052806000815250613959565b5050565b6000612fb382612e4f565b612ff2576040517f08c379a0000000000000000000000000000000000000000000000000000000008152600401612fe990615807565b60405180910390fd5b6000612ffd83611411565b90508073ffffffffffffffffffffffffffffffffffffffff168473ffffffffffffffffffffffffffffffffffffffff16148061306c57508373ffffffffffffffffffffffffffffffffffffffff1661305484610acc565b73ffffffffffffffffffffffffffffffffffffffff16145b8061307d575061307c818561252a565b5b91505092915050565b8273ffffffffffffffffffffffffffffffffffffffff166130a682611411565b73ffffffffffffffffffffffffffffffffffffffff16146130fc576040517f08c379a00000000000000000000000000000000000000000000000000000000081526004016130f390615899565b60405180910390fd5b600073ffffffffffffffffffffffffffffffffffffffff168273ffffffffffffffffffffffffffffffffffffffff16141561316c576040517f08c379a00000000000000000000000000000000000000000000000000000000081526004016131639061592b565b60405180910390fd5b6131778383836139b4565b613182600082612ec3565b6001600360008573ffffffffffffffffffffffffffffffffffffffff1673ffffffffffffffffffffffffffffffffffffffff16815260200190815260200160002060008282546131d29190615761565b925050819055506001600360008473ffffffffffffffffffffffffffffffffffffffff1673ffffffffffffffffffffffffffffffffffffffff1681526020019081526020016000206000828254613229919061594b565b92505081905550816002600083815260200190815260200160002060006101000a81548173ffffffffffffffffffffffffffffffffffffffff021916908373ffffffffffffffffffffffffffffffffffffffff160217905550808273ffffffffffffffffffffffffffffffffffffffff168473ffffffffffffffffffffffffffffffffffffffff167fddf252ad1be2c89b69c2b068fc378daa952ba7f163c4a11628f55a4df523b3ef60405160405180910390a4505050565b60008060008084519050600092505b8082101561348c57600085838151811061330e5761330d614fa4565b5b602001015160f81c60f81b9050608060f81b817effffffffffffffffffffffffffffffffffffffffffffffffffffffffffffff1916101561335d57600183613356919061594b565b9250613478565b60e060f81b817effffffffffffffffffffffffffffffffffffffffffffffffffffffffffffff1916101561339f57600283613398919061594b565b9250613477565b60f060f81b817effffffffffffffffffffffffffffffffffffffffffffffffffffffffffffff191610156133e1576003836133da919061594b565b9250613476565b60f8801b817effffffffffffffffffffffffffffffffffffffffffffffffffffffffffffff191610156134225760048361341b919061594b565b9250613475565b60fc60f81b817effffffffffffffffffffffffffffffffffffffffffffffffffffffffffffff191610156134645760058361345d919061594b565b9250613474565b600683613471919061594b565b92505b5b5b5b5b50828061348490615002565b9350506132f1565b829350505050919050565b8173ffffffffffffffffffffffffffffffffffffffff168373ffffffffffffffffffffffffffffffffffffffff161415613506576040517f08c379a00000000000000000000000000000000000000000000000000000000081526004016134fd906159ed565b60405180910390fd5b80600560008573ffffffffffffffffffffffffffffffffffffffff1673ffffffffffffffffffffffffffffffffffffffff16815260200190815260200160002060008473ffffffffffffffffffffffffffffffffffffffff1673ffffffffffffffffffffffffffffffffffffffff16815260200190815260200160002060006101000a81548160ff0219169083151502179055508173ffffffffffffffffffffffffffffffffffffffff168373ffffffffffffffffffffffffffffffffffffffff167f17307eab39ab6107e8899845ad3d59bd9653f200f220920489ca2b5937696c31836040516135f79190613eff565b60405180910390a3505050565b61360f848484613086565b61361b848484846139b9565b61365a576040517f08c379a000000000000000000000000000000000000000000000000000000000815260040161365190615a7f565b60405180910390fd5b50505050565b606060008214156136a8576040518060400160405280600181526020017f300000000000000000000000000000000000000000000000000000000000000081525090506137bc565b600082905060005b600082146136da5780806136c390615002565b915050600a826136d39190615ace565b91506136b0565b60008167ffffffffffffffff8111156136f6576136f5614354565b5b6040519080825280601f01601f1916602001820160405280156137285781602001600182028036833780820191505090505b5090505b600085146137b5576001826137419190615761565b9150600a856137509190615aff565b603061375c919061594b565b60f81b81838151811061377257613771614fa4565b5b60200101907effffffffffffffffffffffffffffffffffffffffffffffffffffffffffffff1916908160001a905350600a856137ae9190615ace565b945061372c565b8093505050505b919050565b606060008251905060008114156137ea5760405180602001604052806000815250915050613954565b600060036002836137fb919061594b565b6138059190615ace565b60046138119190615b30565b90506000602082613822919061594b565b67ffffffffffffffff81111561383b5761383a614354565b5b6040519080825280601f01601f19166020018201604052801561386d5781602001600182028036833780820191505090505b5090506000604051806060016040528060408152602001615d46604091399050600181016020830160005b868110156139115760038101905062ffffff818a015116603f8160121c168401518060081b905060ff603f83600c1c1686015116810190508060081b905060ff603f8360061c1686015116810190508060081b905060ff603f831686015116810190508060e01b90508084526004840193505050613898565b50600386066001811461392b576002811461393b57613946565b613d3d60f01b6002830352613946565b603d60f81b60018303525b508484525050819450505050505b919050565b6139638383613b41565b61397060008484846139b9565b6139af576040517f08c379a00000000000000000000000000000000000000000000000000000000081526004016139a690615a7f565b60405180910390fd5b505050565b505050565b60006139da8473ffffffffffffffffffffffffffffffffffffffff16613d0f565b15613b34578373ffffffffffffffffffffffffffffffffffffffff1663150b7a02613a03612ebb565b8786866040518563ffffffff1660e01b8152600401613a259493929190615bdf565b6020604051808303816000875af1925050508015613a6157506040513d601f19601f82011682018060405250810190613a5e9190615c40565b60015b613ae4573d8060008114613a91576040519150601f19603f3d011682016040523d82523d6000602084013e613a96565b606091505b50600081511415613adc576040517f08c379a0000000000000000000000000000000000000000000000000000000008152600401613ad390615a7f565b60405180910390fd5b805181602001fd5b63150b7a0260e01b7bffffffffffffffffffffffffffffffffffffffffffffffffffffffff1916817bffffffffffffffffffffffffffffffffffffffffffffffffffffffff191614915050613b39565b600190505b949350505050565b600073ffffffffffffffffffffffffffffffffffffffff168273ffffffffffffffffffffffffffffffffffffffff161415613bb1576040517f08c379a0000000000000000000000000000000000000000000000000000000008152600401613ba890615cb9565b60405180910390fd5b613bba81612e4f565b15613bfa576040517f08c379a0000000000000000000000000000000000000000000000000000000008152600401613bf190615d25565b60405180910390fd5b613c06600083836139b4565b6001600360008473ffffffffffffffffffffffffffffffffffffffff1673ffffffffffffffffffffffffffffffffffffffff1681526020019081526020016000206000828254613c56919061594b565b92505081905550816002600083815260200190815260200160002060006101000a81548173ffffffffffffffffffffffffffffffffffffffff021916908373ffffffffffffffffffffffffffffffffffffffff160217905550808273ffffffffffffffffffffffffffffffffffffffff16600073ffffffffffffffffffffffffffffffffffffffff167fddf252ad1be2c89b69c2b068fc378daa952ba7f163c4a11628f55a4df523b3ef60405160405180910390a45050565b600080823b905060008111915050919050565b828054613d2e90614bde565b90600052602060002090601f016020900481019282613d505760008555613d97565b82601f10613d6957803560ff1916838001178555613d97565b82800160010185558215613d97579182015b82811115613d96578235825591602001919060010190613d7b565b5b509050613da49190613e2e565b5090565b828054613db490614bde565b90600052602060002090601f016020900481019282613dd65760008555613e1d565b82601f10613def57805160ff1916838001178555613e1d565b82800160010185558215613e1d579182015b82811115613e1c578251825591602001919060010190613e01565b5b509050613e2a9190613e2e565b5090565b5b80821115613e47576000816000905550600101613e2f565b5090565b6000604051905090565b600080fd5b600080fd5b60007fffffffff0000000000000000000000000000000000000000000000000000000082169050919050565b613e9481613e5f565b8114613e9f57600080fd5b50565b600081359050613eb181613e8b565b92915050565b600060208284031215613ecd57613ecc613e55565b5b6000613edb84828501613ea2565b91505092915050565b60008115159050919050565b613ef981613ee4565b82525050565b6000602082019050613f146000830184613ef0565b92915050565b600081519050919050565b600082825260208201905092915050565b60005b83811015613f54578082015181840152602081019050613f39565b83811115613f63576000848401525b50505050565b6000601f19601f8301169050919050565b6000613f8582613f1a565b613f8f8185613f25565b9350613f9f818560208601613f36565b613fa881613f69565b840191505092915050565b60006020820190508181036000830152613fcd8184613f7a565b905092915050565b6000819050919050565b613fe881613fd5565b8114613ff357600080fd5b50565b60008135905061400581613fdf565b92915050565b60006020828403121561402157614020613e55565b5b600061402f84828501613ff6565b91505092915050565b600073ffffffffffffffffffffffffffffffffffffffff82169050919050565b600061406382614038565b9050919050565b61407381614058565b82525050565b600060208201905061408e600083018461406a565b92915050565b61409d81614058565b81146140a857600080fd5b50565b6000813590506140ba81614094565b92915050565b600080604083850312156140d7576140d6613e55565b5b60006140e5858286016140ab565b92505060206140f685828601613ff6565b9150509250929050565b600080fd5b600080fd5b600080fd5b60008083601f84011261412557614124614100565b5b8235905067ffffffffffffffff81111561414257614141614105565b5b60208301915083600182028301111561415e5761415d61410a565b5b9250929050565b60008060006040848603121561417e5761417d613e55565b5b600084013567ffffffffffffffff81111561419c5761419b613e5a565b5b6141a88682870161410f565b935093505060206141bb868287016140ab565b9150509250925092565b6000806000606084860312156141de576141dd613e55565b5b60006141ec868287016140ab565b93505060206141fd868287016140ab565b925050604061420e86828701613ff6565b9150509250925092565b60006020828403121561422e5761422d613e55565b5b600061423c848285016140ab565b91505092915050565b600081519050919050565b600082825260208201905092915050565b6000819050602082019050919050565b61427a81613fd5565b82525050565b600061428c8383614271565b60208301905092915050565b6000602082019050919050565b60006142b082614245565b6142ba8185614250565b93506142c583614261565b8060005b838110156142f65781516142dd8882614280565b97506142e883614298565b9250506001810190506142c9565b5085935050505092915050565b6000602082019050818103600083015261431d81846142a5565b905092915050565b61432e81613fd5565b82525050565b60006020820190506143496000830184614325565b92915050565b600080fd5b7f4e487b7100000000000000000000000000000000000000000000000000000000600052604160045260246000fd5b61438c82613f69565b810181811067ffffffffffffffff821117156143ab576143aa614354565b5b80604052505050565b60006143be613e4b565b90506143ca8282614383565b919050565b600067ffffffffffffffff8211156143ea576143e9614354565b5b6143f382613f69565b9050602081019050919050565b82818337600083830152505050565b600061442261441d846143cf565b6143b4565b90508281526020810184848401111561443e5761443d61434f565b5b614449848285614400565b509392505050565b600082601f83011261446657614465614100565b5b813561447684826020860161440f565b91505092915050565b60006020828403121561449557614494613e55565b5b600082013567ffffffffffffffff8111156144b3576144b2613e5a565b5b6144bf84828501614451565b91505092915050565b600060a08201905081810360008301526144e28188613f7a565b905081810360208301526144f68187613f7a565b9050818103604083015261450a8186613f7a565b9050818103606083015261451e8185613f7a565b905081810360808301526145328184613f7a565b90509695505050505050565b6000806020838503121561455557614554613e55565b5b600083013567ffffffffffffffff81111561457357614572613e5a565b5b61457f8582860161410f565b92509250509250929050565b600081519050919050565b600082825260208201905092915050565b6000819050602082019050919050565b600082825260208201905092915050565b60006145d382613f1a565b6145dd81856145b7565b93506145ed818560208601613f36565b6145f681613f69565b840191505092915050565b600061460d83836145c8565b905092915050565b6000602082019050919050565b600061462d8261458b565b6146378185614596565b935083602082028501614649856145a7565b8060005b8581101561468557848403895281516146668582614601565b945061467183614615565b925060208a0199505060018101905061464d565b50829750879550505050505092915050565b600060408201905081810360008301526146b18185614622565b90506146c0602083018461406a565b9392505050565b60006146d282614038565b9050919050565b6146e2816146c7565b82525050565b60006020820190506146fd60008301846146d9565b92915050565b6005811061471057600080fd5b50565b60008135905061472281614703565b92915050565b60008060006040848603121561474157614740613e55565b5b600084013567ffffffffffffffff81111561475f5761475e613e5a565b5b61476b8682870161410f565b9350935050602061477e86828701614713565b9150509250925092565b61479181613ee4565b811461479c57600080fd5b50565b6000813590506147ae81614788565b92915050565b600080604083850312156147cb576147ca613e55565b5b60006147d9858286016140ab565b92505060206147ea8582860161479f565b9150509250929050565b60008060006060848603121561480d5761480c613e55565b5b600061481b86828701613ff6565b935050602061482c86828701613ff6565b925050604061483d86828701613ff6565b9150509250925092565b600067ffffffffffffffff82111561486257614861614354565b5b61486b82613f69565b9050602081019050919050565b600061488b61488684614847565b6143b4565b9050828152602081018484840111156148a7576148a661434f565b5b6148b2848285614400565b509392505050565b600082601f8301126148cf576148ce614100565b5b81356148df848260208601614878565b91505092915050565b6000806000806080858703121561490257614901613e55565b5b6000614910878288016140ab565b9450506020614921878288016140ab565b935050604061493287828801613ff6565b925050606085013567ffffffffffffffff81111561495357614952613e5a565b5b61495f878288016148ba565b91505092959194509250565b6000806040838503121561498257614981613e55565b5b6000614990858286016140ab565b92505060206149a1858286016140ab565b9150509250929050565b600080600080600080600080600080600060c08c8e0312156149d0576149cf613e55565b5b60008c013567ffffffffffffffff8111156149ee576149ed613e5a565b5b6149fa8e828f0161410f565b9b509b505060208c013567ffffffffffffffff811115614a1d57614a1c613e5a565b5b614a298e828f01614451565b99505060408c013567ffffffffffffffff811115614a4a57614a49613e5a565b5b614a568e828f0161410f565b985098505060608c013567ffffffffffffffff811115614a7957614a78613e5a565b5b614a858e828f0161410f565b965096505060808c013567ffffffffffffffff811115614aa857614aa7613e5a565b5b614ab48e828f0161410f565b945094505060a08c013567ffffffffffffffff811115614ad757614ad6613e5a565b5b614ae38e828f0161410f565b92509250509295989b509295989b9093969950565b600080600080600060608688031215614b1457614b13613e55565b5b600086013567ffffffffffffffff811115614b3257614b31613e5a565b5b614b3e8882890161410f565b9550955050602086013567ffffffffffffffff811115614b6157614b60613e5a565b5b614b6d8882890161410f565b93509350506040614b8088828901614713565b9150509295509295909350565b60006020820190508181036000830152614ba78184614622565b905092915050565b7f4e487b7100000000000000000000000000000000000000000000000000000000600052602260045260246000fd5b60006002820490506001821680614bf657607f821691505b60208210811415614c0a57614c09614baf565b5b50919050565b7f4552433732313a20617070726f76656420717565727920666f72206e6f6e657860008201527f697374656e7420746f6b656e0000000000000000000000000000000000000000602082015250565b6000614c6c602c83613f25565b9150614c7782614c10565b604082019050919050565b60006020820190508181036000830152614c9b81614c5f565b9050919050565b7f4552433732313a20617070726f76616c20746f2063757272656e74206f776e6560008201527f7200000000000000000000000000000000000000000000000000000000000000602082015250565b6000614cfe602183613f25565b9150614d0982614ca2565b604082019050919050565b60006020820190508181036000830152614d2d81614cf1565b9050919050565b7f4552433732313a20617070726f76652063616c6c6572206973206e6f74206f7760008201527f6e6572206e6f7220617070726f76656420666f7220616c6c0000000000000000602082015250565b6000614d90603883613f25565b9150614d9b82614d34565b604082019050919050565b60006020820190508181036000830152614dbf81614d83565b9050919050565b600081905092915050565b6000614ddd8385614dc6565b9350614dea838584614400565b82840190509392505050565b6000614e03828486614dd1565b91508190509392505050565b6000614e1b8385613f25565b9350614e28838584614400565b614e3183613f69565b840190509392505050565b60006020820190508181036000830152614e57818486614e0f565b90509392505050565b7f4552433732313a207472616e736665722063616c6c6572206973206e6f74206f60008201527f776e6572206e6f7220617070726f766564000000000000000000000000000000602082015250565b6000614ebc603183613f25565b9150614ec782614e60565b604082019050919050565b60006020820190508181036000830152614eeb81614eaf565b9050919050565b600081905092915050565b50565b6000614f0d600083614ef2565b9150614f1882614efd565b600082019050919050565b6000614f2e82614f00565b9150819050919050565b7f4661696c656420746f2077697468647261772066756e64730000000000000000600082015250565b6000614f6e601883613f25565b9150614f7982614f38565b602082019050919050565b60006020820190508181036000830152614f9d81614f61565b9050919050565b7f4e487b7100000000000000000000000000000000000000000000000000000000600052603260045260246000fd5b7f4e487b7100000000000000000000000000000000000000000000000000000000600052601160045260246000fd5b600061500d82613fd5565b91507fffffffffffffffffffffffffffffffffffffffffffffffffffffffffffffffff8214156150405761503f614fd3565b5b600182019050919050565b7f4552433732313a206f776e657220717565727920666f72206e6f6e657869737460008201527f656e7420746f6b656e0000000000000000000000000000000000000000000000602082015250565b60006150a7602983613f25565b91506150b28261504b565b604082019050919050565b600060208201905081810360008301526150d68161509a565b9050919050565b7f4552433732313a2062616c616e636520717565727920666f7220746865207a6560008201527f726f206164647265737300000000000000000000000000000000000000000000602082015250565b6000615139602a83613f25565b9150615144826150dd565b604082019050919050565b600060208201905081810360008301526151688161512c565b9050919050565b7f4e487b7100000000000000000000000000000000000000000000000000000000600052602160045260246000fd5b7f5265636f7264206e6f7420666f756e6400000000000000000000000000000000600082015250565b60006151d4601083613f25565b91506151df8261519e565b602082019050919050565b60006020820190508181036000830152615203816151c7565b9050919050565b7f4164647265737320756e6b6e6f776e0000000000000000000000000000000000600082015250565b6000615240600f83613f25565b915061524b8261520a565b602082019050919050565b6000602082019050818103600083015261526f81615233565b9050919050565b60008190508160005260206000209050919050565b6000815461529881614bde565b6152a28186614dc6565b945060018216600081146152bd57600181146152ce57615301565b60ff19831686528186019350615301565b6152d785615276565b60005b838110156152f9578154818901526001820191506020810190506152da565b838801955050505b50505092915050565b7f2e00000000000000000000000000000000000000000000000000000000000000600082015250565b6000615340600183614dc6565b915061534b8261530a565b600182019050919050565b6000615362828561528b565b915061536d82615333565b9150615379828461528b565b91508190509392505050565b6000615391828461528b565b915081905092915050565b60006153a782613f1a565b6153b18185614dc6565b93506153c1818560208601613f36565b80840191505092915050565b60006153d9828661528b565b91506153e5828561539c565b91506153f1828461528b565b9150819050949350505050565b7f646174613a696d6167652f7376672b786d6c3b6261736536342c000000000000600082015250565b6000615434601a83614dc6565b915061543f826153fe565b601a82019050919050565b600061545582615427565b9150615461828461539c565b915081905092915050565b7f7b226e616d65223a202200000000000000000000000000000000000000000000600082015250565b60006154a2600a83614dc6565b91506154ad8261546c565b600a82019050919050565b7f222c20226465736372697074696f6e223a20224120646f6d61696e206f6e207460008201527f6865204173746172206e616d652073657276696365222c2022696d616765223a60208201527f2022000000000000000000000000000000000000000000000000000000000000604082015250565b600061553a604283614dc6565b9150615545826154b8565b604282019050919050565b7f222c226c656e677468223a220000000000000000000000000000000000000000600082015250565b6000615586600c83614dc6565b915061559182615550565b600c82019050919050565b7f227d000000000000000000000000000000000000000000000000000000000000600082015250565b60006155d2600283614dc6565b91506155dd8261559c565b600282019050919050565b60006155f382615495565b91506155ff828661539c565b915061560a8261552d565b9150615616828561539c565b915061562182615579565b915061562d828461539c565b9150615638826155c5565b9150819050949350505050565b7f646174613a6170706c69636174696f6e2f6a736f6e3b6261736536342c000000600082015250565b600061567b601d83614dc6565b915061568682615645565b601d82019050919050565b600061569c8261566e565b91506156a8828461539c565b915081905092915050565b6000815190506156c281613fdf565b92915050565b6000602082840312156156de576156dd613e55565b5b60006156ec848285016156b3565b91505092915050565b7f4e6f7420656e6f7567682066756e647320706169640000000000000000000000600082015250565b600061572b601583613f25565b9150615736826156f5565b602082019050919050565b6000602082019050818103600083015261575a8161571e565b9050919050565b600061576c82613fd5565b915061577783613fd5565b92508282101561578a57615789614fd3565b5b828203905092915050565b7f4552433732313a206f70657261746f7220717565727920666f72206e6f6e657860008201527f697374656e7420746f6b656e0000000000000000000000000000000000000000602082015250565b60006157f1602c83613f25565b91506157fc82615795565b604082019050919050565b60006020820190508181036000830152615820816157e4565b9050919050565b7f4552433732313a207472616e73666572206f6620746f6b656e2074686174206960008201527f73206e6f74206f776e0000000000000000000000000000000000000000000000602082015250565b6000615883602983613f25565b915061588e82615827565b604082019050919050565b600060208201905081810360008301526158b281615876565b9050919050565b7f4552433732313a207472616e7366657220746f20746865207a65726f2061646460008201527f7265737300000000000000000000000000000000000000000000000000000000602082015250565b6000615915602483613f25565b9150615920826158b9565b604082019050919050565b6000602082019050818103600083015261594481615908565b9050919050565b600061595682613fd5565b915061596183613fd5565b9250827fffffffffffffffffffffffffffffffffffffffffffffffffffffffffffffffff0382111561599657615995614fd3565b5b828201905092915050565b7f4552433732313a20617070726f766520746f2063616c6c657200000000000000600082015250565b60006159d7601983613f25565b91506159e2826159a1565b602082019050919050565b60006020820190508181036000830152615a06816159ca565b9050919050565b7f4552433732313a207472616e7366657220746f206e6f6e20455243373231526560008201527f63656976657220696d706c656d656e7465720000000000000000000000000000602082015250565b6000615a69603283613f25565b9150615a7482615a0d565b604082019050919050565b60006020820190508181036000830152615a9881615a5c565b9050919050565b7f4e487b7100000000000000000000000000000000000000000000000000000000600052601260045260246000fd5b6000615ad982613fd5565b9150615ae483613fd5565b925082615af457615af3615a9f565b5b828204905092915050565b6000615b0a82613fd5565b9150615b1583613fd5565b925082615b2557615b24615a9f565b5b828206905092915050565b6000615b3b82613fd5565b9150615b4683613fd5565b9250817fffffffffffffffffffffffffffffffffffffffffffffffffffffffffffffffff0483118215151615615b7f57615b7e614fd3565b5b828202905092915050565b600081519050919050565b600082825260208201905092915050565b6000615bb182615b8a565b615bbb8185615b95565b9350615bcb818560208601613f36565b615bd481613f69565b840191505092915050565b6000608082019050615bf4600083018761406a565b615c01602083018661406a565b615c0e6040830185614325565b8181036060830152615c208184615ba6565b905095945050505050565b600081519050615c3a81613e8b565b92915050565b600060208284031215615c5657615c55613e55565b5b6000615c6484828501615c2b565b91505092915050565b7f4552433732313a206d696e7420746f20746865207a65726f2061646472657373600082015250565b6000615ca3602083613f25565b9150615cae82615c6d565b602082019050919050565b60006020820190508181036000830152615cd281615c96565b9050919050565b7f4552433732313a20746f6b656e20616c7265616479206d696e74656400000000600082015250565b6000615d0f601c83613f25565b9150615d1a82615cd9565b602082019050919050565b60006020820190508181036000830152615d3e81615d02565b905091905056fe4142434445464748494a4b4c4d4e4f505152535455565758595a6162636465666768696a6b6c6d6e6f707172737475767778797a303132333435363738392b2fa264697066735822122018ad734739c5fbc212fa367be2d4130a75cc6865c744fb304b808ab7da21b63664736f6c634300080a00333c73766720636c6173734e616d653d226176617461725356472220786d6c6e733d22687474703a2f2f7777772e77332e6f72672f323030302f737667222077696474683d2232373022206865696768743d22323730222066696c6c3d226e6f6e65223e203c706174682066696c6c3d2275726c282342292220643d224d302030683237307632373048307a222f3e3c646566733e3c66696c7465722069643d22412220636f6c6f722d696e746572706f6c6174696f6e2d66696c746572733d2273524742222066696c746572556e6974733d227573657253706163654f6e55736522206865696768743d22323730222077696474683d22323730223e3c666544726f70536861646f772064783d2230222064793d22312220737464446576696174696f6e3d22322220666c6f6f642d6f7061636974793d222e323235222077696474683d223230302522206865696768743d2232303025222f3e3c2f66696c7465723e3c2f646566733e3c7061746820636c6173734e616d653d227374302220643d224d3237302e332c3237302e3348305631382e3743302c382e342c382e342c302c31382e372c30683233336331302e332c302c31382e372c382e342c31382e372c31382e37763235312e364c3237302e332c3237302e334c3237302e332c3237302e337a222f3e3c673e20203c6c696e6561724772616469656e742069643d2253564749445f325f22206772616469656e74556e6974733d227573657253706163654f6e557365222078313d2233342e30343638222079313d2239322e39343837222078323d2239332e32313738222079323d2233332e37373737223e3c73746f70206f66667365743d22312e323039333230652d3033222073746f702d636f6c6f723d2223453230303744222f3e3c73746f70206f66667365743d22302e35222073746f702d636f6c6f723d2223303037354431222f3e3c73746f70206f66667365743d2231222073746f702d636f6c6f723d2223303045324646222f3e3c2f6c696e6561724772616469656e743e20203c706174682066696c6c3d2275726c282353564749445f325f292220636c6173734e616d653d227374312220643d224d35392e322c32312e3963322e392d302e332c362d302e322c382e372c3063332e362c302e352c362e382c312e312c31302c322e336331332e372c352e322c32322e352c31352c32362e322c32392e3263302e372c322e372c312c352e362c312e352c382e3420202063302c312e352c302c322e392c302c342e34632d302e312c302e362d302e332c312e322d302e332c312e38632d312e352c31362e392d31332e392c33312e352d33302e342c33352e38632d332e322c302e382d352e382c312e352d382e322c312e37632d302e392c302d322e352c302d332e342c30202020632d302e352d302e312d322d302e322d322e352d302e33632d31382e352d312e312d33342e362d31352e332d33382d33332e34632d302e342d322e312d302e362d342e322d312d362e3363302d312e352c302d322e392c302d342e3463302e312d302e362c302e322d312e322c302e332d312e382020204332332e362c34322e322c33352e372c32372e362c35322e322c32334335342e352c32322e342c35362e362c32322c35392e322c32312e397a204d39352e372c36382e3963302e322d302e392c302e342d312e332c302e342d312e3763312e392d31342d352e372d32372e362d31382e362d33332e35202020632d362e312d322e382d31332d312e312d31372e322c342e32632d322e342c332d332e372c362e342d342e332c31302e31632d302e312c302e342c302c302e382c302c312e3463352e352c302c31302e382c302c31362e362c30632d302e382d302e332d312e322d302e362d312e362d302e37202020632d332e312d302e372d352e312d322e352d352e372d352e36632d302e362d322e392c302e342d352e332c322e392d3763322e352d312e372c352e372d312e362c382e342c302e3263322e322c312e352c332e352c332e362c332e392c3663302e362c322e392c302e362c362c312c382e3920202063302e312c302e392c302e322c322e322c302e382c322e364338372e392c35372e362c39322e352c36322e332c39352e372c36382e397a204d37392e392c36332e38632d322e382c342e372d352e362c392e322d382e342c31332e3863302e352d302e322c312d302e362c312e342d3120202063322d322c342e352d322e372c372e322d312e3963322e372c302e382c342e322c322e372c342e382c352e3363312c342e342d322e362c382e362d372e352c382e39632d342e362c302e322d382e362d312e372d31322e342d342e31632d312e332d302e382d322e322d302e392d332e362d302e33202020632d332e332c312e332d362e372c322e352d31302e312c332e33632d322e352c302e362d352e322c302e352d382c302e3763302e342c302e342c302e382c302e372c312e332c3163342e392c332e362c31302e352c352e372c31362e362c362e3263382e342c302e362c31362e322d312e342c32322e352d362e392020204339322e362c38312e322c38372e392c36382e372c37392e392c36332e387a204d35322e322c33322e38632d302e382c302e332d312e322c302e342d312e362c302e354333382e312c33382e372c33302c35322e322c33312e322c36352e3863302e332c332e332c312e342c362e322c332e372c382e3620202063342e342c342e362c392e382c352e352c31352e372c342e3263312e362d302e332c332e322d312c342e362d312e34632d322e372d352d352e322d392e372d372e382d31342e33632d302e312c302e352c302c312c302e312c312e3563302e382c332c302e332c352e362d322e312c372e36202020632d322e322c312e392d342e382c322e332d372e352c312e31632d322e382d312e322d342e312d332e362d342e322d362e35632d302e312d332c312e312d352e362c332e332d372e3563322e332d322c342e382d332e382c372e342d352e3463312e332d302e382c312e392d312e352c322d332e3120202063302e322d342e342c312e322d382e362c332e312d31322e364335302e322c33362e342c35312e322c33342e382c35322e322c33322e387a204d35362e362c353963312e312c352c332e362c382e392c362e392c31322e3563332e372d332e352c362d372e352c372e332d31322e322020204336362c35372e382c36312e342c35372e392c35362e362c35397a222f3e20203c2f673e3c646566733e3c6c696e6561724772616469656e742069643d2242222078313d2230222079313d2230222078323d22323730222079323d2232373022206772616469656e74556e6974733d227573657253706163654f6e557365223e3c73746f702073746f702d636f6c6f723d2223443144454645222f3e3c73746f70206f66667365743d2231222073746f702d636f6c6f723d2223443746424643222073746f702d6f7061636974793d222e3939222f3e3c2f6c696e6561724772616469656e743e3c2f646566733e3c7465787420783d2233322e352220793d223233312220666f6e742d73697a653d223237222066696c6c3d2223666666222066696c7465723d2275726c282341292220666f6e742d66616d696c793d22506c7573204a616b617274612053616e732c44656a6156752053616e732c4e6f746f20436f6c6f7220456d6f6a692c4170706c6520436f6c6f7220456d6f6a692c73616e732d73657269662220666f6e742d7765696768743d22626f6c64223e",
			"opcodes": "PUSH1 0x80 PUSH1 0x40 MSTORE PUSH1 0x40 MLOAD DUP1 PUSH2 0xAE0 ADD PUSH1 0x40 MSTORE DUP1 PUSH2 0xABF DUP2 MSTORE PUSH1 0x20 ADD PUSH3 0x633B PUSH2 0xABF SWAP2 CODECOPY PUSH1 0xF SWAP1 DUP1 MLOAD SWAP1 PUSH1 0x20 ADD SWAP1 PUSH3 0x38 SWAP3 SWAP2 SWAP1 PUSH3 0x1F2 JUMP JUMPDEST POP PUSH1 0x40 MLOAD DUP1 PUSH1 0x40 ADD PUSH1 0x40 MSTORE DUP1 PUSH1 0xD DUP2 MSTORE PUSH1 0x20 ADD PUSH32 0x3C2F746578743E3C2F7376673E00000000000000000000000000000000000000 DUP2 MSTORE POP PUSH1 0x10 SWAP1 DUP1 MLOAD SWAP1 PUSH1 0x20 ADD SWAP1 PUSH3 0x86 SWAP3 SWAP2 SWAP1 PUSH3 0x1F2 JUMP JUMPDEST POP PUSH1 0x40 MLOAD PUSH3 0x6DFA CODESIZE SUB DUP1 PUSH3 0x6DFA DUP4 CODECOPY DUP2 DUP2 ADD PUSH1 0x40 MSTORE DUP2 ADD SWAP1 PUSH3 0xAC SWAP2 SWAP1 PUSH3 0x47A JUMP JUMPDEST PUSH1 0x40 MLOAD DUP1 PUSH1 0x40 ADD PUSH1 0x40 MSTORE DUP1 PUSH1 0x12 DUP2 MSTORE PUSH1 0x20 ADD PUSH32 0x4173746172204E616D6520536572766963650000000000000000000000000000 DUP2 MSTORE POP PUSH1 0x40 MLOAD DUP1 PUSH1 0x40 ADD PUSH1 0x40 MSTORE DUP1 PUSH1 0x3 DUP2 MSTORE PUSH1 0x20 ADD PUSH32 0x414E530000000000000000000000000000000000000000000000000000000000 DUP2 MSTORE POP DUP2 PUSH1 0x0 SWAP1 DUP1 MLOAD SWAP1 PUSH1 0x20 ADD SWAP1 PUSH3 0x130 SWAP3 SWAP2 SWAP1 PUSH3 0x1F2 JUMP JUMPDEST POP DUP1 PUSH1 0x1 SWAP1 DUP1 MLOAD SWAP1 PUSH1 0x20 ADD SWAP1 PUSH3 0x149 SWAP3 SWAP2 SWAP1 PUSH3 0x1F2 JUMP JUMPDEST POP POP POP CALLER PUSH1 0xA PUSH1 0x0 PUSH2 0x100 EXP DUP2 SLOAD DUP2 PUSH20 0xFFFFFFFFFFFFFFFFFFFFFFFFFFFFFFFFFFFFFFFF MUL NOT AND SWAP1 DUP4 PUSH20 0xFFFFFFFFFFFFFFFFFFFFFFFFFFFFFFFFFFFFFFFF AND MUL OR SWAP1 SSTORE POP DUP4 PUSH1 0x9 SWAP1 DUP1 MLOAD SWAP1 PUSH1 0x20 ADD SWAP1 PUSH3 0x1A5 SWAP3 SWAP2 SWAP1 PUSH3 0x1F2 JUMP JUMPDEST POP DUP3 PUSH1 0xC DUP2 SWAP1 SSTORE POP DUP2 PUSH1 0xD DUP2 SWAP1 SSTORE POP DUP1 PUSH1 0xE DUP2 SWAP1 SSTORE POP PUSH3 0x1D2 PUSH1 0xB PUSH3 0x1DC PUSH1 0x20 SHL PUSH3 0x2DCF OR PUSH1 0x20 SHR JUMP JUMPDEST POP POP POP POP PUSH3 0x570 JUMP JUMPDEST PUSH1 0x1 DUP2 PUSH1 0x0 ADD PUSH1 0x0 DUP3 DUP3 SLOAD ADD SWAP3 POP POP DUP2 SWAP1 SSTORE POP POP JUMP JUMPDEST DUP3 DUP1 SLOAD PUSH3 0x200 SWAP1 PUSH3 0x53A JUMP JUMPDEST SWAP1 PUSH1 0x0 MSTORE PUSH1 0x20 PUSH1 0x0 KECCAK256 SWAP1 PUSH1 0x1F ADD PUSH1 0x20 SWAP1 DIV DUP2 ADD SWAP3 DUP3 PUSH3 0x224 JUMPI PUSH1 0x0 DUP6 SSTORE PUSH3 0x270 JUMP JUMPDEST DUP3 PUSH1 0x1F LT PUSH3 0x23F JUMPI DUP1 MLOAD PUSH1 0xFF NOT AND DUP4 DUP1 ADD OR DUP6 SSTORE PUSH3 0x270 JUMP JUMPDEST DUP3 DUP1 ADD PUSH1 0x1 ADD DUP6 SSTORE DUP3 ISZERO PUSH3 0x270 JUMPI SWAP2 DUP3 ADD JUMPDEST DUP3 DUP2 GT ISZERO PUSH3 0x26F JUMPI DUP3 MLOAD DUP3 SSTORE SWAP2 PUSH1 0x20 ADD SWAP2 SWAP1 PUSH1 0x1 ADD SWAP1 PUSH3 0x252 JUMP JUMPDEST JUMPDEST POP SWAP1 POP PUSH3 0x27F SWAP2 SWAP1 PUSH3 0x283 JUMP JUMPDEST POP SWAP1 JUMP JUMPDEST JUMPDEST DUP1 DUP3 GT ISZERO PUSH3 0x29E JUMPI PUSH1 0x0 DUP2 PUSH1 0x0 SWAP1 SSTORE POP PUSH1 0x1 ADD PUSH3 0x284 JUMP JUMPDEST POP SWAP1 JUMP JUMPDEST PUSH1 0x0 PUSH1 0x40 MLOAD SWAP1 POP SWAP1 JUMP JUMPDEST PUSH1 0x0 DUP1 REVERT JUMPDEST PUSH1 0x0 DUP1 REVERT JUMPDEST PUSH1 0x0 DUP1 REVERT JUMPDEST PUSH1 0x0 DUP1 REVERT JUMPDEST PUSH1 0x0 PUSH1 0x1F NOT PUSH1 0x1F DUP4 ADD AND SWAP1 POP SWAP2 SWAP1 POP JUMP JUMPDEST PUSH32 0x4E487B7100000000000000000000000000000000000000000000000000000000 PUSH1 0x0 MSTORE PUSH1 0x41 PUSH1 0x4 MSTORE PUSH1 0x24 PUSH1 0x0 REVERT JUMPDEST PUSH3 0x30B DUP3 PUSH3 0x2C0 JUMP JUMPDEST DUP2 ADD DUP2 DUP2 LT PUSH8 0xFFFFFFFFFFFFFFFF DUP3 GT OR ISZERO PUSH3 0x32D JUMPI PUSH3 0x32C PUSH3 0x2D1 JUMP JUMPDEST JUMPDEST DUP1 PUSH1 0x40 MSTORE POP POP POP JUMP JUMPDEST PUSH1 0x0 PUSH3 0x342 PUSH3 0x2A2 JUMP JUMPDEST SWAP1 POP PUSH3 0x350 DUP3 DUP3 PUSH3 0x300 JUMP JUMPDEST SWAP2 SWAP1 POP JUMP JUMPDEST PUSH1 0x0 PUSH8 0xFFFFFFFFFFFFFFFF DUP3 GT ISZERO PUSH3 0x373 JUMPI PUSH3 0x372 PUSH3 0x2D1 JUMP JUMPDEST JUMPDEST PUSH3 0x37E DUP3 PUSH3 0x2C0 JUMP JUMPDEST SWAP1 POP PUSH1 0x20 DUP2 ADD SWAP1 POP SWAP2 SWAP1 POP JUMP JUMPDEST PUSH1 0x0 JUMPDEST DUP4 DUP2 LT ISZERO PUSH3 0x3AB JUMPI DUP1 DUP3 ADD MLOAD DUP2 DUP5 ADD MSTORE PUSH1 0x20 DUP2 ADD SWAP1 POP PUSH3 0x38E JUMP JUMPDEST DUP4 DUP2 GT ISZERO PUSH3 0x3BB JUMPI PUSH1 0x0 DUP5 DUP5 ADD MSTORE JUMPDEST POP POP POP POP JUMP JUMPDEST PUSH1 0x0 PUSH3 0x3D8 PUSH3 0x3D2 DUP5 PUSH3 0x355 JUMP JUMPDEST PUSH3 0x336 JUMP JUMPDEST SWAP1 POP DUP3 DUP2 MSTORE PUSH1 0x20 DUP2 ADD DUP5 DUP5 DUP5 ADD GT ISZERO PUSH3 0x3F7 JUMPI PUSH3 0x3F6 PUSH3 0x2BB JUMP JUMPDEST JUMPDEST PUSH3 0x404 DUP5 DUP3 DUP6 PUSH3 0x38B JUMP JUMPDEST POP SWAP4 SWAP3 POP POP POP JUMP JUMPDEST PUSH1 0x0 DUP3 PUSH1 0x1F DUP4 ADD SLT PUSH3 0x424 JUMPI PUSH3 0x423 PUSH3 0x2B6 JUMP JUMPDEST JUMPDEST DUP2 MLOAD PUSH3 0x436 DUP5 DUP3 PUSH1 0x20 DUP7 ADD PUSH3 0x3C1 JUMP JUMPDEST SWAP2 POP POP SWAP3 SWAP2 POP POP JUMP JUMPDEST PUSH1 0x0 DUP2 SWAP1 POP SWAP2 SWAP1 POP JUMP JUMPDEST PUSH3 0x454 DUP2 PUSH3 0x43F JUMP JUMPDEST DUP2 EQ PUSH3 0x460 JUMPI PUSH1 0x0 DUP1 REVERT JUMPDEST POP JUMP JUMPDEST PUSH1 0x0 DUP2 MLOAD SWAP1 POP PUSH3 0x474 DUP2 PUSH3 0x449 JUMP JUMPDEST SWAP3 SWAP2 POP POP JUMP JUMPDEST PUSH1 0x0 DUP1 PUSH1 0x0 DUP1 PUSH1 0x80 DUP6 DUP8 SUB SLT ISZERO PUSH3 0x497 JUMPI PUSH3 0x496 PUSH3 0x2AC JUMP JUMPDEST JUMPDEST PUSH1 0x0 DUP6 ADD MLOAD PUSH8 0xFFFFFFFFFFFFFFFF DUP2 GT ISZERO PUSH3 0x4B8 JUMPI PUSH3 0x4B7 PUSH3 0x2B1 JUMP JUMPDEST JUMPDEST PUSH3 0x4C6 DUP8 DUP3 DUP9 ADD PUSH3 0x40C JUMP JUMPDEST SWAP5 POP POP PUSH1 0x20 PUSH3 0x4D9 DUP8 DUP3 DUP9 ADD PUSH3 0x463 JUMP JUMPDEST SWAP4 POP POP PUSH1 0x40 PUSH3 0x4EC DUP8 DUP3 DUP9 ADD PUSH3 0x463 JUMP JUMPDEST SWAP3 POP POP PUSH1 0x60 PUSH3 0x4FF DUP8 DUP3 DUP9 ADD PUSH3 0x463 JUMP JUMPDEST SWAP2 POP POP SWAP3 SWAP6 SWAP2 SWAP5 POP SWAP3 POP JUMP JUMPDEST PUSH32 0x4E487B7100000000000000000000000000000000000000000000000000000000 PUSH1 0x0 MSTORE PUSH1 0x22 PUSH1 0x4 MSTORE PUSH1 0x24 PUSH1 0x0 REVERT JUMPDEST PUSH1 0x0 PUSH1 0x2 DUP3 DIV SWAP1 POP PUSH1 0x1 DUP3 AND DUP1 PUSH3 0x553 JUMPI PUSH1 0x7F DUP3 AND SWAP2 POP JUMPDEST PUSH1 0x20 DUP3 LT DUP2 EQ ISZERO PUSH3 0x56A JUMPI PUSH3 0x569 PUSH3 0x50B JUMP JUMPDEST JUMPDEST POP SWAP2 SWAP1 POP JUMP JUMPDEST PUSH2 0x5DBB DUP1 PUSH3 0x580 PUSH1 0x0 CODECOPY PUSH1 0x0 RETURN INVALID PUSH1 0x80 PUSH1 0x40 MSTORE PUSH1 0x4 CALLDATASIZE LT PUSH2 0x21A JUMPI PUSH1 0x0 CALLDATALOAD PUSH1 0xE0 SHR DUP1 PUSH4 0x8DA5CB5B GT PUSH2 0x123 JUMPI DUP1 PUSH4 0xBF40FAC1 GT PUSH2 0xAB JUMPI DUP1 PUSH4 0xF0F19346 GT PUSH2 0x6F JUMPI DUP1 PUSH4 0xF0F19346 EQ PUSH2 0x882 JUMPI DUP1 PUSH4 0xF2C298BE EQ PUSH2 0x8AB JUMPI DUP1 PUSH4 0xF5064FD0 EQ PUSH2 0x8C7 JUMPI DUP1 PUSH4 0xFB825E5F EQ PUSH2 0x8F0 JUMPI DUP1 PUSH4 0xFE2C6198 EQ PUSH2 0x91B JUMPI PUSH2 0x21A JUMP JUMPDEST DUP1 PUSH4 0xBF40FAC1 EQ PUSH2 0x763 JUMPI DUP1 PUSH4 0xC87B56DD EQ PUSH2 0x7A0 JUMPI DUP1 PUSH4 0xD7E915D5 EQ PUSH2 0x7DD JUMPI DUP1 PUSH4 0xE327AD61 EQ PUSH2 0x808 JUMPI DUP1 PUSH4 0xE985E9C5 EQ PUSH2 0x845 JUMPI PUSH2 0x21A JUMP JUMPDEST DUP1 PUSH4 0x9791C097 GT PUSH2 0xF2 JUMPI DUP1 PUSH4 0x9791C097 EQ PUSH2 0x66E JUMPI DUP1 PUSH4 0xA22CB465 EQ PUSH2 0x6AB JUMPI DUP1 PUSH4 0xAA585D56 EQ PUSH2 0x6D4 JUMPI DUP1 PUSH4 0xB88D4FDE EQ PUSH2 0x6FD JUMPI DUP1 PUSH4 0xBEE51F3B EQ PUSH2 0x726 JUMPI PUSH2 0x21A JUMP JUMPDEST DUP1 PUSH4 0x8DA5CB5B EQ PUSH2 0x5B0 JUMPI DUP1 PUSH4 0x8F32D59B EQ PUSH2 0x5DB JUMPI DUP1 PUSH4 0x95D89B41 EQ PUSH2 0x606 JUMPI DUP1 PUSH4 0x9751E9F1 EQ PUSH2 0x631 JUMPI PUSH2 0x21A JUMP JUMPDEST DUP1 PUSH4 0x438B6300 GT PUSH2 0x1A6 JUMPI DUP1 PUSH4 0x6352211E GT PUSH2 0x175 JUMPI DUP1 PUSH4 0x6352211E EQ PUSH2 0x490 JUMPI DUP1 PUSH4 0x70A08231 EQ PUSH2 0x4CD JUMPI DUP1 PUSH4 0x8600C8B2 EQ PUSH2 0x50A JUMPI DUP1 PUSH4 0x86E80B71 EQ PUSH2 0x535 JUMPI DUP1 PUSH4 0x8A08677D EQ PUSH2 0x573 JUMPI PUSH2 0x21A JUMP JUMPDEST DUP1 PUSH4 0x438B6300 EQ PUSH2 0x3AA JUMPI DUP1 PUSH4 0x4622AB03 EQ PUSH2 0x3E7 JUMPI DUP1 PUSH4 0x4E82DC89 EQ PUSH2 0x424 JUMPI DUP1 PUSH4 0x541E771D EQ PUSH2 0x44F JUMPI PUSH2 0x21A JUMP JUMPDEST DUP1 PUSH4 0x15BF7227 GT PUSH2 0x1ED JUMPI DUP1 PUSH4 0x15BF7227 EQ PUSH2 0x2ED JUMPI DUP1 PUSH4 0x23B872DD EQ PUSH2 0x316 JUMPI DUP1 PUSH4 0x2D551432 EQ PUSH2 0x33F JUMPI DUP1 PUSH4 0x3CCFD60B EQ PUSH2 0x36A JUMPI DUP1 PUSH4 0x42842E0E EQ PUSH2 0x381 JUMPI PUSH2 0x21A JUMP JUMPDEST DUP1 PUSH4 0x1FFC9A7 EQ PUSH2 0x21F JUMPI DUP1 PUSH4 0x6FDDE03 EQ PUSH2 0x25C JUMPI DUP1 PUSH4 0x81812FC EQ PUSH2 0x287 JUMPI DUP1 PUSH4 0x95EA7B3 EQ PUSH2 0x2C4 JUMPI JUMPDEST PUSH1 0x0 DUP1 REVERT JUMPDEST CALLVALUE DUP1 ISZERO PUSH2 0x22B JUMPI PUSH1 0x0 DUP1 REVERT JUMPDEST POP PUSH2 0x246 PUSH1 0x4 DUP1 CALLDATASIZE SUB DUP2 ADD SWAP1 PUSH2 0x241 SWAP2 SWAP1 PUSH2 0x3EB7 JUMP JUMPDEST PUSH2 0x958 JUMP JUMPDEST PUSH1 0x40 MLOAD PUSH2 0x253 SWAP2 SWAP1 PUSH2 0x3EFF JUMP JUMPDEST PUSH1 0x40 MLOAD DUP1 SWAP2 SUB SWAP1 RETURN JUMPDEST CALLVALUE DUP1 ISZERO PUSH2 0x268 JUMPI PUSH1 0x0 DUP1 REVERT JUMPDEST POP PUSH2 0x271 PUSH2 0xA3A JUMP JUMPDEST PUSH1 0x40 MLOAD PUSH2 0x27E SWAP2 SWAP1 PUSH2 0x3FB3 JUMP JUMPDEST PUSH1 0x40 MLOAD DUP1 SWAP2 SUB SWAP1 RETURN JUMPDEST CALLVALUE DUP1 ISZERO PUSH2 0x293 JUMPI PUSH1 0x0 DUP1 REVERT JUMPDEST POP PUSH2 0x2AE PUSH1 0x4 DUP1 CALLDATASIZE SUB DUP2 ADD SWAP1 PUSH2 0x2A9 SWAP2 SWAP1 PUSH2 0x400B JUMP JUMPDEST PUSH2 0xACC JUMP JUMPDEST PUSH1 0x40 MLOAD PUSH2 0x2BB SWAP2 SWAP1 PUSH2 0x4079 JUMP JUMPDEST PUSH1 0x40 MLOAD DUP1 SWAP2 SUB SWAP1 RETURN JUMPDEST CALLVALUE DUP1 ISZERO PUSH2 0x2D0 JUMPI PUSH1 0x0 DUP1 REVERT JUMPDEST POP PUSH2 0x2EB PUSH1 0x4 DUP1 CALLDATASIZE SUB DUP2 ADD SWAP1 PUSH2 0x2E6 SWAP2 SWAP1 PUSH2 0x40C0 JUMP JUMPDEST PUSH2 0xB51 JUMP JUMPDEST STOP JUMPDEST CALLVALUE DUP1 ISZERO PUSH2 0x2F9 JUMPI PUSH1 0x0 DUP1 REVERT JUMPDEST POP PUSH2 0x314 PUSH1 0x4 DUP1 CALLDATASIZE SUB DUP2 ADD SWAP1 PUSH2 0x30F SWAP2 SWAP1 PUSH2 0x4165 JUMP JUMPDEST PUSH2 0xC69 JUMP JUMPDEST STOP JUMPDEST CALLVALUE DUP1 ISZERO PUSH2 0x322 JUMPI PUSH1 0x0 DUP1 REVERT JUMPDEST POP PUSH2 0x33D PUSH1 0x4 DUP1 CALLDATASIZE SUB DUP2 ADD SWAP1 PUSH2 0x338 SWAP2 SWAP1 PUSH2 0x41C5 JUMP JUMPDEST PUSH2 0xD91 JUMP JUMPDEST STOP JUMPDEST CALLVALUE DUP1 ISZERO PUSH2 0x34B JUMPI PUSH1 0x0 DUP1 REVERT JUMPDEST POP PUSH2 0x354 PUSH2 0xDF1 JUMP JUMPDEST PUSH1 0x40 MLOAD PUSH2 0x361 SWAP2 SWAP1 PUSH2 0x3FB3 JUMP JUMPDEST PUSH1 0x40 MLOAD DUP1 SWAP2 SUB SWAP1 RETURN JUMPDEST CALLVALUE DUP1 ISZERO PUSH2 0x376 JUMPI PUSH1 0x0 DUP1 REVERT JUMPDEST POP PUSH2 0x37F PUSH2 0xE7F JUMP JUMPDEST STOP JUMPDEST CALLVALUE DUP1 ISZERO PUSH2 0x38D JUMPI PUSH1 0x0 DUP1 REVERT JUMPDEST POP PUSH2 0x3A8 PUSH1 0x4 DUP1 CALLDATASIZE SUB DUP2 ADD SWAP1 PUSH2 0x3A3 SWAP2 SWAP1 PUSH2 0x41C5 JUMP JUMPDEST PUSH2 0xF45 JUMP JUMPDEST STOP JUMPDEST CALLVALUE DUP1 ISZERO PUSH2 0x3B6 JUMPI PUSH1 0x0 DUP1 REVERT JUMPDEST POP PUSH2 0x3D1 PUSH1 0x4 DUP1 CALLDATASIZE SUB DUP2 ADD SWAP1 PUSH2 0x3CC SWAP2 SWAP1 PUSH2 0x4218 JUMP JUMPDEST PUSH2 0xF65 JUMP JUMPDEST PUSH1 0x40 MLOAD PUSH2 0x3DE SWAP2 SWAP1 PUSH2 0x4303 JUMP JUMPDEST PUSH1 0x40 MLOAD DUP1 SWAP2 SUB SWAP1 RETURN JUMPDEST CALLVALUE DUP1 ISZERO PUSH2 0x3F3 JUMPI PUSH1 0x0 DUP1 REVERT JUMPDEST POP PUSH2 0x40E PUSH1 0x4 DUP1 CALLDATASIZE SUB DUP2 ADD SWAP1 PUSH2 0x409 SWAP2 SWAP1 PUSH2 0x400B JUMP JUMPDEST PUSH2 0x1077 JUMP JUMPDEST PUSH1 0x40 MLOAD PUSH2 0x41B SWAP2 SWAP1 PUSH2 0x3FB3 JUMP JUMPDEST PUSH1 0x40 MLOAD DUP1 SWAP2 SUB SWAP1 RETURN JUMPDEST CALLVALUE DUP1 ISZERO PUSH2 0x430 JUMPI PUSH1 0x0 DUP1 REVERT JUMPDEST POP PUSH2 0x439 PUSH2 0x1117 JUMP JUMPDEST PUSH1 0x40 MLOAD PUSH2 0x446 SWAP2 SWAP1 PUSH2 0x4334 JUMP JUMPDEST PUSH1 0x40 MLOAD DUP1 SWAP2 SUB SWAP1 RETURN JUMPDEST CALLVALUE DUP1 ISZERO PUSH2 0x45B JUMPI PUSH1 0x0 DUP1 REVERT JUMPDEST POP PUSH2 0x476 PUSH1 0x4 DUP1 CALLDATASIZE SUB DUP2 ADD SWAP1 PUSH2 0x471 SWAP2 SWAP1 PUSH2 0x447F JUMP JUMPDEST PUSH2 0x111D JUMP JUMPDEST PUSH1 0x40 MLOAD PUSH2 0x487 SWAP6 SWAP5 SWAP4 SWAP3 SWAP2 SWAP1 PUSH2 0x44C8 JUMP JUMPDEST PUSH1 0x40 MLOAD DUP1 SWAP2 SUB SWAP1 RETURN JUMPDEST CALLVALUE DUP1 ISZERO PUSH2 0x49C JUMPI PUSH1 0x0 DUP1 REVERT JUMPDEST POP PUSH2 0x4B7 PUSH1 0x4 DUP1 CALLDATASIZE SUB DUP2 ADD SWAP1 PUSH2 0x4B2 SWAP2 SWAP1 PUSH2 0x400B JUMP JUMPDEST PUSH2 0x1411 JUMP JUMPDEST PUSH1 0x40 MLOAD PUSH2 0x4C4 SWAP2 SWAP1 PUSH2 0x4079 JUMP JUMPDEST PUSH1 0x40 MLOAD DUP1 SWAP2 SUB SWAP1 RETURN JUMPDEST CALLVALUE DUP1 ISZERO PUSH2 0x4D9 JUMPI PUSH1 0x0 DUP1 REVERT JUMPDEST POP PUSH2 0x4F4 PUSH1 0x4 DUP1 CALLDATASIZE SUB DUP2 ADD SWAP1 PUSH2 0x4EF SWAP2 SWAP1 PUSH2 0x4218 JUMP JUMPDEST PUSH2 0x14C3 JUMP JUMPDEST PUSH1 0x40 MLOAD PUSH2 0x501 SWAP2 SWAP1 PUSH2 0x4334 JUMP JUMPDEST PUSH1 0x40 MLOAD DUP1 SWAP2 SUB SWAP1 RETURN JUMPDEST CALLVALUE DUP1 ISZERO PUSH2 0x516 JUMPI PUSH1 0x0 DUP1 REVERT JUMPDEST POP PUSH2 0x51F PUSH2 0x157B JUMP JUMPDEST PUSH1 0x40 MLOAD PUSH2 0x52C SWAP2 SWAP1 PUSH2 0x4334 JUMP JUMPDEST PUSH1 0x40 MLOAD DUP1 SWAP2 SUB SWAP1 RETURN JUMPDEST CALLVALUE DUP1 ISZERO PUSH2 0x541 JUMPI PUSH1 0x0 DUP1 REVERT JUMPDEST POP PUSH2 0x55C PUSH1 0x4 DUP1 CALLDATASIZE SUB DUP2 ADD SWAP1 PUSH2 0x557 SWAP2 SWAP1 PUSH2 0x453E JUMP JUMPDEST PUSH2 0x1581 JUMP JUMPDEST PUSH1 0x40 MLOAD PUSH2 0x56A SWAP3 SWAP2 SWAP1 PUSH2 0x4697 JUMP JUMPDEST PUSH1 0x40 MLOAD DUP1 SWAP2 SUB SWAP1 RETURN JUMPDEST CALLVALUE DUP1 ISZERO PUSH2 0x57F JUMPI PUSH1 0x0 DUP1 REVERT JUMPDEST POP PUSH2 0x59A PUSH1 0x4 DUP1 CALLDATASIZE SUB DUP2 ADD SWAP1 PUSH2 0x595 SWAP2 SWAP1 PUSH2 0x447F JUMP JUMPDEST PUSH2 0x19EB JUMP JUMPDEST PUSH1 0x40 MLOAD PUSH2 0x5A7 SWAP2 SWAP1 PUSH2 0x4334 JUMP JUMPDEST PUSH1 0x40 MLOAD DUP1 SWAP2 SUB SWAP1 RETURN JUMPDEST CALLVALUE DUP1 ISZERO PUSH2 0x5BC JUMPI PUSH1 0x0 DUP1 REVERT JUMPDEST POP PUSH2 0x5C5 PUSH2 0x1A19 JUMP JUMPDEST PUSH1 0x40 MLOAD PUSH2 0x5D2 SWAP2 SWAP1 PUSH2 0x46E8 JUMP JUMPDEST PUSH1 0x40 MLOAD DUP1 SWAP2 SUB SWAP1 RETURN JUMPDEST CALLVALUE DUP1 ISZERO PUSH2 0x5E7 JUMPI PUSH1 0x0 DUP1 REVERT JUMPDEST POP PUSH2 0x5F0 PUSH2 0x1A3F JUMP JUMPDEST PUSH1 0x40 MLOAD PUSH2 0x5FD SWAP2 SWAP1 PUSH2 0x3EFF JUMP JUMPDEST PUSH1 0x40 MLOAD DUP1 SWAP2 SUB SWAP1 RETURN JUMPDEST CALLVALUE DUP1 ISZERO PUSH2 0x612 JUMPI PUSH1 0x0 DUP1 REVERT JUMPDEST POP PUSH2 0x61B PUSH2 0x1A97 JUMP JUMPDEST PUSH1 0x40 MLOAD PUSH2 0x628 SWAP2 SWAP1 PUSH2 0x3FB3 JUMP JUMPDEST PUSH1 0x40 MLOAD DUP1 SWAP2 SUB SWAP1 RETURN JUMPDEST CALLVALUE DUP1 ISZERO PUSH2 0x63D JUMPI PUSH1 0x0 DUP1 REVERT JUMPDEST POP PUSH2 0x658 PUSH1 0x4 DUP1 CALLDATASIZE SUB DUP2 ADD SWAP1 PUSH2 0x653 SWAP2 SWAP1 PUSH2 0x4728 JUMP JUMPDEST PUSH2 0x1B29 JUMP JUMPDEST PUSH1 0x40 MLOAD PUSH2 0x665 SWAP2 SWAP1 PUSH2 0x3FB3 JUMP JUMPDEST PUSH1 0x40 MLOAD DUP1 SWAP2 SUB SWAP1 RETURN JUMPDEST CALLVALUE DUP1 ISZERO PUSH2 0x67A JUMPI PUSH1 0x0 DUP1 REVERT JUMPDEST POP PUSH2 0x695 PUSH1 0x4 DUP1 CALLDATASIZE SUB DUP2 ADD SWAP1 PUSH2 0x690 SWAP2 SWAP1 PUSH2 0x453E JUMP JUMPDEST PUSH2 0x1FCC JUMP JUMPDEST PUSH1 0x40 MLOAD PUSH2 0x6A2 SWAP2 SWAP1 PUSH2 0x3EFF JUMP JUMPDEST PUSH1 0x40 MLOAD DUP1 SWAP2 SUB SWAP1 RETURN JUMPDEST CALLVALUE DUP1 ISZERO PUSH2 0x6B7 JUMPI PUSH1 0x0 DUP1 REVERT JUMPDEST POP PUSH2 0x6D2 PUSH1 0x4 DUP1 CALLDATASIZE SUB DUP2 ADD SWAP1 PUSH2 0x6CD SWAP2 SWAP1 PUSH2 0x47B4 JUMP JUMPDEST PUSH2 0x2080 JUMP JUMPDEST STOP JUMPDEST CALLVALUE DUP1 ISZERO PUSH2 0x6E0 JUMPI PUSH1 0x0 DUP1 REVERT JUMPDEST POP PUSH2 0x6FB PUSH1 0x4 DUP1 CALLDATASIZE SUB DUP2 ADD SWAP1 PUSH2 0x6F6 SWAP2 SWAP1 PUSH2 0x47F4 JUMP JUMPDEST PUSH2 0x2096 JUMP JUMPDEST STOP JUMPDEST CALLVALUE DUP1 ISZERO PUSH2 0x709 JUMPI PUSH1 0x0 DUP1 REVERT JUMPDEST POP PUSH2 0x724 PUSH1 0x4 DUP1 CALLDATASIZE SUB DUP2 ADD SWAP1 PUSH2 0x71F SWAP2 SWAP1 PUSH2 0x48E8 JUMP JUMPDEST PUSH2 0x20C1 JUMP JUMPDEST STOP JUMPDEST CALLVALUE DUP1 ISZERO PUSH2 0x732 JUMPI PUSH1 0x0 DUP1 REVERT JUMPDEST POP PUSH2 0x74D PUSH1 0x4 DUP1 CALLDATASIZE SUB DUP2 ADD SWAP1 PUSH2 0x748 SWAP2 SWAP1 PUSH2 0x453E JUMP JUMPDEST PUSH2 0x2123 JUMP JUMPDEST PUSH1 0x40 MLOAD PUSH2 0x75A SWAP2 SWAP1 PUSH2 0x4334 JUMP JUMPDEST PUSH1 0x40 MLOAD DUP1 SWAP2 SUB SWAP1 RETURN JUMPDEST CALLVALUE DUP1 ISZERO PUSH2 0x76F JUMPI PUSH1 0x0 DUP1 REVERT JUMPDEST POP PUSH2 0x78A PUSH1 0x4 DUP1 CALLDATASIZE SUB DUP2 ADD SWAP1 PUSH2 0x785 SWAP2 SWAP1 PUSH2 0x453E JUMP JUMPDEST PUSH2 0x217B JUMP JUMPDEST PUSH1 0x40 MLOAD PUSH2 0x797 SWAP2 SWAP1 PUSH2 0x4079 JUMP JUMPDEST PUSH1 0x40 MLOAD DUP1 SWAP2 SUB SWAP1 RETURN JUMPDEST CALLVALUE DUP1 ISZERO PUSH2 0x7AC JUMPI PUSH1 0x0 DUP1 REVERT JUMPDEST POP PUSH2 0x7C7 PUSH1 0x4 DUP1 CALLDATASIZE SUB DUP2 ADD SWAP1 PUSH2 0x7C2 SWAP2 SWAP1 PUSH2 0x400B JUMP JUMPDEST PUSH2 0x2197 JUMP JUMPDEST PUSH1 0x40 MLOAD PUSH2 0x7D4 SWAP2 SWAP1 PUSH2 0x3FB3 JUMP JUMPDEST PUSH1 0x40 MLOAD DUP1 SWAP2 SUB SWAP1 RETURN JUMPDEST CALLVALUE DUP1 ISZERO PUSH2 0x7E9 JUMPI PUSH1 0x0 DUP1 REVERT JUMPDEST POP PUSH2 0x7F2 PUSH2 0x250F JUMP JUMPDEST PUSH1 0x40 MLOAD PUSH2 0x7FF SWAP2 SWAP1 PUSH2 0x4334 JUMP JUMPDEST PUSH1 0x40 MLOAD DUP1 SWAP2 SUB SWAP1 RETURN JUMPDEST CALLVALUE DUP1 ISZERO PUSH2 0x814 JUMPI PUSH1 0x0 DUP1 REVERT JUMPDEST POP PUSH2 0x82F PUSH1 0x4 DUP1 CALLDATASIZE SUB DUP2 ADD SWAP1 PUSH2 0x82A SWAP2 SWAP1 PUSH2 0x447F JUMP JUMPDEST PUSH2 0x2515 JUMP JUMPDEST PUSH1 0x40 MLOAD PUSH2 0x83C SWAP2 SWAP1 PUSH2 0x3EFF JUMP JUMPDEST PUSH1 0x40 MLOAD DUP1 SWAP2 SUB SWAP1 RETURN JUMPDEST CALLVALUE DUP1 ISZERO PUSH2 0x851 JUMPI PUSH1 0x0 DUP1 REVERT JUMPDEST POP PUSH2 0x86C PUSH1 0x4 DUP1 CALLDATASIZE SUB DUP2 ADD SWAP1 PUSH2 0x867 SWAP2 SWAP1 PUSH2 0x496B JUMP JUMPDEST PUSH2 0x252A JUMP JUMPDEST PUSH1 0x40 MLOAD PUSH2 0x879 SWAP2 SWAP1 PUSH2 0x3EFF JUMP JUMPDEST PUSH1 0x40 MLOAD DUP1 SWAP2 SUB SWAP1 RETURN JUMPDEST CALLVALUE DUP1 ISZERO PUSH2 0x88E JUMPI PUSH1 0x0 DUP1 REVERT JUMPDEST POP PUSH2 0x8A9 PUSH1 0x4 DUP1 CALLDATASIZE SUB DUP2 ADD SWAP1 PUSH2 0x8A4 SWAP2 SWAP1 PUSH2 0x49AB JUMP JUMPDEST PUSH2 0x25BE JUMP JUMPDEST STOP JUMPDEST PUSH2 0x8C5 PUSH1 0x4 DUP1 CALLDATASIZE SUB DUP2 ADD SWAP1 PUSH2 0x8C0 SWAP2 SWAP1 PUSH2 0x453E JUMP JUMPDEST PUSH2 0x273D JUMP JUMPDEST STOP JUMPDEST CALLVALUE DUP1 ISZERO PUSH2 0x8D3 JUMPI PUSH1 0x0 DUP1 REVERT JUMPDEST POP PUSH2 0x8EE PUSH1 0x4 DUP1 CALLDATASIZE SUB DUP2 ADD SWAP1 PUSH2 0x8E9 SWAP2 SWAP1 PUSH2 0x4AF8 JUMP JUMPDEST PUSH2 0x296D JUMP JUMPDEST STOP JUMPDEST CALLVALUE DUP1 ISZERO PUSH2 0x8FC JUMPI PUSH1 0x0 DUP1 REVERT JUMPDEST POP PUSH2 0x905 PUSH2 0x2BDA JUMP JUMPDEST PUSH1 0x40 MLOAD PUSH2 0x912 SWAP2 SWAP1 PUSH2 0x4B8D JUMP JUMPDEST PUSH1 0x40 MLOAD DUP1 SWAP2 SUB SWAP1 RETURN JUMPDEST CALLVALUE DUP1 ISZERO PUSH2 0x927 JUMPI PUSH1 0x0 DUP1 REVERT JUMPDEST POP PUSH2 0x942 PUSH1 0x4 DUP1 CALLDATASIZE SUB DUP2 ADD SWAP1 PUSH2 0x93D SWAP2 SWAP1 PUSH2 0x453E JUMP JUMPDEST PUSH2 0x2D3C JUMP JUMPDEST PUSH1 0x40 MLOAD PUSH2 0x94F SWAP2 SWAP1 PUSH2 0x4334 JUMP JUMPDEST PUSH1 0x40 MLOAD DUP1 SWAP2 SUB SWAP1 RETURN JUMPDEST PUSH1 0x0 PUSH32 0x80AC58CD00000000000000000000000000000000000000000000000000000000 PUSH28 0xFFFFFFFFFFFFFFFFFFFFFFFFFFFFFFFFFFFFFFFFFFFFFFFFFFFFFFFF NOT AND DUP3 PUSH28 0xFFFFFFFFFFFFFFFFFFFFFFFFFFFFFFFFFFFFFFFFFFFFFFFFFFFFFFFF NOT AND EQ DUP1 PUSH2 0xA23 JUMPI POP PUSH32 0x5B5E139F00000000000000000000000000000000000000000000000000000000 PUSH28 0xFFFFFFFFFFFFFFFFFFFFFFFFFFFFFFFFFFFFFFFFFFFFFFFFFFFFFFFF NOT AND DUP3 PUSH28 0xFFFFFFFFFFFFFFFFFFFFFFFFFFFFFFFFFFFFFFFFFFFFFFFFFFFFFFFF NOT AND EQ JUMPDEST DUP1 PUSH2 0xA33 JUMPI POP PUSH2 0xA32 DUP3 PUSH2 0x2DE5 JUMP JUMPDEST JUMPDEST SWAP1 POP SWAP2 SWAP1 POP JUMP JUMPDEST PUSH1 0x60 PUSH1 0x0 DUP1 SLOAD PUSH2 0xA49 SWAP1 PUSH2 0x4BDE JUMP JUMPDEST DUP1 PUSH1 0x1F ADD PUSH1 0x20 DUP1 SWAP2 DIV MUL PUSH1 0x20 ADD PUSH1 0x40 MLOAD SWAP1 DUP2 ADD PUSH1 0x40 MSTORE DUP1 SWAP3 SWAP2 SWAP1 DUP2 DUP2 MSTORE PUSH1 0x20 ADD DUP3 DUP1 SLOAD PUSH2 0xA75 SWAP1 PUSH2 0x4BDE JUMP JUMPDEST DUP1 ISZERO PUSH2 0xAC2 JUMPI DUP1 PUSH1 0x1F LT PUSH2 0xA97 JUMPI PUSH2 0x100 DUP1 DUP4 SLOAD DIV MUL DUP4 MSTORE SWAP2 PUSH1 0x20 ADD SWAP2 PUSH2 0xAC2 JUMP JUMPDEST DUP3 ADD SWAP2 SWAP1 PUSH1 0x0 MSTORE PUSH1 0x20 PUSH1 0x0 KECCAK256 SWAP1 JUMPDEST DUP2 SLOAD DUP2 MSTORE SWAP1 PUSH1 0x1 ADD SWAP1 PUSH1 0x20 ADD DUP1 DUP4 GT PUSH2 0xAA5 JUMPI DUP3 SWAP1 SUB PUSH1 0x1F AND DUP3 ADD SWAP2 JUMPDEST POP POP POP POP POP SWAP1 POP SWAP1 JUMP JUMPDEST PUSH1 0x0 PUSH2 0xAD7 DUP3 PUSH2 0x2E4F JUMP JUMPDEST PUSH2 0xB16 JUMPI PUSH1 0x40 MLOAD PUSH32 0x8C379A000000000000000000000000000000000000000000000000000000000 DUP2 MSTORE PUSH1 0x4 ADD PUSH2 0xB0D SWAP1 PUSH2 0x4C82 JUMP JUMPDEST PUSH1 0x40 MLOAD DUP1 SWAP2 SUB SWAP1 REVERT JUMPDEST PUSH1 0x4 PUSH1 0x0 DUP4 DUP2 MSTORE PUSH1 0x20 ADD SWAP1 DUP2 MSTORE PUSH1 0x20 ADD PUSH1 0x0 KECCAK256 PUSH1 0x0 SWAP1 SLOAD SWAP1 PUSH2 0x100 EXP SWAP1 DIV PUSH20 0xFFFFFFFFFFFFFFFFFFFFFFFFFFFFFFFFFFFFFFFF AND SWAP1 POP SWAP2 SWAP1 POP JUMP JUMPDEST PUSH1 0x0 PUSH2 0xB5C DUP3 PUSH2 0x1411 JUMP JUMPDEST SWAP1 POP DUP1 PUSH20 0xFFFFFFFFFFFFFFFFFFFFFFFFFFFFFFFFFFFFFFFF AND DUP4 PUSH20 0xFFFFFFFFFFFFFFFFFFFFFFFFFFFFFFFFFFFFFFFF AND EQ ISZERO PUSH2 0xBCD JUMPI PUSH1 0x40 MLOAD PUSH32 0x8C379A000000000000000000000000000000000000000000000000000000000 DUP2 MSTORE PUSH1 0x4 ADD PUSH2 0xBC4 SWAP1 PUSH2 0x4D14 JUMP JUMPDEST PUSH1 0x40 MLOAD DUP1 SWAP2 SUB SWAP1 REVERT JUMPDEST DUP1 PUSH20 0xFFFFFFFFFFFFFFFFFFFFFFFFFFFFFFFFFFFFFFFF AND PUSH2 0xBEC PUSH2 0x2EBB JUMP JUMPDEST PUSH20 0xFFFFFFFFFFFFFFFFFFFFFFFFFFFFFFFFFFFFFFFF AND EQ DUP1 PUSH2 0xC1B JUMPI POP PUSH2 0xC1A DUP2 PUSH2 0xC15 PUSH2 0x2EBB JUMP JUMPDEST PUSH2 0x252A JUMP JUMPDEST JUMPDEST PUSH2 0xC5A JUMPI PUSH1 0x40 MLOAD PUSH32 0x8C379A000000000000000000000000000000000000000000000000000000000 DUP2 MSTORE PUSH1 0x4 ADD PUSH2 0xC51 SWAP1 PUSH2 0x4DA6 JUMP JUMPDEST PUSH1 0x40 MLOAD DUP1 SWAP2 SUB SWAP1 REVERT JUMPDEST PUSH2 0xC64 DUP4 DUP4 PUSH2 0x2EC3 JUMP JUMPDEST POP POP POP JUMP JUMPDEST PUSH2 0xC71 PUSH2 0x1A3F JUMP JUMPDEST PUSH2 0xC7A JUMPI PUSH1 0x0 DUP1 REVERT JUMPDEST PUSH1 0x0 PUSH1 0x8 DUP5 DUP5 PUSH1 0x40 MLOAD PUSH2 0xC8E SWAP3 SWAP2 SWAP1 PUSH2 0x4DF6 JUMP JUMPDEST SWAP1 DUP2 MSTORE PUSH1 0x20 ADD PUSH1 0x40 MLOAD DUP1 SWAP2 SUB SWAP1 KECCAK256 SLOAD EQ PUSH2 0xCD4 JUMPI PUSH1 0x40 MLOAD PUSH32 0x3A81D6FC00000000000000000000000000000000000000000000000000000000 DUP2 MSTORE PUSH1 0x4 ADD PUSH1 0x40 MLOAD DUP1 SWAP2 SUB SWAP1 REVERT JUMPDEST PUSH2 0xCDE DUP4 DUP4 PUSH2 0x1FCC JUMP JUMPDEST PUSH2 0xD21 JUMPI DUP3 DUP3 PUSH1 0x40 MLOAD PUSH32 0x7F19F48D00000000000000000000000000000000000000000000000000000000 DUP2 MSTORE PUSH1 0x4 ADD PUSH2 0xD18 SWAP3 SWAP2 SWAP1 PUSH2 0x4E3C JUMP JUMPDEST PUSH1 0x40 MLOAD DUP1 SWAP2 SUB SWAP1 REVERT JUMPDEST PUSH1 0x0 PUSH2 0xD2D PUSH1 0xB PUSH2 0x2F7C JUMP JUMPDEST SWAP1 POP PUSH2 0xD39 DUP3 DUP3 PUSH2 0x2F8A JUMP JUMPDEST DUP4 DUP4 PUSH1 0x7 PUSH1 0x0 DUP5 DUP2 MSTORE PUSH1 0x20 ADD SWAP1 DUP2 MSTORE PUSH1 0x20 ADD PUSH1 0x0 KECCAK256 SWAP2 SWAP1 PUSH2 0xD5B SWAP3 SWAP2 SWAP1 PUSH2 0x3D22 JUMP JUMPDEST POP DUP1 PUSH1 0x8 DUP6 DUP6 PUSH1 0x40 MLOAD PUSH2 0xD6F SWAP3 SWAP2 SWAP1 PUSH2 0x4DF6 JUMP JUMPDEST SWAP1 DUP2 MSTORE PUSH1 0x20 ADD PUSH1 0x40 MLOAD DUP1 SWAP2 SUB SWAP1 KECCAK256 DUP2 SWAP1 SSTORE POP PUSH2 0xD8B PUSH1 0xB PUSH2 0x2DCF JUMP JUMPDEST POP POP POP POP JUMP JUMPDEST PUSH2 0xDA2 PUSH2 0xD9C PUSH2 0x2EBB JUMP JUMPDEST DUP3 PUSH2 0x2FA8 JUMP JUMPDEST PUSH2 0xDE1 JUMPI PUSH1 0x40 MLOAD PUSH32 0x8C379A000000000000000000000000000000000000000000000000000000000 DUP2 MSTORE PUSH1 0x4 ADD PUSH2 0xDD8 SWAP1 PUSH2 0x4ED2 JUMP JUMPDEST PUSH1 0x40 MLOAD DUP1 SWAP2 SUB SWAP1 REVERT JUMPDEST PUSH2 0xDEC DUP4 DUP4 DUP4 PUSH2 0x3086 JUMP JUMPDEST POP POP POP JUMP JUMPDEST PUSH1 0x9 DUP1 SLOAD PUSH2 0xDFE SWAP1 PUSH2 0x4BDE JUMP JUMPDEST DUP1 PUSH1 0x1F ADD PUSH1 0x20 DUP1 SWAP2 DIV MUL PUSH1 0x20 ADD PUSH1 0x40 MLOAD SWAP1 DUP2 ADD PUSH1 0x40 MSTORE DUP1 SWAP3 SWAP2 SWAP1 DUP2 DUP2 MSTORE PUSH1 0x20 ADD DUP3 DUP1 SLOAD PUSH2 0xE2A SWAP1 PUSH2 0x4BDE JUMP JUMPDEST DUP1 ISZERO PUSH2 0xE77 JUMPI DUP1 PUSH1 0x1F LT PUSH2 0xE4C JUMPI PUSH2 0x100 DUP1 DUP4 SLOAD DIV MUL DUP4 MSTORE SWAP2 PUSH1 0x20 ADD SWAP2 PUSH2 0xE77 JUMP JUMPDEST DUP3 ADD SWAP2 SWAP1 PUSH1 0x0 MSTORE PUSH1 0x20 PUSH1 0x0 KECCAK256 SWAP1 JUMPDEST DUP2 SLOAD DUP2 MSTORE SWAP1 PUSH1 0x1 ADD SWAP1 PUSH1 0x20 ADD DUP1 DUP4 GT PUSH2 0xE5A JUMPI DUP3 SWAP1 SUB PUSH1 0x1F AND DUP3 ADD SWAP2 JUMPDEST POP POP POP POP POP DUP2 JUMP JUMPDEST PUSH2 0xE87 PUSH2 0x1A3F JUMP JUMPDEST PUSH2 0xE90 JUMPI PUSH1 0x0 DUP1 REVERT JUMPDEST PUSH1 0x0 SELFBALANCE SWAP1 POP PUSH1 0x0 CALLER PUSH20 0xFFFFFFFFFFFFFFFFFFFFFFFFFFFFFFFFFFFFFFFF AND DUP3 PUSH1 0x40 MLOAD PUSH2 0xEBB SWAP1 PUSH2 0x4F23 JUMP JUMPDEST PUSH1 0x0 PUSH1 0x40 MLOAD DUP1 DUP4 SUB DUP2 DUP6 DUP8 GAS CALL SWAP3 POP POP POP RETURNDATASIZE DUP1 PUSH1 0x0 DUP2 EQ PUSH2 0xEF8 JUMPI PUSH1 0x40 MLOAD SWAP2 POP PUSH1 0x1F NOT PUSH1 0x3F RETURNDATASIZE ADD AND DUP3 ADD PUSH1 0x40 MSTORE RETURNDATASIZE DUP3 MSTORE RETURNDATASIZE PUSH1 0x0 PUSH1 0x20 DUP5 ADD RETURNDATACOPY PUSH2 0xEFD JUMP JUMPDEST PUSH1 0x60 SWAP2 POP JUMPDEST POP POP SWAP1 POP DUP1 PUSH2 0xF41 JUMPI PUSH1 0x40 MLOAD PUSH32 0x8C379A000000000000000000000000000000000000000000000000000000000 DUP2 MSTORE PUSH1 0x4 ADD PUSH2 0xF38 SWAP1 PUSH2 0x4F84 JUMP JUMPDEST PUSH1 0x40 MLOAD DUP1 SWAP2 SUB SWAP1 REVERT JUMPDEST POP POP JUMP JUMPDEST PUSH2 0xF60 DUP4 DUP4 DUP4 PUSH1 0x40 MLOAD DUP1 PUSH1 0x20 ADD PUSH1 0x40 MSTORE DUP1 PUSH1 0x0 DUP2 MSTORE POP PUSH2 0x20C1 JUMP JUMPDEST POP POP POP JUMP JUMPDEST PUSH1 0x60 PUSH1 0x0 PUSH2 0xF72 DUP4 PUSH2 0x14C3 JUMP JUMPDEST SWAP1 POP PUSH1 0x0 DUP2 PUSH8 0xFFFFFFFFFFFFFFFF DUP2 GT ISZERO PUSH2 0xF90 JUMPI PUSH2 0xF8F PUSH2 0x4354 JUMP JUMPDEST JUMPDEST PUSH1 0x40 MLOAD SWAP1 DUP1 DUP3 MSTORE DUP1 PUSH1 0x20 MUL PUSH1 0x20 ADD DUP3 ADD PUSH1 0x40 MSTORE DUP1 ISZERO PUSH2 0xFBE JUMPI DUP2 PUSH1 0x20 ADD PUSH1 0x20 DUP3 MUL DUP1 CALLDATASIZE DUP4 CALLDATACOPY DUP1 DUP3 ADD SWAP2 POP POP SWAP1 POP JUMPDEST POP SWAP1 POP PUSH1 0x0 PUSH1 0x1 SWAP1 POP PUSH1 0x0 JUMPDEST DUP4 DUP2 LT DUP1 ISZERO PUSH2 0xFE2 JUMPI POP PUSH2 0xFDE PUSH1 0xB PUSH2 0x2F7C JUMP JUMPDEST DUP3 GT ISZERO JUMPDEST ISZERO PUSH2 0x106B JUMPI PUSH1 0x0 PUSH2 0xFF2 DUP4 PUSH2 0x1411 JUMP JUMPDEST SWAP1 POP DUP7 PUSH20 0xFFFFFFFFFFFFFFFFFFFFFFFFFFFFFFFFFFFFFFFF AND DUP2 PUSH20 0xFFFFFFFFFFFFFFFFFFFFFFFFFFFFFFFFFFFFFFFF AND EQ ISZERO PUSH2 0x1057 JUMPI DUP3 DUP5 DUP4 DUP2 MLOAD DUP2 LT PUSH2 0x103C JUMPI PUSH2 0x103B PUSH2 0x4FA4 JUMP JUMPDEST JUMPDEST PUSH1 0x20 MUL PUSH1 0x20 ADD ADD DUP2 DUP2 MSTORE POP POP DUP2 DUP1 PUSH2 0x1053 SWAP1 PUSH2 0x5002 JUMP JUMPDEST SWAP3 POP POP JUMPDEST DUP3 DUP1 PUSH2 0x1062 SWAP1 PUSH2 0x5002 JUMP JUMPDEST SWAP4 POP POP POP PUSH2 0xFCA JUMP JUMPDEST DUP3 SWAP5 POP POP POP POP POP SWAP2 SWAP1 POP JUMP JUMPDEST PUSH1 0x7 PUSH1 0x20 MSTORE DUP1 PUSH1 0x0 MSTORE PUSH1 0x40 PUSH1 0x0 KECCAK256 PUSH1 0x0 SWAP2 POP SWAP1 POP DUP1 SLOAD PUSH2 0x1096 SWAP1 PUSH2 0x4BDE JUMP JUMPDEST DUP1 PUSH1 0x1F ADD PUSH1 0x20 DUP1 SWAP2 DIV MUL PUSH1 0x20 ADD PUSH1 0x40 MLOAD SWAP1 DUP2 ADD PUSH1 0x40 MSTORE DUP1 SWAP3 SWAP2 SWAP1 DUP2 DUP2 MSTORE PUSH1 0x20 ADD DUP3 DUP1 SLOAD PUSH2 0x10C2 SWAP1 PUSH2 0x4BDE JUMP JUMPDEST DUP1 ISZERO PUSH2 0x110F JUMPI DUP1 PUSH1 0x1F LT PUSH2 0x10E4 JUMPI PUSH2 0x100 DUP1 DUP4 SLOAD DIV MUL DUP4 MSTORE SWAP2 PUSH1 0x20 ADD SWAP2 PUSH2 0x110F JUMP JUMPDEST DUP3 ADD SWAP2 SWAP1 PUSH1 0x0 MSTORE PUSH1 0x20 PUSH1 0x0 KECCAK256 SWAP1 JUMPDEST DUP2 SLOAD DUP2 MSTORE SWAP1 PUSH1 0x1 ADD SWAP1 PUSH1 0x20 ADD DUP1 DUP4 GT PUSH2 0x10F2 JUMPI DUP3 SWAP1 SUB PUSH1 0x1F AND DUP3 ADD SWAP2 JUMPDEST POP POP POP POP POP DUP2 JUMP JUMPDEST PUSH1 0xE SLOAD DUP2 JUMP JUMPDEST PUSH1 0x6 DUP2 DUP1 MLOAD PUSH1 0x20 DUP2 ADD DUP3 ADD DUP1 MLOAD DUP5 DUP3 MSTORE PUSH1 0x20 DUP4 ADD PUSH1 0x20 DUP6 ADD KECCAK256 DUP2 DUP4 MSTORE DUP1 SWAP6 POP POP POP POP POP POP PUSH1 0x0 SWAP2 POP SWAP1 POP DUP1 PUSH1 0x0 ADD DUP1 SLOAD PUSH2 0x1156 SWAP1 PUSH2 0x4BDE JUMP JUMPDEST DUP1 PUSH1 0x1F ADD PUSH1 0x20 DUP1 SWAP2 DIV MUL PUSH1 0x20 ADD PUSH1 0x40 MLOAD SWAP1 DUP2 ADD PUSH1 0x40 MSTORE DUP1 SWAP3 SWAP2 SWAP1 DUP2 DUP2 MSTORE PUSH1 0x20 ADD DUP3 DUP1 SLOAD PUSH2 0x1182 SWAP1 PUSH2 0x4BDE JUMP JUMPDEST DUP1 ISZERO PUSH2 0x11CF JUMPI DUP1 PUSH1 0x1F LT PUSH2 0x11A4 JUMPI PUSH2 0x100 DUP1 DUP4 SLOAD DIV MUL DUP4 MSTORE SWAP2 PUSH1 0x20 ADD SWAP2 PUSH2 0x11CF JUMP JUMPDEST DUP3 ADD SWAP2 SWAP1 PUSH1 0x0 MSTORE PUSH1 0x20 PUSH1 0x0 KECCAK256 SWAP1 JUMPDEST DUP2 SLOAD DUP2 MSTORE SWAP1 PUSH1 0x1 ADD SWAP1 PUSH1 0x20 ADD DUP1 DUP4 GT PUSH2 0x11B2 JUMPI DUP3 SWAP1 SUB PUSH1 0x1F AND DUP3 ADD SWAP2 JUMPDEST POP POP POP POP POP SWAP1 DUP1 PUSH1 0x1 ADD DUP1 SLOAD PUSH2 0x11E4 SWAP1 PUSH2 0x4BDE JUMP JUMPDEST DUP1 PUSH1 0x1F ADD PUSH1 0x20 DUP1 SWAP2 DIV MUL PUSH1 0x20 ADD PUSH1 0x40 MLOAD SWAP1 DUP2 ADD PUSH1 0x40 MSTORE DUP1 SWAP3 SWAP2 SWAP1 DUP2 DUP2 MSTORE PUSH1 0x20 ADD DUP3 DUP1 SLOAD PUSH2 0x1210 SWAP1 PUSH2 0x4BDE JUMP JUMPDEST DUP1 ISZERO PUSH2 0x125D JUMPI DUP1 PUSH1 0x1F LT PUSH2 0x1232 JUMPI PUSH2 0x100 DUP1 DUP4 SLOAD DIV MUL DUP4 MSTORE SWAP2 PUSH1 0x20 ADD SWAP2 PUSH2 0x125D JUMP JUMPDEST DUP3 ADD SWAP2 SWAP1 PUSH1 0x0 MSTORE PUSH1 0x20 PUSH1 0x0 KECCAK256 SWAP1 JUMPDEST DUP2 SLOAD DUP2 MSTORE SWAP1 PUSH1 0x1 ADD SWAP1 PUSH1 0x20 ADD DUP1 DUP4 GT PUSH2 0x1240 JUMPI DUP3 SWAP1 SUB PUSH1 0x1F AND DUP3 ADD SWAP2 JUMPDEST POP POP POP POP POP SWAP1 DUP1 PUSH1 0x2 ADD DUP1 SLOAD PUSH2 0x1272 SWAP1 PUSH2 0x4BDE JUMP JUMPDEST DUP1 PUSH1 0x1F ADD PUSH1 0x20 DUP1 SWAP2 DIV MUL PUSH1 0x20 ADD PUSH1 0x40 MLOAD SWAP1 DUP2 ADD PUSH1 0x40 MSTORE DUP1 SWAP3 SWAP2 SWAP1 DUP2 DUP2 MSTORE PUSH1 0x20 ADD DUP3 DUP1 SLOAD PUSH2 0x129E SWAP1 PUSH2 0x4BDE JUMP JUMPDEST DUP1 ISZERO PUSH2 0x12EB JUMPI DUP1 PUSH1 0x1F LT PUSH2 0x12C0 JUMPI PUSH2 0x100 DUP1 DUP4 SLOAD DIV MUL DUP4 MSTORE SWAP2 PUSH1 0x20 ADD SWAP2 PUSH2 0x12EB JUMP JUMPDEST DUP3 ADD SWAP2 SWAP1 PUSH1 0x0 MSTORE PUSH1 0x20 PUSH1 0x0 KECCAK256 SWAP1 JUMPDEST DUP2 SLOAD DUP2 MSTORE SWAP1 PUSH1 0x1 ADD SWAP1 PUSH1 0x20 ADD DUP1 DUP4 GT PUSH2 0x12CE JUMPI DUP3 SWAP1 SUB PUSH1 0x1F AND DUP3 ADD SWAP2 JUMPDEST POP POP POP POP POP SWAP1 DUP1 PUSH1 0x3 ADD DUP1 SLOAD PUSH2 0x1300 SWAP1 PUSH2 0x4BDE JUMP JUMPDEST DUP1 PUSH1 0x1F ADD PUSH1 0x20 DUP1 SWAP2 DIV MUL PUSH1 0x20 ADD PUSH1 0x40 MLOAD SWAP1 DUP2 ADD PUSH1 0x40 MSTORE DUP1 SWAP3 SWAP2 SWAP1 DUP2 DUP2 MSTORE PUSH1 0x20 ADD DUP3 DUP1 SLOAD PUSH2 0x132C SWAP1 PUSH2 0x4BDE JUMP JUMPDEST DUP1 ISZERO PUSH2 0x1379 JUMPI DUP1 PUSH1 0x1F LT PUSH2 0x134E JUMPI PUSH2 0x100 DUP1 DUP4 SLOAD DIV MUL DUP4 MSTORE SWAP2 PUSH1 0x20 ADD SWAP2 PUSH2 0x1379 JUMP JUMPDEST DUP3 ADD SWAP2 SWAP1 PUSH1 0x0 MSTORE PUSH1 0x20 PUSH1 0x0 KECCAK256 SWAP1 JUMPDEST DUP2 SLOAD DUP2 MSTORE SWAP1 PUSH1 0x1 ADD SWAP1 PUSH1 0x20 ADD DUP1 DUP4 GT PUSH2 0x135C JUMPI DUP3 SWAP1 SUB PUSH1 0x1F AND DUP3 ADD SWAP2 JUMPDEST POP POP POP POP POP SWAP1 DUP1 PUSH1 0x4 ADD DUP1 SLOAD PUSH2 0x138E SWAP1 PUSH2 0x4BDE JUMP JUMPDEST DUP1 PUSH1 0x1F ADD PUSH1 0x20 DUP1 SWAP2 DIV MUL PUSH1 0x20 ADD PUSH1 0x40 MLOAD SWAP1 DUP2 ADD PUSH1 0x40 MSTORE DUP1 SWAP3 SWAP2 SWAP1 DUP2 DUP2 MSTORE PUSH1 0x20 ADD DUP3 DUP1 SLOAD PUSH2 0x13BA SWAP1 PUSH2 0x4BDE JUMP JUMPDEST DUP1 ISZERO PUSH2 0x1407 JUMPI DUP1 PUSH1 0x1F LT PUSH2 0x13DC JUMPI PUSH2 0x100 DUP1 DUP4 SLOAD DIV MUL DUP4 MSTORE SWAP2 PUSH1 0x20 ADD SWAP2 PUSH2 0x1407 JUMP JUMPDEST DUP3 ADD SWAP2 SWAP1 PUSH1 0x0 MSTORE PUSH1 0x20 PUSH1 0x0 KECCAK256 SWAP1 JUMPDEST DUP2 SLOAD DUP2 MSTORE SWAP1 PUSH1 0x1 ADD SWAP1 PUSH1 0x20 ADD DUP1 DUP4 GT PUSH2 0x13EA JUMPI DUP3 SWAP1 SUB PUSH1 0x1F AND DUP3 ADD SWAP2 JUMPDEST POP POP POP POP POP SWAP1 POP DUP6 JUMP JUMPDEST PUSH1 0x0 DUP1 PUSH1 0x2 PUSH1 0x0 DUP5 DUP2 MSTORE PUSH1 0x20 ADD SWAP1 DUP2 MSTORE PUSH1 0x20 ADD PUSH1 0x0 KECCAK256 PUSH1 0x0 SWAP1 SLOAD SWAP1 PUSH2 0x100 EXP SWAP1 DIV PUSH20 0xFFFFFFFFFFFFFFFFFFFFFFFFFFFFFFFFFFFFFFFF AND SWAP1 POP PUSH1 0x0 PUSH20 0xFFFFFFFFFFFFFFFFFFFFFFFFFFFFFFFFFFFFFFFF AND DUP2 PUSH20 0xFFFFFFFFFFFFFFFFFFFFFFFFFFFFFFFFFFFFFFFF AND EQ ISZERO PUSH2 0x14BA JUMPI PUSH1 0x40 MLOAD PUSH32 0x8C379A000000000000000000000000000000000000000000000000000000000 DUP2 MSTORE PUSH1 0x4 ADD PUSH2 0x14B1 SWAP1 PUSH2 0x50BD JUMP JUMPDEST PUSH1 0x40 MLOAD DUP1 SWAP2 SUB SWAP1 REVERT JUMPDEST DUP1 SWAP2 POP POP SWAP2 SWAP1 POP JUMP JUMPDEST PUSH1 0x0 DUP1 PUSH20 0xFFFFFFFFFFFFFFFFFFFFFFFFFFFFFFFFFFFFFFFF AND DUP3 PUSH20 0xFFFFFFFFFFFFFFFFFFFFFFFFFFFFFFFFFFFFFFFF AND EQ ISZERO PUSH2 0x1534 JUMPI PUSH1 0x40 MLOAD PUSH32 0x8C379A000000000000000000000000000000000000000000000000000000000 DUP2 MSTORE PUSH1 0x4 ADD PUSH2 0x152B SWAP1 PUSH2 0x514F JUMP JUMPDEST PUSH1 0x40 MLOAD DUP1 SWAP2 SUB SWAP1 REVERT JUMPDEST PUSH1 0x3 PUSH1 0x0 DUP4 PUSH20 0xFFFFFFFFFFFFFFFFFFFFFFFFFFFFFFFFFFFFFFFF AND PUSH20 0xFFFFFFFFFFFFFFFFFFFFFFFFFFFFFFFFFFFFFFFF AND DUP2 MSTORE PUSH1 0x20 ADD SWAP1 DUP2 MSTORE PUSH1 0x20 ADD PUSH1 0x0 KECCAK256 SLOAD SWAP1 POP SWAP2 SWAP1 POP JUMP JUMPDEST PUSH1 0xC SLOAD DUP2 JUMP JUMPDEST PUSH1 0x60 PUSH1 0x0 DUP1 PUSH2 0x1590 DUP6 DUP6 PUSH2 0x217B JUMP JUMPDEST SWAP1 POP PUSH1 0x0 PUSH1 0x5 PUSH8 0xFFFFFFFFFFFFFFFF DUP2 GT ISZERO PUSH2 0x15AF JUMPI PUSH2 0x15AE PUSH2 0x4354 JUMP JUMPDEST JUMPDEST PUSH1 0x40 MLOAD SWAP1 DUP1 DUP3 MSTORE DUP1 PUSH1 0x20 MUL PUSH1 0x20 ADD DUP3 ADD PUSH1 0x40 MSTORE DUP1 ISZERO PUSH2 0x15E2 JUMPI DUP2 PUSH1 0x20 ADD JUMPDEST PUSH1 0x60 DUP2 MSTORE PUSH1 0x20 ADD SWAP1 PUSH1 0x1 SWAP1 SUB SWAP1 DUP2 PUSH2 0x15CD JUMPI SWAP1 POP JUMPDEST POP SWAP1 POP PUSH1 0x6 DUP7 DUP7 PUSH1 0x40 MLOAD PUSH2 0x15F7 SWAP3 SWAP2 SWAP1 PUSH2 0x4DF6 JUMP JUMPDEST SWAP1 DUP2 MSTORE PUSH1 0x20 ADD PUSH1 0x40 MLOAD DUP1 SWAP2 SUB SWAP1 KECCAK256 PUSH1 0x0 ADD DUP1 SLOAD PUSH2 0x1613 SWAP1 PUSH2 0x4BDE JUMP JUMPDEST DUP1 PUSH1 0x1F ADD PUSH1 0x20 DUP1 SWAP2 DIV MUL PUSH1 0x20 ADD PUSH1 0x40 MLOAD SWAP1 DUP2 ADD PUSH1 0x40 MSTORE DUP1 SWAP3 SWAP2 SWAP1 DUP2 DUP2 MSTORE PUSH1 0x20 ADD DUP3 DUP1 SLOAD PUSH2 0x163F SWAP1 PUSH2 0x4BDE JUMP JUMPDEST DUP1 ISZERO PUSH2 0x168C JUMPI DUP1 PUSH1 0x1F LT PUSH2 0x1661 JUMPI PUSH2 0x100 DUP1 DUP4 SLOAD DIV MUL DUP4 MSTORE SWAP2 PUSH1 0x20 ADD SWAP2 PUSH2 0x168C JUMP JUMPDEST DUP3 ADD SWAP2 SWAP1 PUSH1 0x0 MSTORE PUSH1 0x20 PUSH1 0x0 KECCAK256 SWAP1 JUMPDEST DUP2 SLOAD DUP2 MSTORE SWAP1 PUSH1 0x1 ADD SWAP1 PUSH1 0x20 ADD DUP1 DUP4 GT PUSH2 0x166F JUMPI DUP3 SWAP1 SUB PUSH1 0x1F AND DUP3 ADD SWAP2 JUMPDEST POP POP POP POP POP DUP2 PUSH1 0x0 DUP2 MLOAD DUP2 LT PUSH2 0x16A5 JUMPI PUSH2 0x16A4 PUSH2 0x4FA4 JUMP JUMPDEST JUMPDEST PUSH1 0x20 MUL PUSH1 0x20 ADD ADD DUP2 SWAP1 MSTORE POP PUSH1 0x6 DUP7 DUP7 PUSH1 0x40 MLOAD PUSH2 0x16C2 SWAP3 SWAP2 SWAP1 PUSH2 0x4DF6 JUMP JUMPDEST SWAP1 DUP2 MSTORE PUSH1 0x20 ADD PUSH1 0x40 MLOAD DUP1 SWAP2 SUB SWAP1 KECCAK256 PUSH1 0x1 ADD DUP1 SLOAD PUSH2 0x16DE SWAP1 PUSH2 0x4BDE JUMP JUMPDEST DUP1 PUSH1 0x1F ADD PUSH1 0x20 DUP1 SWAP2 DIV MUL PUSH1 0x20 ADD PUSH1 0x40 MLOAD SWAP1 DUP2 ADD PUSH1 0x40 MSTORE DUP1 SWAP3 SWAP2 SWAP1 DUP2 DUP2 MSTORE PUSH1 0x20 ADD DUP3 DUP1 SLOAD PUSH2 0x170A SWAP1 PUSH2 0x4BDE JUMP JUMPDEST DUP1 ISZERO PUSH2 0x1757 JUMPI DUP1 PUSH1 0x1F LT PUSH2 0x172C JUMPI PUSH2 0x100 DUP1 DUP4 SLOAD DIV MUL DUP4 MSTORE SWAP2 PUSH1 0x20 ADD SWAP2 PUSH2 0x1757 JUMP JUMPDEST DUP3 ADD SWAP2 SWAP1 PUSH1 0x0 MSTORE PUSH1 0x20 PUSH1 0x0 KECCAK256 SWAP1 JUMPDEST DUP2 SLOAD DUP2 MSTORE SWAP1 PUSH1 0x1 ADD SWAP1 PUSH1 0x20 ADD DUP1 DUP4 GT PUSH2 0x173A JUMPI DUP3 SWAP1 SUB PUSH1 0x1F AND DUP3 ADD SWAP2 JUMPDEST POP POP POP POP POP DUP2 PUSH1 0x1 DUP2 MLOAD DUP2 LT PUSH2 0x1770 JUMPI PUSH2 0x176F PUSH2 0x4FA4 JUMP JUMPDEST JUMPDEST PUSH1 0x20 MUL PUSH1 0x20 ADD ADD DUP2 SWAP1 MSTORE POP PUSH1 0x6 DUP7 DUP7 PUSH1 0x40 MLOAD PUSH2 0x178D SWAP3 SWAP2 SWAP1 PUSH2 0x4DF6 JUMP JUMPDEST SWAP1 DUP2 MSTORE PUSH1 0x20 ADD PUSH1 0x40 MLOAD DUP1 SWAP2 SUB SWAP1 KECCAK256 PUSH1 0x2 ADD DUP1 SLOAD PUSH2 0x17A9 SWAP1 PUSH2 0x4BDE JUMP JUMPDEST DUP1 PUSH1 0x1F ADD PUSH1 0x20 DUP1 SWAP2 DIV MUL PUSH1 0x20 ADD PUSH1 0x40 MLOAD SWAP1 DUP2 ADD PUSH1 0x40 MSTORE DUP1 SWAP3 SWAP2 SWAP1 DUP2 DUP2 MSTORE PUSH1 0x20 ADD DUP3 DUP1 SLOAD PUSH2 0x17D5 SWAP1 PUSH2 0x4BDE JUMP JUMPDEST DUP1 ISZERO PUSH2 0x1822 JUMPI DUP1 PUSH1 0x1F LT PUSH2 0x17F7 JUMPI PUSH2 0x100 DUP1 DUP4 SLOAD DIV MUL DUP4 MSTORE SWAP2 PUSH1 0x20 ADD SWAP2 PUSH2 0x1822 JUMP JUMPDEST DUP3 ADD SWAP2 SWAP1 PUSH1 0x0 MSTORE PUSH1 0x20 PUSH1 0x0 KECCAK256 SWAP1 JUMPDEST DUP2 SLOAD DUP2 MSTORE SWAP1 PUSH1 0x1 ADD SWAP1 PUSH1 0x20 ADD DUP1 DUP4 GT PUSH2 0x1805 JUMPI DUP3 SWAP1 SUB PUSH1 0x1F AND DUP3 ADD SWAP2 JUMPDEST POP POP POP POP POP DUP2 PUSH1 0x2 DUP2 MLOAD DUP2 LT PUSH2 0x183B JUMPI PUSH2 0x183A PUSH2 0x4FA4 JUMP JUMPDEST JUMPDEST PUSH1 0x20 MUL PUSH1 0x20 ADD ADD DUP2 SWAP1 MSTORE POP PUSH1 0x6 DUP7 DUP7 PUSH1 0x40 MLOAD PUSH2 0x1858 SWAP3 SWAP2 SWAP1 PUSH2 0x4DF6 JUMP JUMPDEST SWAP1 DUP2 MSTORE PUSH1 0x20 ADD PUSH1 0x40 MLOAD DUP1 SWAP2 SUB SWAP1 KECCAK256 PUSH1 0x3 ADD DUP1 SLOAD PUSH2 0x1874 SWAP1 PUSH2 0x4BDE JUMP JUMPDEST DUP1 PUSH1 0x1F ADD PUSH1 0x20 DUP1 SWAP2 DIV MUL PUSH1 0x20 ADD PUSH1 0x40 MLOAD SWAP1 DUP2 ADD PUSH1 0x40 MSTORE DUP1 SWAP3 SWAP2 SWAP1 DUP2 DUP2 MSTORE PUSH1 0x20 ADD DUP3 DUP1 SLOAD PUSH2 0x18A0 SWAP1 PUSH2 0x4BDE JUMP JUMPDEST DUP1 ISZERO PUSH2 0x18ED JUMPI DUP1 PUSH1 0x1F LT PUSH2 0x18C2 JUMPI PUSH2 0x100 DUP1 DUP4 SLOAD DIV MUL DUP4 MSTORE SWAP2 PUSH1 0x20 ADD SWAP2 PUSH2 0x18ED JUMP JUMPDEST DUP3 ADD SWAP2 SWAP1 PUSH1 0x0 MSTORE PUSH1 0x20 PUSH1 0x0 KECCAK256 SWAP1 JUMPDEST DUP2 SLOAD DUP2 MSTORE SWAP1 PUSH1 0x1 ADD SWAP1 PUSH1 0x20 ADD DUP1 DUP4 GT PUSH2 0x18D0 JUMPI DUP3 SWAP1 SUB PUSH1 0x1F AND DUP3 ADD SWAP2 JUMPDEST POP POP POP POP POP DUP2 PUSH1 0x3 DUP2 MLOAD DUP2 LT PUSH2 0x1906 JUMPI PUSH2 0x1905 PUSH2 0x4FA4 JUMP JUMPDEST JUMPDEST PUSH1 0x20 MUL PUSH1 0x20 ADD ADD DUP2 SWAP1 MSTORE POP PUSH1 0x6 DUP7 DUP7 PUSH1 0x40 MLOAD PUSH2 0x1923 SWAP3 SWAP2 SWAP1 PUSH2 0x4DF6 JUMP JUMPDEST SWAP1 DUP2 MSTORE PUSH1 0x20 ADD PUSH1 0x40 MLOAD DUP1 SWAP2 SUB SWAP1 KECCAK256 PUSH1 0x4 ADD DUP1 SLOAD PUSH2 0x193F SWAP1 PUSH2 0x4BDE JUMP JUMPDEST DUP1 PUSH1 0x1F ADD PUSH1 0x20 DUP1 SWAP2 DIV MUL PUSH1 0x20 ADD PUSH1 0x40 MLOAD SWAP1 DUP2 ADD PUSH1 0x40 MSTORE DUP1 SWAP3 SWAP2 SWAP1 DUP2 DUP2 MSTORE PUSH1 0x20 ADD DUP3 DUP1 SLOAD PUSH2 0x196B SWAP1 PUSH2 0x4BDE JUMP JUMPDEST DUP1 ISZERO PUSH2 0x19B8 JUMPI DUP1 PUSH1 0x1F LT PUSH2 0x198D JUMPI PUSH2 0x100 DUP1 DUP4 SLOAD DIV MUL DUP4 MSTORE SWAP2 PUSH1 0x20 ADD SWAP2 PUSH2 0x19B8 JUMP JUMPDEST DUP3 ADD SWAP2 SWAP1 PUSH1 0x0 MSTORE PUSH1 0x20 PUSH1 0x0 KECCAK256 SWAP1 JUMPDEST DUP2 SLOAD DUP2 MSTORE SWAP1 PUSH1 0x1 ADD SWAP1 PUSH1 0x20 ADD DUP1 DUP4 GT PUSH2 0x199B JUMPI DUP3 SWAP1 SUB PUSH1 0x1F AND DUP3 ADD SWAP2 JUMPDEST POP POP POP POP POP DUP2 PUSH1 0x4 DUP2 MLOAD DUP2 LT PUSH2 0x19D1 JUMPI PUSH2 0x19D0 PUSH2 0x4FA4 JUMP JUMPDEST JUMPDEST PUSH1 0x20 MUL PUSH1 0x20 ADD ADD DUP2 SWAP1 MSTORE POP DUP1 DUP3 SWAP4 POP SWAP4 POP POP POP SWAP3 POP SWAP3 SWAP1 POP JUMP JUMPDEST PUSH1 0x8 DUP2 DUP1 MLOAD PUSH1 0x20 DUP2 ADD DUP3 ADD DUP1 MLOAD DUP5 DUP3 MSTORE PUSH1 0x20 DUP4 ADD PUSH1 0x20 DUP6 ADD KECCAK256 DUP2 DUP4 MSTORE DUP1 SWAP6 POP POP POP POP POP POP PUSH1 0x0 SWAP2 POP SWAP1 POP SLOAD DUP2 JUMP JUMPDEST PUSH1 0xA PUSH1 0x0 SWAP1 SLOAD SWAP1 PUSH2 0x100 EXP SWAP1 DIV PUSH20 0xFFFFFFFFFFFFFFFFFFFFFFFFFFFFFFFFFFFFFFFF AND DUP2 JUMP JUMPDEST PUSH1 0x0 PUSH1 0xA PUSH1 0x0 SWAP1 SLOAD SWAP1 PUSH2 0x100 EXP SWAP1 DIV PUSH20 0xFFFFFFFFFFFFFFFFFFFFFFFFFFFFFFFFFFFFFFFF AND PUSH20 0xFFFFFFFFFFFFFFFFFFFFFFFFFFFFFFFFFFFFFFFF AND CALLER PUSH20 0xFFFFFFFFFFFFFFFFFFFFFFFFFFFFFFFFFFFFFFFF AND EQ SWAP1 POP SWAP1 JUMP JUMPDEST PUSH1 0x60 PUSH1 0x1 DUP1 SLOAD PUSH2 0x1AA6 SWAP1 PUSH2 0x4BDE JUMP JUMPDEST DUP1 PUSH1 0x1F ADD PUSH1 0x20 DUP1 SWAP2 DIV MUL PUSH1 0x20 ADD PUSH1 0x40 MLOAD SWAP1 DUP2 ADD PUSH1 0x40 MSTORE DUP1 SWAP3 SWAP2 SWAP1 DUP2 DUP2 MSTORE PUSH1 0x20 ADD DUP3 DUP1 SLOAD PUSH2 0x1AD2 SWAP1 PUSH2 0x4BDE JUMP JUMPDEST DUP1 ISZERO PUSH2 0x1B1F JUMPI DUP1 PUSH1 0x1F LT PUSH2 0x1AF4 JUMPI PUSH2 0x100 DUP1 DUP4 SLOAD DIV MUL DUP4 MSTORE SWAP2 PUSH1 0x20 ADD SWAP2 PUSH2 0x1B1F JUMP JUMPDEST DUP3 ADD SWAP2 SWAP1 PUSH1 0x0 MSTORE PUSH1 0x20 PUSH1 0x0 KECCAK256 SWAP1 JUMPDEST DUP2 SLOAD DUP2 MSTORE SWAP1 PUSH1 0x1 ADD SWAP1 PUSH1 0x20 ADD DUP1 DUP4 GT PUSH2 0x1B02 JUMPI DUP3 SWAP1 SUB PUSH1 0x1F AND DUP3 ADD SWAP2 JUMPDEST POP POP POP POP POP SWAP1 POP SWAP1 JUMP JUMPDEST PUSH1 0x60 PUSH1 0x0 PUSH1 0x4 DUP2 GT ISZERO PUSH2 0x1B3F JUMPI PUSH2 0x1B3E PUSH2 0x516F JUMP JUMPDEST JUMPDEST DUP3 PUSH1 0x4 DUP2 GT ISZERO PUSH2 0x1B52 JUMPI PUSH2 0x1B51 PUSH2 0x516F JUMP JUMPDEST JUMPDEST EQ ISZERO PUSH2 0x1C0B JUMPI PUSH1 0x6 DUP5 DUP5 PUSH1 0x40 MLOAD PUSH2 0x1B6A SWAP3 SWAP2 SWAP1 PUSH2 0x4DF6 JUMP JUMPDEST SWAP1 DUP2 MSTORE PUSH1 0x20 ADD PUSH1 0x40 MLOAD DUP1 SWAP2 SUB SWAP1 KECCAK256 PUSH1 0x0 ADD DUP1 SLOAD PUSH2 0x1B86 SWAP1 PUSH2 0x4BDE JUMP JUMPDEST DUP1 PUSH1 0x1F ADD PUSH1 0x20 DUP1 SWAP2 DIV MUL PUSH1 0x20 ADD PUSH1 0x40 MLOAD SWAP1 DUP2 ADD PUSH1 0x40 MSTORE DUP1 SWAP3 SWAP2 SWAP1 DUP2 DUP2 MSTORE PUSH1 0x20 ADD DUP3 DUP1 SLOAD PUSH2 0x1BB2 SWAP1 PUSH2 0x4BDE JUMP JUMPDEST DUP1 ISZERO PUSH2 0x1BFF JUMPI DUP1 PUSH1 0x1F LT PUSH2 0x1BD4 JUMPI PUSH2 0x100 DUP1 DUP4 SLOAD DIV MUL DUP4 MSTORE SWAP2 PUSH1 0x20 ADD SWAP2 PUSH2 0x1BFF JUMP JUMPDEST DUP3 ADD SWAP2 SWAP1 PUSH1 0x0 MSTORE PUSH1 0x20 PUSH1 0x0 KECCAK256 SWAP1 JUMPDEST DUP2 SLOAD DUP2 MSTORE SWAP1 PUSH1 0x1 ADD SWAP1 PUSH1 0x20 ADD DUP1 DUP4 GT PUSH2 0x1BE2 JUMPI DUP3 SWAP1 SUB PUSH1 0x1F AND DUP3 ADD SWAP2 JUMPDEST POP POP POP POP POP SWAP1 POP PUSH2 0x1FC5 JUMP JUMPDEST PUSH1 0x1 PUSH1 0x4 DUP2 GT ISZERO PUSH2 0x1C1F JUMPI PUSH2 0x1C1E PUSH2 0x516F JUMP JUMPDEST JUMPDEST DUP3 PUSH1 0x4 DUP2 GT ISZERO PUSH2 0x1C32 JUMPI PUSH2 0x1C31 PUSH2 0x516F JUMP JUMPDEST JUMPDEST EQ ISZERO PUSH2 0x1CEB JUMPI PUSH1 0x6 DUP5 DUP5 PUSH1 0x40 MLOAD PUSH2 0x1C4A SWAP3 SWAP2 SWAP1 PUSH2 0x4DF6 JUMP JUMPDEST SWAP1 DUP2 MSTORE PUSH1 0x20 ADD PUSH1 0x40 MLOAD DUP1 SWAP2 SUB SWAP1 KECCAK256 PUSH1 0x1 ADD DUP1 SLOAD PUSH2 0x1C66 SWAP1 PUSH2 0x4BDE JUMP JUMPDEST DUP1 PUSH1 0x1F ADD PUSH1 0x20 DUP1 SWAP2 DIV MUL PUSH1 0x20 ADD PUSH1 0x40 MLOAD SWAP1 DUP2 ADD PUSH1 0x40 MSTORE DUP1 SWAP3 SWAP2 SWAP1 DUP2 DUP2 MSTORE PUSH1 0x20 ADD DUP3 DUP1 SLOAD PUSH2 0x1C92 SWAP1 PUSH2 0x4BDE JUMP JUMPDEST DUP1 ISZERO PUSH2 0x1CDF JUMPI DUP1 PUSH1 0x1F LT PUSH2 0x1CB4 JUMPI PUSH2 0x100 DUP1 DUP4 SLOAD DIV MUL DUP4 MSTORE SWAP2 PUSH1 0x20 ADD SWAP2 PUSH2 0x1CDF JUMP JUMPDEST DUP3 ADD SWAP2 SWAP1 PUSH1 0x0 MSTORE PUSH1 0x20 PUSH1 0x0 KECCAK256 SWAP1 JUMPDEST DUP2 SLOAD DUP2 MSTORE SWAP1 PUSH1 0x1 ADD SWAP1 PUSH1 0x20 ADD DUP1 DUP4 GT PUSH2 0x1CC2 JUMPI DUP3 SWAP1 SUB PUSH1 0x1F AND DUP3 ADD SWAP2 JUMPDEST POP POP POP POP POP SWAP1 POP PUSH2 0x1FC5 JUMP JUMPDEST PUSH1 0x2 PUSH1 0x4 DUP2 GT ISZERO PUSH2 0x1CFF JUMPI PUSH2 0x1CFE PUSH2 0x516F JUMP JUMPDEST JUMPDEST DUP3 PUSH1 0x4 DUP2 GT ISZERO PUSH2 0x1D12 JUMPI PUSH2 0x1D11 PUSH2 0x516F JUMP JUMPDEST JUMPDEST EQ ISZERO PUSH2 0x1DCB JUMPI PUSH1 0x6 DUP5 DUP5 PUSH1 0x40 MLOAD PUSH2 0x1D2A SWAP3 SWAP2 SWAP1 PUSH2 0x4DF6 JUMP JUMPDEST SWAP1 DUP2 MSTORE PUSH1 0x20 ADD PUSH1 0x40 MLOAD DUP1 SWAP2 SUB SWAP1 KECCAK256 PUSH1 0x2 ADD DUP1 SLOAD PUSH2 0x1D46 SWAP1 PUSH2 0x4BDE JUMP JUMPDEST DUP1 PUSH1 0x1F ADD PUSH1 0x20 DUP1 SWAP2 DIV MUL PUSH1 0x20 ADD PUSH1 0x40 MLOAD SWAP1 DUP2 ADD PUSH1 0x40 MSTORE DUP1 SWAP3 SWAP2 SWAP1 DUP2 DUP2 MSTORE PUSH1 0x20 ADD DUP3 DUP1 SLOAD PUSH2 0x1D72 SWAP1 PUSH2 0x4BDE JUMP JUMPDEST DUP1 ISZERO PUSH2 0x1DBF JUMPI DUP1 PUSH1 0x1F LT PUSH2 0x1D94 JUMPI PUSH2 0x100 DUP1 DUP4 SLOAD DIV MUL DUP4 MSTORE SWAP2 PUSH1 0x20 ADD SWAP2 PUSH2 0x1DBF JUMP JUMPDEST DUP3 ADD SWAP2 SWAP1 PUSH1 0x0 MSTORE PUSH1 0x20 PUSH1 0x0 KECCAK256 SWAP1 JUMPDEST DUP2 SLOAD DUP2 MSTORE SWAP1 PUSH1 0x1 ADD SWAP1 PUSH1 0x20 ADD DUP1 DUP4 GT PUSH2 0x1DA2 JUMPI DUP3 SWAP1 SUB PUSH1 0x1F AND DUP3 ADD SWAP2 JUMPDEST POP POP POP POP POP SWAP1 POP PUSH2 0x1FC5 JUMP JUMPDEST PUSH1 0x3 PUSH1 0x4 DUP2 GT ISZERO PUSH2 0x1DDF JUMPI PUSH2 0x1DDE PUSH2 0x516F JUMP JUMPDEST JUMPDEST DUP3 PUSH1 0x4 DUP2 GT ISZERO PUSH2 0x1DF2 JUMPI PUSH2 0x1DF1 PUSH2 0x516F JUMP JUMPDEST JUMPDEST EQ ISZERO PUSH2 0x1EAB JUMPI PUSH1 0x6 DUP5 DUP5 PUSH1 0x40 MLOAD PUSH2 0x1E0A SWAP3 SWAP2 SWAP1 PUSH2 0x4DF6 JUMP JUMPDEST SWAP1 DUP2 MSTORE PUSH1 0x20 ADD PUSH1 0x40 MLOAD DUP1 SWAP2 SUB SWAP1 KECCAK256 PUSH1 0x3 ADD DUP1 SLOAD PUSH2 0x1E26 SWAP1 PUSH2 0x4BDE JUMP JUMPDEST DUP1 PUSH1 0x1F ADD PUSH1 0x20 DUP1 SWAP2 DIV MUL PUSH1 0x20 ADD PUSH1 0x40 MLOAD SWAP1 DUP2 ADD PUSH1 0x40 MSTORE DUP1 SWAP3 SWAP2 SWAP1 DUP2 DUP2 MSTORE PUSH1 0x20 ADD DUP3 DUP1 SLOAD PUSH2 0x1E52 SWAP1 PUSH2 0x4BDE JUMP JUMPDEST DUP1 ISZERO PUSH2 0x1E9F JUMPI DUP1 PUSH1 0x1F LT PUSH2 0x1E74 JUMPI PUSH2 0x100 DUP1 DUP4 SLOAD DIV MUL DUP4 MSTORE SWAP2 PUSH1 0x20 ADD SWAP2 PUSH2 0x1E9F JUMP JUMPDEST DUP3 ADD SWAP2 SWAP1 PUSH1 0x0 MSTORE PUSH1 0x20 PUSH1 0x0 KECCAK256 SWAP1 JUMPDEST DUP2 SLOAD DUP2 MSTORE SWAP1 PUSH1 0x1 ADD SWAP1 PUSH1 0x20 ADD DUP1 DUP4 GT PUSH2 0x1E82 JUMPI DUP3 SWAP1 SUB PUSH1 0x1F AND DUP3 ADD SWAP2 JUMPDEST POP POP POP POP POP SWAP1 POP PUSH2 0x1FC5 JUMP JUMPDEST PUSH1 0x4 DUP1 DUP2 GT ISZERO PUSH2 0x1EBE JUMPI PUSH2 0x1EBD PUSH2 0x516F JUMP JUMPDEST JUMPDEST DUP3 PUSH1 0x4 DUP2 GT ISZERO PUSH2 0x1ED1 JUMPI PUSH2 0x1ED0 PUSH2 0x516F JUMP JUMPDEST JUMPDEST EQ ISZERO PUSH2 0x1F8A JUMPI PUSH1 0x6 DUP5 DUP5 PUSH1 0x40 MLOAD PUSH2 0x1EE9 SWAP3 SWAP2 SWAP1 PUSH2 0x4DF6 JUMP JUMPDEST SWAP1 DUP2 MSTORE PUSH1 0x20 ADD PUSH1 0x40 MLOAD DUP1 SWAP2 SUB SWAP1 KECCAK256 PUSH1 0x4 ADD DUP1 SLOAD PUSH2 0x1F05 SWAP1 PUSH2 0x4BDE JUMP JUMPDEST DUP1 PUSH1 0x1F ADD PUSH1 0x20 DUP1 SWAP2 DIV MUL PUSH1 0x20 ADD PUSH1 0x40 MLOAD SWAP1 DUP2 ADD PUSH1 0x40 MSTORE DUP1 SWAP3 SWAP2 SWAP1 DUP2 DUP2 MSTORE PUSH1 0x20 ADD DUP3 DUP1 SLOAD PUSH2 0x1F31 SWAP1 PUSH2 0x4BDE JUMP JUMPDEST DUP1 ISZERO PUSH2 0x1F7E JUMPI DUP1 PUSH1 0x1F LT PUSH2 0x1F53 JUMPI PUSH2 0x100 DUP1 DUP4 SLOAD DIV MUL DUP4 MSTORE SWAP2 PUSH1 0x20 ADD SWAP2 PUSH2 0x1F7E JUMP JUMPDEST DUP3 ADD SWAP2 SWAP1 PUSH1 0x0 MSTORE PUSH1 0x20 PUSH1 0x0 KECCAK256 SWAP1 JUMPDEST DUP2 SLOAD DUP2 MSTORE SWAP1 PUSH1 0x1 ADD SWAP1 PUSH1 0x20 ADD DUP1 DUP4 GT PUSH2 0x1F61 JUMPI DUP3 SWAP1 SUB PUSH1 0x1F AND DUP3 ADD SWAP2 JUMPDEST POP POP POP POP POP SWAP1 POP PUSH2 0x1FC5 JUMP JUMPDEST PUSH1 0x40 MLOAD PUSH32 0x8C379A000000000000000000000000000000000000000000000000000000000 DUP2 MSTORE PUSH1 0x4 ADD PUSH2 0x1FBC SWAP1 PUSH2 0x51EA JUMP JUMPDEST PUSH1 0x40 MLOAD DUP1 SWAP2 SUB SWAP1 REVERT JUMPDEST SWAP4 SWAP3 POP POP POP JUMP JUMPDEST PUSH1 0x0 PUSH1 0x3 PUSH2 0x201D DUP5 DUP5 DUP1 DUP1 PUSH1 0x1F ADD PUSH1 0x20 DUP1 SWAP2 DIV MUL PUSH1 0x20 ADD PUSH1 0x40 MLOAD SWAP1 DUP2 ADD PUSH1 0x40 MSTORE DUP1 SWAP4 SWAP3 SWAP2 SWAP1 DUP2 DUP2 MSTORE PUSH1 0x20 ADD DUP4 DUP4 DUP1 DUP3 DUP5 CALLDATACOPY PUSH1 0x0 DUP2 DUP5 ADD MSTORE PUSH1 0x1F NOT PUSH1 0x1F DUP3 ADD AND SWAP1 POP DUP1 DUP4 ADD SWAP3 POP POP POP POP POP POP POP PUSH2 0x32E2 JUMP JUMPDEST LT ISZERO DUP1 ISZERO PUSH2 0x2078 JUMPI POP PUSH1 0x1E PUSH2 0x2075 DUP5 DUP5 DUP1 DUP1 PUSH1 0x1F ADD PUSH1 0x20 DUP1 SWAP2 DIV MUL PUSH1 0x20 ADD PUSH1 0x40 MLOAD SWAP1 DUP2 ADD PUSH1 0x40 MSTORE DUP1 SWAP4 SWAP3 SWAP2 SWAP1 DUP2 DUP2 MSTORE PUSH1 0x20 ADD DUP4 DUP4 DUP1 DUP3 DUP5 CALLDATACOPY PUSH1 0x0 DUP2 DUP5 ADD MSTORE PUSH1 0x1F NOT PUSH1 0x1F DUP3 ADD AND SWAP1 POP DUP1 DUP4 ADD SWAP3 POP POP POP POP POP POP POP PUSH2 0x32E2 JUMP JUMPDEST GT ISZERO JUMPDEST SWAP1 POP SWAP3 SWAP2 POP POP JUMP JUMPDEST PUSH2 0x2092 PUSH2 0x208B PUSH2 0x2EBB JUMP JUMPDEST DUP4 DUP4 PUSH2 0x3497 JUMP JUMPDEST POP POP JUMP JUMPDEST PUSH2 0x209E PUSH2 0x1A3F JUMP JUMPDEST PUSH2 0x20A7 JUMPI PUSH1 0x0 DUP1 REVERT JUMPDEST DUP3 PUSH1 0xC DUP2 SWAP1 SSTORE POP DUP2 PUSH1 0xD DUP2 SWAP1 SSTORE POP DUP1 PUSH1 0xE DUP2 SWAP1 SSTORE POP POP POP POP JUMP JUMPDEST PUSH2 0x20D2 PUSH2 0x20CC PUSH2 0x2EBB JUMP JUMPDEST DUP4 PUSH2 0x2FA8 JUMP JUMPDEST PUSH2 0x2111 JUMPI PUSH1 0x40 MLOAD PUSH32 0x8C379A000000000000000000000000000000000000000000000000000000000 DUP2 MSTORE PUSH1 0x4 ADD PUSH2 0x2108 SWAP1 PUSH2 0x4ED2 JUMP JUMPDEST PUSH1 0x40 MLOAD DUP1 SWAP2 SUB SWAP1 REVERT JUMPDEST PUSH2 0x211D DUP5 DUP5 DUP5 DUP5 PUSH2 0x3604 JUMP JUMPDEST POP POP POP POP JUMP JUMPDEST PUSH1 0x0 DUP1 PUSH1 0x8 DUP5 DUP5 PUSH1 0x40 MLOAD PUSH2 0x2138 SWAP3 SWAP2 SWAP1 PUSH2 0x4DF6 JUMP JUMPDEST SWAP1 DUP2 MSTORE PUSH1 0x20 ADD PUSH1 0x40 MLOAD DUP1 SWAP2 SUB SWAP1 KECCAK256 SLOAD EQ ISZERO PUSH2 0x2152 JUMPI PUSH1 0x0 DUP1 REVERT JUMPDEST PUSH1 0x8 DUP4 DUP4 PUSH1 0x40 MLOAD PUSH2 0x2164 SWAP3 SWAP2 SWAP1 PUSH2 0x4DF6 JUMP JUMPDEST SWAP1 DUP2 MSTORE PUSH1 0x20 ADD PUSH1 0x40 MLOAD DUP1 SWAP2 SUB SWAP1 KECCAK256 SLOAD SWAP1 POP SWAP3 SWAP2 POP POP JUMP JUMPDEST PUSH1 0x0 PUSH2 0x218F PUSH2 0x218A DUP5 DUP5 PUSH2 0x2123 JUMP JUMPDEST PUSH2 0x1411 JUMP JUMPDEST SWAP1 POP SWAP3 SWAP2 POP POP JUMP JUMPDEST PUSH1 0x60 PUSH2 0x223D PUSH1 0x7 PUSH1 0x0 DUP5 DUP2 MSTORE PUSH1 0x20 ADD SWAP1 DUP2 MSTORE PUSH1 0x20 ADD PUSH1 0x0 KECCAK256 DUP1 SLOAD PUSH2 0x21BA SWAP1 PUSH2 0x4BDE JUMP JUMPDEST DUP1 PUSH1 0x1F ADD PUSH1 0x20 DUP1 SWAP2 DIV MUL PUSH1 0x20 ADD PUSH1 0x40 MLOAD SWAP1 DUP2 ADD PUSH1 0x40 MSTORE DUP1 SWAP3 SWAP2 SWAP1 DUP2 DUP2 MSTORE PUSH1 0x20 ADD DUP3 DUP1 SLOAD PUSH2 0x21E6 SWAP1 PUSH2 0x4BDE JUMP JUMPDEST DUP1 ISZERO PUSH2 0x2233 JUMPI DUP1 PUSH1 0x1F LT PUSH2 0x2208 JUMPI PUSH2 0x100 DUP1 DUP4 SLOAD DIV MUL DUP4 MSTORE SWAP2 PUSH1 0x20 ADD SWAP2 PUSH2 0x2233 JUMP JUMPDEST DUP3 ADD SWAP2 SWAP1 PUSH1 0x0 MSTORE PUSH1 0x20 PUSH1 0x0 KECCAK256 SWAP1 JUMPDEST DUP2 SLOAD DUP2 MSTORE SWAP1 PUSH1 0x1 ADD SWAP1 PUSH1 0x20 ADD DUP1 DUP4 GT PUSH2 0x2216 JUMPI DUP3 SWAP1 SUB PUSH1 0x1F AND DUP3 ADD SWAP2 JUMPDEST POP POP POP POP POP PUSH2 0x2515 JUMP JUMPDEST PUSH2 0x227C JUMPI PUSH1 0x40 MLOAD PUSH32 0x8C379A000000000000000000000000000000000000000000000000000000000 DUP2 MSTORE PUSH1 0x4 ADD PUSH2 0x2273 SWAP1 PUSH2 0x5256 JUMP JUMPDEST PUSH1 0x40 MLOAD DUP1 SWAP2 SUB SWAP1 REVERT JUMPDEST PUSH1 0x0 PUSH1 0x7 PUSH1 0x0 DUP5 DUP2 MSTORE PUSH1 0x20 ADD SWAP1 DUP2 MSTORE PUSH1 0x20 ADD PUSH1 0x0 KECCAK256 PUSH1 0x9 PUSH1 0x40 MLOAD PUSH1 0x20 ADD PUSH2 0x22A4 SWAP3 SWAP2 SWAP1 PUSH2 0x5356 JUMP JUMPDEST PUSH1 0x40 MLOAD PUSH1 0x20 DUP2 DUP4 SUB SUB DUP2 MSTORE SWAP1 PUSH1 0x40 MSTORE SWAP1 POP PUSH1 0x0 PUSH2 0x22C0 DUP3 PUSH2 0x32E2 JUMP JUMPDEST SWAP1 POP PUSH1 0x0 PUSH2 0x22CD DUP3 PUSH2 0x3660 JUMP JUMPDEST SWAP1 POP PUSH1 0x60 PUSH2 0x2395 PUSH1 0x6 PUSH1 0x7 PUSH1 0x0 DUP10 DUP2 MSTORE PUSH1 0x20 ADD SWAP1 DUP2 MSTORE PUSH1 0x20 ADD PUSH1 0x0 KECCAK256 PUSH1 0x40 MLOAD PUSH2 0x22F6 SWAP2 SWAP1 PUSH2 0x5385 JUMP JUMPDEST SWAP1 DUP2 MSTORE PUSH1 0x20 ADD PUSH1 0x40 MLOAD DUP1 SWAP2 SUB SWAP1 KECCAK256 PUSH1 0x0 ADD DUP1 SLOAD PUSH2 0x2312 SWAP1 PUSH2 0x4BDE JUMP JUMPDEST DUP1 PUSH1 0x1F ADD PUSH1 0x20 DUP1 SWAP2 DIV MUL PUSH1 0x20 ADD PUSH1 0x40 MLOAD SWAP1 DUP2 ADD PUSH1 0x40 MSTORE DUP1 SWAP3 SWAP2 SWAP1 DUP2 DUP2 MSTORE PUSH1 0x20 ADD DUP3 DUP1 SLOAD PUSH2 0x233E SWAP1 PUSH2 0x4BDE JUMP JUMPDEST DUP1 ISZERO PUSH2 0x238B JUMPI DUP1 PUSH1 0x1F LT PUSH2 0x2360 JUMPI PUSH2 0x100 DUP1 DUP4 SLOAD DIV MUL DUP4 MSTORE SWAP2 PUSH1 0x20 ADD SWAP2 PUSH2 0x238B JUMP JUMPDEST DUP3 ADD SWAP2 SWAP1 PUSH1 0x0 MSTORE PUSH1 0x20 PUSH1 0x0 KECCAK256 SWAP1 JUMPDEST DUP2 SLOAD DUP2 MSTORE SWAP1 PUSH1 0x1 ADD SWAP1 PUSH1 0x20 ADD DUP1 DUP4 GT PUSH2 0x236E JUMPI DUP3 SWAP1 SUB PUSH1 0x1F AND DUP3 ADD SWAP2 JUMPDEST POP POP POP POP POP PUSH2 0x2515 JUMP JUMPDEST ISZERO PUSH2 0x245D JUMPI PUSH1 0x6 PUSH1 0x7 PUSH1 0x0 DUP9 DUP2 MSTORE PUSH1 0x20 ADD SWAP1 DUP2 MSTORE PUSH1 0x20 ADD PUSH1 0x0 KECCAK256 PUSH1 0x40 MLOAD PUSH2 0x23BC SWAP2 SWAP1 PUSH2 0x5385 JUMP JUMPDEST SWAP1 DUP2 MSTORE PUSH1 0x20 ADD PUSH1 0x40 MLOAD DUP1 SWAP2 SUB SWAP1 KECCAK256 PUSH1 0x0 ADD DUP1 SLOAD PUSH2 0x23D8 SWAP1 PUSH2 0x4BDE JUMP JUMPDEST DUP1 PUSH1 0x1F ADD PUSH1 0x20 DUP1 SWAP2 DIV MUL PUSH1 0x20 ADD PUSH1 0x40 MLOAD SWAP1 DUP2 ADD PUSH1 0x40 MSTORE DUP1 SWAP3 SWAP2 SWAP1 DUP2 DUP2 MSTORE PUSH1 0x20 ADD DUP3 DUP1 SLOAD PUSH2 0x2404 SWAP1 PUSH2 0x4BDE JUMP JUMPDEST DUP1 ISZERO PUSH2 0x2451 JUMPI DUP1 PUSH1 0x1F LT PUSH2 0x2426 JUMPI PUSH2 0x100 DUP1 DUP4 SLOAD DIV MUL DUP4 MSTORE SWAP2 PUSH1 0x20 ADD SWAP2 PUSH2 0x2451 JUMP JUMPDEST DUP3 ADD SWAP2 SWAP1 PUSH1 0x0 MSTORE PUSH1 0x20 PUSH1 0x0 KECCAK256 SWAP1 JUMPDEST DUP2 SLOAD DUP2 MSTORE SWAP1 PUSH1 0x1 ADD SWAP1 PUSH1 0x20 ADD DUP1 DUP4 GT PUSH2 0x2434 JUMPI DUP3 SWAP1 SUB PUSH1 0x1F AND DUP3 ADD SWAP2 JUMPDEST POP POP POP POP POP SWAP1 POP PUSH2 0x24B3 JUMP JUMPDEST PUSH1 0x0 PUSH1 0xF DUP6 PUSH1 0x10 PUSH1 0x40 MLOAD PUSH1 0x20 ADD PUSH2 0x2476 SWAP4 SWAP3 SWAP2 SWAP1 PUSH2 0x53CD JUMP JUMPDEST PUSH1 0x40 MLOAD PUSH1 0x20 DUP2 DUP4 SUB SUB DUP2 MSTORE SWAP1 PUSH1 0x40 MSTORE SWAP1 POP PUSH2 0x2490 DUP2 PUSH2 0x37C1 JUMP JUMPDEST PUSH1 0x40 MLOAD PUSH1 0x20 ADD PUSH2 0x24A0 SWAP2 SWAP1 PUSH2 0x544A JUMP JUMPDEST PUSH1 0x40 MLOAD PUSH1 0x20 DUP2 DUP4 SUB SUB DUP2 MSTORE SWAP1 PUSH1 0x40 MSTORE SWAP2 POP POP JUMPDEST PUSH1 0x0 PUSH2 0x24E1 DUP6 DUP4 DUP6 PUSH1 0x40 MLOAD PUSH1 0x20 ADD PUSH2 0x24CD SWAP4 SWAP3 SWAP2 SWAP1 PUSH2 0x55E8 JUMP JUMPDEST PUSH1 0x40 MLOAD PUSH1 0x20 DUP2 DUP4 SUB SUB DUP2 MSTORE SWAP1 PUSH1 0x40 MSTORE PUSH2 0x37C1 JUMP JUMPDEST SWAP1 POP DUP1 PUSH1 0x40 MLOAD PUSH1 0x20 ADD PUSH2 0x24F4 SWAP2 SWAP1 PUSH2 0x5691 JUMP JUMPDEST PUSH1 0x40 MLOAD PUSH1 0x20 DUP2 DUP4 SUB SUB DUP2 MSTORE SWAP1 PUSH1 0x40 MSTORE SWAP6 POP POP POP POP POP POP SWAP2 SWAP1 POP JUMP JUMPDEST PUSH1 0xD SLOAD DUP2 JUMP JUMPDEST PUSH1 0x0 DUP1 PUSH2 0x2521 DUP4 PUSH2 0x32E2 JUMP JUMPDEST EQ ISZERO SWAP1 POP SWAP2 SWAP1 POP JUMP JUMPDEST PUSH1 0x0 PUSH1 0x5 PUSH1 0x0 DUP5 PUSH20 0xFFFFFFFFFFFFFFFFFFFFFFFFFFFFFFFFFFFFFFFF AND PUSH20 0xFFFFFFFFFFFFFFFFFFFFFFFFFFFFFFFFFFFFFFFF AND DUP2 MSTORE PUSH1 0x20 ADD SWAP1 DUP2 MSTORE PUSH1 0x20 ADD PUSH1 0x0 KECCAK256 PUSH1 0x0 DUP4 PUSH20 0xFFFFFFFFFFFFFFFFFFFFFFFFFFFFFFFFFFFFFFFF AND PUSH20 0xFFFFFFFFFFFFFFFFFFFFFFFFFFFFFFFFFFFFFFFF AND DUP2 MSTORE PUSH1 0x20 ADD SWAP1 DUP2 MSTORE PUSH1 0x20 ADD PUSH1 0x0 KECCAK256 PUSH1 0x0 SWAP1 SLOAD SWAP1 PUSH2 0x100 EXP SWAP1 DIV PUSH1 0xFF AND SWAP1 POP SWAP3 SWAP2 POP POP JUMP JUMPDEST PUSH2 0x25C8 DUP12 DUP12 PUSH2 0x217B JUMP JUMPDEST PUSH20 0xFFFFFFFFFFFFFFFFFFFFFFFFFFFFFFFFFFFFFFFF AND CALLER PUSH20 0xFFFFFFFFFFFFFFFFFFFFFFFFFFFFFFFFFFFFFFFF AND EQ PUSH2 0x262C JUMPI PUSH1 0x40 MLOAD PUSH32 0x82B4290000000000000000000000000000000000000000000000000000000000 DUP2 MSTORE PUSH1 0x4 ADD PUSH1 0x40 MLOAD DUP1 SWAP2 SUB SWAP1 REVERT JUMPDEST DUP9 PUSH1 0x6 DUP13 DUP13 PUSH1 0x40 MLOAD PUSH2 0x263F SWAP3 SWAP2 SWAP1 PUSH2 0x4DF6 JUMP JUMPDEST SWAP1 DUP2 MSTORE PUSH1 0x20 ADD PUSH1 0x40 MLOAD DUP1 SWAP2 SUB SWAP1 KECCAK256 PUSH1 0x0 ADD SWAP1 DUP1 MLOAD SWAP1 PUSH1 0x20 ADD SWAP1 PUSH2 0x2663 SWAP3 SWAP2 SWAP1 PUSH2 0x3DA8 JUMP JUMPDEST POP DUP8 DUP8 PUSH1 0x6 DUP14 DUP14 PUSH1 0x40 MLOAD PUSH2 0x2678 SWAP3 SWAP2 SWAP1 PUSH2 0x4DF6 JUMP JUMPDEST SWAP1 DUP2 MSTORE PUSH1 0x20 ADD PUSH1 0x40 MLOAD DUP1 SWAP2 SUB SWAP1 KECCAK256 PUSH1 0x1 ADD SWAP2 SWAP1 PUSH2 0x2696 SWAP3 SWAP2 SWAP1 PUSH2 0x3D22 JUMP JUMPDEST POP DUP6 DUP6 PUSH1 0x6 DUP14 DUP14 PUSH1 0x40 MLOAD PUSH2 0x26AB SWAP3 SWAP2 SWAP1 PUSH2 0x4DF6 JUMP JUMPDEST SWAP1 DUP2 MSTORE PUSH1 0x20 ADD PUSH1 0x40 MLOAD DUP1 SWAP2 SUB SWAP1 KECCAK256 PUSH1 0x2 ADD SWAP2 SWAP1 PUSH2 0x26C9 SWAP3 SWAP2 SWAP1 PUSH2 0x3D22 JUMP JUMPDEST POP DUP4 DUP4 PUSH1 0x6 DUP14 DUP14 PUSH1 0x40 MLOAD PUSH2 0x26DE SWAP3 SWAP2 SWAP1 PUSH2 0x4DF6 JUMP JUMPDEST SWAP1 DUP2 MSTORE PUSH1 0x20 ADD PUSH1 0x40 MLOAD DUP1 SWAP2 SUB SWAP1 KECCAK256 PUSH1 0x3 ADD SWAP2 SWAP1 PUSH2 0x26FC SWAP3 SWAP2 SWAP1 PUSH2 0x3D22 JUMP JUMPDEST POP DUP2 DUP2 PUSH1 0x6 DUP14 DUP14 PUSH1 0x40 MLOAD PUSH2 0x2711 SWAP3 SWAP2 SWAP1 PUSH2 0x4DF6 JUMP JUMPDEST SWAP1 DUP2 MSTORE PUSH1 0x20 ADD PUSH1 0x40 MLOAD DUP1 SWAP2 SUB SWAP1 KECCAK256 PUSH1 0x4 ADD SWAP2 SWAP1 PUSH2 0x272F SWAP3 SWAP2 SWAP1 PUSH2 0x3D22 JUMP JUMPDEST POP POP POP POP POP POP POP POP POP POP POP POP JUMP JUMPDEST PUSH1 0x0 PUSH1 0x8 DUP4 DUP4 PUSH1 0x40 MLOAD PUSH2 0x2751 SWAP3 SWAP2 SWAP1 PUSH2 0x4DF6 JUMP JUMPDEST SWAP1 DUP2 MSTORE PUSH1 0x20 ADD PUSH1 0x40 MLOAD DUP1 SWAP2 SUB SWAP1 KECCAK256 SLOAD EQ PUSH2 0x2797 JUMPI PUSH1 0x40 MLOAD PUSH32 0x3A81D6FC00000000000000000000000000000000000000000000000000000000 DUP2 MSTORE PUSH1 0x4 ADD PUSH1 0x40 MLOAD DUP1 SWAP2 SUB SWAP1 REVERT JUMPDEST PUSH2 0x27A1 DUP3 DUP3 PUSH2 0x1FCC JUMP JUMPDEST PUSH2 0x27E4 JUMPI DUP2 DUP2 PUSH1 0x40 MLOAD PUSH32 0x7F19F48D00000000000000000000000000000000000000000000000000000000 DUP2 MSTORE PUSH1 0x4 ADD PUSH2 0x27DB SWAP3 SWAP2 SWAP1 PUSH2 0x4E3C JUMP JUMPDEST PUSH1 0x40 MLOAD DUP1 SWAP2 SUB SWAP1 REVERT JUMPDEST PUSH1 0x0 ADDRESS PUSH20 0xFFFFFFFFFFFFFFFFFFFFFFFFFFFFFFFFFFFFFFFF AND PUSH4 0xFE2C6198 DUP5 DUP5 PUSH1 0x40 MLOAD DUP4 PUSH4 0xFFFFFFFF AND PUSH1 0xE0 SHL DUP2 MSTORE PUSH1 0x4 ADD PUSH2 0x2821 SWAP3 SWAP2 SWAP1 PUSH2 0x4E3C JUMP JUMPDEST PUSH1 0x20 PUSH1 0x40 MLOAD DUP1 DUP4 SUB DUP2 DUP7 GAS STATICCALL ISZERO DUP1 ISZERO PUSH2 0x283E JUMPI RETURNDATASIZE PUSH1 0x0 DUP1 RETURNDATACOPY RETURNDATASIZE PUSH1 0x0 REVERT JUMPDEST POP POP POP POP PUSH1 0x40 MLOAD RETURNDATASIZE PUSH1 0x1F NOT PUSH1 0x1F DUP3 ADD AND DUP3 ADD DUP1 PUSH1 0x40 MSTORE POP DUP2 ADD SWAP1 PUSH2 0x2862 SWAP2 SWAP1 PUSH2 0x56C8 JUMP JUMPDEST SWAP1 POP PUSH1 0xA PUSH1 0x0 SWAP1 SLOAD SWAP1 PUSH2 0x100 EXP SWAP1 DIV PUSH20 0xFFFFFFFFFFFFFFFFFFFFFFFFFFFFFFFFFFFFFFFF AND PUSH20 0xFFFFFFFFFFFFFFFFFFFFFFFFFFFFFFFFFFFFFFFF AND CALLER PUSH20 0xFFFFFFFFFFFFFFFFFFFFFFFFFFFFFFFFFFFFFFFF AND EQ PUSH2 0x28FD JUMPI DUP1 CALLVALUE LT ISZERO PUSH2 0x28FC JUMPI PUSH1 0x40 MLOAD PUSH32 0x8C379A000000000000000000000000000000000000000000000000000000000 DUP2 MSTORE PUSH1 0x4 ADD PUSH2 0x28F3 SWAP1 PUSH2 0x5741 JUMP JUMPDEST PUSH1 0x40 MLOAD DUP1 SWAP2 SUB SWAP1 REVERT JUMPDEST JUMPDEST PUSH1 0x0 PUSH2 0x2909 PUSH1 0xB PUSH2 0x2F7C JUMP JUMPDEST SWAP1 POP PUSH2 0x2915 CALLER DUP3 PUSH2 0x2F8A JUMP JUMPDEST DUP4 DUP4 PUSH1 0x7 PUSH1 0x0 DUP5 DUP2 MSTORE PUSH1 0x20 ADD SWAP1 DUP2 MSTORE PUSH1 0x20 ADD PUSH1 0x0 KECCAK256 SWAP2 SWAP1 PUSH2 0x2937 SWAP3 SWAP2 SWAP1 PUSH2 0x3D22 JUMP JUMPDEST POP DUP1 PUSH1 0x8 DUP6 DUP6 PUSH1 0x40 MLOAD PUSH2 0x294B SWAP3 SWAP2 SWAP1 PUSH2 0x4DF6 JUMP JUMPDEST SWAP1 DUP2 MSTORE PUSH1 0x20 ADD PUSH1 0x40 MLOAD DUP1 SWAP2 SUB SWAP1 KECCAK256 DUP2 SWAP1 SSTORE POP PUSH2 0x2967 PUSH1 0xB PUSH2 0x2DCF JUMP JUMPDEST POP POP POP POP JUMP JUMPDEST PUSH2 0x2977 DUP6 DUP6 PUSH2 0x217B JUMP JUMPDEST PUSH20 0xFFFFFFFFFFFFFFFFFFFFFFFFFFFFFFFFFFFFFFFF AND CALLER PUSH20 0xFFFFFFFFFFFFFFFFFFFFFFFFFFFFFFFFFFFFFFFF AND EQ PUSH2 0x29DB JUMPI PUSH1 0x40 MLOAD PUSH32 0x82B4290000000000000000000000000000000000000000000000000000000000 DUP2 MSTORE PUSH1 0x4 ADD PUSH1 0x40 MLOAD DUP1 SWAP2 SUB SWAP1 REVERT JUMPDEST PUSH1 0x0 PUSH1 0x4 DUP2 GT ISZERO PUSH2 0x29EF JUMPI PUSH2 0x29EE PUSH2 0x516F JUMP JUMPDEST JUMPDEST DUP2 PUSH1 0x4 DUP2 GT ISZERO PUSH2 0x2A02 JUMPI PUSH2 0x2A01 PUSH2 0x516F JUMP JUMPDEST JUMPDEST EQ ISZERO PUSH2 0x2A40 JUMPI DUP3 DUP3 PUSH1 0x6 DUP8 DUP8 PUSH1 0x40 MLOAD PUSH2 0x2A1C SWAP3 SWAP2 SWAP1 PUSH2 0x4DF6 JUMP JUMPDEST SWAP1 DUP2 MSTORE PUSH1 0x20 ADD PUSH1 0x40 MLOAD DUP1 SWAP2 SUB SWAP1 KECCAK256 PUSH1 0x0 ADD SWAP2 SWAP1 PUSH2 0x2A3A SWAP3 SWAP2 SWAP1 PUSH2 0x3D22 JUMP JUMPDEST POP PUSH2 0x2BD3 JUMP JUMPDEST PUSH1 0x1 PUSH1 0x4 DUP2 GT ISZERO PUSH2 0x2A54 JUMPI PUSH2 0x2A53 PUSH2 0x516F JUMP JUMPDEST JUMPDEST DUP2 PUSH1 0x4 DUP2 GT ISZERO PUSH2 0x2A67 JUMPI PUSH2 0x2A66 PUSH2 0x516F JUMP JUMPDEST JUMPDEST EQ ISZERO PUSH2 0x2AA5 JUMPI DUP3 DUP3 PUSH1 0x6 DUP8 DUP8 PUSH1 0x40 MLOAD PUSH2 0x2A81 SWAP3 SWAP2 SWAP1 PUSH2 0x4DF6 JUMP JUMPDEST SWAP1 DUP2 MSTORE PUSH1 0x20 ADD PUSH1 0x40 MLOAD DUP1 SWAP2 SUB SWAP1 KECCAK256 PUSH1 0x1 ADD SWAP2 SWAP1 PUSH2 0x2A9F SWAP3 SWAP2 SWAP1 PUSH2 0x3D22 JUMP JUMPDEST POP PUSH2 0x2BD2 JUMP JUMPDEST PUSH1 0x2 PUSH1 0x4 DUP2 GT ISZERO PUSH2 0x2AB9 JUMPI PUSH2 0x2AB8 PUSH2 0x516F JUMP JUMPDEST JUMPDEST DUP2 PUSH1 0x4 DUP2 GT ISZERO PUSH2 0x2ACC JUMPI PUSH2 0x2ACB PUSH2 0x516F JUMP JUMPDEST JUMPDEST EQ ISZERO PUSH2 0x2B0A JUMPI DUP3 DUP3 PUSH1 0x6 DUP8 DUP8 PUSH1 0x40 MLOAD PUSH2 0x2AE6 SWAP3 SWAP2 SWAP1 PUSH2 0x4DF6 JUMP JUMPDEST SWAP1 DUP2 MSTORE PUSH1 0x20 ADD PUSH1 0x40 MLOAD DUP1 SWAP2 SUB SWAP1 KECCAK256 PUSH1 0x2 ADD SWAP2 SWAP1 PUSH2 0x2B04 SWAP3 SWAP2 SWAP1 PUSH2 0x3D22 JUMP JUMPDEST POP PUSH2 0x2BD1 JUMP JUMPDEST PUSH1 0x3 PUSH1 0x4 DUP2 GT ISZERO PUSH2 0x2B1E JUMPI PUSH2 0x2B1D PUSH2 0x516F JUMP JUMPDEST JUMPDEST DUP2 PUSH1 0x4 DUP2 GT ISZERO PUSH2 0x2B31 JUMPI PUSH2 0x2B30 PUSH2 0x516F JUMP JUMPDEST JUMPDEST EQ ISZERO PUSH2 0x2B6F JUMPI DUP3 DUP3 PUSH1 0x6 DUP8 DUP8 PUSH1 0x40 MLOAD PUSH2 0x2B4B SWAP3 SWAP2 SWAP1 PUSH2 0x4DF6 JUMP JUMPDEST SWAP1 DUP2 MSTORE PUSH1 0x20 ADD PUSH1 0x40 MLOAD DUP1 SWAP2 SUB SWAP1 KECCAK256 PUSH1 0x3 ADD SWAP2 SWAP1 PUSH2 0x2B69 SWAP3 SWAP2 SWAP1 PUSH2 0x3D22 JUMP JUMPDEST POP PUSH2 0x2BD0 JUMP JUMPDEST PUSH1 0x4 DUP1 DUP2 GT ISZERO PUSH2 0x2B82 JUMPI PUSH2 0x2B81 PUSH2 0x516F JUMP JUMPDEST JUMPDEST DUP2 PUSH1 0x4 DUP2 GT ISZERO PUSH2 0x2B95 JUMPI PUSH2 0x2B94 PUSH2 0x516F JUMP JUMPDEST JUMPDEST EQ ISZERO PUSH2 0x2BCF JUMPI DUP3 DUP3 PUSH1 0x6 DUP8 DUP8 PUSH1 0x40 MLOAD PUSH2 0x2BAF SWAP3 SWAP2 SWAP1 PUSH2 0x4DF6 JUMP JUMPDEST SWAP1 DUP2 MSTORE PUSH1 0x20 ADD PUSH1 0x40 MLOAD DUP1 SWAP2 SUB SWAP1 KECCAK256 PUSH1 0x4 ADD SWAP2 SWAP1 PUSH2 0x2BCD SWAP3 SWAP2 SWAP1 PUSH2 0x3D22 JUMP JUMPDEST POP JUMPDEST JUMPDEST JUMPDEST JUMPDEST JUMPDEST POP POP POP POP POP JUMP JUMPDEST PUSH1 0x60 PUSH1 0x0 PUSH1 0x1 PUSH2 0x2BEA PUSH1 0xB PUSH2 0x2F7C JUMP JUMPDEST PUSH2 0x2BF4 SWAP2 SWAP1 PUSH2 0x5761 JUMP JUMPDEST PUSH8 0xFFFFFFFFFFFFFFFF DUP2 GT ISZERO PUSH2 0x2C0D JUMPI PUSH2 0x2C0C PUSH2 0x4354 JUMP JUMPDEST JUMPDEST PUSH1 0x40 MLOAD SWAP1 DUP1 DUP3 MSTORE DUP1 PUSH1 0x20 MUL PUSH1 0x20 ADD DUP3 ADD PUSH1 0x40 MSTORE DUP1 ISZERO PUSH2 0x2C40 JUMPI DUP2 PUSH1 0x20 ADD JUMPDEST PUSH1 0x60 DUP2 MSTORE PUSH1 0x20 ADD SWAP1 PUSH1 0x1 SWAP1 SUB SWAP1 DUP2 PUSH2 0x2C2B JUMPI SWAP1 POP JUMPDEST POP SWAP1 POP PUSH1 0x0 PUSH1 0x1 SWAP1 POP JUMPDEST PUSH2 0x2C54 PUSH1 0xB PUSH2 0x2F7C JUMP JUMPDEST DUP2 LT ISZERO PUSH2 0x2D34 JUMPI PUSH1 0x7 PUSH1 0x0 DUP3 DUP2 MSTORE PUSH1 0x20 ADD SWAP1 DUP2 MSTORE PUSH1 0x20 ADD PUSH1 0x0 KECCAK256 DUP1 SLOAD PUSH2 0x2C79 SWAP1 PUSH2 0x4BDE JUMP JUMPDEST DUP1 PUSH1 0x1F ADD PUSH1 0x20 DUP1 SWAP2 DIV MUL PUSH1 0x20 ADD PUSH1 0x40 MLOAD SWAP1 DUP2 ADD PUSH1 0x40 MSTORE DUP1 SWAP3 SWAP2 SWAP1 DUP2 DUP2 MSTORE PUSH1 0x20 ADD DUP3 DUP1 SLOAD PUSH2 0x2CA5 SWAP1 PUSH2 0x4BDE JUMP JUMPDEST DUP1 ISZERO PUSH2 0x2CF2 JUMPI DUP1 PUSH1 0x1F LT PUSH2 0x2CC7 JUMPI PUSH2 0x100 DUP1 DUP4 SLOAD DIV MUL DUP4 MSTORE SWAP2 PUSH1 0x20 ADD SWAP2 PUSH2 0x2CF2 JUMP JUMPDEST DUP3 ADD SWAP2 SWAP1 PUSH1 0x0 MSTORE PUSH1 0x20 PUSH1 0x0 KECCAK256 SWAP1 JUMPDEST DUP2 SLOAD DUP2 MSTORE SWAP1 PUSH1 0x1 ADD SWAP1 PUSH1 0x20 ADD DUP1 DUP4 GT PUSH2 0x2CD5 JUMPI DUP3 SWAP1 SUB PUSH1 0x1F AND DUP3 ADD SWAP2 JUMPDEST POP POP POP POP POP DUP3 PUSH1 0x1 DUP4 PUSH2 0x2D05 SWAP2 SWAP1 PUSH2 0x5761 JUMP JUMPDEST DUP2 MLOAD DUP2 LT PUSH2 0x2D16 JUMPI PUSH2 0x2D15 PUSH2 0x4FA4 JUMP JUMPDEST JUMPDEST PUSH1 0x20 MUL PUSH1 0x20 ADD ADD DUP2 SWAP1 MSTORE POP DUP1 DUP1 PUSH2 0x2D2C SWAP1 PUSH2 0x5002 JUMP JUMPDEST SWAP2 POP POP PUSH2 0x2C4A JUMP JUMPDEST POP DUP1 SWAP2 POP POP SWAP1 JUMP JUMPDEST PUSH1 0x0 DUP1 PUSH2 0x2D8C DUP5 DUP5 DUP1 DUP1 PUSH1 0x1F ADD PUSH1 0x20 DUP1 SWAP2 DIV MUL PUSH1 0x20 ADD PUSH1 0x40 MLOAD SWAP1 DUP2 ADD PUSH1 0x40 MSTORE DUP1 SWAP4 SWAP3 SWAP2 SWAP1 DUP2 DUP2 MSTORE PUSH1 0x20 ADD DUP4 DUP4 DUP1 DUP3 DUP5 CALLDATACOPY PUSH1 0x0 DUP2 DUP5 ADD MSTORE PUSH1 0x1F NOT PUSH1 0x1F DUP3 ADD AND SWAP1 POP DUP1 DUP4 ADD SWAP3 POP POP POP POP POP POP POP PUSH2 0x32E2 JUMP JUMPDEST SWAP1 POP PUSH1 0x0 DUP2 GT PUSH2 0x2D9B JUMPI PUSH1 0x0 DUP1 REVERT JUMPDEST PUSH1 0x3 DUP2 EQ ISZERO PUSH2 0x2DAF JUMPI PUSH1 0xC SLOAD SWAP2 POP POP PUSH2 0x2DC9 JUMP JUMPDEST PUSH1 0x6 DUP2 GT PUSH2 0x2DC2 JUMPI PUSH1 0xD SLOAD SWAP2 POP POP PUSH2 0x2DC9 JUMP JUMPDEST PUSH1 0xE SLOAD SWAP2 POP POP JUMPDEST SWAP3 SWAP2 POP POP JUMP JUMPDEST PUSH1 0x1 DUP2 PUSH1 0x0 ADD PUSH1 0x0 DUP3 DUP3 SLOAD ADD SWAP3 POP POP DUP2 SWAP1 SSTORE POP POP JUMP JUMPDEST PUSH1 0x0 PUSH32 0x1FFC9A700000000000000000000000000000000000000000000000000000000 PUSH28 0xFFFFFFFFFFFFFFFFFFFFFFFFFFFFFFFFFFFFFFFFFFFFFFFFFFFFFFFF NOT AND DUP3 PUSH28 0xFFFFFFFFFFFFFFFFFFFFFFFFFFFFFFFFFFFFFFFFFFFFFFFFFFFFFFFF NOT AND EQ SWAP1 POP SWAP2 SWAP1 POP JUMP JUMPDEST PUSH1 0x0 DUP1 PUSH20 0xFFFFFFFFFFFFFFFFFFFFFFFFFFFFFFFFFFFFFFFF AND PUSH1 0x2 PUSH1 0x0 DUP5 DUP2 MSTORE PUSH1 0x20 ADD SWAP1 DUP2 MSTORE PUSH1 0x20 ADD PUSH1 0x0 KECCAK256 PUSH1 0x0 SWAP1 SLOAD SWAP1 PUSH2 0x100 EXP SWAP1 DIV PUSH20 0xFFFFFFFFFFFFFFFFFFFFFFFFFFFFFFFFFFFFFFFF AND PUSH20 0xFFFFFFFFFFFFFFFFFFFFFFFFFFFFFFFFFFFFFFFF AND EQ ISZERO SWAP1 POP SWAP2 SWAP1 POP JUMP JUMPDEST PUSH1 0x0 CALLER SWAP1 POP SWAP1 JUMP JUMPDEST DUP2 PUSH1 0x4 PUSH1 0x0 DUP4 DUP2 MSTORE PUSH1 0x20 ADD SWAP1 DUP2 MSTORE PUSH1 0x20 ADD PUSH1 0x0 KECCAK256 PUSH1 0x0 PUSH2 0x100 EXP DUP2 SLOAD DUP2 PUSH20 0xFFFFFFFFFFFFFFFFFFFFFFFFFFFFFFFFFFFFFFFF MUL NOT AND SWAP1 DUP4 PUSH20 0xFFFFFFFFFFFFFFFFFFFFFFFFFFFFFFFFFFFFFFFF AND MUL OR SWAP1 SSTORE POP DUP1 DUP3 PUSH20 0xFFFFFFFFFFFFFFFFFFFFFFFFFFFFFFFFFFFFFFFF AND PUSH2 0x2F36 DUP4 PUSH2 0x1411 JUMP JUMPDEST PUSH20 0xFFFFFFFFFFFFFFFFFFFFFFFFFFFFFFFFFFFFFFFF AND PUSH32 0x8C5BE1E5EBEC7D5BD14F71427D1E84F3DD0314C0F7B2291E5B200AC8C7C3B925 PUSH1 0x40 MLOAD PUSH1 0x40 MLOAD DUP1 SWAP2 SUB SWAP1 LOG4 POP POP JUMP JUMPDEST PUSH1 0x0 DUP2 PUSH1 0x0 ADD SLOAD SWAP1 POP SWAP2 SWAP1 POP JUMP JUMPDEST PUSH2 0x2FA4 DUP3 DUP3 PUSH1 0x40 MLOAD DUP1 PUSH1 0x20 ADD PUSH1 0x40 MSTORE DUP1 PUSH1 0x0 DUP2 MSTORE POP PUSH2 0x3959 JUMP JUMPDEST POP POP JUMP JUMPDEST PUSH1 0x0 PUSH2 0x2FB3 DUP3 PUSH2 0x2E4F JUMP JUMPDEST PUSH2 0x2FF2 JUMPI PUSH1 0x40 MLOAD PUSH32 0x8C379A000000000000000000000000000000000000000000000000000000000 DUP2 MSTORE PUSH1 0x4 ADD PUSH2 0x2FE9 SWAP1 PUSH2 0x5807 JUMP JUMPDEST PUSH1 0x40 MLOAD DUP1 SWAP2 SUB SWAP1 REVERT JUMPDEST PUSH1 0x0 PUSH2 0x2FFD DUP4 PUSH2 0x1411 JUMP JUMPDEST SWAP1 POP DUP1 PUSH20 0xFFFFFFFFFFFFFFFFFFFFFFFFFFFFFFFFFFFFFFFF AND DUP5 PUSH20 0xFFFFFFFFFFFFFFFFFFFFFFFFFFFFFFFFFFFFFFFF AND EQ DUP1 PUSH2 0x306C JUMPI POP DUP4 PUSH20 0xFFFFFFFFFFFFFFFFFFFFFFFFFFFFFFFFFFFFFFFF AND PUSH2 0x3054 DUP5 PUSH2 0xACC JUMP JUMPDEST PUSH20 0xFFFFFFFFFFFFFFFFFFFFFFFFFFFFFFFFFFFFFFFF AND EQ JUMPDEST DUP1 PUSH2 0x307D JUMPI POP PUSH2 0x307C DUP2 DUP6 PUSH2 0x252A JUMP JUMPDEST JUMPDEST SWAP2 POP POP SWAP3 SWAP2 POP POP JUMP JUMPDEST DUP3 PUSH20 0xFFFFFFFFFFFFFFFFFFFFFFFFFFFFFFFFFFFFFFFF AND PUSH2 0x30A6 DUP3 PUSH2 0x1411 JUMP JUMPDEST PUSH20 0xFFFFFFFFFFFFFFFFFFFFFFFFFFFFFFFFFFFFFFFF AND EQ PUSH2 0x30FC JUMPI PUSH1 0x40 MLOAD PUSH32 0x8C379A000000000000000000000000000000000000000000000000000000000 DUP2 MSTORE PUSH1 0x4 ADD PUSH2 0x30F3 SWAP1 PUSH2 0x5899 JUMP JUMPDEST PUSH1 0x40 MLOAD DUP1 SWAP2 SUB SWAP1 REVERT JUMPDEST PUSH1 0x0 PUSH20 0xFFFFFFFFFFFFFFFFFFFFFFFFFFFFFFFFFFFFFFFF AND DUP3 PUSH20 0xFFFFFFFFFFFFFFFFFFFFFFFFFFFFFFFFFFFFFFFF AND EQ ISZERO PUSH2 0x316C JUMPI PUSH1 0x40 MLOAD PUSH32 0x8C379A000000000000000000000000000000000000000000000000000000000 DUP2 MSTORE PUSH1 0x4 ADD PUSH2 0x3163 SWAP1 PUSH2 0x592B JUMP JUMPDEST PUSH1 0x40 MLOAD DUP1 SWAP2 SUB SWAP1 REVERT JUMPDEST PUSH2 0x3177 DUP4 DUP4 DUP4 PUSH2 0x39B4 JUMP JUMPDEST PUSH2 0x3182 PUSH1 0x0 DUP3 PUSH2 0x2EC3 JUMP JUMPDEST PUSH1 0x1 PUSH1 0x3 PUSH1 0x0 DUP6 PUSH20 0xFFFFFFFFFFFFFFFFFFFFFFFFFFFFFFFFFFFFFFFF AND PUSH20 0xFFFFFFFFFFFFFFFFFFFFFFFFFFFFFFFFFFFFFFFF AND DUP2 MSTORE PUSH1 0x20 ADD SWAP1 DUP2 MSTORE PUSH1 0x20 ADD PUSH1 0x0 KECCAK256 PUSH1 0x0 DUP3 DUP3 SLOAD PUSH2 0x31D2 SWAP2 SWAP1 PUSH2 0x5761 JUMP JUMPDEST SWAP3 POP POP DUP2 SWAP1 SSTORE POP PUSH1 0x1 PUSH1 0x3 PUSH1 0x0 DUP5 PUSH20 0xFFFFFFFFFFFFFFFFFFFFFFFFFFFFFFFFFFFFFFFF AND PUSH20 0xFFFFFFFFFFFFFFFFFFFFFFFFFFFFFFFFFFFFFFFF AND DUP2 MSTORE PUSH1 0x20 ADD SWAP1 DUP2 MSTORE PUSH1 0x20 ADD PUSH1 0x0 KECCAK256 PUSH1 0x0 DUP3 DUP3 SLOAD PUSH2 0x3229 SWAP2 SWAP1 PUSH2 0x594B JUMP JUMPDEST SWAP3 POP POP DUP2 SWAP1 SSTORE POP DUP2 PUSH1 0x2 PUSH1 0x0 DUP4 DUP2 MSTORE PUSH1 0x20 ADD SWAP1 DUP2 MSTORE PUSH1 0x20 ADD PUSH1 0x0 KECCAK256 PUSH1 0x0 PUSH2 0x100 EXP DUP2 SLOAD DUP2 PUSH20 0xFFFFFFFFFFFFFFFFFFFFFFFFFFFFFFFFFFFFFFFF MUL NOT AND SWAP1 DUP4 PUSH20 0xFFFFFFFFFFFFFFFFFFFFFFFFFFFFFFFFFFFFFFFF AND MUL OR SWAP1 SSTORE POP DUP1 DUP3 PUSH20 0xFFFFFFFFFFFFFFFFFFFFFFFFFFFFFFFFFFFFFFFF AND DUP5 PUSH20 0xFFFFFFFFFFFFFFFFFFFFFFFFFFFFFFFFFFFFFFFF AND PUSH32 0xDDF252AD1BE2C89B69C2B068FC378DAA952BA7F163C4A11628F55A4DF523B3EF PUSH1 0x40 MLOAD PUSH1 0x40 MLOAD DUP1 SWAP2 SUB SWAP1 LOG4 POP POP POP JUMP JUMPDEST PUSH1 0x0 DUP1 PUSH1 0x0 DUP1 DUP5 MLOAD SWAP1 POP PUSH1 0x0 SWAP3 POP JUMPDEST DUP1 DUP3 LT ISZERO PUSH2 0x348C JUMPI PUSH1 0x0 DUP6 DUP4 DUP2 MLOAD DUP2 LT PUSH2 0x330E JUMPI PUSH2 0x330D PUSH2 0x4FA4 JUMP JUMPDEST JUMPDEST PUSH1 0x20 ADD ADD MLOAD PUSH1 0xF8 SHR PUSH1 0xF8 SHL SWAP1 POP PUSH1 0x80 PUSH1 0xF8 SHL DUP2 PUSH31 0xFFFFFFFFFFFFFFFFFFFFFFFFFFFFFFFFFFFFFFFFFFFFFFFFFFFFFFFFFFFFFF NOT AND LT ISZERO PUSH2 0x335D JUMPI PUSH1 0x1 DUP4 PUSH2 0x3356 SWAP2 SWAP1 PUSH2 0x594B JUMP JUMPDEST SWAP3 POP PUSH2 0x3478 JUMP JUMPDEST PUSH1 0xE0 PUSH1 0xF8 SHL DUP2 PUSH31 0xFFFFFFFFFFFFFFFFFFFFFFFFFFFFFFFFFFFFFFFFFFFFFFFFFFFFFFFFFFFFFF NOT AND LT ISZERO PUSH2 0x339F JUMPI PUSH1 0x2 DUP4 PUSH2 0x3398 SWAP2 SWAP1 PUSH2 0x594B JUMP JUMPDEST SWAP3 POP PUSH2 0x3477 JUMP JUMPDEST PUSH1 0xF0 PUSH1 0xF8 SHL DUP2 PUSH31 0xFFFFFFFFFFFFFFFFFFFFFFFFFFFFFFFFFFFFFFFFFFFFFFFFFFFFFFFFFFFFFF NOT AND LT ISZERO PUSH2 0x33E1 JUMPI PUSH1 0x3 DUP4 PUSH2 0x33DA SWAP2 SWAP1 PUSH2 0x594B JUMP JUMPDEST SWAP3 POP PUSH2 0x3476 JUMP JUMPDEST PUSH1 0xF8 DUP1 SHL DUP2 PUSH31 0xFFFFFFFFFFFFFFFFFFFFFFFFFFFFFFFFFFFFFFFFFFFFFFFFFFFFFFFFFFFFFF NOT AND LT ISZERO PUSH2 0x3422 JUMPI PUSH1 0x4 DUP4 PUSH2 0x341B SWAP2 SWAP1 PUSH2 0x594B JUMP JUMPDEST SWAP3 POP PUSH2 0x3475 JUMP JUMPDEST PUSH1 0xFC PUSH1 0xF8 SHL DUP2 PUSH31 0xFFFFFFFFFFFFFFFFFFFFFFFFFFFFFFFFFFFFFFFFFFFFFFFFFFFFFFFFFFFFFF NOT AND LT ISZERO PUSH2 0x3464 JUMPI PUSH1 0x5 DUP4 PUSH2 0x345D SWAP2 SWAP1 PUSH2 0x594B JUMP JUMPDEST SWAP3 POP PUSH2 0x3474 JUMP JUMPDEST PUSH1 0x6 DUP4 PUSH2 0x3471 SWAP2 SWAP1 PUSH2 0x594B JUMP JUMPDEST SWAP3 POP JUMPDEST JUMPDEST JUMPDEST JUMPDEST JUMPDEST POP DUP3 DUP1 PUSH2 0x3484 SWAP1 PUSH2 0x5002 JUMP JUMPDEST SWAP4 POP POP PUSH2 0x32F1 JUMP JUMPDEST DUP3 SWAP4 POP POP POP POP SWAP2 SWAP1 POP JUMP JUMPDEST DUP2 PUSH20 0xFFFFFFFFFFFFFFFFFFFFFFFFFFFFFFFFFFFFFFFF AND DUP4 PUSH20 0xFFFFFFFFFFFFFFFFFFFFFFFFFFFFFFFFFFFFFFFF AND EQ ISZERO PUSH2 0x3506 JUMPI PUSH1 0x40 MLOAD PUSH32 0x8C379A000000000000000000000000000000000000000000000000000000000 DUP2 MSTORE PUSH1 0x4 ADD PUSH2 0x34FD SWAP1 PUSH2 0x59ED JUMP JUMPDEST PUSH1 0x40 MLOAD DUP1 SWAP2 SUB SWAP1 REVERT JUMPDEST DUP1 PUSH1 0x5 PUSH1 0x0 DUP6 PUSH20 0xFFFFFFFFFFFFFFFFFFFFFFFFFFFFFFFFFFFFFFFF AND PUSH20 0xFFFFFFFFFFFFFFFFFFFFFFFFFFFFFFFFFFFFFFFF AND DUP2 MSTORE PUSH1 0x20 ADD SWAP1 DUP2 MSTORE PUSH1 0x20 ADD PUSH1 0x0 KECCAK256 PUSH1 0x0 DUP5 PUSH20 0xFFFFFFFFFFFFFFFFFFFFFFFFFFFFFFFFFFFFFFFF AND PUSH20 0xFFFFFFFFFFFFFFFFFFFFFFFFFFFFFFFFFFFFFFFF AND DUP2 MSTORE PUSH1 0x20 ADD SWAP1 DUP2 MSTORE PUSH1 0x20 ADD PUSH1 0x0 KECCAK256 PUSH1 0x0 PUSH2 0x100 EXP DUP2 SLOAD DUP2 PUSH1 0xFF MUL NOT AND SWAP1 DUP4 ISZERO ISZERO MUL OR SWAP1 SSTORE POP DUP2 PUSH20 0xFFFFFFFFFFFFFFFFFFFFFFFFFFFFFFFFFFFFFFFF AND DUP4 PUSH20 0xFFFFFFFFFFFFFFFFFFFFFFFFFFFFFFFFFFFFFFFF AND PUSH32 0x17307EAB39AB6107E8899845AD3D59BD9653F200F220920489CA2B5937696C31 DUP4 PUSH1 0x40 MLOAD PUSH2 0x35F7 SWAP2 SWAP1 PUSH2 0x3EFF JUMP JUMPDEST PUSH1 0x40 MLOAD DUP1 SWAP2 SUB SWAP1 LOG3 POP POP POP JUMP JUMPDEST PUSH2 0x360F DUP5 DUP5 DUP5 PUSH2 0x3086 JUMP JUMPDEST PUSH2 0x361B DUP5 DUP5 DUP5 DUP5 PUSH2 0x39B9 JUMP JUMPDEST PUSH2 0x365A JUMPI PUSH1 0x40 MLOAD PUSH32 0x8C379A000000000000000000000000000000000000000000000000000000000 DUP2 MSTORE PUSH1 0x4 ADD PUSH2 0x3651 SWAP1 PUSH2 0x5A7F JUMP JUMPDEST PUSH1 0x40 MLOAD DUP1 SWAP2 SUB SWAP1 REVERT JUMPDEST POP POP POP POP JUMP JUMPDEST PUSH1 0x60 PUSH1 0x0 DUP3 EQ ISZERO PUSH2 0x36A8 JUMPI PUSH1 0x40 MLOAD DUP1 PUSH1 0x40 ADD PUSH1 0x40 MSTORE DUP1 PUSH1 0x1 DUP2 MSTORE PUSH1 0x20 ADD PUSH32 0x3000000000000000000000000000000000000000000000000000000000000000 DUP2 MSTORE POP SWAP1 POP PUSH2 0x37BC JUMP JUMPDEST PUSH1 0x0 DUP3 SWAP1 POP PUSH1 0x0 JUMPDEST PUSH1 0x0 DUP3 EQ PUSH2 0x36DA JUMPI DUP1 DUP1 PUSH2 0x36C3 SWAP1 PUSH2 0x5002 JUMP JUMPDEST SWAP2 POP POP PUSH1 0xA DUP3 PUSH2 0x36D3 SWAP2 SWAP1 PUSH2 0x5ACE JUMP JUMPDEST SWAP2 POP PUSH2 0x36B0 JUMP JUMPDEST PUSH1 0x0 DUP2 PUSH8 0xFFFFFFFFFFFFFFFF DUP2 GT ISZERO PUSH2 0x36F6 JUMPI PUSH2 0x36F5 PUSH2 0x4354 JUMP JUMPDEST JUMPDEST PUSH1 0x40 MLOAD SWAP1 DUP1 DUP3 MSTORE DUP1 PUSH1 0x1F ADD PUSH1 0x1F NOT AND PUSH1 0x20 ADD DUP3 ADD PUSH1 0x40 MSTORE DUP1 ISZERO PUSH2 0x3728 JUMPI DUP2 PUSH1 0x20 ADD PUSH1 0x1 DUP3 MUL DUP1 CALLDATASIZE DUP4 CALLDATACOPY DUP1 DUP3 ADD SWAP2 POP POP SWAP1 POP JUMPDEST POP SWAP1 POP JUMPDEST PUSH1 0x0 DUP6 EQ PUSH2 0x37B5 JUMPI PUSH1 0x1 DUP3 PUSH2 0x3741 SWAP2 SWAP1 PUSH2 0x5761 JUMP JUMPDEST SWAP2 POP PUSH1 0xA DUP6 PUSH2 0x3750 SWAP2 SWAP1 PUSH2 0x5AFF JUMP JUMPDEST PUSH1 0x30 PUSH2 0x375C SWAP2 SWAP1 PUSH2 0x594B JUMP JUMPDEST PUSH1 0xF8 SHL DUP2 DUP4 DUP2 MLOAD DUP2 LT PUSH2 0x3772 JUMPI PUSH2 0x3771 PUSH2 0x4FA4 JUMP JUMPDEST JUMPDEST PUSH1 0x20 ADD ADD SWAP1 PUSH31 0xFFFFFFFFFFFFFFFFFFFFFFFFFFFFFFFFFFFFFFFFFFFFFFFFFFFFFFFFFFFFFF NOT AND SWAP1 DUP2 PUSH1 0x0 BYTE SWAP1 MSTORE8 POP PUSH1 0xA DUP6 PUSH2 0x37AE SWAP2 SWAP1 PUSH2 0x5ACE JUMP JUMPDEST SWAP5 POP PUSH2 0x372C JUMP JUMPDEST DUP1 SWAP4 POP POP POP POP JUMPDEST SWAP2 SWAP1 POP JUMP JUMPDEST PUSH1 0x60 PUSH1 0x0 DUP3 MLOAD SWAP1 POP PUSH1 0x0 DUP2 EQ ISZERO PUSH2 0x37EA JUMPI PUSH1 0x40 MLOAD DUP1 PUSH1 0x20 ADD PUSH1 0x40 MSTORE DUP1 PUSH1 0x0 DUP2 MSTORE POP SWAP2 POP POP PUSH2 0x3954 JUMP JUMPDEST PUSH1 0x0 PUSH1 0x3 PUSH1 0x2 DUP4 PUSH2 0x37FB SWAP2 SWAP1 PUSH2 0x594B JUMP JUMPDEST PUSH2 0x3805 SWAP2 SWAP1 PUSH2 0x5ACE JUMP JUMPDEST PUSH1 0x4 PUSH2 0x3811 SWAP2 SWAP1 PUSH2 0x5B30 JUMP JUMPDEST SWAP1 POP PUSH1 0x0 PUSH1 0x20 DUP3 PUSH2 0x3822 SWAP2 SWAP1 PUSH2 0x594B JUMP JUMPDEST PUSH8 0xFFFFFFFFFFFFFFFF DUP2 GT ISZERO PUSH2 0x383B JUMPI PUSH2 0x383A PUSH2 0x4354 JUMP JUMPDEST JUMPDEST PUSH1 0x40 MLOAD SWAP1 DUP1 DUP3 MSTORE DUP1 PUSH1 0x1F ADD PUSH1 0x1F NOT AND PUSH1 0x20 ADD DUP3 ADD PUSH1 0x40 MSTORE DUP1 ISZERO PUSH2 0x386D JUMPI DUP2 PUSH1 0x20 ADD PUSH1 0x1 DUP3 MUL DUP1 CALLDATASIZE DUP4 CALLDATACOPY DUP1 DUP3 ADD SWAP2 POP POP SWAP1 POP JUMPDEST POP SWAP1 POP PUSH1 0x0 PUSH1 0x40 MLOAD DUP1 PUSH1 0x60 ADD PUSH1 0x40 MSTORE DUP1 PUSH1 0x40 DUP2 MSTORE PUSH1 0x20 ADD PUSH2 0x5D46 PUSH1 0x40 SWAP2 CODECOPY SWAP1 POP PUSH1 0x1 DUP2 ADD PUSH1 0x20 DUP4 ADD PUSH1 0x0 JUMPDEST DUP7 DUP2 LT ISZERO PUSH2 0x3911 JUMPI PUSH1 0x3 DUP2 ADD SWAP1 POP PUSH3 0xFFFFFF DUP2 DUP11 ADD MLOAD AND PUSH1 0x3F DUP2 PUSH1 0x12 SHR AND DUP5 ADD MLOAD DUP1 PUSH1 0x8 SHL SWAP1 POP PUSH1 0xFF PUSH1 0x3F DUP4 PUSH1 0xC SHR AND DUP7 ADD MLOAD AND DUP2 ADD SWAP1 POP DUP1 PUSH1 0x8 SHL SWAP1 POP PUSH1 0xFF PUSH1 0x3F DUP4 PUSH1 0x6 SHR AND DUP7 ADD MLOAD AND DUP2 ADD SWAP1 POP DUP1 PUSH1 0x8 SHL SWAP1 POP PUSH1 0xFF PUSH1 0x3F DUP4 AND DUP7 ADD MLOAD AND DUP2 ADD SWAP1 POP DUP1 PUSH1 0xE0 SHL SWAP1 POP DUP1 DUP5 MSTORE PUSH1 0x4 DUP5 ADD SWAP4 POP POP POP PUSH2 0x3898 JUMP JUMPDEST POP PUSH1 0x3 DUP7 MOD PUSH1 0x1 DUP2 EQ PUSH2 0x392B JUMPI PUSH1 0x2 DUP2 EQ PUSH2 0x393B JUMPI PUSH2 0x3946 JUMP JUMPDEST PUSH2 0x3D3D PUSH1 0xF0 SHL PUSH1 0x2 DUP4 SUB MSTORE PUSH2 0x3946 JUMP JUMPDEST PUSH1 0x3D PUSH1 0xF8 SHL PUSH1 0x1 DUP4 SUB MSTORE JUMPDEST POP DUP5 DUP5 MSTORE POP POP DUP2 SWAP5 POP POP POP POP POP JUMPDEST SWAP2 SWAP1 POP JUMP JUMPDEST PUSH2 0x3963 DUP4 DUP4 PUSH2 0x3B41 JUMP JUMPDEST PUSH2 0x3970 PUSH1 0x0 DUP5 DUP5 DUP5 PUSH2 0x39B9 JUMP JUMPDEST PUSH2 0x39AF JUMPI PUSH1 0x40 MLOAD PUSH32 0x8C379A000000000000000000000000000000000000000000000000000000000 DUP2 MSTORE PUSH1 0x4 ADD PUSH2 0x39A6 SWAP1 PUSH2 0x5A7F JUMP JUMPDEST PUSH1 0x40 MLOAD DUP1 SWAP2 SUB SWAP1 REVERT JUMPDEST POP POP POP JUMP JUMPDEST POP POP POP JUMP JUMPDEST PUSH1 0x0 PUSH2 0x39DA DUP5 PUSH20 0xFFFFFFFFFFFFFFFFFFFFFFFFFFFFFFFFFFFFFFFF AND PUSH2 0x3D0F JUMP JUMPDEST ISZERO PUSH2 0x3B34 JUMPI DUP4 PUSH20 0xFFFFFFFFFFFFFFFFFFFFFFFFFFFFFFFFFFFFFFFF AND PUSH4 0x150B7A02 PUSH2 0x3A03 PUSH2 0x2EBB JUMP JUMPDEST DUP8 DUP7 DUP7 PUSH1 0x40 MLOAD DUP6 PUSH4 0xFFFFFFFF AND PUSH1 0xE0 SHL DUP2 MSTORE PUSH1 0x4 ADD PUSH2 0x3A25 SWAP5 SWAP4 SWAP3 SWAP2 SWAP1 PUSH2 0x5BDF JUMP JUMPDEST PUSH1 0x20 PUSH1 0x40 MLOAD DUP1 DUP4 SUB DUP2 PUSH1 0x0 DUP8 GAS CALL SWAP3 POP POP POP DUP1 ISZERO PUSH2 0x3A61 JUMPI POP PUSH1 0x40 MLOAD RETURNDATASIZE PUSH1 0x1F NOT PUSH1 0x1F DUP3 ADD AND DUP3 ADD DUP1 PUSH1 0x40 MSTORE POP DUP2 ADD SWAP1 PUSH2 0x3A5E SWAP2 SWAP1 PUSH2 0x5C40 JUMP JUMPDEST PUSH1 0x1 JUMPDEST PUSH2 0x3AE4 JUMPI RETURNDATASIZE DUP1 PUSH1 0x0 DUP2 EQ PUSH2 0x3A91 JUMPI PUSH1 0x40 MLOAD SWAP2 POP PUSH1 0x1F NOT PUSH1 0x3F RETURNDATASIZE ADD AND DUP3 ADD PUSH1 0x40 MSTORE RETURNDATASIZE DUP3 MSTORE RETURNDATASIZE PUSH1 0x0 PUSH1 0x20 DUP5 ADD RETURNDATACOPY PUSH2 0x3A96 JUMP JUMPDEST PUSH1 0x60 SWAP2 POP JUMPDEST POP PUSH1 0x0 DUP2 MLOAD EQ ISZERO PUSH2 0x3ADC JUMPI PUSH1 0x40 MLOAD PUSH32 0x8C379A000000000000000000000000000000000000000000000000000000000 DUP2 MSTORE PUSH1 0x4 ADD PUSH2 0x3AD3 SWAP1 PUSH2 0x5A7F JUMP JUMPDEST PUSH1 0x40 MLOAD DUP1 SWAP2 SUB SWAP1 REVERT JUMPDEST DUP1 MLOAD DUP2 PUSH1 0x20 ADD REVERT JUMPDEST PUSH4 0x150B7A02 PUSH1 0xE0 SHL PUSH28 0xFFFFFFFFFFFFFFFFFFFFFFFFFFFFFFFFFFFFFFFFFFFFFFFFFFFFFFFF NOT AND DUP2 PUSH28 0xFFFFFFFFFFFFFFFFFFFFFFFFFFFFFFFFFFFFFFFFFFFFFFFFFFFFFFFF NOT AND EQ SWAP2 POP POP PUSH2 0x3B39 JUMP JUMPDEST PUSH1 0x1 SWAP1 POP JUMPDEST SWAP5 SWAP4 POP POP POP POP JUMP JUMPDEST PUSH1 0x0 PUSH20 0xFFFFFFFFFFFFFFFFFFFFFFFFFFFFFFFFFFFFFFFF AND DUP3 PUSH20 0xFFFFFFFFFFFFFFFFFFFFFFFFFFFFFFFFFFFFFFFF AND EQ ISZERO PUSH2 0x3BB1 JUMPI PUSH1 0x40 MLOAD PUSH32 0x8C379A000000000000000000000000000000000000000000000000000000000 DUP2 MSTORE PUSH1 0x4 ADD PUSH2 0x3BA8 SWAP1 PUSH2 0x5CB9 JUMP JUMPDEST PUSH1 0x40 MLOAD DUP1 SWAP2 SUB SWAP1 REVERT JUMPDEST PUSH2 0x3BBA DUP2 PUSH2 0x2E4F JUMP JUMPDEST ISZERO PUSH2 0x3BFA JUMPI PUSH1 0x40 MLOAD PUSH32 0x8C379A000000000000000000000000000000000000000000000000000000000 DUP2 MSTORE PUSH1 0x4 ADD PUSH2 0x3BF1 SWAP1 PUSH2 0x5D25 JUMP JUMPDEST PUSH1 0x40 MLOAD DUP1 SWAP2 SUB SWAP1 REVERT JUMPDEST PUSH2 0x3C06 PUSH1 0x0 DUP4 DUP4 PUSH2 0x39B4 JUMP JUMPDEST PUSH1 0x1 PUSH1 0x3 PUSH1 0x0 DUP5 PUSH20 0xFFFFFFFFFFFFFFFFFFFFFFFFFFFFFFFFFFFFFFFF AND PUSH20 0xFFFFFFFFFFFFFFFFFFFFFFFFFFFFFFFFFFFFFFFF AND DUP2 MSTORE PUSH1 0x20 ADD SWAP1 DUP2 MSTORE PUSH1 0x20 ADD PUSH1 0x0 KECCAK256 PUSH1 0x0 DUP3 DUP3 SLOAD PUSH2 0x3C56 SWAP2 SWAP1 PUSH2 0x594B JUMP JUMPDEST SWAP3 POP POP DUP2 SWAP1 SSTORE POP DUP2 PUSH1 0x2 PUSH1 0x0 DUP4 DUP2 MSTORE PUSH1 0x20 ADD SWAP1 DUP2 MSTORE PUSH1 0x20 ADD PUSH1 0x0 KECCAK256 PUSH1 0x0 PUSH2 0x100 EXP DUP2 SLOAD DUP2 PUSH20 0xFFFFFFFFFFFFFFFFFFFFFFFFFFFFFFFFFFFFFFFF MUL NOT AND SWAP1 DUP4 PUSH20 0xFFFFFFFFFFFFFFFFFFFFFFFFFFFFFFFFFFFFFFFF AND MUL OR SWAP1 SSTORE POP DUP1 DUP3 PUSH20 0xFFFFFFFFFFFFFFFFFFFFFFFFFFFFFFFFFFFFFFFF AND PUSH1 0x0 PUSH20 0xFFFFFFFFFFFFFFFFFFFFFFFFFFFFFFFFFFFFFFFF AND PUSH32 0xDDF252AD1BE2C89B69C2B068FC378DAA952BA7F163C4A11628F55A4DF523B3EF PUSH1 0x40 MLOAD PUSH1 0x40 MLOAD DUP1 SWAP2 SUB SWAP1 LOG4 POP POP JUMP JUMPDEST PUSH1 0x0 DUP1 DUP3 EXTCODESIZE SWAP1 POP PUSH1 0x0 DUP2 GT SWAP2 POP POP SWAP2 SWAP1 POP JUMP JUMPDEST DUP3 DUP1 SLOAD PUSH2 0x3D2E SWAP1 PUSH2 0x4BDE JUMP JUMPDEST SWAP1 PUSH1 0x0 MSTORE PUSH1 0x20 PUSH1 0x0 KECCAK256 SWAP1 PUSH1 0x1F ADD PUSH1 0x20 SWAP1 DIV DUP2 ADD SWAP3 DUP3 PUSH2 0x3D50 JUMPI PUSH1 0x0 DUP6 SSTORE PUSH2 0x3D97 JUMP JUMPDEST DUP3 PUSH1 0x1F LT PUSH2 0x3D69 JUMPI DUP1 CALLDATALOAD PUSH1 0xFF NOT AND DUP4 DUP1 ADD OR DUP6 SSTORE PUSH2 0x3D97 JUMP JUMPDEST DUP3 DUP1 ADD PUSH1 0x1 ADD DUP6 SSTORE DUP3 ISZERO PUSH2 0x3D97 JUMPI SWAP2 DUP3 ADD JUMPDEST DUP3 DUP2 GT ISZERO PUSH2 0x3D96 JUMPI DUP3 CALLDATALOAD DUP3 SSTORE SWAP2 PUSH1 0x20 ADD SWAP2 SWAP1 PUSH1 0x1 ADD SWAP1 PUSH2 0x3D7B JUMP JUMPDEST JUMPDEST POP SWAP1 POP PUSH2 0x3DA4 SWAP2 SWAP1 PUSH2 0x3E2E JUMP JUMPDEST POP SWAP1 JUMP JUMPDEST DUP3 DUP1 SLOAD PUSH2 0x3DB4 SWAP1 PUSH2 0x4BDE JUMP JUMPDEST SWAP1 PUSH1 0x0 MSTORE PUSH1 0x20 PUSH1 0x0 KECCAK256 SWAP1 PUSH1 0x1F ADD PUSH1 0x20 SWAP1 DIV DUP2 ADD SWAP3 DUP3 PUSH2 0x3DD6 JUMPI PUSH1 0x0 DUP6 SSTORE PUSH2 0x3E1D JUMP JUMPDEST DUP3 PUSH1 0x1F LT PUSH2 0x3DEF JUMPI DUP1 MLOAD PUSH1 0xFF NOT AND DUP4 DUP1 ADD OR DUP6 SSTORE PUSH2 0x3E1D JUMP JUMPDEST DUP3 DUP1 ADD PUSH1 0x1 ADD DUP6 SSTORE DUP3 ISZERO PUSH2 0x3E1D JUMPI SWAP2 DUP3 ADD JUMPDEST DUP3 DUP2 GT ISZERO PUSH2 0x3E1C JUMPI DUP3 MLOAD DUP3 SSTORE SWAP2 PUSH1 0x20 ADD SWAP2 SWAP1 PUSH1 0x1 ADD SWAP1 PUSH2 0x3E01 JUMP JUMPDEST JUMPDEST POP SWAP1 POP PUSH2 0x3E2A SWAP2 SWAP1 PUSH2 0x3E2E JUMP JUMPDEST POP SWAP1 JUMP JUMPDEST JUMPDEST DUP1 DUP3 GT ISZERO PUSH2 0x3E47 JUMPI PUSH1 0x0 DUP2 PUSH1 0x0 SWAP1 SSTORE POP PUSH1 0x1 ADD PUSH2 0x3E2F JUMP JUMPDEST POP SWAP1 JUMP JUMPDEST PUSH1 0x0 PUSH1 0x40 MLOAD SWAP1 POP SWAP1 JUMP JUMPDEST PUSH1 0x0 DUP1 REVERT JUMPDEST PUSH1 0x0 DUP1 REVERT JUMPDEST PUSH1 0x0 PUSH32 0xFFFFFFFF00000000000000000000000000000000000000000000000000000000 DUP3 AND SWAP1 POP SWAP2 SWAP1 POP JUMP JUMPDEST PUSH2 0x3E94 DUP2 PUSH2 0x3E5F JUMP JUMPDEST DUP2 EQ PUSH2 0x3E9F JUMPI PUSH1 0x0 DUP1 REVERT JUMPDEST POP JUMP JUMPDEST PUSH1 0x0 DUP2 CALLDATALOAD SWAP1 POP PUSH2 0x3EB1 DUP2 PUSH2 0x3E8B JUMP JUMPDEST SWAP3 SWAP2 POP POP JUMP JUMPDEST PUSH1 0x0 PUSH1 0x20 DUP3 DUP5 SUB SLT ISZERO PUSH2 0x3ECD JUMPI PUSH2 0x3ECC PUSH2 0x3E55 JUMP JUMPDEST JUMPDEST PUSH1 0x0 PUSH2 0x3EDB DUP5 DUP3 DUP6 ADD PUSH2 0x3EA2 JUMP JUMPDEST SWAP2 POP POP SWAP3 SWAP2 POP POP JUMP JUMPDEST PUSH1 0x0 DUP2 ISZERO ISZERO SWAP1 POP SWAP2 SWAP1 POP JUMP JUMPDEST PUSH2 0x3EF9 DUP2 PUSH2 0x3EE4 JUMP JUMPDEST DUP3 MSTORE POP POP JUMP JUMPDEST PUSH1 0x0 PUSH1 0x20 DUP3 ADD SWAP1 POP PUSH2 0x3F14 PUSH1 0x0 DUP4 ADD DUP5 PUSH2 0x3EF0 JUMP JUMPDEST SWAP3 SWAP2 POP POP JUMP JUMPDEST PUSH1 0x0 DUP2 MLOAD SWAP1 POP SWAP2 SWAP1 POP JUMP JUMPDEST PUSH1 0x0 DUP3 DUP3 MSTORE PUSH1 0x20 DUP3 ADD SWAP1 POP SWAP3 SWAP2 POP POP JUMP JUMPDEST PUSH1 0x0 JUMPDEST DUP4 DUP2 LT ISZERO PUSH2 0x3F54 JUMPI DUP1 DUP3 ADD MLOAD DUP2 DUP5 ADD MSTORE PUSH1 0x20 DUP2 ADD SWAP1 POP PUSH2 0x3F39 JUMP JUMPDEST DUP4 DUP2 GT ISZERO PUSH2 0x3F63 JUMPI PUSH1 0x0 DUP5 DUP5 ADD MSTORE JUMPDEST POP POP POP POP JUMP JUMPDEST PUSH1 0x0 PUSH1 0x1F NOT PUSH1 0x1F DUP4 ADD AND SWAP1 POP SWAP2 SWAP1 POP JUMP JUMPDEST PUSH1 0x0 PUSH2 0x3F85 DUP3 PUSH2 0x3F1A JUMP JUMPDEST PUSH2 0x3F8F DUP2 DUP6 PUSH2 0x3F25 JUMP JUMPDEST SWAP4 POP PUSH2 0x3F9F DUP2 DUP6 PUSH1 0x20 DUP7 ADD PUSH2 0x3F36 JUMP JUMPDEST PUSH2 0x3FA8 DUP2 PUSH2 0x3F69 JUMP JUMPDEST DUP5 ADD SWAP2 POP POP SWAP3 SWAP2 POP POP JUMP JUMPDEST PUSH1 0x0 PUSH1 0x20 DUP3 ADD SWAP1 POP DUP2 DUP2 SUB PUSH1 0x0 DUP4 ADD MSTORE PUSH2 0x3FCD DUP2 DUP5 PUSH2 0x3F7A JUMP JUMPDEST SWAP1 POP SWAP3 SWAP2 POP POP JUMP JUMPDEST PUSH1 0x0 DUP2 SWAP1 POP SWAP2 SWAP1 POP JUMP JUMPDEST PUSH2 0x3FE8 DUP2 PUSH2 0x3FD5 JUMP JUMPDEST DUP2 EQ PUSH2 0x3FF3 JUMPI PUSH1 0x0 DUP1 REVERT JUMPDEST POP JUMP JUMPDEST PUSH1 0x0 DUP2 CALLDATALOAD SWAP1 POP PUSH2 0x4005 DUP2 PUSH2 0x3FDF JUMP JUMPDEST SWAP3 SWAP2 POP POP JUMP JUMPDEST PUSH1 0x0 PUSH1 0x20 DUP3 DUP5 SUB SLT ISZERO PUSH2 0x4021 JUMPI PUSH2 0x4020 PUSH2 0x3E55 JUMP JUMPDEST JUMPDEST PUSH1 0x0 PUSH2 0x402F DUP5 DUP3 DUP6 ADD PUSH2 0x3FF6 JUMP JUMPDEST SWAP2 POP POP SWAP3 SWAP2 POP POP JUMP JUMPDEST PUSH1 0x0 PUSH20 0xFFFFFFFFFFFFFFFFFFFFFFFFFFFFFFFFFFFFFFFF DUP3 AND SWAP1 POP SWAP2 SWAP1 POP JUMP JUMPDEST PUSH1 0x0 PUSH2 0x4063 DUP3 PUSH2 0x4038 JUMP JUMPDEST SWAP1 POP SWAP2 SWAP1 POP JUMP JUMPDEST PUSH2 0x4073 DUP2 PUSH2 0x4058 JUMP JUMPDEST DUP3 MSTORE POP POP JUMP JUMPDEST PUSH1 0x0 PUSH1 0x20 DUP3 ADD SWAP1 POP PUSH2 0x408E PUSH1 0x0 DUP4 ADD DUP5 PUSH2 0x406A JUMP JUMPDEST SWAP3 SWAP2 POP POP JUMP JUMPDEST PUSH2 0x409D DUP2 PUSH2 0x4058 JUMP JUMPDEST DUP2 EQ PUSH2 0x40A8 JUMPI PUSH1 0x0 DUP1 REVERT JUMPDEST POP JUMP JUMPDEST PUSH1 0x0 DUP2 CALLDATALOAD SWAP1 POP PUSH2 0x40BA DUP2 PUSH2 0x4094 JUMP JUMPDEST SWAP3 SWAP2 POP POP JUMP JUMPDEST PUSH1 0x0 DUP1 PUSH1 0x40 DUP4 DUP6 SUB SLT ISZERO PUSH2 0x40D7 JUMPI PUSH2 0x40D6 PUSH2 0x3E55 JUMP JUMPDEST JUMPDEST PUSH1 0x0 PUSH2 0x40E5 DUP6 DUP3 DUP7 ADD PUSH2 0x40AB JUMP JUMPDEST SWAP3 POP POP PUSH1 0x20 PUSH2 0x40F6 DUP6 DUP3 DUP7 ADD PUSH2 0x3FF6 JUMP JUMPDEST SWAP2 POP POP SWAP3 POP SWAP3 SWAP1 POP JUMP JUMPDEST PUSH1 0x0 DUP1 REVERT JUMPDEST PUSH1 0x0 DUP1 REVERT JUMPDEST PUSH1 0x0 DUP1 REVERT JUMPDEST PUSH1 0x0 DUP1 DUP4 PUSH1 0x1F DUP5 ADD SLT PUSH2 0x4125 JUMPI PUSH2 0x4124 PUSH2 0x4100 JUMP JUMPDEST JUMPDEST DUP3 CALLDATALOAD SWAP1 POP PUSH8 0xFFFFFFFFFFFFFFFF DUP2 GT ISZERO PUSH2 0x4142 JUMPI PUSH2 0x4141 PUSH2 0x4105 JUMP JUMPDEST JUMPDEST PUSH1 0x20 DUP4 ADD SWAP2 POP DUP4 PUSH1 0x1 DUP3 MUL DUP4 ADD GT ISZERO PUSH2 0x415E JUMPI PUSH2 0x415D PUSH2 0x410A JUMP JUMPDEST JUMPDEST SWAP3 POP SWAP3 SWAP1 POP JUMP JUMPDEST PUSH1 0x0 DUP1 PUSH1 0x0 PUSH1 0x40 DUP5 DUP7 SUB SLT ISZERO PUSH2 0x417E JUMPI PUSH2 0x417D PUSH2 0x3E55 JUMP JUMPDEST JUMPDEST PUSH1 0x0 DUP5 ADD CALLDATALOAD PUSH8 0xFFFFFFFFFFFFFFFF DUP2 GT ISZERO PUSH2 0x419C JUMPI PUSH2 0x419B PUSH2 0x3E5A JUMP JUMPDEST JUMPDEST PUSH2 0x41A8 DUP7 DUP3 DUP8 ADD PUSH2 0x410F JUMP JUMPDEST SWAP4 POP SWAP4 POP POP PUSH1 0x20 PUSH2 0x41BB DUP7 DUP3 DUP8 ADD PUSH2 0x40AB JUMP JUMPDEST SWAP2 POP POP SWAP3 POP SWAP3 POP SWAP3 JUMP JUMPDEST PUSH1 0x0 DUP1 PUSH1 0x0 PUSH1 0x60 DUP5 DUP7 SUB SLT ISZERO PUSH2 0x41DE JUMPI PUSH2 0x41DD PUSH2 0x3E55 JUMP JUMPDEST JUMPDEST PUSH1 0x0 PUSH2 0x41EC DUP7 DUP3 DUP8 ADD PUSH2 0x40AB JUMP JUMPDEST SWAP4 POP POP PUSH1 0x20 PUSH2 0x41FD DUP7 DUP3 DUP8 ADD PUSH2 0x40AB JUMP JUMPDEST SWAP3 POP POP PUSH1 0x40 PUSH2 0x420E DUP7 DUP3 DUP8 ADD PUSH2 0x3FF6 JUMP JUMPDEST SWAP2 POP POP SWAP3 POP SWAP3 POP SWAP3 JUMP JUMPDEST PUSH1 0x0 PUSH1 0x20 DUP3 DUP5 SUB SLT ISZERO PUSH2 0x422E JUMPI PUSH2 0x422D PUSH2 0x3E55 JUMP JUMPDEST JUMPDEST PUSH1 0x0 PUSH2 0x423C DUP5 DUP3 DUP6 ADD PUSH2 0x40AB JUMP JUMPDEST SWAP2 POP POP SWAP3 SWAP2 POP POP JUMP JUMPDEST PUSH1 0x0 DUP2 MLOAD SWAP1 POP SWAP2 SWAP1 POP JUMP JUMPDEST PUSH1 0x0 DUP3 DUP3 MSTORE PUSH1 0x20 DUP3 ADD SWAP1 POP SWAP3 SWAP2 POP POP JUMP JUMPDEST PUSH1 0x0 DUP2 SWAP1 POP PUSH1 0x20 DUP3 ADD SWAP1 POP SWAP2 SWAP1 POP JUMP JUMPDEST PUSH2 0x427A DUP2 PUSH2 0x3FD5 JUMP JUMPDEST DUP3 MSTORE POP POP JUMP JUMPDEST PUSH1 0x0 PUSH2 0x428C DUP4 DUP4 PUSH2 0x4271 JUMP JUMPDEST PUSH1 0x20 DUP4 ADD SWAP1 POP SWAP3 SWAP2 POP POP JUMP JUMPDEST PUSH1 0x0 PUSH1 0x20 DUP3 ADD SWAP1 POP SWAP2 SWAP1 POP JUMP JUMPDEST PUSH1 0x0 PUSH2 0x42B0 DUP3 PUSH2 0x4245 JUMP JUMPDEST PUSH2 0x42BA DUP2 DUP6 PUSH2 0x4250 JUMP JUMPDEST SWAP4 POP PUSH2 0x42C5 DUP4 PUSH2 0x4261 JUMP JUMPDEST DUP1 PUSH1 0x0 JUMPDEST DUP4 DUP2 LT ISZERO PUSH2 0x42F6 JUMPI DUP2 MLOAD PUSH2 0x42DD DUP9 DUP3 PUSH2 0x4280 JUMP JUMPDEST SWAP8 POP PUSH2 0x42E8 DUP4 PUSH2 0x4298 JUMP JUMPDEST SWAP3 POP POP PUSH1 0x1 DUP2 ADD SWAP1 POP PUSH2 0x42C9 JUMP JUMPDEST POP DUP6 SWAP4 POP POP POP POP SWAP3 SWAP2 POP POP JUMP JUMPDEST PUSH1 0x0 PUSH1 0x20 DUP3 ADD SWAP1 POP DUP2 DUP2 SUB PUSH1 0x0 DUP4 ADD MSTORE PUSH2 0x431D DUP2 DUP5 PUSH2 0x42A5 JUMP JUMPDEST SWAP1 POP SWAP3 SWAP2 POP POP JUMP JUMPDEST PUSH2 0x432E DUP2 PUSH2 0x3FD5 JUMP JUMPDEST DUP3 MSTORE POP POP JUMP JUMPDEST PUSH1 0x0 PUSH1 0x20 DUP3 ADD SWAP1 POP PUSH2 0x4349 PUSH1 0x0 DUP4 ADD DUP5 PUSH2 0x4325 JUMP JUMPDEST SWAP3 SWAP2 POP POP JUMP JUMPDEST PUSH1 0x0 DUP1 REVERT JUMPDEST PUSH32 0x4E487B7100000000000000000000000000000000000000000000000000000000 PUSH1 0x0 MSTORE PUSH1 0x41 PUSH1 0x4 MSTORE PUSH1 0x24 PUSH1 0x0 REVERT JUMPDEST PUSH2 0x438C DUP3 PUSH2 0x3F69 JUMP JUMPDEST DUP2 ADD DUP2 DUP2 LT PUSH8 0xFFFFFFFFFFFFFFFF DUP3 GT OR ISZERO PUSH2 0x43AB JUMPI PUSH2 0x43AA PUSH2 0x4354 JUMP JUMPDEST JUMPDEST DUP1 PUSH1 0x40 MSTORE POP POP POP JUMP JUMPDEST PUSH1 0x0 PUSH2 0x43BE PUSH2 0x3E4B JUMP JUMPDEST SWAP1 POP PUSH2 0x43CA DUP3 DUP3 PUSH2 0x4383 JUMP JUMPDEST SWAP2 SWAP1 POP JUMP JUMPDEST PUSH1 0x0 PUSH8 0xFFFFFFFFFFFFFFFF DUP3 GT ISZERO PUSH2 0x43EA JUMPI PUSH2 0x43E9 PUSH2 0x4354 JUMP JUMPDEST JUMPDEST PUSH2 0x43F3 DUP3 PUSH2 0x3F69 JUMP JUMPDEST SWAP1 POP PUSH1 0x20 DUP2 ADD SWAP1 POP SWAP2 SWAP1 POP JUMP JUMPDEST DUP3 DUP2 DUP4 CALLDATACOPY PUSH1 0x0 DUP4 DUP4 ADD MSTORE POP POP POP JUMP JUMPDEST PUSH1 0x0 PUSH2 0x4422 PUSH2 0x441D DUP5 PUSH2 0x43CF JUMP JUMPDEST PUSH2 0x43B4 JUMP JUMPDEST SWAP1 POP DUP3 DUP2 MSTORE PUSH1 0x20 DUP2 ADD DUP5 DUP5 DUP5 ADD GT ISZERO PUSH2 0x443E JUMPI PUSH2 0x443D PUSH2 0x434F JUMP JUMPDEST JUMPDEST PUSH2 0x4449 DUP5 DUP3 DUP6 PUSH2 0x4400 JUMP JUMPDEST POP SWAP4 SWAP3 POP POP POP JUMP JUMPDEST PUSH1 0x0 DUP3 PUSH1 0x1F DUP4 ADD SLT PUSH2 0x4466 JUMPI PUSH2 0x4465 PUSH2 0x4100 JUMP JUMPDEST JUMPDEST DUP2 CALLDATALOAD PUSH2 0x4476 DUP5 DUP3 PUSH1 0x20 DUP7 ADD PUSH2 0x440F JUMP JUMPDEST SWAP2 POP POP SWAP3 SWAP2 POP POP JUMP JUMPDEST PUSH1 0x0 PUSH1 0x20 DUP3 DUP5 SUB SLT ISZERO PUSH2 0x4495 JUMPI PUSH2 0x4494 PUSH2 0x3E55 JUMP JUMPDEST JUMPDEST PUSH1 0x0 DUP3 ADD CALLDATALOAD PUSH8 0xFFFFFFFFFFFFFFFF DUP2 GT ISZERO PUSH2 0x44B3 JUMPI PUSH2 0x44B2 PUSH2 0x3E5A JUMP JUMPDEST JUMPDEST PUSH2 0x44BF DUP5 DUP3 DUP6 ADD PUSH2 0x4451 JUMP JUMPDEST SWAP2 POP POP SWAP3 SWAP2 POP POP JUMP JUMPDEST PUSH1 0x0 PUSH1 0xA0 DUP3 ADD SWAP1 POP DUP2 DUP2 SUB PUSH1 0x0 DUP4 ADD MSTORE PUSH2 0x44E2 DUP2 DUP9 PUSH2 0x3F7A JUMP JUMPDEST SWAP1 POP DUP2 DUP2 SUB PUSH1 0x20 DUP4 ADD MSTORE PUSH2 0x44F6 DUP2 DUP8 PUSH2 0x3F7A JUMP JUMPDEST SWAP1 POP DUP2 DUP2 SUB PUSH1 0x40 DUP4 ADD MSTORE PUSH2 0x450A DUP2 DUP7 PUSH2 0x3F7A JUMP JUMPDEST SWAP1 POP DUP2 DUP2 SUB PUSH1 0x60 DUP4 ADD MSTORE PUSH2 0x451E DUP2 DUP6 PUSH2 0x3F7A JUMP JUMPDEST SWAP1 POP DUP2 DUP2 SUB PUSH1 0x80 DUP4 ADD MSTORE PUSH2 0x4532 DUP2 DUP5 PUSH2 0x3F7A JUMP JUMPDEST SWAP1 POP SWAP7 SWAP6 POP POP POP POP POP POP JUMP JUMPDEST PUSH1 0x0 DUP1 PUSH1 0x20 DUP4 DUP6 SUB SLT ISZERO PUSH2 0x4555 JUMPI PUSH2 0x4554 PUSH2 0x3E55 JUMP JUMPDEST JUMPDEST PUSH1 0x0 DUP4 ADD CALLDATALOAD PUSH8 0xFFFFFFFFFFFFFFFF DUP2 GT ISZERO PUSH2 0x4573 JUMPI PUSH2 0x4572 PUSH2 0x3E5A JUMP JUMPDEST JUMPDEST PUSH2 0x457F DUP6 DUP3 DUP7 ADD PUSH2 0x410F JUMP JUMPDEST SWAP3 POP SWAP3 POP POP SWAP3 POP SWAP3 SWAP1 POP JUMP JUMPDEST PUSH1 0x0 DUP2 MLOAD SWAP1 POP SWAP2 SWAP1 POP JUMP JUMPDEST PUSH1 0x0 DUP3 DUP3 MSTORE PUSH1 0x20 DUP3 ADD SWAP1 POP SWAP3 SWAP2 POP POP JUMP JUMPDEST PUSH1 0x0 DUP2 SWAP1 POP PUSH1 0x20 DUP3 ADD SWAP1 POP SWAP2 SWAP1 POP JUMP JUMPDEST PUSH1 0x0 DUP3 DUP3 MSTORE PUSH1 0x20 DUP3 ADD SWAP1 POP SWAP3 SWAP2 POP POP JUMP JUMPDEST PUSH1 0x0 PUSH2 0x45D3 DUP3 PUSH2 0x3F1A JUMP JUMPDEST PUSH2 0x45DD DUP2 DUP6 PUSH2 0x45B7 JUMP JUMPDEST SWAP4 POP PUSH2 0x45ED DUP2 DUP6 PUSH1 0x20 DUP7 ADD PUSH2 0x3F36 JUMP JUMPDEST PUSH2 0x45F6 DUP2 PUSH2 0x3F69 JUMP JUMPDEST DUP5 ADD SWAP2 POP POP SWAP3 SWAP2 POP POP JUMP JUMPDEST PUSH1 0x0 PUSH2 0x460D DUP4 DUP4 PUSH2 0x45C8 JUMP JUMPDEST SWAP1 POP SWAP3 SWAP2 POP POP JUMP JUMPDEST PUSH1 0x0 PUSH1 0x20 DUP3 ADD SWAP1 POP SWAP2 SWAP1 POP JUMP JUMPDEST PUSH1 0x0 PUSH2 0x462D DUP3 PUSH2 0x458B JUMP JUMPDEST PUSH2 0x4637 DUP2 DUP6 PUSH2 0x4596 JUMP JUMPDEST SWAP4 POP DUP4 PUSH1 0x20 DUP3 MUL DUP6 ADD PUSH2 0x4649 DUP6 PUSH2 0x45A7 JUMP JUMPDEST DUP1 PUSH1 0x0 JUMPDEST DUP6 DUP2 LT ISZERO PUSH2 0x4685 JUMPI DUP5 DUP5 SUB DUP10 MSTORE DUP2 MLOAD PUSH2 0x4666 DUP6 DUP3 PUSH2 0x4601 JUMP JUMPDEST SWAP5 POP PUSH2 0x4671 DUP4 PUSH2 0x4615 JUMP JUMPDEST SWAP3 POP PUSH1 0x20 DUP11 ADD SWAP10 POP POP PUSH1 0x1 DUP2 ADD SWAP1 POP PUSH2 0x464D JUMP JUMPDEST POP DUP3 SWAP8 POP DUP8 SWAP6 POP POP POP POP POP POP SWAP3 SWAP2 POP POP JUMP JUMPDEST PUSH1 0x0 PUSH1 0x40 DUP3 ADD SWAP1 POP DUP2 DUP2 SUB PUSH1 0x0 DUP4 ADD MSTORE PUSH2 0x46B1 DUP2 DUP6 PUSH2 0x4622 JUMP JUMPDEST SWAP1 POP PUSH2 0x46C0 PUSH1 0x20 DUP4 ADD DUP5 PUSH2 0x406A JUMP JUMPDEST SWAP4 SWAP3 POP POP POP JUMP JUMPDEST PUSH1 0x0 PUSH2 0x46D2 DUP3 PUSH2 0x4038 JUMP JUMPDEST SWAP1 POP SWAP2 SWAP1 POP JUMP JUMPDEST PUSH2 0x46E2 DUP2 PUSH2 0x46C7 JUMP JUMPDEST DUP3 MSTORE POP POP JUMP JUMPDEST PUSH1 0x0 PUSH1 0x20 DUP3 ADD SWAP1 POP PUSH2 0x46FD PUSH1 0x0 DUP4 ADD DUP5 PUSH2 0x46D9 JUMP JUMPDEST SWAP3 SWAP2 POP POP JUMP JUMPDEST PUSH1 0x5 DUP2 LT PUSH2 0x4710 JUMPI PUSH1 0x0 DUP1 REVERT JUMPDEST POP JUMP JUMPDEST PUSH1 0x0 DUP2 CALLDATALOAD SWAP1 POP PUSH2 0x4722 DUP2 PUSH2 0x4703 JUMP JUMPDEST SWAP3 SWAP2 POP POP JUMP JUMPDEST PUSH1 0x0 DUP1 PUSH1 0x0 PUSH1 0x40 DUP5 DUP7 SUB SLT ISZERO PUSH2 0x4741 JUMPI PUSH2 0x4740 PUSH2 0x3E55 JUMP JUMPDEST JUMPDEST PUSH1 0x0 DUP5 ADD CALLDATALOAD PUSH8 0xFFFFFFFFFFFFFFFF DUP2 GT ISZERO PUSH2 0x475F JUMPI PUSH2 0x475E PUSH2 0x3E5A JUMP JUMPDEST JUMPDEST PUSH2 0x476B DUP7 DUP3 DUP8 ADD PUSH2 0x410F JUMP JUMPDEST SWAP4 POP SWAP4 POP POP PUSH1 0x20 PUSH2 0x477E DUP7 DUP3 DUP8 ADD PUSH2 0x4713 JUMP JUMPDEST SWAP2 POP POP SWAP3 POP SWAP3 POP SWAP3 JUMP JUMPDEST PUSH2 0x4791 DUP2 PUSH2 0x3EE4 JUMP JUMPDEST DUP2 EQ PUSH2 0x479C JUMPI PUSH1 0x0 DUP1 REVERT JUMPDEST POP JUMP JUMPDEST PUSH1 0x0 DUP2 CALLDATALOAD SWAP1 POP PUSH2 0x47AE DUP2 PUSH2 0x4788 JUMP JUMPDEST SWAP3 SWAP2 POP POP JUMP JUMPDEST PUSH1 0x0 DUP1 PUSH1 0x40 DUP4 DUP6 SUB SLT ISZERO PUSH2 0x47CB JUMPI PUSH2 0x47CA PUSH2 0x3E55 JUMP JUMPDEST JUMPDEST PUSH1 0x0 PUSH2 0x47D9 DUP6 DUP3 DUP7 ADD PUSH2 0x40AB JUMP JUMPDEST SWAP3 POP POP PUSH1 0x20 PUSH2 0x47EA DUP6 DUP3 DUP7 ADD PUSH2 0x479F JUMP JUMPDEST SWAP2 POP POP SWAP3 POP SWAP3 SWAP1 POP JUMP JUMPDEST PUSH1 0x0 DUP1 PUSH1 0x0 PUSH1 0x60 DUP5 DUP7 SUB SLT ISZERO PUSH2 0x480D JUMPI PUSH2 0x480C PUSH2 0x3E55 JUMP JUMPDEST JUMPDEST PUSH1 0x0 PUSH2 0x481B DUP7 DUP3 DUP8 ADD PUSH2 0x3FF6 JUMP JUMPDEST SWAP4 POP POP PUSH1 0x20 PUSH2 0x482C DUP7 DUP3 DUP8 ADD PUSH2 0x3FF6 JUMP JUMPDEST SWAP3 POP POP PUSH1 0x40 PUSH2 0x483D DUP7 DUP3 DUP8 ADD PUSH2 0x3FF6 JUMP JUMPDEST SWAP2 POP POP SWAP3 POP SWAP3 POP SWAP3 JUMP JUMPDEST PUSH1 0x0 PUSH8 0xFFFFFFFFFFFFFFFF DUP3 GT ISZERO PUSH2 0x4862 JUMPI PUSH2 0x4861 PUSH2 0x4354 JUMP JUMPDEST JUMPDEST PUSH2 0x486B DUP3 PUSH2 0x3F69 JUMP JUMPDEST SWAP1 POP PUSH1 0x20 DUP2 ADD SWAP1 POP SWAP2 SWAP1 POP JUMP JUMPDEST PUSH1 0x0 PUSH2 0x488B PUSH2 0x4886 DUP5 PUSH2 0x4847 JUMP JUMPDEST PUSH2 0x43B4 JUMP JUMPDEST SWAP1 POP DUP3 DUP2 MSTORE PUSH1 0x20 DUP2 ADD DUP5 DUP5 DUP5 ADD GT ISZERO PUSH2 0x48A7 JUMPI PUSH2 0x48A6 PUSH2 0x434F JUMP JUMPDEST JUMPDEST PUSH2 0x48B2 DUP5 DUP3 DUP6 PUSH2 0x4400 JUMP JUMPDEST POP SWAP4 SWAP3 POP POP POP JUMP JUMPDEST PUSH1 0x0 DUP3 PUSH1 0x1F DUP4 ADD SLT PUSH2 0x48CF JUMPI PUSH2 0x48CE PUSH2 0x4100 JUMP JUMPDEST JUMPDEST DUP2 CALLDATALOAD PUSH2 0x48DF DUP5 DUP3 PUSH1 0x20 DUP7 ADD PUSH2 0x4878 JUMP JUMPDEST SWAP2 POP POP SWAP3 SWAP2 POP POP JUMP JUMPDEST PUSH1 0x0 DUP1 PUSH1 0x0 DUP1 PUSH1 0x80 DUP6 DUP8 SUB SLT ISZERO PUSH2 0x4902 JUMPI PUSH2 0x4901 PUSH2 0x3E55 JUMP JUMPDEST JUMPDEST PUSH1 0x0 PUSH2 0x4910 DUP8 DUP3 DUP9 ADD PUSH2 0x40AB JUMP JUMPDEST SWAP5 POP POP PUSH1 0x20 PUSH2 0x4921 DUP8 DUP3 DUP9 ADD PUSH2 0x40AB JUMP JUMPDEST SWAP4 POP POP PUSH1 0x40 PUSH2 0x4932 DUP8 DUP3 DUP9 ADD PUSH2 0x3FF6 JUMP JUMPDEST SWAP3 POP POP PUSH1 0x60 DUP6 ADD CALLDATALOAD PUSH8 0xFFFFFFFFFFFFFFFF DUP2 GT ISZERO PUSH2 0x4953 JUMPI PUSH2 0x4952 PUSH2 0x3E5A JUMP JUMPDEST JUMPDEST PUSH2 0x495F DUP8 DUP3 DUP9 ADD PUSH2 0x48BA JUMP JUMPDEST SWAP2 POP POP SWAP3 SWAP6 SWAP2 SWAP5 POP SWAP3 POP JUMP JUMPDEST PUSH1 0x0 DUP1 PUSH1 0x40 DUP4 DUP6 SUB SLT ISZERO PUSH2 0x4982 JUMPI PUSH2 0x4981 PUSH2 0x3E55 JUMP JUMPDEST JUMPDEST PUSH1 0x0 PUSH2 0x4990 DUP6 DUP3 DUP7 ADD PUSH2 0x40AB JUMP JUMPDEST SWAP3 POP POP PUSH1 0x20 PUSH2 0x49A1 DUP6 DUP3 DUP7 ADD PUSH2 0x40AB JUMP JUMPDEST SWAP2 POP POP SWAP3 POP SWAP3 SWAP1 POP JUMP JUMPDEST PUSH1 0x0 DUP1 PUSH1 0x0 DUP1 PUSH1 0x0 DUP1 PUSH1 0x0 DUP1 PUSH1 0x0 DUP1 PUSH1 0x0 PUSH1 0xC0 DUP13 DUP15 SUB SLT ISZERO PUSH2 0x49D0 JUMPI PUSH2 0x49CF PUSH2 0x3E55 JUMP JUMPDEST JUMPDEST PUSH1 0x0 DUP13 ADD CALLDATALOAD PUSH8 0xFFFFFFFFFFFFFFFF DUP2 GT ISZERO PUSH2 0x49EE JUMPI PUSH2 0x49ED PUSH2 0x3E5A JUMP JUMPDEST JUMPDEST PUSH2 0x49FA DUP15 DUP3 DUP16 ADD PUSH2 0x410F JUMP JUMPDEST SWAP12 POP SWAP12 POP POP PUSH1 0x20 DUP13 ADD CALLDATALOAD PUSH8 0xFFFFFFFFFFFFFFFF DUP2 GT ISZERO PUSH2 0x4A1D JUMPI PUSH2 0x4A1C PUSH2 0x3E5A JUMP JUMPDEST JUMPDEST PUSH2 0x4A29 DUP15 DUP3 DUP16 ADD PUSH2 0x4451 JUMP JUMPDEST SWAP10 POP POP PUSH1 0x40 DUP13 ADD CALLDATALOAD PUSH8 0xFFFFFFFFFFFFFFFF DUP2 GT ISZERO PUSH2 0x4A4A JUMPI PUSH2 0x4A49 PUSH2 0x3E5A JUMP JUMPDEST JUMPDEST PUSH2 0x4A56 DUP15 DUP3 DUP16 ADD PUSH2 0x410F JUMP JUMPDEST SWAP9 POP SWAP9 POP POP PUSH1 0x60 DUP13 ADD CALLDATALOAD PUSH8 0xFFFFFFFFFFFFFFFF DUP2 GT ISZERO PUSH2 0x4A79 JUMPI PUSH2 0x4A78 PUSH2 0x3E5A JUMP JUMPDEST JUMPDEST PUSH2 0x4A85 DUP15 DUP3 DUP16 ADD PUSH2 0x410F JUMP JUMPDEST SWAP7 POP SWAP7 POP POP PUSH1 0x80 DUP13 ADD CALLDATALOAD PUSH8 0xFFFFFFFFFFFFFFFF DUP2 GT ISZERO PUSH2 0x4AA8 JUMPI PUSH2 0x4AA7 PUSH2 0x3E5A JUMP JUMPDEST JUMPDEST PUSH2 0x4AB4 DUP15 DUP3 DUP16 ADD PUSH2 0x410F JUMP JUMPDEST SWAP5 POP SWAP5 POP POP PUSH1 0xA0 DUP13 ADD CALLDATALOAD PUSH8 0xFFFFFFFFFFFFFFFF DUP2 GT ISZERO PUSH2 0x4AD7 JUMPI PUSH2 0x4AD6 PUSH2 0x3E5A JUMP JUMPDEST JUMPDEST PUSH2 0x4AE3 DUP15 DUP3 DUP16 ADD PUSH2 0x410F JUMP JUMPDEST SWAP3 POP SWAP3 POP POP SWAP3 SWAP6 SWAP9 SWAP12 POP SWAP3 SWAP6 SWAP9 SWAP12 SWAP1 SWAP4 SWAP7 SWAP10 POP JUMP JUMPDEST PUSH1 0x0 DUP1 PUSH1 0x0 DUP1 PUSH1 0x0 PUSH1 0x60 DUP7 DUP9 SUB SLT ISZERO PUSH2 0x4B14 JUMPI PUSH2 0x4B13 PUSH2 0x3E55 JUMP JUMPDEST JUMPDEST PUSH1 0x0 DUP7 ADD CALLDATALOAD PUSH8 0xFFFFFFFFFFFFFFFF DUP2 GT ISZERO PUSH2 0x4B32 JUMPI PUSH2 0x4B31 PUSH2 0x3E5A JUMP JUMPDEST JUMPDEST PUSH2 0x4B3E DUP9 DUP3 DUP10 ADD PUSH2 0x410F JUMP JUMPDEST SWAP6 POP SWAP6 POP POP PUSH1 0x20 DUP7 ADD CALLDATALOAD PUSH8 0xFFFFFFFFFFFFFFFF DUP2 GT ISZERO PUSH2 0x4B61 JUMPI PUSH2 0x4B60 PUSH2 0x3E5A JUMP JUMPDEST JUMPDEST PUSH2 0x4B6D DUP9 DUP3 DUP10 ADD PUSH2 0x410F JUMP JUMPDEST SWAP4 POP SWAP4 POP POP PUSH1 0x40 PUSH2 0x4B80 DUP9 DUP3 DUP10 ADD PUSH2 0x4713 JUMP JUMPDEST SWAP2 POP POP SWAP3 SWAP6 POP SWAP3 SWAP6 SWAP1 SWAP4 POP JUMP JUMPDEST PUSH1 0x0 PUSH1 0x20 DUP3 ADD SWAP1 POP DUP2 DUP2 SUB PUSH1 0x0 DUP4 ADD MSTORE PUSH2 0x4BA7 DUP2 DUP5 PUSH2 0x4622 JUMP JUMPDEST SWAP1 POP SWAP3 SWAP2 POP POP JUMP JUMPDEST PUSH32 0x4E487B7100000000000000000000000000000000000000000000000000000000 PUSH1 0x0 MSTORE PUSH1 0x22 PUSH1 0x4 MSTORE PUSH1 0x24 PUSH1 0x0 REVERT JUMPDEST PUSH1 0x0 PUSH1 0x2 DUP3 DIV SWAP1 POP PUSH1 0x1 DUP3 AND DUP1 PUSH2 0x4BF6 JUMPI PUSH1 0x7F DUP3 AND SWAP2 POP JUMPDEST PUSH1 0x20 DUP3 LT DUP2 EQ ISZERO PUSH2 0x4C0A JUMPI PUSH2 0x4C09 PUSH2 0x4BAF JUMP JUMPDEST JUMPDEST POP SWAP2 SWAP1 POP JUMP JUMPDEST PUSH32 0x4552433732313A20617070726F76656420717565727920666F72206E6F6E6578 PUSH1 0x0 DUP3 ADD MSTORE PUSH32 0x697374656E7420746F6B656E0000000000000000000000000000000000000000 PUSH1 0x20 DUP3 ADD MSTORE POP JUMP JUMPDEST PUSH1 0x0 PUSH2 0x4C6C PUSH1 0x2C DUP4 PUSH2 0x3F25 JUMP JUMPDEST SWAP2 POP PUSH2 0x4C77 DUP3 PUSH2 0x4C10 JUMP JUMPDEST PUSH1 0x40 DUP3 ADD SWAP1 POP SWAP2 SWAP1 POP JUMP JUMPDEST PUSH1 0x0 PUSH1 0x20 DUP3 ADD SWAP1 POP DUP2 DUP2 SUB PUSH1 0x0 DUP4 ADD MSTORE PUSH2 0x4C9B DUP2 PUSH2 0x4C5F JUMP JUMPDEST SWAP1 POP SWAP2 SWAP1 POP JUMP JUMPDEST PUSH32 0x4552433732313A20617070726F76616C20746F2063757272656E74206F776E65 PUSH1 0x0 DUP3 ADD MSTORE PUSH32 0x7200000000000000000000000000000000000000000000000000000000000000 PUSH1 0x20 DUP3 ADD MSTORE POP JUMP JUMPDEST PUSH1 0x0 PUSH2 0x4CFE PUSH1 0x21 DUP4 PUSH2 0x3F25 JUMP JUMPDEST SWAP2 POP PUSH2 0x4D09 DUP3 PUSH2 0x4CA2 JUMP JUMPDEST PUSH1 0x40 DUP3 ADD SWAP1 POP SWAP2 SWAP1 POP JUMP JUMPDEST PUSH1 0x0 PUSH1 0x20 DUP3 ADD SWAP1 POP DUP2 DUP2 SUB PUSH1 0x0 DUP4 ADD MSTORE PUSH2 0x4D2D DUP2 PUSH2 0x4CF1 JUMP JUMPDEST SWAP1 POP SWAP2 SWAP1 POP JUMP JUMPDEST PUSH32 0x4552433732313A20617070726F76652063616C6C6572206973206E6F74206F77 PUSH1 0x0 DUP3 ADD MSTORE PUSH32 0x6E6572206E6F7220617070726F76656420666F7220616C6C0000000000000000 PUSH1 0x20 DUP3 ADD MSTORE POP JUMP JUMPDEST PUSH1 0x0 PUSH2 0x4D90 PUSH1 0x38 DUP4 PUSH2 0x3F25 JUMP JUMPDEST SWAP2 POP PUSH2 0x4D9B DUP3 PUSH2 0x4D34 JUMP JUMPDEST PUSH1 0x40 DUP3 ADD SWAP1 POP SWAP2 SWAP1 POP JUMP JUMPDEST PUSH1 0x0 PUSH1 0x20 DUP3 ADD SWAP1 POP DUP2 DUP2 SUB PUSH1 0x0 DUP4 ADD MSTORE PUSH2 0x4DBF DUP2 PUSH2 0x4D83 JUMP JUMPDEST SWAP1 POP SWAP2 SWAP1 POP JUMP JUMPDEST PUSH1 0x0 DUP2 SWAP1 POP SWAP3 SWAP2 POP POP JUMP JUMPDEST PUSH1 0x0 PUSH2 0x4DDD DUP4 DUP6 PUSH2 0x4DC6 JUMP JUMPDEST SWAP4 POP PUSH2 0x4DEA DUP4 DUP6 DUP5 PUSH2 0x4400 JUMP JUMPDEST DUP3 DUP5 ADD SWAP1 POP SWAP4 SWAP3 POP POP POP JUMP JUMPDEST PUSH1 0x0 PUSH2 0x4E03 DUP3 DUP5 DUP7 PUSH2 0x4DD1 JUMP JUMPDEST SWAP2 POP DUP2 SWAP1 POP SWAP4 SWAP3 POP POP POP JUMP JUMPDEST PUSH1 0x0 PUSH2 0x4E1B DUP4 DUP6 PUSH2 0x3F25 JUMP JUMPDEST SWAP4 POP PUSH2 0x4E28 DUP4 DUP6 DUP5 PUSH2 0x4400 JUMP JUMPDEST PUSH2 0x4E31 DUP4 PUSH2 0x3F69 JUMP JUMPDEST DUP5 ADD SWAP1 POP SWAP4 SWAP3 POP POP POP JUMP JUMPDEST PUSH1 0x0 PUSH1 0x20 DUP3 ADD SWAP1 POP DUP2 DUP2 SUB PUSH1 0x0 DUP4 ADD MSTORE PUSH2 0x4E57 DUP2 DUP5 DUP7 PUSH2 0x4E0F JUMP JUMPDEST SWAP1 POP SWAP4 SWAP3 POP POP POP JUMP JUMPDEST PUSH32 0x4552433732313A207472616E736665722063616C6C6572206973206E6F74206F PUSH1 0x0 DUP3 ADD MSTORE PUSH32 0x776E6572206E6F7220617070726F766564000000000000000000000000000000 PUSH1 0x20 DUP3 ADD MSTORE POP JUMP JUMPDEST PUSH1 0x0 PUSH2 0x4EBC PUSH1 0x31 DUP4 PUSH2 0x3F25 JUMP JUMPDEST SWAP2 POP PUSH2 0x4EC7 DUP3 PUSH2 0x4E60 JUMP JUMPDEST PUSH1 0x40 DUP3 ADD SWAP1 POP SWAP2 SWAP1 POP JUMP JUMPDEST PUSH1 0x0 PUSH1 0x20 DUP3 ADD SWAP1 POP DUP2 DUP2 SUB PUSH1 0x0 DUP4 ADD MSTORE PUSH2 0x4EEB DUP2 PUSH2 0x4EAF JUMP JUMPDEST SWAP1 POP SWAP2 SWAP1 POP JUMP JUMPDEST PUSH1 0x0 DUP2 SWAP1 POP SWAP3 SWAP2 POP POP JUMP JUMPDEST POP JUMP JUMPDEST PUSH1 0x0 PUSH2 0x4F0D PUSH1 0x0 DUP4 PUSH2 0x4EF2 JUMP JUMPDEST SWAP2 POP PUSH2 0x4F18 DUP3 PUSH2 0x4EFD JUMP JUMPDEST PUSH1 0x0 DUP3 ADD SWAP1 POP SWAP2 SWAP1 POP JUMP JUMPDEST PUSH1 0x0 PUSH2 0x4F2E DUP3 PUSH2 0x4F00 JUMP JUMPDEST SWAP2 POP DUP2 SWAP1 POP SWAP2 SWAP1 POP JUMP JUMPDEST PUSH32 0x4661696C656420746F2077697468647261772066756E64730000000000000000 PUSH1 0x0 DUP3 ADD MSTORE POP JUMP JUMPDEST PUSH1 0x0 PUSH2 0x4F6E PUSH1 0x18 DUP4 PUSH2 0x3F25 JUMP JUMPDEST SWAP2 POP PUSH2 0x4F79 DUP3 PUSH2 0x4F38 JUMP JUMPDEST PUSH1 0x20 DUP3 ADD SWAP1 POP SWAP2 SWAP1 POP JUMP JUMPDEST PUSH1 0x0 PUSH1 0x20 DUP3 ADD SWAP1 POP DUP2 DUP2 SUB PUSH1 0x0 DUP4 ADD MSTORE PUSH2 0x4F9D DUP2 PUSH2 0x4F61 JUMP JUMPDEST SWAP1 POP SWAP2 SWAP1 POP JUMP JUMPDEST PUSH32 0x4E487B7100000000000000000000000000000000000000000000000000000000 PUSH1 0x0 MSTORE PUSH1 0x32 PUSH1 0x4 MSTORE PUSH1 0x24 PUSH1 0x0 REVERT JUMPDEST PUSH32 0x4E487B7100000000000000000000000000000000000000000000000000000000 PUSH1 0x0 MSTORE PUSH1 0x11 PUSH1 0x4 MSTORE PUSH1 0x24 PUSH1 0x0 REVERT JUMPDEST PUSH1 0x0 PUSH2 0x500D DUP3 PUSH2 0x3FD5 JUMP JUMPDEST SWAP2 POP PUSH32 0xFFFFFFFFFFFFFFFFFFFFFFFFFFFFFFFFFFFFFFFFFFFFFFFFFFFFFFFFFFFFFFFF DUP3 EQ ISZERO PUSH2 0x5040 JUMPI PUSH2 0x503F PUSH2 0x4FD3 JUMP JUMPDEST JUMPDEST PUSH1 0x1 DUP3 ADD SWAP1 POP SWAP2 SWAP1 POP JUMP JUMPDEST PUSH32 0x4552433732313A206F776E657220717565727920666F72206E6F6E6578697374 PUSH1 0x0 DUP3 ADD MSTORE PUSH32 0x656E7420746F6B656E0000000000000000000000000000000000000000000000 PUSH1 0x20 DUP3 ADD MSTORE POP JUMP JUMPDEST PUSH1 0x0 PUSH2 0x50A7 PUSH1 0x29 DUP4 PUSH2 0x3F25 JUMP JUMPDEST SWAP2 POP PUSH2 0x50B2 DUP3 PUSH2 0x504B JUMP JUMPDEST PUSH1 0x40 DUP3 ADD SWAP1 POP SWAP2 SWAP1 POP JUMP JUMPDEST PUSH1 0x0 PUSH1 0x20 DUP3 ADD SWAP1 POP DUP2 DUP2 SUB PUSH1 0x0 DUP4 ADD MSTORE PUSH2 0x50D6 DUP2 PUSH2 0x509A JUMP JUMPDEST SWAP1 POP SWAP2 SWAP1 POP JUMP JUMPDEST PUSH32 0x4552433732313A2062616C616E636520717565727920666F7220746865207A65 PUSH1 0x0 DUP3 ADD MSTORE PUSH32 0x726F206164647265737300000000000000000000000000000000000000000000 PUSH1 0x20 DUP3 ADD MSTORE POP JUMP JUMPDEST PUSH1 0x0 PUSH2 0x5139 PUSH1 0x2A DUP4 PUSH2 0x3F25 JUMP JUMPDEST SWAP2 POP PUSH2 0x5144 DUP3 PUSH2 0x50DD JUMP JUMPDEST PUSH1 0x40 DUP3 ADD SWAP1 POP SWAP2 SWAP1 POP JUMP JUMPDEST PUSH1 0x0 PUSH1 0x20 DUP3 ADD SWAP1 POP DUP2 DUP2 SUB PUSH1 0x0 DUP4 ADD MSTORE PUSH2 0x5168 DUP2 PUSH2 0x512C JUMP JUMPDEST SWAP1 POP SWAP2 SWAP1 POP JUMP JUMPDEST PUSH32 0x4E487B7100000000000000000000000000000000000000000000000000000000 PUSH1 0x0 MSTORE PUSH1 0x21 PUSH1 0x4 MSTORE PUSH1 0x24 PUSH1 0x0 REVERT JUMPDEST PUSH32 0x5265636F7264206E6F7420666F756E6400000000000000000000000000000000 PUSH1 0x0 DUP3 ADD MSTORE POP JUMP JUMPDEST PUSH1 0x0 PUSH2 0x51D4 PUSH1 0x10 DUP4 PUSH2 0x3F25 JUMP JUMPDEST SWAP2 POP PUSH2 0x51DF DUP3 PUSH2 0x519E JUMP JUMPDEST PUSH1 0x20 DUP3 ADD SWAP1 POP SWAP2 SWAP1 POP JUMP JUMPDEST PUSH1 0x0 PUSH1 0x20 DUP3 ADD SWAP1 POP DUP2 DUP2 SUB PUSH1 0x0 DUP4 ADD MSTORE PUSH2 0x5203 DUP2 PUSH2 0x51C7 JUMP JUMPDEST SWAP1 POP SWAP2 SWAP1 POP JUMP JUMPDEST PUSH32 0x4164647265737320756E6B6E6F776E0000000000000000000000000000000000 PUSH1 0x0 DUP3 ADD MSTORE POP JUMP JUMPDEST PUSH1 0x0 PUSH2 0x5240 PUSH1 0xF DUP4 PUSH2 0x3F25 JUMP JUMPDEST SWAP2 POP PUSH2 0x524B DUP3 PUSH2 0x520A JUMP JUMPDEST PUSH1 0x20 DUP3 ADD SWAP1 POP SWAP2 SWAP1 POP JUMP JUMPDEST PUSH1 0x0 PUSH1 0x20 DUP3 ADD SWAP1 POP DUP2 DUP2 SUB PUSH1 0x0 DUP4 ADD MSTORE PUSH2 0x526F DUP2 PUSH2 0x5233 JUMP JUMPDEST SWAP1 POP SWAP2 SWAP1 POP JUMP JUMPDEST PUSH1 0x0 DUP2 SWAP1 POP DUP2 PUSH1 0x0 MSTORE PUSH1 0x20 PUSH1 0x0 KECCAK256 SWAP1 POP SWAP2 SWAP1 POP JUMP JUMPDEST PUSH1 0x0 DUP2 SLOAD PUSH2 0x5298 DUP2 PUSH2 0x4BDE JUMP JUMPDEST PUSH2 0x52A2 DUP2 DUP7 PUSH2 0x4DC6 JUMP JUMPDEST SWAP5 POP PUSH1 0x1 DUP3 AND PUSH1 0x0 DUP2 EQ PUSH2 0x52BD JUMPI PUSH1 0x1 DUP2 EQ PUSH2 0x52CE JUMPI PUSH2 0x5301 JUMP JUMPDEST PUSH1 0xFF NOT DUP4 AND DUP7 MSTORE DUP2 DUP7 ADD SWAP4 POP PUSH2 0x5301 JUMP JUMPDEST PUSH2 0x52D7 DUP6 PUSH2 0x5276 JUMP JUMPDEST PUSH1 0x0 JUMPDEST DUP4 DUP2 LT ISZERO PUSH2 0x52F9 JUMPI DUP2 SLOAD DUP2 DUP10 ADD MSTORE PUSH1 0x1 DUP3 ADD SWAP2 POP PUSH1 0x20 DUP2 ADD SWAP1 POP PUSH2 0x52DA JUMP JUMPDEST DUP4 DUP9 ADD SWAP6 POP POP POP JUMPDEST POP POP POP SWAP3 SWAP2 POP POP JUMP JUMPDEST PUSH32 0x2E00000000000000000000000000000000000000000000000000000000000000 PUSH1 0x0 DUP3 ADD MSTORE POP JUMP JUMPDEST PUSH1 0x0 PUSH2 0x5340 PUSH1 0x1 DUP4 PUSH2 0x4DC6 JUMP JUMPDEST SWAP2 POP PUSH2 0x534B DUP3 PUSH2 0x530A JUMP JUMPDEST PUSH1 0x1 DUP3 ADD SWAP1 POP SWAP2 SWAP1 POP JUMP JUMPDEST PUSH1 0x0 PUSH2 0x5362 DUP3 DUP6 PUSH2 0x528B JUMP JUMPDEST SWAP2 POP PUSH2 0x536D DUP3 PUSH2 0x5333 JUMP JUMPDEST SWAP2 POP PUSH2 0x5379 DUP3 DUP5 PUSH2 0x528B JUMP JUMPDEST SWAP2 POP DUP2 SWAP1 POP SWAP4 SWAP3 POP POP POP JUMP JUMPDEST PUSH1 0x0 PUSH2 0x5391 DUP3 DUP5 PUSH2 0x528B JUMP JUMPDEST SWAP2 POP DUP2 SWAP1 POP SWAP3 SWAP2 POP POP JUMP JUMPDEST PUSH1 0x0 PUSH2 0x53A7 DUP3 PUSH2 0x3F1A JUMP JUMPDEST PUSH2 0x53B1 DUP2 DUP6 PUSH2 0x4DC6 JUMP JUMPDEST SWAP4 POP PUSH2 0x53C1 DUP2 DUP6 PUSH1 0x20 DUP7 ADD PUSH2 0x3F36 JUMP JUMPDEST DUP1 DUP5 ADD SWAP2 POP POP SWAP3 SWAP2 POP POP JUMP JUMPDEST PUSH1 0x0 PUSH2 0x53D9 DUP3 DUP7 PUSH2 0x528B JUMP JUMPDEST SWAP2 POP PUSH2 0x53E5 DUP3 DUP6 PUSH2 0x539C JUMP JUMPDEST SWAP2 POP PUSH2 0x53F1 DUP3 DUP5 PUSH2 0x528B JUMP JUMPDEST SWAP2 POP DUP2 SWAP1 POP SWAP5 SWAP4 POP POP POP POP JUMP JUMPDEST PUSH32 0x646174613A696D6167652F7376672B786D6C3B6261736536342C000000000000 PUSH1 0x0 DUP3 ADD MSTORE POP JUMP JUMPDEST PUSH1 0x0 PUSH2 0x5434 PUSH1 0x1A DUP4 PUSH2 0x4DC6 JUMP JUMPDEST SWAP2 POP PUSH2 0x543F DUP3 PUSH2 0x53FE JUMP JUMPDEST PUSH1 0x1A DUP3 ADD SWAP1 POP SWAP2 SWAP1 POP JUMP JUMPDEST PUSH1 0x0 PUSH2 0x5455 DUP3 PUSH2 0x5427 JUMP JUMPDEST SWAP2 POP PUSH2 0x5461 DUP3 DUP5 PUSH2 0x539C JUMP JUMPDEST SWAP2 POP DUP2 SWAP1 POP SWAP3 SWAP2 POP POP JUMP JUMPDEST PUSH32 0x7B226E616D65223A202200000000000000000000000000000000000000000000 PUSH1 0x0 DUP3 ADD MSTORE POP JUMP JUMPDEST PUSH1 0x0 PUSH2 0x54A2 PUSH1 0xA DUP4 PUSH2 0x4DC6 JUMP JUMPDEST SWAP2 POP PUSH2 0x54AD DUP3 PUSH2 0x546C JUMP JUMPDEST PUSH1 0xA DUP3 ADD SWAP1 POP SWAP2 SWAP1 POP JUMP JUMPDEST PUSH32 0x222C20226465736372697074696F6E223A20224120646F6D61696E206F6E2074 PUSH1 0x0 DUP3 ADD MSTORE PUSH32 0x6865204173746172206E616D652073657276696365222C2022696D616765223A PUSH1 0x20 DUP3 ADD MSTORE PUSH32 0x2022000000000000000000000000000000000000000000000000000000000000 PUSH1 0x40 DUP3 ADD MSTORE POP JUMP JUMPDEST PUSH1 0x0 PUSH2 0x553A PUSH1 0x42 DUP4 PUSH2 0x4DC6 JUMP JUMPDEST SWAP2 POP PUSH2 0x5545 DUP3 PUSH2 0x54B8 JUMP JUMPDEST PUSH1 0x42 DUP3 ADD SWAP1 POP SWAP2 SWAP1 POP JUMP JUMPDEST PUSH32 0x222C226C656E677468223A220000000000000000000000000000000000000000 PUSH1 0x0 DUP3 ADD MSTORE POP JUMP JUMPDEST PUSH1 0x0 PUSH2 0x5586 PUSH1 0xC DUP4 PUSH2 0x4DC6 JUMP JUMPDEST SWAP2 POP PUSH2 0x5591 DUP3 PUSH2 0x5550 JUMP JUMPDEST PUSH1 0xC DUP3 ADD SWAP1 POP SWAP2 SWAP1 POP JUMP JUMPDEST PUSH32 0x227D000000000000000000000000000000000000000000000000000000000000 PUSH1 0x0 DUP3 ADD MSTORE POP JUMP JUMPDEST PUSH1 0x0 PUSH2 0x55D2 PUSH1 0x2 DUP4 PUSH2 0x4DC6 JUMP JUMPDEST SWAP2 POP PUSH2 0x55DD DUP3 PUSH2 0x559C JUMP JUMPDEST PUSH1 0x2 DUP3 ADD SWAP1 POP SWAP2 SWAP1 POP JUMP JUMPDEST PUSH1 0x0 PUSH2 0x55F3 DUP3 PUSH2 0x5495 JUMP JUMPDEST SWAP2 POP PUSH2 0x55FF DUP3 DUP7 PUSH2 0x539C JUMP JUMPDEST SWAP2 POP PUSH2 0x560A DUP3 PUSH2 0x552D JUMP JUMPDEST SWAP2 POP PUSH2 0x5616 DUP3 DUP6 PUSH2 0x539C JUMP JUMPDEST SWAP2 POP PUSH2 0x5621 DUP3 PUSH2 0x5579 JUMP JUMPDEST SWAP2 POP PUSH2 0x562D DUP3 DUP5 PUSH2 0x539C JUMP JUMPDEST SWAP2 POP PUSH2 0x5638 DUP3 PUSH2 0x55C5 JUMP JUMPDEST SWAP2 POP DUP2 SWAP1 POP SWAP5 SWAP4 POP POP POP POP JUMP JUMPDEST PUSH32 0x646174613A6170706C69636174696F6E2F6A736F6E3B6261736536342C000000 PUSH1 0x0 DUP3 ADD MSTORE POP JUMP JUMPDEST PUSH1 0x0 PUSH2 0x567B PUSH1 0x1D DUP4 PUSH2 0x4DC6 JUMP JUMPDEST SWAP2 POP PUSH2 0x5686 DUP3 PUSH2 0x5645 JUMP JUMPDEST PUSH1 0x1D DUP3 ADD SWAP1 POP SWAP2 SWAP1 POP JUMP JUMPDEST PUSH1 0x0 PUSH2 0x569C DUP3 PUSH2 0x566E JUMP JUMPDEST SWAP2 POP PUSH2 0x56A8 DUP3 DUP5 PUSH2 0x539C JUMP JUMPDEST SWAP2 POP DUP2 SWAP1 POP SWAP3 SWAP2 POP POP JUMP JUMPDEST PUSH1 0x0 DUP2 MLOAD SWAP1 POP PUSH2 0x56C2 DUP2 PUSH2 0x3FDF JUMP JUMPDEST SWAP3 SWAP2 POP POP JUMP JUMPDEST PUSH1 0x0 PUSH1 0x20 DUP3 DUP5 SUB SLT ISZERO PUSH2 0x56DE JUMPI PUSH2 0x56DD PUSH2 0x3E55 JUMP JUMPDEST JUMPDEST PUSH1 0x0 PUSH2 0x56EC DUP5 DUP3 DUP6 ADD PUSH2 0x56B3 JUMP JUMPDEST SWAP2 POP POP SWAP3 SWAP2 POP POP JUMP JUMPDEST PUSH32 0x4E6F7420656E6F7567682066756E647320706169640000000000000000000000 PUSH1 0x0 DUP3 ADD MSTORE POP JUMP JUMPDEST PUSH1 0x0 PUSH2 0x572B PUSH1 0x15 DUP4 PUSH2 0x3F25 JUMP JUMPDEST SWAP2 POP PUSH2 0x5736 DUP3 PUSH2 0x56F5 JUMP JUMPDEST PUSH1 0x20 DUP3 ADD SWAP1 POP SWAP2 SWAP1 POP JUMP JUMPDEST PUSH1 0x0 PUSH1 0x20 DUP3 ADD SWAP1 POP DUP2 DUP2 SUB PUSH1 0x0 DUP4 ADD MSTORE PUSH2 0x575A DUP2 PUSH2 0x571E JUMP JUMPDEST SWAP1 POP SWAP2 SWAP1 POP JUMP JUMPDEST PUSH1 0x0 PUSH2 0x576C DUP3 PUSH2 0x3FD5 JUMP JUMPDEST SWAP2 POP PUSH2 0x5777 DUP4 PUSH2 0x3FD5 JUMP JUMPDEST SWAP3 POP DUP3 DUP3 LT ISZERO PUSH2 0x578A JUMPI PUSH2 0x5789 PUSH2 0x4FD3 JUMP JUMPDEST JUMPDEST DUP3 DUP3 SUB SWAP1 POP SWAP3 SWAP2 POP POP JUMP JUMPDEST PUSH32 0x4552433732313A206F70657261746F7220717565727920666F72206E6F6E6578 PUSH1 0x0 DUP3 ADD MSTORE PUSH32 0x697374656E7420746F6B656E0000000000000000000000000000000000000000 PUSH1 0x20 DUP3 ADD MSTORE POP JUMP JUMPDEST PUSH1 0x0 PUSH2 0x57F1 PUSH1 0x2C DUP4 PUSH2 0x3F25 JUMP JUMPDEST SWAP2 POP PUSH2 0x57FC DUP3 PUSH2 0x5795 JUMP JUMPDEST PUSH1 0x40 DUP3 ADD SWAP1 POP SWAP2 SWAP1 POP JUMP JUMPDEST PUSH1 0x0 PUSH1 0x20 DUP3 ADD SWAP1 POP DUP2 DUP2 SUB PUSH1 0x0 DUP4 ADD MSTORE PUSH2 0x5820 DUP2 PUSH2 0x57E4 JUMP JUMPDEST SWAP1 POP SWAP2 SWAP1 POP JUMP JUMPDEST PUSH32 0x4552433732313A207472616E73666572206F6620746F6B656E20746861742069 PUSH1 0x0 DUP3 ADD MSTORE PUSH32 0x73206E6F74206F776E0000000000000000000000000000000000000000000000 PUSH1 0x20 DUP3 ADD MSTORE POP JUMP JUMPDEST PUSH1 0x0 PUSH2 0x5883 PUSH1 0x29 DUP4 PUSH2 0x3F25 JUMP JUMPDEST SWAP2 POP PUSH2 0x588E DUP3 PUSH2 0x5827 JUMP JUMPDEST PUSH1 0x40 DUP3 ADD SWAP1 POP SWAP2 SWAP1 POP JUMP JUMPDEST PUSH1 0x0 PUSH1 0x20 DUP3 ADD SWAP1 POP DUP2 DUP2 SUB PUSH1 0x0 DUP4 ADD MSTORE PUSH2 0x58B2 DUP2 PUSH2 0x5876 JUMP JUMPDEST SWAP1 POP SWAP2 SWAP1 POP JUMP JUMPDEST PUSH32 0x4552433732313A207472616E7366657220746F20746865207A65726F20616464 PUSH1 0x0 DUP3 ADD MSTORE PUSH32 0x7265737300000000000000000000000000000000000000000000000000000000 PUSH1 0x20 DUP3 ADD MSTORE POP JUMP JUMPDEST PUSH1 0x0 PUSH2 0x5915 PUSH1 0x24 DUP4 PUSH2 0x3F25 JUMP JUMPDEST SWAP2 POP PUSH2 0x5920 DUP3 PUSH2 0x58B9 JUMP JUMPDEST PUSH1 0x40 DUP3 ADD SWAP1 POP SWAP2 SWAP1 POP JUMP JUMPDEST PUSH1 0x0 PUSH1 0x20 DUP3 ADD SWAP1 POP DUP2 DUP2 SUB PUSH1 0x0 DUP4 ADD MSTORE PUSH2 0x5944 DUP2 PUSH2 0x5908 JUMP JUMPDEST SWAP1 POP SWAP2 SWAP1 POP JUMP JUMPDEST PUSH1 0x0 PUSH2 0x5956 DUP3 PUSH2 0x3FD5 JUMP JUMPDEST SWAP2 POP PUSH2 0x5961 DUP4 PUSH2 0x3FD5 JUMP JUMPDEST SWAP3 POP DUP3 PUSH32 0xFFFFFFFFFFFFFFFFFFFFFFFFFFFFFFFFFFFFFFFFFFFFFFFFFFFFFFFFFFFFFFFF SUB DUP3 GT ISZERO PUSH2 0x5996 JUMPI PUSH2 0x5995 PUSH2 0x4FD3 JUMP JUMPDEST JUMPDEST DUP3 DUP3 ADD SWAP1 POP SWAP3 SWAP2 POP POP JUMP JUMPDEST PUSH32 0x4552433732313A20617070726F766520746F2063616C6C657200000000000000 PUSH1 0x0 DUP3 ADD MSTORE POP JUMP JUMPDEST PUSH1 0x0 PUSH2 0x59D7 PUSH1 0x19 DUP4 PUSH2 0x3F25 JUMP JUMPDEST SWAP2 POP PUSH2 0x59E2 DUP3 PUSH2 0x59A1 JUMP JUMPDEST PUSH1 0x20 DUP3 ADD SWAP1 POP SWAP2 SWAP1 POP JUMP JUMPDEST PUSH1 0x0 PUSH1 0x20 DUP3 ADD SWAP1 POP DUP2 DUP2 SUB PUSH1 0x0 DUP4 ADD MSTORE PUSH2 0x5A06 DUP2 PUSH2 0x59CA JUMP JUMPDEST SWAP1 POP SWAP2 SWAP1 POP JUMP JUMPDEST PUSH32 0x4552433732313A207472616E7366657220746F206E6F6E204552433732315265 PUSH1 0x0 DUP3 ADD MSTORE PUSH32 0x63656976657220696D706C656D656E7465720000000000000000000000000000 PUSH1 0x20 DUP3 ADD MSTORE POP JUMP JUMPDEST PUSH1 0x0 PUSH2 0x5A69 PUSH1 0x32 DUP4 PUSH2 0x3F25 JUMP JUMPDEST SWAP2 POP PUSH2 0x5A74 DUP3 PUSH2 0x5A0D JUMP JUMPDEST PUSH1 0x40 DUP3 ADD SWAP1 POP SWAP2 SWAP1 POP JUMP JUMPDEST PUSH1 0x0 PUSH1 0x20 DUP3 ADD SWAP1 POP DUP2 DUP2 SUB PUSH1 0x0 DUP4 ADD MSTORE PUSH2 0x5A98 DUP2 PUSH2 0x5A5C JUMP JUMPDEST SWAP1 POP SWAP2 SWAP1 POP JUMP JUMPDEST PUSH32 0x4E487B7100000000000000000000000000000000000000000000000000000000 PUSH1 0x0 MSTORE PUSH1 0x12 PUSH1 0x4 MSTORE PUSH1 0x24 PUSH1 0x0 REVERT JUMPDEST PUSH1 0x0 PUSH2 0x5AD9 DUP3 PUSH2 0x3FD5 JUMP JUMPDEST SWAP2 POP PUSH2 0x5AE4 DUP4 PUSH2 0x3FD5 JUMP JUMPDEST SWAP3 POP DUP3 PUSH2 0x5AF4 JUMPI PUSH2 0x5AF3 PUSH2 0x5A9F JUMP JUMPDEST JUMPDEST DUP3 DUP3 DIV SWAP1 POP SWAP3 SWAP2 POP POP JUMP JUMPDEST PUSH1 0x0 PUSH2 0x5B0A DUP3 PUSH2 0x3FD5 JUMP JUMPDEST SWAP2 POP PUSH2 0x5B15 DUP4 PUSH2 0x3FD5 JUMP JUMPDEST SWAP3 POP DUP3 PUSH2 0x5B25 JUMPI PUSH2 0x5B24 PUSH2 0x5A9F JUMP JUMPDEST JUMPDEST DUP3 DUP3 MOD SWAP1 POP SWAP3 SWAP2 POP POP JUMP JUMPDEST PUSH1 0x0 PUSH2 0x5B3B DUP3 PUSH2 0x3FD5 JUMP JUMPDEST SWAP2 POP PUSH2 0x5B46 DUP4 PUSH2 0x3FD5 JUMP JUMPDEST SWAP3 POP DUP2 PUSH32 0xFFFFFFFFFFFFFFFFFFFFFFFFFFFFFFFFFFFFFFFFFFFFFFFFFFFFFFFFFFFFFFFF DIV DUP4 GT DUP3 ISZERO ISZERO AND ISZERO PUSH2 0x5B7F JUMPI PUSH2 0x5B7E PUSH2 0x4FD3 JUMP JUMPDEST JUMPDEST DUP3 DUP3 MUL SWAP1 POP SWAP3 SWAP2 POP POP JUMP JUMPDEST PUSH1 0x0 DUP2 MLOAD SWAP1 POP SWAP2 SWAP1 POP JUMP JUMPDEST PUSH1 0x0 DUP3 DUP3 MSTORE PUSH1 0x20 DUP3 ADD SWAP1 POP SWAP3 SWAP2 POP POP JUMP JUMPDEST PUSH1 0x0 PUSH2 0x5BB1 DUP3 PUSH2 0x5B8A JUMP JUMPDEST PUSH2 0x5BBB DUP2 DUP6 PUSH2 0x5B95 JUMP JUMPDEST SWAP4 POP PUSH2 0x5BCB DUP2 DUP6 PUSH1 0x20 DUP7 ADD PUSH2 0x3F36 JUMP JUMPDEST PUSH2 0x5BD4 DUP2 PUSH2 0x3F69 JUMP JUMPDEST DUP5 ADD SWAP2 POP POP SWAP3 SWAP2 POP POP JUMP JUMPDEST PUSH1 0x0 PUSH1 0x80 DUP3 ADD SWAP1 POP PUSH2 0x5BF4 PUSH1 0x0 DUP4 ADD DUP8 PUSH2 0x406A JUMP JUMPDEST PUSH2 0x5C01 PUSH1 0x20 DUP4 ADD DUP7 PUSH2 0x406A JUMP JUMPDEST PUSH2 0x5C0E PUSH1 0x40 DUP4 ADD DUP6 PUSH2 0x4325 JUMP JUMPDEST DUP2 DUP2 SUB PUSH1 0x60 DUP4 ADD MSTORE PUSH2 0x5C20 DUP2 DUP5 PUSH2 0x5BA6 JUMP JUMPDEST SWAP1 POP SWAP6 SWAP5 POP POP POP POP POP JUMP JUMPDEST PUSH1 0x0 DUP2 MLOAD SWAP1 POP PUSH2 0x5C3A DUP2 PUSH2 0x3E8B JUMP JUMPDEST SWAP3 SWAP2 POP POP JUMP JUMPDEST PUSH1 0x0 PUSH1 0x20 DUP3 DUP5 SUB SLT ISZERO PUSH2 0x5C56 JUMPI PUSH2 0x5C55 PUSH2 0x3E55 JUMP JUMPDEST JUMPDEST PUSH1 0x0 PUSH2 0x5C64 DUP5 DUP3 DUP6 ADD PUSH2 0x5C2B JUMP JUMPDEST SWAP2 POP POP SWAP3 SWAP2 POP POP JUMP JUMPDEST PUSH32 0x4552433732313A206D696E7420746F20746865207A65726F2061646472657373 PUSH1 0x0 DUP3 ADD MSTORE POP JUMP JUMPDEST PUSH1 0x0 PUSH2 0x5CA3 PUSH1 0x20 DUP4 PUSH2 0x3F25 JUMP JUMPDEST SWAP2 POP PUSH2 0x5CAE DUP3 PUSH2 0x5C6D JUMP JUMPDEST PUSH1 0x20 DUP3 ADD SWAP1 POP SWAP2 SWAP1 POP JUMP JUMPDEST PUSH1 0x0 PUSH1 0x20 DUP3 ADD SWAP1 POP DUP2 DUP2 SUB PUSH1 0x0 DUP4 ADD MSTORE PUSH2 0x5CD2 DUP2 PUSH2 0x5C96 JUMP JUMPDEST SWAP1 POP SWAP2 SWAP1 POP JUMP JUMPDEST PUSH32 0x4552433732313A20746F6B656E20616C7265616479206D696E74656400000000 PUSH1 0x0 DUP3 ADD MSTORE POP JUMP JUMPDEST PUSH1 0x0 PUSH2 0x5D0F PUSH1 0x1C DUP4 PUSH2 0x3F25 JUMP JUMPDEST SWAP2 POP PUSH2 0x5D1A DUP3 PUSH2 0x5CD9 JUMP JUMPDEST PUSH1 0x20 DUP3 ADD SWAP1 POP SWAP2 SWAP1 POP JUMP JUMPDEST PUSH1 0x0 PUSH1 0x20 DUP3 ADD SWAP1 POP DUP2 DUP2 SUB PUSH1 0x0 DUP4 ADD MSTORE PUSH2 0x5D3E DUP2 PUSH2 0x5D02 JUMP JUMPDEST SWAP1 POP SWAP2 SWAP1 POP JUMP INVALID COINBASE TIMESTAMP NUMBER DIFFICULTY GASLIMIT CHAINID SELFBALANCE BASEFEE 0x49 0x4A 0x4B 0x4C 0x4D 0x4E 0x4F POP MLOAD MSTORE MSTORE8 SLOAD SSTORE JUMP JUMPI PC MSIZE GAS PUSH2 0x6263 PUSH5 0x6566676869 PUSH11 0x6B6C6D6E6F707172737475 PUSH23 0x7778797A303132333435363738392B2FA2646970667358 0x22 SLT KECCAK256 XOR 0xAD PUSH20 0x4739C5FBC212FA367BE2D4130A75CC6865C744FB ADDRESS 0x4B DUP1 DUP11 0xB7 0xDA 0x21 0xB6 CALLDATASIZE PUSH5 0x736F6C6343 STOP ADDMOD EXP STOP CALLER EXTCODECOPY PUSH20 0x766720636C6173734E616D653D22617661746172 MSTORE8 JUMP SELFBALANCE 0x22 KECCAK256 PUSH25 0x6D6C6E733D22687474703A2F2F7777772E77332E6F72672F32 ADDRESS ADDRESS ADDRESS 0x2F PUSH20 0x7667222077696474683D22323730222068656967 PUSH9 0x743D22323730222066 PUSH10 0x6C6C3D226E6F6E65223E KECCAK256 EXTCODECOPY PUSH17 0x6174682066696C6C3D2275726C28234229 0x22 KECCAK256 PUSH5 0x3D224D3020 ADDRESS PUSH9 0x323730763237304830 PUSH27 0x222F3E3C646566733E3C66696C7465722069643D22412220636F6C PUSH16 0x722D696E746572706F6C6174696F6E2D PUSH7 0x696C746572733D 0x22 PUSH20 0x524742222066696C746572556E6974733D227573 PUSH6 0x725370616365 0x4F PUSH15 0x55736522206865696768743D223237 ADDRESS 0x22 KECCAK256 PUSH24 0x696474683D22323730223E3C666544726F70536861646F77 KECCAK256 PUSH5 0x783D223022 KECCAK256 PUSH5 0x793D223122 KECCAK256 PUSH20 0x7464446576696174696F6E3D22322220666C6F6F PUSH5 0x2D6F706163 PUSH10 0x74793D222E3232352220 PUSH24 0x696474683D223230302522206865696768743D2232303025 0x22 0x2F RETURNDATACOPY EXTCODECOPY 0x2F PUSH7 0x696C7465723E3C 0x2F PUSH5 0x6566733E3C PUSH17 0x61746820636C6173734E616D653D227374 ADDRESS 0x22 KECCAK256 PUSH5 0x3D224D3237 ADDRESS 0x2E CALLER 0x2C ORIGIN CALLDATACOPY ADDRESS 0x2E CALLER BASEFEE ADDRESS JUMP BALANCE CODESIZE 0x2E CALLDATACOPY NUMBER ADDRESS 0x2C CODESIZE 0x2E CALLVALUE 0x2C CODESIZE 0x2E CALLVALUE 0x2C ADDRESS 0x2C BALANCE CODESIZE 0x2E CALLDATACOPY 0x2C ADDRESS PUSH9 0x3233336331302E332C ADDRESS 0x2C BALANCE CODESIZE 0x2E CALLDATACOPY 0x2C CODESIZE 0x2E CALLVALUE 0x2C BALANCE CODESIZE 0x2E CALLDATACOPY 0x2C BALANCE CODESIZE 0x2E CALLDATACOPY PUSH23 0x3235312E364C3237302E332C3237302E334C3237302E33 0x2C ORIGIN CALLDATACOPY ADDRESS 0x2E CALLER PUSH27 0x222F3E3C673E20203C6C696E6561724772616469656E742069643D 0x22 MSTORE8 JUMP SELFBALANCE 0x49 DIFFICULTY 0x5F ORIGIN 0x5F 0x22 KECCAK256 PUSH8 0x72616469656E7455 PUSH15 0x6974733D227573657253706163654F PUSH15 0x557365222078313D2233342E303436 CODESIZE 0x22 KECCAK256 PUSH26 0x313D2239322E39343837222078323D2239332E32313738222079 ORIGIN RETURNDATASIZE 0x22 CALLER CALLER 0x2E CALLDATACOPY CALLDATACOPY CALLDATACOPY CALLDATACOPY 0x22 RETURNDATACOPY EXTCODECOPY PUSH20 0x746F70206F66667365743D22312E323039333230 PUSH6 0x2D3033222073 PUSH21 0x6F702D636F6C6F723D2223453230303744222F3E3C PUSH20 0x746F70206F66667365743D22302E35222073746F PUSH17 0x2D636F6C6F723D2223303037354431222F RETURNDATACOPY EXTCODECOPY PUSH20 0x746F70206F66667365743D2231222073746F702D PUSH4 0x6F6C6F72 RETURNDATASIZE 0x22 0x23 ADDRESS ADDRESS GASLIMIT ORIGIN CHAINID CHAINID 0x22 0x2F RETURNDATACOPY EXTCODECOPY 0x2F PUSH13 0x696E6561724772616469656E74 RETURNDATACOPY KECCAK256 KECCAK256 EXTCODECOPY PUSH17 0x6174682066696C6C3D2275726C28235356 SELFBALANCE 0x49 DIFFICULTY 0x5F ORIGIN 0x5F 0x29 0x22 KECCAK256 PUSH4 0x6C617373 0x4E PUSH2 0x6D65 RETURNDATASIZE 0x22 PUSH20 0x74312220643D224D35392E322C32312E3963322E CODECOPY 0x2D ADDRESS 0x2E CALLER 0x2C CALLDATASIZE 0x2D ADDRESS 0x2E ORIGIN 0x2C CODESIZE 0x2E CALLDATACOPY 0x2C ADDRESS PUSH4 0x332E362C ADDRESS 0x2E CALLDATALOAD 0x2C CALLDATASIZE 0x2E CODESIZE 0x2C BALANCE 0x2E BALANCE 0x2C BALANCE ADDRESS 0x2C ORIGIN 0x2E CALLER PUSH4 0x31332E37 0x2C CALLDATALOAD 0x2E ORIGIN 0x2C ORIGIN ORIGIN 0x2E CALLDATALOAD 0x2C BALANCE CALLDATALOAD 0x2C ORIGIN CALLDATASIZE 0x2E ORIGIN 0x2C ORIGIN CODECOPY 0x2E ORIGIN PUSH4 0x302E372C ORIGIN 0x2E CALLDATACOPY 0x2C BALANCE 0x2C CALLDATALOAD 0x2E CALLDATASIZE 0x2C BALANCE 0x2E CALLDATALOAD 0x2C CODESIZE 0x2E CALLVALUE KECCAK256 KECCAK256 KECCAK256 PUSH4 0x302C312E CALLDATALOAD 0x2C ADDRESS 0x2C ORIGIN 0x2E CODECOPY 0x2C ADDRESS 0x2C CALLVALUE 0x2E CALLVALUE PUSH4 0x2D302E31 0x2C ADDRESS 0x2E CALLDATASIZE 0x2D ADDRESS 0x2E CALLER 0x2C BALANCE 0x2E ORIGIN 0x2D ADDRESS 0x2E CALLER 0x2C BALANCE 0x2E CODESIZE PUSH4 0x2D312E35 0x2C BALANCE CALLDATASIZE 0x2E CODECOPY 0x2D BALANCE CALLER 0x2E CODECOPY 0x2C CALLER BALANCE 0x2E CALLDATALOAD 0x2D CALLER ADDRESS 0x2E CALLVALUE 0x2C CALLER CALLDATALOAD 0x2E CODESIZE PUSH4 0x2D332E32 0x2C ADDRESS 0x2E CODESIZE 0x2D CALLDATALOAD 0x2E CODESIZE 0x2C BALANCE 0x2E CALLDATALOAD 0x2D CODESIZE 0x2E ORIGIN 0x2C BALANCE 0x2E CALLDATACOPY PUSH4 0x2D302E39 0x2C ADDRESS 0x2D ORIGIN 0x2E CALLDATALOAD 0x2C ADDRESS 0x2D CALLER 0x2E CALLVALUE 0x2C ADDRESS KECCAK256 KECCAK256 KECCAK256 PUSH4 0x2D302E35 0x2D ADDRESS 0x2E BALANCE 0x2D ORIGIN 0x2D ADDRESS 0x2E ORIGIN 0x2D ORIGIN 0x2E CALLDATALOAD 0x2D ADDRESS 0x2E CALLER PUSH4 0x2D31382E CALLDATALOAD 0x2D BALANCE 0x2E BALANCE 0x2D CALLER CALLVALUE 0x2E CALLDATASIZE 0x2D BALANCE CALLDATALOAD 0x2E CALLER 0x2D CALLER CODESIZE 0x2D CALLER CALLER 0x2E CALLVALUE PUSH4 0x2D302E34 0x2D ORIGIN 0x2E BALANCE 0x2D ADDRESS 0x2E CALLDATASIZE 0x2D CALLVALUE 0x2E ORIGIN 0x2D BALANCE 0x2D CALLDATASIZE 0x2E CALLER PUSH4 0x302D312E CALLDATALOAD 0x2C ADDRESS 0x2D ORIGIN 0x2E CODECOPY 0x2C ADDRESS 0x2D CALLVALUE 0x2E CALLVALUE PUSH4 0x302E312D ADDRESS 0x2E CALLDATASIZE 0x2C ADDRESS 0x2E ORIGIN 0x2D BALANCE 0x2E ORIGIN 0x2C ADDRESS 0x2E CALLER 0x2D BALANCE 0x2E CODESIZE KECCAK256 KECCAK256 KECCAK256 NUMBER ORIGIN CALLER 0x2E CALLDATASIZE 0x2C CALLVALUE ORIGIN 0x2E ORIGIN 0x2C CALLER CALLDATALOAD 0x2E CALLDATACOPY 0x2C ORIGIN CALLDATACOPY 0x2E CALLDATASIZE 0x2C CALLDATALOAD ORIGIN 0x2E ORIGIN 0x2C ORIGIN CALLER NUMBER CALLDATALOAD CALLVALUE 0x2E CALLDATALOAD 0x2C ORIGIN ORIGIN 0x2E CALLVALUE 0x2C CALLDATALOAD CALLDATASIZE 0x2E CALLDATASIZE 0x2C ORIGIN ORIGIN 0x2C CALLDATALOAD CODECOPY 0x2E ORIGIN 0x2C ORIGIN BALANCE 0x2E CODECOPY PUSH27 0x204D39352E372C36382E3963302E322D302E392C302E342D312E33 0x2C ADDRESS 0x2E CALLVALUE 0x2D BALANCE 0x2E CALLDATACOPY PUSH4 0x312E392D BALANCE CALLVALUE 0x2D CALLDATALOAD 0x2E CALLDATACOPY 0x2D ORIGIN CALLDATACOPY 0x2E CALLDATASIZE 0x2D BALANCE CODESIZE 0x2E CALLDATASIZE 0x2D CALLER CALLER 0x2E CALLDATALOAD KECCAK256 KECCAK256 KECCAK256 PUSH4 0x2D362E31 0x2D ORIGIN 0x2E CODESIZE 0x2D BALANCE CALLER 0x2D BALANCE 0x2E BALANCE 0x2D BALANCE CALLDATACOPY 0x2E ORIGIN 0x2C CALLVALUE 0x2E ORIGIN PUSH4 0x2D322E34 0x2C CALLER 0x2D CALLER 0x2E CALLDATACOPY 0x2C CALLDATASIZE 0x2E CALLVALUE 0x2D CALLVALUE 0x2E CALLER 0x2C BALANCE ADDRESS 0x2E BALANCE PUSH4 0x2D302E31 0x2C ADDRESS 0x2E CALLVALUE 0x2C ADDRESS 0x2C ADDRESS 0x2E CODESIZE 0x2C ADDRESS 0x2C BALANCE 0x2E CALLVALUE PUSH4 0x352E352C ADDRESS 0x2C BALANCE ADDRESS 0x2E CODESIZE 0x2C ADDRESS 0x2C BALANCE CALLDATASIZE 0x2E CALLDATASIZE 0x2C ADDRESS PUSH4 0x2D302E38 0x2D ADDRESS 0x2E CALLER 0x2D BALANCE 0x2E ORIGIN 0x2D ADDRESS 0x2E CALLDATASIZE 0x2D BALANCE 0x2E CALLDATASIZE 0x2D ADDRESS 0x2E CALLDATACOPY KECCAK256 KECCAK256 KECCAK256 PUSH4 0x2D332E31 0x2D ADDRESS 0x2E CALLDATACOPY 0x2D CALLDATALOAD 0x2E BALANCE 0x2D ORIGIN 0x2E CALLDATALOAD 0x2D CALLDATALOAD 0x2E CALLDATACOPY 0x2D CALLDATALOAD 0x2E CALLDATASIZE PUSH4 0x2D302E36 0x2D ORIGIN 0x2E CODECOPY 0x2C ADDRESS 0x2E CALLVALUE 0x2D CALLDATALOAD 0x2E CALLER 0x2C ORIGIN 0x2E CODECOPY 0x2D CALLDATACOPY PUSH4 0x322E352D BALANCE 0x2E CALLDATACOPY 0x2C CALLDATALOAD 0x2E CALLDATACOPY 0x2D BALANCE 0x2E CALLDATASIZE 0x2C CODESIZE 0x2E CALLVALUE 0x2C ADDRESS 0x2E ORIGIN PUSH4 0x322E322C BALANCE 0x2E CALLDATALOAD 0x2C CALLER 0x2E CALLDATALOAD 0x2C CALLER 0x2E CALLDATASIZE 0x2C CALLER 0x2E CODECOPY 0x2C CALLDATASIZE PUSH4 0x302E362C ORIGIN 0x2E CODECOPY 0x2C ADDRESS 0x2E CALLDATASIZE 0x2C CALLDATASIZE 0x2C BALANCE 0x2C CODESIZE 0x2E CODECOPY KECCAK256 KECCAK256 KECCAK256 PUSH4 0x302E312C ADDRESS 0x2E CODECOPY 0x2C ADDRESS 0x2E ORIGIN 0x2C ORIGIN 0x2E ORIGIN 0x2C ADDRESS 0x2E CODESIZE 0x2C ORIGIN 0x2E CALLDATASIZE NUMBER CODESIZE CALLDATACOPY 0x2E CODECOPY 0x2C CALLDATALOAD CALLDATACOPY 0x2E CALLDATASIZE 0x2C CODECOPY ORIGIN 0x2E CALLDATALOAD 0x2C CALLDATASIZE ORIGIN 0x2E CALLER 0x2C CODECOPY CALLDATALOAD 0x2E CALLDATACOPY 0x2C CALLDATASIZE CODESIZE 0x2E CODECOPY PUSH27 0x204D37392E392C36332E38632D322E382C342E372D352E362C392E ORIGIN 0x2D CODESIZE 0x2E CALLVALUE 0x2C BALANCE CALLER 0x2E CODESIZE PUSH4 0x302E352D ADDRESS 0x2E ORIGIN 0x2C BALANCE 0x2D ADDRESS 0x2E CALLDATASIZE 0x2C BALANCE 0x2E CALLVALUE 0x2D BALANCE KECCAK256 KECCAK256 KECCAK256 PUSH4 0x322D322C CALLVALUE 0x2E CALLDATALOAD 0x2D ORIGIN 0x2E CALLDATACOPY 0x2C CALLDATACOPY 0x2E ORIGIN 0x2D BALANCE 0x2E CODECOPY PUSH4 0x322E372C ADDRESS 0x2E CODESIZE 0x2C CALLVALUE 0x2E ORIGIN 0x2C ORIGIN 0x2E CALLDATACOPY 0x2C CALLVALUE 0x2E CODESIZE 0x2C CALLDATALOAD 0x2E CALLER PUSH4 0x312C342E CALLVALUE 0x2D ORIGIN 0x2E CALLDATASIZE 0x2C CODESIZE 0x2E CALLDATASIZE 0x2D CALLDATACOPY 0x2E CALLDATALOAD 0x2C CODESIZE 0x2E CODECOPY PUSH4 0x2D342E36 0x2C ADDRESS 0x2E ORIGIN 0x2D CODESIZE 0x2E CALLDATASIZE 0x2D BALANCE 0x2E CALLDATACOPY 0x2D BALANCE ORIGIN 0x2E CALLVALUE 0x2D CALLVALUE 0x2E BALANCE PUSH4 0x2D312E33 0x2D ADDRESS 0x2E CODESIZE 0x2D ORIGIN 0x2E ORIGIN 0x2D ADDRESS 0x2E CODECOPY 0x2D CALLER 0x2E CALLDATASIZE 0x2D ADDRESS 0x2E CALLER KECCAK256 KECCAK256 KECCAK256 PUSH4 0x2D332E33 0x2C BALANCE 0x2E CALLER 0x2D CALLDATASIZE 0x2E CALLDATACOPY 0x2C ORIGIN 0x2E CALLDATALOAD 0x2D BALANCE ADDRESS 0x2E BALANCE 0x2C CALLER 0x2E CALLER PUSH4 0x2D322E35 0x2C ADDRESS 0x2E CALLDATASIZE 0x2D CALLDATALOAD 0x2E ORIGIN 0x2C ADDRESS 0x2E CALLDATALOAD 0x2D CODESIZE 0x2C ADDRESS 0x2E CALLDATACOPY PUSH4 0x302E342C ADDRESS 0x2E CALLVALUE 0x2C ADDRESS 0x2E CODESIZE 0x2C ADDRESS 0x2E CALLDATACOPY 0x2C BALANCE 0x2E CALLER 0x2C BALANCE PUSH4 0x342E392C CALLER 0x2E CALLDATASIZE 0x2C BALANCE ADDRESS 0x2E CALLDATALOAD 0x2C CALLDATALOAD 0x2E CALLDATACOPY 0x2C BALANCE CALLDATASIZE 0x2E CALLDATASIZE 0x2C CALLDATASIZE 0x2E ORIGIN PUSH4 0x382E342C ADDRESS 0x2E CALLDATASIZE 0x2C BALANCE CALLDATASIZE 0x2E ORIGIN 0x2D BALANCE 0x2E CALLVALUE 0x2C ORIGIN ORIGIN 0x2E CALLDATALOAD 0x2D CALLDATASIZE 0x2E CODECOPY KECCAK256 KECCAK256 KECCAK256 NUMBER CODECOPY ORIGIN 0x2E CALLDATASIZE 0x2C CODESIZE BALANCE 0x2E ORIGIN 0x2C CODESIZE CALLDATACOPY 0x2E CODECOPY 0x2C CALLDATASIZE CODESIZE 0x2E CALLDATACOPY 0x2C CALLDATACOPY CODECOPY 0x2E CODECOPY 0x2C CALLDATASIZE CALLER 0x2E CODESIZE PUSH27 0x204D35322E322C33322E38632D302E382C302E332D312E322C302E CALLVALUE 0x2D BALANCE 0x2E CALLDATASIZE 0x2C ADDRESS 0x2E CALLDATALOAD NUMBER CALLER CODESIZE 0x2E BALANCE 0x2C CALLER CODESIZE 0x2E CALLDATACOPY 0x2C CALLER ADDRESS 0x2C CALLDATALOAD ORIGIN 0x2E ORIGIN 0x2C CALLER BALANCE 0x2E ORIGIN 0x2C CALLDATASIZE CALLDATALOAD 0x2E CODESIZE PUSH4 0x302E332C CALLER 0x2E CALLER 0x2C BALANCE 0x2E CALLVALUE 0x2C CALLDATASIZE 0x2E ORIGIN 0x2C CALLER 0x2E CALLDATACOPY 0x2C CODESIZE 0x2E CALLDATASIZE KECCAK256 KECCAK256 KECCAK256 PUSH4 0x342E342C CALLVALUE 0x2E CALLDATASIZE 0x2C CODECOPY 0x2E CODESIZE 0x2C CALLDATALOAD 0x2E CALLDATALOAD 0x2C BALANCE CALLDATALOAD 0x2E CALLDATACOPY 0x2C CALLVALUE 0x2E ORIGIN PUSH4 0x312E362D ADDRESS 0x2E CALLER 0x2C CALLER 0x2E ORIGIN 0x2D BALANCE 0x2C CALLVALUE 0x2E CALLDATASIZE 0x2D BALANCE 0x2E CALLVALUE PUSH4 0x2D322E37 0x2D CALLDATALOAD 0x2D CALLDATALOAD 0x2E ORIGIN 0x2D CODECOPY 0x2E CALLDATACOPY 0x2D CALLDATACOPY 0x2E CODESIZE 0x2D BALANCE CALLVALUE 0x2E CALLER PUSH4 0x2D302E31 0x2C ADDRESS 0x2E CALLDATALOAD 0x2C ADDRESS 0x2C BALANCE 0x2C ADDRESS 0x2E BALANCE 0x2C BALANCE 0x2E CALLDATALOAD PUSH4 0x302E382C CALLER 0x2C ADDRESS 0x2E CALLER 0x2C CALLDATALOAD 0x2E CALLDATASIZE 0x2D ORIGIN 0x2E BALANCE 0x2C CALLDATACOPY 0x2E CALLDATASIZE KECCAK256 KECCAK256 KECCAK256 PUSH4 0x2D322E32 0x2C BALANCE 0x2E CODECOPY 0x2D CALLVALUE 0x2E CODESIZE 0x2C ORIGIN 0x2E CALLER 0x2D CALLDATACOPY 0x2E CALLDATALOAD 0x2C BALANCE 0x2E BALANCE PUSH4 0x2D322E38 0x2D BALANCE 0x2E ORIGIN 0x2D CALLVALUE 0x2E BALANCE 0x2D CALLER 0x2E CALLDATASIZE 0x2D CALLVALUE 0x2E ORIGIN 0x2D CALLDATASIZE 0x2E CALLDATALOAD PUSH4 0x2D302E31 0x2D CALLER 0x2C BALANCE 0x2E BALANCE 0x2D CALLDATALOAD 0x2E CALLDATASIZE 0x2C CALLER 0x2E CALLER 0x2D CALLDATACOPY 0x2E CALLDATALOAD PUSH4 0x322E332D ORIGIN 0x2C CALLVALUE 0x2E CODESIZE 0x2D CALLER 0x2E CODESIZE 0x2C CALLDATACOPY 0x2E CALLVALUE 0x2D CALLDATALOAD 0x2E CALLVALUE PUSH4 0x312E332D ADDRESS 0x2E CODESIZE 0x2C BALANCE 0x2E CODECOPY 0x2D BALANCE 0x2E CALLDATALOAD 0x2C ORIGIN 0x2D CALLER 0x2E BALANCE KECCAK256 KECCAK256 KECCAK256 PUSH4 0x302E322D CALLVALUE 0x2E CALLVALUE 0x2C BALANCE 0x2E ORIGIN 0x2D CODESIZE 0x2E CALLDATASIZE 0x2C CALLER 0x2E BALANCE 0x2D BALANCE ORIGIN 0x2E CALLDATASIZE NUMBER CALLDATALOAD ADDRESS 0x2E ORIGIN 0x2C CALLER CALLDATASIZE 0x2E CALLVALUE 0x2C CALLDATALOAD BALANCE 0x2E ORIGIN 0x2C CALLER CALLVALUE 0x2E CODESIZE 0x2C CALLDATALOAD ORIGIN 0x2E ORIGIN 0x2C CALLER ORIGIN 0x2E CODESIZE PUSH27 0x204D35362E362C353963312E312C352C332E362C382E392C362E39 0x2C BALANCE ORIGIN 0x2E CALLDATALOAD PUSH4 0x332E372D CALLER 0x2E CALLDATALOAD 0x2C CALLDATASIZE 0x2D CALLDATACOPY 0x2E CALLDATALOAD 0x2C CALLDATACOPY 0x2E CALLER 0x2D BALANCE ORIGIN 0x2E ORIGIN KECCAK256 KECCAK256 KECCAK256 NUMBER CALLDATASIZE CALLDATASIZE 0x2C CALLDATALOAD CALLDATACOPY 0x2E CODESIZE 0x2C CALLDATASIZE BALANCE 0x2E CALLVALUE 0x2C CALLDATALOAD CALLDATACOPY 0x2E CODECOPY 0x2C CALLDATALOAD CALLDATASIZE 0x2E CALLDATASIZE 0x2C CALLDATALOAD CODECOPY PUSH27 0x222F3E20203C2F673E3C646566733E3C6C696E6561724772616469 PUSH6 0x6E742069643D 0x22 TIMESTAMP 0x22 KECCAK256 PUSH25 0x313D2230222079313D2230222078323D22323730222079323D 0x22 ORIGIN CALLDATACOPY ADDRESS 0x22 KECCAK256 PUSH8 0x72616469656E7455 PUSH15 0x6974733D227573657253706163654F PUSH15 0x557365223E3C73746F702073746F70 0x2D PUSH4 0x6F6C6F72 RETURNDATASIZE 0x22 0x23 DIFFICULTY BALANCE DIFFICULTY GASLIMIT CHAINID GASLIMIT 0x22 0x2F RETURNDATACOPY EXTCODECOPY PUSH20 0x746F70206F66667365743D2231222073746F702D PUSH4 0x6F6C6F72 RETURNDATASIZE 0x22 0x23 DIFFICULTY CALLDATACOPY CHAINID TIMESTAMP CHAINID NUMBER 0x22 KECCAK256 PUSH20 0x746F702D6F7061636974793D222E3939222F3E3C 0x2F PUSH13 0x696E6561724772616469656E74 RETURNDATACOPY EXTCODECOPY 0x2F PUSH5 0x6566733E3C PUSH21 0x65787420783D2233322E352220793D223233312220 PUSH7 0x6F6E742D73697A PUSH6 0x3D2232372220 PUSH7 0x696C6C3D222366 PUSH7 0x66222066696C74 PUSH6 0x723D2275726C 0x28 0x23 COINBASE 0x29 0x22 KECCAK256 PUSH7 0x6F6E742D66616D PUSH10 0x6C793D22506C7573204A PUSH2 0x6B61 PUSH19 0x74612053616E732C44656A6156752053616E73 0x2C 0x4E PUSH16 0x746F20436F6C6F7220456D6F6A692C41 PUSH17 0x706C6520436F6C6F7220456D6F6A692C73 PUSH2 0x6E73 0x2D PUSH20 0x657269662220666F6E742D7765696768743D2262 PUSH16 0x6C64223E000000000000000000000000 "
		},
		"gasEstimates": {
			"creation": {
				"codeDepositCost": "4799000",
				"executionCost": "infinite",
				"totalCost": "infinite"
			},
			"external": {
				"approve(address,uint256)": "infinite",
				"balanceOf(address)": "2946",
				"getAddress(string)": "infinite",
				"getAllNames()": "infinite",
				"getApproved(uint256)": "5251",
				"getId(string)": "infinite",
				"getRecord(string,uint8)": "infinite",
				"getRecords(string)": "infinite",
				"ids(string)": "infinite",
				"isApprovedForAll(address,address)": "infinite",
				"isOwner()": "2564",
				"isSet(string)": "infinite",
				"name()": "infinite",
				"names(uint256)": "infinite",
				"owner()": "2560",
				"ownerOf(uint256)": "3022",
				"price(string)": "infinite",
				"records(string)": "infinite",
				"register(string)": "infinite",
				"registerForAddress(string,address)": "infinite",
				"safeTransferFrom(address,address,uint256)": "infinite",
				"safeTransferFrom(address,address,uint256,bytes)": "infinite",
				"setApprovalForAll(address,bool)": "infinite",
				"setPrice(uint256,uint256,uint256)": "infinite",
				"setRecord(string,string,uint8)": "infinite",
				"setRecords(string,string,string,string,string,string)": "infinite",
				"supportsInterface(bytes4)": "820",
				"symbol()": "infinite",
				"tierOnePrice()": "2518",
				"tierThreePrice()": "2519",
				"tierTwoPrice()": "2518",
				"tld()": "infinite",
				"tokenURI(uint256)": "infinite",
				"transferFrom(address,address,uint256)": "infinite",
				"valid(string)": "infinite",
				"walletOfOwner(address)": "infinite",
				"withdraw()": "infinite"
			}
		},
		"methodIdentifiers": {
			"approve(address,uint256)": "095ea7b3",
			"balanceOf(address)": "70a08231",
			"getAddress(string)": "bf40fac1",
			"getAllNames()": "fb825e5f",
			"getApproved(uint256)": "081812fc",
			"getId(string)": "bee51f3b",
			"getRecord(string,uint8)": "9751e9f1",
			"getRecords(string)": "86e80b71",
			"ids(string)": "8a08677d",
			"isApprovedForAll(address,address)": "e985e9c5",
			"isOwner()": "8f32d59b",
			"isSet(string)": "e327ad61",
			"name()": "06fdde03",
			"names(uint256)": "4622ab03",
			"owner()": "8da5cb5b",
			"ownerOf(uint256)": "6352211e",
			"price(string)": "fe2c6198",
			"records(string)": "541e771d",
			"register(string)": "f2c298be",
			"registerForAddress(string,address)": "15bf7227",
			"safeTransferFrom(address,address,uint256)": "42842e0e",
			"safeTransferFrom(address,address,uint256,bytes)": "b88d4fde",
			"setApprovalForAll(address,bool)": "a22cb465",
			"setPrice(uint256,uint256,uint256)": "aa585d56",
			"setRecord(string,string,uint8)": "f5064fd0",
			"setRecords(string,string,string,string,string,string)": "f0f19346",
			"supportsInterface(bytes4)": "01ffc9a7",
			"symbol()": "95d89b41",
			"tierOnePrice()": "8600c8b2",
			"tierThreePrice()": "4e82dc89",
			"tierTwoPrice()": "d7e915d5",
			"tld()": "2d551432",
			"tokenURI(uint256)": "c87b56dd",
			"transferFrom(address,address,uint256)": "23b872dd",
			"valid(string)": "9791c097",
			"walletOfOwner(address)": "438b6300",
			"withdraw()": "3ccfd60b"
		}
	},
	"abi": [
		{
			"inputs": [
				{
					"internalType": "string",
					"name": "_tld",
					"type": "string"
				},
				{
					"internalType": "uint256",
					"name": "_tierOnePrice",
					"type": "uint256"
				},
				{
					"internalType": "uint256",
					"name": "_tierTwoPrice",
					"type": "uint256"
				},
				{
					"internalType": "uint256",
					"name": "_tierThreePrice",
					"type": "uint256"
				}
			],
			"stateMutability": "payable",
			"type": "constructor"
		},
		{
			"inputs": [],
			"name": "AlreadyRegistered",
			"type": "error"
		},
		{
			"inputs": [
				{
					"internalType": "string",
					"name": "name",
					"type": "string"
				}
			],
			"name": "InvalidName",
			"type": "error"
		},
		{
			"inputs": [],
			"name": "Unauthorized",
			"type": "error"
		},
		{
			"anonymous": false,
			"inputs": [
				{
					"indexed": true,
					"internalType": "address",
					"name": "owner",
					"type": "address"
				},
				{
					"indexed": true,
					"internalType": "address",
					"name": "approved",
					"type": "address"
				},
				{
					"indexed": true,
					"internalType": "uint256",
					"name": "tokenId",
					"type": "uint256"
				}
			],
			"name": "Approval",
			"type": "event"
		},
		{
			"anonymous": false,
			"inputs": [
				{
					"indexed": true,
					"internalType": "address",
					"name": "owner",
					"type": "address"
				},
				{
					"indexed": true,
					"internalType": "address",
					"name": "operator",
					"type": "address"
				},
				{
					"indexed": false,
					"internalType": "bool",
					"name": "approved",
					"type": "bool"
				}
			],
			"name": "ApprovalForAll",
			"type": "event"
		},
		{
			"anonymous": false,
			"inputs": [
				{
					"indexed": true,
					"internalType": "address",
					"name": "from",
					"type": "address"
				},
				{
					"indexed": true,
					"internalType": "address",
					"name": "to",
					"type": "address"
				},
				{
					"indexed": true,
					"internalType": "uint256",
					"name": "tokenId",
					"type": "uint256"
				}
			],
			"name": "Transfer",
			"type": "event"
		},
		{
			"inputs": [
				{
					"internalType": "address",
					"name": "to",
					"type": "address"
				},
				{
					"internalType": "uint256",
					"name": "tokenId",
					"type": "uint256"
				}
			],
			"name": "approve",
			"outputs": [],
			"stateMutability": "nonpayable",
			"type": "function"
		},
		{
			"inputs": [
				{
					"internalType": "address",
					"name": "owner",
					"type": "address"
				}
			],
			"name": "balanceOf",
			"outputs": [
				{
					"internalType": "uint256",
					"name": "",
					"type": "uint256"
				}
			],
			"stateMutability": "view",
			"type": "function"
		},
		{
			"inputs": [
				{
					"internalType": "string",
					"name": "name",
					"type": "string"
				}
			],
			"name": "getAddress",
			"outputs": [
				{
					"internalType": "address",
					"name": "",
					"type": "address"
				}
			],
			"stateMutability": "view",
			"type": "function"
		},
		{
			"inputs": [],
			"name": "getAllNames",
			"outputs": [
				{
					"internalType": "string[]",
					"name": "",
					"type": "string[]"
				}
			],
			"stateMutability": "view",
			"type": "function"
		},
		{
			"inputs": [
				{
					"internalType": "uint256",
					"name": "tokenId",
					"type": "uint256"
				}
			],
			"name": "getApproved",
			"outputs": [
				{
					"internalType": "address",
					"name": "",
					"type": "address"
				}
			],
			"stateMutability": "view",
			"type": "function"
		},
		{
			"inputs": [
				{
					"internalType": "string",
					"name": "name",
					"type": "string"
				}
			],
			"name": "getId",
			"outputs": [
				{
					"internalType": "uint256",
					"name": "",
					"type": "uint256"
				}
			],
			"stateMutability": "view",
			"type": "function"
		},
		{
			"inputs": [
				{
					"internalType": "string",
					"name": "name",
					"type": "string"
				},
				{
					"internalType": "enum RecordType",
					"name": "recordType",
					"type": "uint8"
				}
			],
			"name": "getRecord",
			"outputs": [
				{
					"internalType": "string",
					"name": "",
					"type": "string"
				}
			],
			"stateMutability": "view",
			"type": "function"
		},
		{
			"inputs": [
				{
					"internalType": "string",
					"name": "name",
					"type": "string"
				}
			],
			"name": "getRecords",
			"outputs": [
				{
					"internalType": "string[]",
					"name": "",
					"type": "string[]"
				},
				{
					"internalType": "address",
					"name": "",
					"type": "address"
				}
			],
			"stateMutability": "view",
			"type": "function"
		},
		{
			"inputs": [
				{
					"internalType": "string",
					"name": "",
					"type": "string"
				}
			],
			"name": "ids",
			"outputs": [
				{
					"internalType": "uint256",
					"name": "",
					"type": "uint256"
				}
			],
			"stateMutability": "view",
			"type": "function"
		},
		{
			"inputs": [
				{
					"internalType": "address",
					"name": "owner",
					"type": "address"
				},
				{
					"internalType": "address",
					"name": "operator",
					"type": "address"
				}
			],
			"name": "isApprovedForAll",
			"outputs": [
				{
					"internalType": "bool",
					"name": "",
					"type": "bool"
				}
			],
			"stateMutability": "view",
			"type": "function"
		},
		{
			"inputs": [],
			"name": "isOwner",
			"outputs": [
				{
					"internalType": "bool",
					"name": "",
					"type": "bool"
				}
			],
			"stateMutability": "view",
			"type": "function"
		},
		{
			"inputs": [
				{
					"internalType": "string",
					"name": "name",
					"type": "string"
				}
			],
			"name": "isSet",
			"outputs": [
				{
					"internalType": "bool",
					"name": "",
					"type": "bool"
				}
			],
			"stateMutability": "pure",
			"type": "function"
		},
		{
			"inputs": [],
			"name": "name",
			"outputs": [
				{
					"internalType": "string",
					"name": "",
					"type": "string"
				}
			],
			"stateMutability": "view",
			"type": "function"
		},
		{
			"inputs": [
				{
					"internalType": "uint256",
					"name": "",
					"type": "uint256"
				}
			],
			"name": "names",
			"outputs": [
				{
					"internalType": "string",
					"name": "",
					"type": "string"
				}
			],
			"stateMutability": "view",
			"type": "function"
		},
		{
			"inputs": [],
			"name": "owner",
			"outputs": [
				{
					"internalType": "address payable",
					"name": "",
					"type": "address"
				}
			],
			"stateMutability": "view",
			"type": "function"
		},
		{
			"inputs": [
				{
					"internalType": "uint256",
					"name": "tokenId",
					"type": "uint256"
				}
			],
			"name": "ownerOf",
			"outputs": [
				{
					"internalType": "address",
					"name": "",
					"type": "address"
				}
			],
			"stateMutability": "view",
			"type": "function"
		},
		{
			"inputs": [
				{
					"internalType": "string",
					"name": "name",
					"type": "string"
				}
			],
			"name": "price",
			"outputs": [
				{
					"internalType": "uint256",
					"name": "",
					"type": "uint256"
				}
			],
			"stateMutability": "view",
			"type": "function"
		},
		{
			"inputs": [
				{
					"internalType": "string",
					"name": "",
					"type": "string"
				}
			],
			"name": "records",
			"outputs": [
				{
					"internalType": "string",
					"name": "avatar",
					"type": "string"
				},
				{
					"internalType": "string",
					"name": "twitterTag",
					"type": "string"
				},
				{
					"internalType": "string",
					"name": "website",
					"type": "string"
				},
				{
					"internalType": "string",
					"name": "email",
					"type": "string"
				},
				{
					"internalType": "string",
					"name": "description",
					"type": "string"
				}
			],
			"stateMutability": "view",
			"type": "function"
		},
		{
			"inputs": [
				{
					"internalType": "string",
					"name": "name",
					"type": "string"
				}
			],
			"name": "register",
			"outputs": [],
			"stateMutability": "payable",
			"type": "function"
		},
		{
			"inputs": [
				{
					"internalType": "string",
					"name": "name",
					"type": "string"
				},
				{
					"internalType": "address",
					"name": "_receiver",
					"type": "address"
				}
			],
			"name": "registerForAddress",
			"outputs": [],
			"stateMutability": "nonpayable",
			"type": "function"
		},
		{
			"inputs": [
				{
					"internalType": "address",
					"name": "from",
					"type": "address"
				},
				{
					"internalType": "address",
					"name": "to",
					"type": "address"
				},
				{
					"internalType": "uint256",
					"name": "tokenId",
					"type": "uint256"
				}
			],
			"name": "safeTransferFrom",
			"outputs": [],
			"stateMutability": "nonpayable",
			"type": "function"
		},
		{
			"inputs": [
				{
					"internalType": "address",
					"name": "from",
					"type": "address"
				},
				{
					"internalType": "address",
					"name": "to",
					"type": "address"
				},
				{
					"internalType": "uint256",
					"name": "tokenId",
					"type": "uint256"
				},
				{
					"internalType": "bytes",
					"name": "_data",
					"type": "bytes"
				}
			],
			"name": "safeTransferFrom",
			"outputs": [],
			"stateMutability": "nonpayable",
			"type": "function"
		},
		{
			"inputs": [
				{
					"internalType": "address",
					"name": "operator",
					"type": "address"
				},
				{
					"internalType": "bool",
					"name": "approved",
					"type": "bool"
				}
			],
			"name": "setApprovalForAll",
			"outputs": [],
			"stateMutability": "nonpayable",
			"type": "function"
		},
		{
			"inputs": [
				{
					"internalType": "uint256",
					"name": "_tierOnePrice",
					"type": "uint256"
				},
				{
					"internalType": "uint256",
					"name": "_tierTwoPrice",
					"type": "uint256"
				},
				{
					"internalType": "uint256",
					"name": "_tierThreePrice",
					"type": "uint256"
				}
			],
			"name": "setPrice",
			"outputs": [],
			"stateMutability": "nonpayable",
			"type": "function"
		},
		{
			"inputs": [
				{
					"internalType": "string",
					"name": "name",
					"type": "string"
				},
				{
					"internalType": "string",
					"name": "record",
					"type": "string"
				},
				{
					"internalType": "enum RecordType",
					"name": "recordType",
					"type": "uint8"
				}
			],
			"name": "setRecord",
			"outputs": [],
			"stateMutability": "nonpayable",
			"type": "function"
		},
		{
			"inputs": [
				{
					"internalType": "string",
					"name": "name",
					"type": "string"
				},
				{
					"internalType": "string",
					"name": "_avatar",
					"type": "string"
				},
				{
					"internalType": "string",
					"name": "_twitterTag",
					"type": "string"
				},
				{
					"internalType": "string",
					"name": "_website",
					"type": "string"
				},
				{
					"internalType": "string",
					"name": "_email",
					"type": "string"
				},
				{
					"internalType": "string",
					"name": "_description",
					"type": "string"
				}
			],
			"name": "setRecords",
			"outputs": [],
			"stateMutability": "nonpayable",
			"type": "function"
		},
		{
			"inputs": [
				{
					"internalType": "bytes4",
					"name": "interfaceId",
					"type": "bytes4"
				}
			],
			"name": "supportsInterface",
			"outputs": [
				{
					"internalType": "bool",
					"name": "",
					"type": "bool"
				}
			],
			"stateMutability": "view",
			"type": "function"
		},
		{
			"inputs": [],
			"name": "symbol",
			"outputs": [
				{
					"internalType": "string",
					"name": "",
					"type": "string"
				}
			],
			"stateMutability": "view",
			"type": "function"
		},
		{
			"inputs": [],
			"name": "tierOnePrice",
			"outputs": [
				{
					"internalType": "uint256",
					"name": "",
					"type": "uint256"
				}
			],
			"stateMutability": "view",
			"type": "function"
		},
		{
			"inputs": [],
			"name": "tierThreePrice",
			"outputs": [
				{
					"internalType": "uint256",
					"name": "",
					"type": "uint256"
				}
			],
			"stateMutability": "view",
			"type": "function"
		},
		{
			"inputs": [],
			"name": "tierTwoPrice",
			"outputs": [
				{
					"internalType": "uint256",
					"name": "",
					"type": "uint256"
				}
			],
			"stateMutability": "view",
			"type": "function"
		},
		{
			"inputs": [],
			"name": "tld",
			"outputs": [
				{
					"internalType": "string",
					"name": "",
					"type": "string"
				}
			],
			"stateMutability": "view",
			"type": "function"
		},
		{
			"inputs": [
				{
					"internalType": "uint256",
					"name": "tokenId",
					"type": "uint256"
				}
			],
			"name": "tokenURI",
			"outputs": [
				{
					"internalType": "string",
					"name": "",
					"type": "string"
				}
			],
			"stateMutability": "view",
			"type": "function"
		},
		{
			"inputs": [
				{
					"internalType": "address",
					"name": "from",
					"type": "address"
				},
				{
					"internalType": "address",
					"name": "to",
					"type": "address"
				},
				{
					"internalType": "uint256",
					"name": "tokenId",
					"type": "uint256"
				}
			],
			"name": "transferFrom",
			"outputs": [],
			"stateMutability": "nonpayable",
			"type": "function"
		},
		{
			"inputs": [
				{
					"internalType": "string",
					"name": "name",
					"type": "string"
				}
			],
			"name": "valid",
			"outputs": [
				{
					"internalType": "bool",
					"name": "",
					"type": "bool"
				}
			],
			"stateMutability": "pure",
			"type": "function"
		},
		{
			"inputs": [
				{
					"internalType": "address",
					"name": "_owner",
					"type": "address"
				}
			],
			"name": "walletOfOwner",
			"outputs": [
				{
					"internalType": "uint256[]",
					"name": "",
					"type": "uint256[]"
				}
			],
			"stateMutability": "view",
			"type": "function"
		},
		{
			"inputs": [],
			"name": "withdraw",
			"outputs": [],
			"stateMutability": "nonpayable",
			"type": "function"
		}
	]
}